:020000040800F2
:1000000050040020FD1200083512000837120008C5
:10001000391200083B1200083D12000800000000E1
:100020000000000000000000000000003F12000877
:1000300041120008000000004312000845120008A9
:100040002113000825130008291300082D130008A8
:10005000311300084912000835130008391300084D
:100060003D13000841130008451300084913000818
:100070004D130008511300085513000859130008C8
:100080005D13000861130008651300086913000878
:100090006D13000871130008751300087913000828
:1000A0007D130008811300088513000889130008D8
:1000B0008D13000891130008951300089913000888
:1000C0009D130008A1130008A5130008A913000838
:1000D000AD1300084B120008B1130008B513000857
:1000E00055120008B9130008BD1300082DE9F843A4
:1000F0000646DFF8B0543078C1074AD5686800F08A
:100100000C00042807D0686800F00C0008280BD108
:100110006868C10308D5296888033AD57068002843
:1001200040F0C080012069E17068B0F5803F0FD0D9
:1001300038B9296821F480312960286820F48020AA
:1001400009E0B0F5A02F296807D141F4802129608A
:10015000286840F48030286006E021F4803129606E
:100160002A6822F480222A60706868B100F03AFAA6
:1001700004462968880300F1958000F033FA001BDB
:100180006528F6D3032039E100F02CFA04462868EC
:10019000810340F1878000F025FA001B6528F6D323
:1001A000F0E700F01FFA001B022840F2AA80E9E7FE
:1001B000306970B10121396000F014FA04462868F2
:1001C000810700F1DC8000F00DFA001B0228F6D94F
:1001D000D8E7386000F006FA04462868810765D53C
:1001E00000F000FA001B0228F7D9CBE7086000F006
:1001F000F9F90446686A810777D500F0F3F9001B26
:100200000228F7D9BEE708B9286A09E00528286A54
:1002100006D140F004002862286A40F0010005E0A1
:10022000400840002862286A20F00400286241F259
:100230008938F06868B100F0D5F98146286A8107ED
:1002400000F1AA8000F0CEF9A0EB09004045F5D3FB
:1002500098E700F0C7F98146286A810740F19C8041
:1002600000F0C0F9A0EB09004045F5D38AE700F0A3
:10027000B9F9001B022840F2A28083E700F0B2F92E
:10028000001B022840F2B5807CE700F0B9F8044674
:100290002868810140F1B18000F0A4F9001B022818
:1002A000F6D96FE73078DFF8087381071BD56868E7
:1002B00010F00C0F09D0686800F00C0008287FF4DB
:1002C00077AF6868C1033FF573AF2968880703D526
:1002D000306901287FF426AF2968706921F0F801A0
:1002E00041EAC0012960317808071DD5B069DFF8FF
:1002F000C41200283FF47AAF01220A6000F072F9BC
:100300000446686A81077FF54CAFDFF89C120868E5
:10031000C0084FF47A72B0FBF2F2009200BF00986E
:10032000411E00280091F9D13078410739D5E8699C
:100330000024C10009D4E86940F08050E86101243C
:10034000E86900F0805000900098DFF86C82D8F8DF
:100350000010C8051BD4D8F8000040F48070C8F81D
:10036000000000F03FF98146D8F80010C8050ED40F
:1003700000F038F9A0EB09006528F5D302E72868FA
:10038000716920F0F80040EAC1002860ABE7F0682E
:1003900001287FF438AF3FE71CB1E86920F08050B6
:1003A000E861F06948B3696801F00C0108293FF47D
:1003B000B9AE02287FF469AF00F022F8044628683D
:1003C00081013FF554AF306AB0F5803F05D16968CF
:1003D000B06821F40031014369606968306A21F432
:1003E00074110143706A01436960012000F009F84B
:1003F0000446286881017FF541AF0020BDE8F28303
:100400000020386600F0EEB82DE9F8436B4F054642
:100410003868894600F00700484502D200F087F8A6
:1004200079D128685F4C810712D5400703D56068F1
:1004300040F4E06060602978080703D5606840F404
:10044000605060606168A86821F0F001014361605C
:100450002878C10757D56868012802D121688A0326
:1004600003E0022803D121688A0103D453E0226803
:10047000910750D56168890840EA8100606041F2C7
:10048000893800F0AFF80646686801280BD160682B
:1004900000F00C00042836D000F0A4F8801B404582
:1004A000F5D303202DE0022837D1606800F00C005E
:1004B000082828D000F096F8801B4045F5D3F0E7D7
:1004C0002878410705D56168E86821F4E0610143B7
:1004D00061602878010706D56068296920F46050BA
:1004E00040EAC100606000F02DF862683449C2F350
:1004F0000312895C2C4AC8401060002000F078F894
:100500000020BDE8F283386800F007008145D7D2AB
:1005100000F00DF8D4D00120F3E7606810F00C0F64
:10052000F1D000F05FF8801B4045F6D3B9E7396899
:10053000C90849EAC1013960386800F00700484538
:10054000704700001F4919480A6802F00C03082B85
:1005500000D0704710B500BF1DA4C2F38343D2037F
:10056000E35C09D5096800BF1DA2C1F340415843AF
:10057000515CB0FBF1F010BD18461349484310BD63
:100580000948104A006813681049C3F3022206E0C4
:1005900005480C4A006813680C49C3F3C222895C01
:1005A000C8407047001002400C00002000127A0082
:1005B000000042428004424200700040002002409D
:1005C000EC1100080410024000093D001813000857
:1005D00002030405060708090A0B0C0D0E0F101084
:1005E0000102000001484068704700BF0000002081
:1005F00038B50D4D0D4A297804464FF47A70B0FB9A
:10060000F1F11068B0FBF1F000F055F850B9102C82
:1006100008D2002221464FF0FF3000F025F8AC60F0
:10062000002032BD012032BD000000200C0000205F
:100630000901020081B006D5294A00F00F001044DC
:1006400000F8041C01E0274B195401B07047264AFA
:1006500013684FF6FF0100020B4000F4E0601843FE
:10066000224908431060704738B51F4B1C68C4F31B
:100670000223C3F10704052C28BF04241D1D072DE8
:1006800034BF0023DB1E012505FA04F4641E21405B
:10069000994005FA03F35B1E1A401143BDE834404C
:1006A000C6E7012200F01F01114BFFE78A40400915
:1006B00043F82020704710B5401EB0F1807F01D371
:1006C000012010BD0B4C60600F214FF0FF30FFF791
:1006D000AFFF0022A26007202060002010BD0000B4
:1006E00018ED00E000E400E00CED00E00000FA0589
:1006F00000E100E010E000E038B5040001D1012085
:1007000032BD00F022F808B900F023F800F013F829
:1007100000F024F8FFE7416100F001F832BD2068E5
:10072000C16841F40051C1600020686020206870F9
:10073000A87000207047242068702068C16821F4E8
:100740000051C160204600F0ACB904F1380568786A
:10075000704700212970204600F030BA20680169F6
:1007600021F4904101612068416921F02A0170471C
:100770002DE9F843054605F138070C46787820281E
:10078000164698463CD1002C14BF002E012038D0CC
:100790003878012834D00121397021200021796076
:1007A0007870FFF71FFFAE848146EE8403E029686E
:1007B00014F8010B4860E88C28B3E98C481EE884E3
:1007C0004B46A868CDF80080B0F5805F0DD100F0F1
:1007D00024F870B920882968C0F3080048602869A7
:1007E000002814BF641CA41CE5E700F016F80028DC
:1007F000DDD0032005E0202078700020387000E074
:100800000220BDE8F283CDF800804B460022402153
:1008100000F005F80028EED0EBE700228021284602
:10082000AEE0416921F040014161606B704738B52D
:10083000044625682968EA686B6911F00F0007D142
:1008400088065DD590065BD52046BDE83240DDE0E8
:10085000D80702D412F4907F52D0C80705D5D0052E
:1008600003D5E06B40F00100E063480705D5D807E9
:1008700003D5E06B40F00200E063880705D5D80798
:1008800003D5E06B40F00400E063080705D5D80706
:1008900003D5E06B40F00800E063E06B00286ED009
:1008A000890604D5900644BF204600F0AFF82068C2
:1008B0004069E16B0A0701D440061BD5204600F0D1
:1008C00091F8206841694A060FD5FFF7AAFF60B189
:1008D0000FF22D114163606B00F0B6F900284ED085
:1008E000606B416BBDE8344008472046BDE83240AC
:1008F00000F006BA204600F003FA0020E06331BDA4
:1009000008062CD510062AD594F83900212836D1AE
:10091000A168206AB1F5805F0DD10188C1F308019B
:100920006960206918B9216A881C206207E0206A82
:10093000411C216203E0411C216200786860E08C68
:10094000401EE08480B2D0B92068C16821F08001E7
:10095000C1602068C16841F04001C16031BD4806F6
:100960000DD550060BD5E86820F04000E860202146
:1009700084F839102046BDE8324000F0C2B931BDDC
:100980002DE9F041069C05460E4690461F46286814
:1009900001683140B1420CBF01200020404517D111
:1009A00014F1010FF3D024B1FFF71CFEC01B8442E9
:1009B000EDD22868C16821F4D07100F00CF805F17F
:1009C000380020214170817000210170032000E077
:1009D0000020BDE8F081C1602868416949084900EC
:1009E000416170470168CA6822F49072CA60016868
:1009F0004A69520852004A61202180F83A10704733
:100A0000406A0021C185C18400F07AB980B590F8B0
:100A10003A10222943D18268B2F5805F14D1826AEC
:100A2000016941B903685968C1F308011180826AFC
:100A3000911C816218E001684B6803F0FF0313808A
:100A4000816A4A1C82620FE001690029816A04D12F
:100A50004A1C82620268536805E04A1C826202688E
:100A6000536803F07F030B70C18D491EC18589B2A5
:100A700099B90168CA6822F02002CA600168CA6890
:100A800022F48072CA6001684A69520852004A61C1
:100A9000202180F83A1000F035F9002002BD022034
:100AA00002BD2DE9F0470446642521680A69E06823
:100AB00022F4405202430A611926CA6831480240B2
:100AC000A06802432069024360690243CA604A6920
:100AD000A06922F4407202432B484A6181420ED140
:100AE000FFF756FD0746FFF753FD8046FFF750FD21
:100AF0008146FFF74DFD8246FFF74AFD0DE0FFF707
:100B00003FFD0746FFF73CFD8046FFF739FD814674
:100B1000FFF736FD8246FFF733FD06FB09F96168F2
:100B200089007743B7FBF1F206FB08F7B7FBF1F357
:100B3000B9FBF1F7B7FBF5F705FB17331B013233B0
:100B4000B3FBF5F3B2FBF5F203F0F00303EB021392
:100B500006FB0AF74643B7FBF1F2B6FBF1F064215E
:100B6000B0FBF1F005FB10252D0132356420B5FBFB
:100B7000F0F0216800F00F00C3188B60BDE8F0872B
:100B800000000000F3E9FFFF0038014080B52A486B
:100B90002A4901604FF4E131416000218160C16068
:100BA00001610C21416100218161C161FFF7A4FD58
:100BB00018B1BDE8014000F0DCB801BD18B585B042
:100BC000044601A8102100F0D5F821681B4A914283
:100BD00030D11B481B4C026842F480420260022262
:100BE000016801F4804100910099016841F004011D
:100BF00001604FF40071006800F00400009000985C
:100C0000019103200490029201A9204600F0B6F859
:100C10004FF480600021019002910391204601A9C8
:100C200000F0ACF8002200212520FFF71DFD252053
:100C3000FFF737FD06B010BD10000020003801405E
:100C4000181002400008014038B590F82120002417
:100C5000022A00F1340103D00420486001243EE060
:100C60000268136823F00E0313600268DFF8743023
:100C700015686D086D00156002689A4208BF012270
:100C800022D0DFF864309A4208BF10221CD0DFF86F
:100C90005C309A4208BF4FF4807215D0DFF85030B4
:100CA0009A4208BF4FF480520ED0DFF848309A4283
:100CB00008BF4FF4803207D0DFF83C309A420CBFB7
:100CC0004FF480124FF08072DFF830301A6001224A
:100CD00080F8212080F82040096801B1884720462B
:100CE00032BD0000080002401C00024030000240FB
:100CF00044000240580002406C00024004000240E0
:100D000070477047704780B500F028F900F005F88B
:100D100000F036F9FFF73AFFFEE700B58FB005A8FF
:100D2000282100F027F86846142100F023F801205C
:100D3000059000214FF4803006900D9007914FF4FC
:100D4000E010012202210E9009920C9105A8FFF7F4
:100D5000CDF90F2002210090019100204FF4806115
:100D600002900391049002216846FFF74DFB0FB0FB
:100D700000BD7047002200F079B900002DE9F84F5E
:100D800083460F46002080466649674A674B4FF00E
:100D90000F094FF0010A3C680AFA08F606EA040E49
:100DA000B64540F0A4807C683CB3012C1AD0022CDC
:100DB0001DD0032C2ED0112C16D0122C1AD05C4D25
:100DC000AC421CBF5B4DAC4217D05B4DAC421CBF6C
:100DD0005A4DAC4211D05A4DAC421CBF594DAC4299
:100DE0000BD018E0F86816E0F868001D13E0F8680A
:100DF000083010E0F8680C300DE0B86808B904203D
:100E000009E0012819BF0820CBF814600820CBF8AE
:100E1000106000E00020BEF5807F03D2DC464FEA80
:100E2000880404E0A8F108040BF1040CA400DCF829
:100E3000005009FA04F6B54300FA04F42C43CCF848
:100E400000407C68E40052D51C6844F001041C603A
:100E50004FEA980C1D6805F001050095009C52F8BA
:100E60002C604FEA880404F00C0409FA04F526EA21
:100E70000505354EB34508BF00260ED0334EB345A9
:100E800008BF012609D0324EB34508BF022604D060
:100E9000304EB3450CBF0326042606FA04F42C4357
:100EA00042F82C406FEA0E067C68E50304D50D6815
:100EB0004EEA05050D6002E00C6834400C607C6869
:100EC000A5034C684CBF4EEA040434404C607C6877
:100ED000E5028C684CBF4EEA040434408C607C68A8
:100EE000A502CC684CBF4EEA04043440CC6008F143
:100EF0000108B8F10F0F7FF64EAFBDE8F18F81B05A
:100F000002B90904016101B07047C2685140C16073
:100F10007047114A136803421CBF106000F07AB892
:100F20007047000000040140080001401810024012
:100F3000000011100000121000002110000022100B
:100F4000000031100000321000080140000C014088
:100F500000100140001401401404014080B507480E
:100F6000016841F0100101600320FFF770FB0020D1
:100F7000FFF73EFB00F094F8002002BD0020024085
:100F800018B585B068461021FFF7F4FE2C480468B8
:100F900044F01004046001682A4C01F0100104912F
:100FA0000499016841F020010160026802F020020A
:100FB000049201220499016841F0040101604FF498
:100FC0000041006800F00400049004982046FFF7F8
:100FD00096FF4FF4C040009001201B490191029000
:100FE00069462046FFF7CAFE0121019102914FF4A4
:100FF000004002210090039120466946FFF7BEFEA3
:10100000002200212820FFF72FFB2820FFF749FBB3
:1010100006B010BDB0F5005F00D070471FB5684640
:101020000EA1084C0D2200F067F800F011F86423BF
:101030000D2269460548FFF79BFB00F009F81FBD2C
:101040001810024000100140000021101000002084
:101050004FF400412046FFF758BF00006B65792030
:10106000636865636B6564210A00000000B500BF1A
:10107000130096469446103928BFA0E80C50FAD8C1
:101080005FEA417C28BF0CC048BF40F8042BC90769
:1010900028BF20F8022B48BF00F8012B00BD00003C
:1010A00080B51348016841F001010160026802F057
:1010B000010200920099416841F08051416040680E
:1010C00000F08050009000980520FFF7C0FA002241
:1010D00000210520FFF7C8FA0520FFF7E2FA0548CE
:1010E000016821F0E06141F00071016001BD00BFC5
:1010F000181002400400014062B38B0708D0521E52
:1011000011F8013B00F8013B00F024808B07F6D179
:10111000830740F0208000BF103A07D330B4B1E815
:101120003810103AA0E83810F9D230BC530724BF69
:10113000B1E80810A0E8081044BF51F8043B40F89B
:10114000043BD20724BF31F8022B20F8022B44BF06
:101150000B7803707047121F17D35B0009D151F849
:10116000043B20F8023B1B0C121F20F8023BF6D276
:101170000BE051F8043B00F8013B1B0A20F8023B4E
:101180001B0C121F00F8013BF3D238BF121D521E78
:1011900024BF11F8013B00F8013BF8D8704700006C
:1011A0000E49086840F0010008604A680C48024097
:1011B0004A600B680B4803400B60086820F48020ED
:1011C00008604FF41F004A6822F4FE024A608860FB
:1011D0004FF00060044908607047000000100240B2
:1011E0000000FFF8FFFFF6FE08ED00E00000000041
:1011F00000000000010203040607080930B5016879
:1012000084684218416802EB5103C9070BD54C446E
:1012100009E012F9011B12F8015B002904F8015BD7
:1012200005D5491CF9D19A42F3D10C3030BD491E85
:10123000F1D5F8E77047FEE7FEE7FEE7FEE7704707
:101240007047704700F012B870470148FFF7EFBAD7
:101250001000002080B54FF40050FFF75AFEBDE8A3
:1012600002404FF48040FFF754BE000002494A6834
:10127000087882184A6070470000002010B50749BE
:1012800079441831064C7C44163404E00A68081D81
:10129000114488470146A142F8D110BD0800000062
:1012A0001400000059FFFFFF180100001C0000009F
:1012B0000000002000F00DF8002801D0FFF7DEFF4D
:1012C000AFF300800020AFF30080FFF71CFD00F0BB
:1012D00002F80120704700F001B8000007463846C8
:1012E00000F002F8FBE7000080B5AFF30080024A8F
:1012F00011001820ABBEFBE7260002000148804722
:1013000001480047A11100080D130008AFF3008049
:10131000AFF30080FFF7CEFF0000000001020304DE
:10132000FFF7FEBFFFF7FEBFFFF7FEBFFFF7FEBFF1
:10133000FFF7FEBFFFF7FEBFFFF7FEBFFFF7FEBFE1
:10134000FFF7FEBFFFF7FEBFFFF7FEBFFFF7FEBFD1
:10135000FFF7FEBFFFF7FEBFFFF7FEBFFFF7FEBFC1
:10136000FFF7FEBFFFF7FEBFFFF7FEBFFFF7FEBFB1
:10137000FFF7FEBFFFF7FEBFFFF7FEBFFFF7FEBFA1
:10138000FFF7FEBFFFF7FEBFFFF7FEBFFFF7FEBF91
:10139000FFF7FEBFFFF7FEBFFFF7FEBFFFF7FEBF81
:1013A000FFF7FEBFFFF7FEBFFFF7FEBFFFF7FEBF71
:1013B000FFF7FEBFFFF7FEBFFFF7FEBFFFF7FEBF61
:0E13C0000001F9000010FC0002A24A04C00067
:040000050800130DCF
:00000001FF
