:020000040800F2
:1000000078080020ED400008D93E0008DB3E0008DB
:10001000DD3E0008DF3E0008E13E00080000000071
:10002000000000000000000000000000E33E0008A7
:10003000E53E000800000000E73E0008E93E000839
:100040001141000815410008194100081D41000830
:100050002141000825410008F73E0008FD3E000848
:10006000033F0008093F00080F3F0008294100082E
:100070002D41000831410008354100083941000890
:100080003D41000841410008454100084941000840
:100090004D4100085141000855410008153F000836
:1000A000594100085D4100086141000865410008B0
:1000B000694100086D410008714100087541000860
:1000C000794100087D410008814100088541000810
:1000D000894100083D3F00088D410008914100081A
:1000E00095410008994100089D410008A141000880
:1000F000A5410008A9410008AD410008B141000830
:10010000B5410008B9410008BD410008C1410008DF
:10011000C5410008C9410008CD410008D14100088F
:10012000433F0008D5410008493F0008D941000875
:10013000DD410008E1410008E5410008E94100080F
:10014000ED410008F1410008F5410008F9410008BF
:10015000FD410008014200084F3F00080542000829
:10016000094200080D42000811420008154200082B
:10017000194200081D42000821420008000000004A
:10018000254200082942000881B000F5E0700268AD
:10019000914203D343681A44914202D380680028F5
:1001A000F5D101B07047DFF86817086890B94FF4CF
:1001B000805048604FF480324FF0FF308A60C86052
:1001C00008610420DFF84C27DFF84C374861C2F89B
:1001D000BC010B600120704701F1080313F0070F09
:1001E0000EBF0023C3F1080303F007031944D21A1A
:1001F0008161C26042F001034B60091D28238B50CE
:10020000DFF80C170A69C26170472DE9FC4B0746FD
:1002100001F1080010F0070F0FBF8946C0F1080078
:1002200000F0070001EB000902F1080111F0070FCF
:1002300006D002F10800C0F1080000F007000244F7
:100240001546A5EB090009EB0306A0EB030B43F0F1
:100250000303C9F80430AE4228BF01F0FFF9287942
:10026000C10758BF01F0FAF9BBF1100F38BF01F018
:10027000F5F9B869854207D1F8685844F860BE615D
:1002800040F00100706050E1786985420AD1B86899
:100290008344C7F808B07E614BF00100706046F8F7
:1002A0000BB042E1686800F00301012940F0AB8027
:1002B000C008C0000190C0081F2839D8AC68D5F824
:1002C0000C800090454508BF01F0C8F9A54208BF61
:1002D00001F0C4F968680099C008C000B0EBC10F14
:1002E00018BF01F0BBF9009907F1280000EBC1002D
:1002F000844206D03A699442C0F08080E168A94205
:100300007CD1A04506D100983968012282409143F2
:10031000396075E0804506D0386980456ED3D8F8DD
:100320000800A8426AD1C4F80C80C8F8084067E009
:10033000EC68D5F81880AC420CD0A86839698842BE
:1003400022D3C168A94204BFA168A9421CD1C460DC
:10035000A0601BE005F11402146834B905F1100225
:1003600014689CB101E01A46146804F1140319687A
:10037000002902BF04F1100318680028F3D139697D
:100380008A4228BF106001D201F068F9B8F1000F6D
:1003900036D0E96907F5987000EB81000268954254
:1003A00008D10460A4B9E8697968012282409143C8
:1003B000796025E03869804508D3D8F81000A84254
:1003C00014BFC8F81440C8F8104001E001F046F925
:1003D000B4B139698C4211D3C4F81880286928B1A6
:1003E000884226BF2061846101F038F9686938B11C
:1003F0003969884202D36061846101E001F02EF91D
:1004000001982D18834468684008400068604BF0EC
:10041000010171604FEADB0446F80BB01F2C23D8B2
:1004200007F1280000EBC4084546BBF1100F38BFA8
:1004300001F014F9386820FA04F1C90705D4012144
:1004400001FA04F404433C6007E0D8F80800396975
:1004500088422CBF054601F001F9C8F80860EE603B
:10046000B560C6F80C8060E05FEA1B2008BF002181
:1004700023D0B0F5803F28BF1F211ED2A0F5807287
:10048000120C02F008029040A0F58051090C01F016
:1004900004018840A0F580431B0CC2F10E0203F05A
:1004A0000203521AD21A984002EBD032D01D2BFA16
:1004B00000F101F0010101EB420107F5987202EB36
:1004C0008100F1610022726132617A6822FA01F3DF
:1004D000DB0707D4012303FA01F1114379600660B9
:1004E000B0611DE002681F291DBF4908C1F1190153
:1004F0000BFA01F1594600E002465068C008C000FE
:10050000584516D002F11003CC0F03EB84034900C9
:1005100018680028F0D13869834204D31E60B261A4
:10052000F660B66001E001F099F809F10800BDE855
:10053000F68B396990688A4228BF8842F3D3C66037
:100540009660B060F2600020B061EEE72DE9FE4FEA
:1005500004468B46A5692E46904699463146FFF7DC
:1005600013FEA8F128020168406801EB000AAAF115
:10057000270111F007000EBF0021C1F1080101F0B1
:1005800007010AEB0100A0F12F0706F110008742D6
:1005900038BF374607F118000190594600200090F7
:1005A0002046FFF719FE07F1080010F0070F18BFEB
:1005B00001F054F81B20786007F1080104F5E070A1
:1005C00090E80C5081E80C50C0F800B0C0F80480EE
:1005D000C0F80C9081600198009900E0001D07228E
:1005E0004260491C00F108025245F7D30129D8BFE7
:1005F00001F034F8B74200F09580BF1B301D311D6B
:10060000C05940084000C85147F0010171604FEAED
:10061000D70BF751BBF11F0F21D804EBCB0000F132
:100620002805A846102F38BF01F018F8206820FAD6
:100630000BF1C90705D4012101FA0BF10843206031
:1006400006E0A868216988422CBF804601F006F8C0
:10065000AE60C8F80C60C6F80880F5606FE0380A34
:1006600008BF002123D0B0F5803F28BF1F211ED234
:10067000A0F58072120C02F008029040A0F58051A3
:10068000090C01F004018840A0F580431B0CC2F165
:100690000E0203F00203521AD21A984002EBD03233
:1006A000D01D27FA00F101F0010101EB420104EB3A
:1006B0008102002302F59870F16173613361626811
:1006C00022FA01F3DB0707D4012303FA01F11143F6
:1006D00061600660B0611DE002681F291DBF490806
:1006E000C1F1190107FA01F1394600E002465068EC
:1006F000C008C000B84216D002F11003C80F03EBC7
:100700008003490018680028F0D12069834204D38F
:100710001E60B261F660B56011E003B0BDE8F04F55
:1007200000F09CBF0BE0216990688A4228BF884294
:10073000F3D3C6609560B060F2600020B06103B092
:10074000BDE8F08F2DE9F041714F054638688846C5
:1007500008B9FFF728FDB96801EB08002F30491EE2
:1007600020EA010188457DD205F5D876B06828B128
:10077000326889188A4275D2884273D300F072FFBA
:1007800001001CBF0C6811F1010F6BD030682018FC
:1007900005F5D87230605368984238BF18467060CB
:1007A000A86960BB286908B1814200D22961316122
:1007B00074610020F06105F12802386868624FF02A
:1007C000FF3028620020D260926002F1080353617A
:1007D0001361801C10322028F5D34E48854208BF93
:1007E000A4F1280228D055F8040CC00805EBC0027B
:1007F000A2F108000A19121A283A01461CE005F570
:10080000E070024600E092687AB3136857683B4490
:100810009942F8D1137B1F0727D4AB691768BB42F5
:1008200023D3D2F804C06744BB421ED2A444C2F80A
:1008300004C0E868A96922182846FFF7CDFC1FE02C
:100840008068C0B103689342FAD1027B130712D4C7
:10085000026801604368E418446043462846BDE8E6
:10086000F041D2E40020BDE8F0812A69914238BF0E
:1008700029610A19E5E7002322462846FFF766FEAC
:10088000E8688045EED2A0EB0800A969E86001EBBA
:100890000802AA6140F00100506048F0030048607F
:1008A00001F10800BDE8F08138B4194B1A6882B92B
:1008B0004FF480525A604FF480344FF0FF329C6006
:1008C000DA601A610422134C134D5A61C4F8BC213A
:1008D0001D6011F1400F17D28269AAB1C368283197
:1008E00099420BD200F5E0710C68A24203D34D6827
:1008F0002C44A24202D389680029F5D1C1699942EA
:100900003CBF4FF0FF31C16132BC00207047000096
:1009100058040020740000206859883C2DE9F84FE5
:1009200000258946090AC9F1000B08BF002323D01E
:10093000B1F5803F28BF1F231ED2A1F58072120C93
:1009400002F008029140A1F580531B0C03F0040350
:100950009940A1F58044240CC2F10E0204F0020477
:10096000D21A121BA14002EBD132D11D29FA01F398
:1009700003F0010303EB4203074607F5987858F8A4
:10098000230030B31F2B0FBF4C465C08C4F1190481
:1009900009FA04F4AC46594600E064004268D20803
:1009A000D200A2EB09028A4203D21100054600F0F0
:1009B0006881426910304FEAD47B50F82B00002A3E
:1009C0001CBF824294460028E7D18B466046B0BBEC
:1009D000BDBB012000FA03F35B0058420343786873
:1009E000034000F04D81584203405B1E180B00F09D
:1009F0001000C340590901F00801CB409A0802F0E9
:100A00000402D3405C0804F002040818E340101804
:100A1000C3F3400620183044F3401B1858F8230055
:100A20000DE008464168C908C900A1EB0901594514
:100A30003CBF8B46054601690029F2D14069002878
:100A4000F0D1002D00F01C81B868A0EB09008345AF
:100A500080F0168138698542C0F010816868C0084E
:100A6000C00009EB0B01884218BF00F0F7FD05EB51
:100A70000906B54280F00281EC68D5F818A0AC42B6
:100A80000CD0A8683969884222D3C168A94204BF42
:100A9000A168A9421CD1C460A0601BE005F114024A
:100AA000146834B905F1100214689CB101E01A46CB
:100AB000146804F114031968002902BF04F110033B
:100AC00018680028F3D139698A4228BF106001D222
:100AD00000F0C4FDBAF1000F36D0E96908EB8100DF
:100AE0000268954209D10460200014D1E869796850
:100AF000012282409143796026E03869824508D31B
:100B0000DAF81000A84214BFCAF81440CAF810401E
:100B100001E000F0A3FDBCB13869844212D3C4F8EF
:100B200018A0286930B13969884226BF20618461E4
:100B300000F094FD686938B13969884202D3606178
:100B4000846101E000F08AFDBBF1100F0CD2D944A2
:100B500049F003006860291D281D50F8090040F085
:100B6000010041F8090088E049F0030068604BF09B
:100B7000010070604FEADB0046F80BB01F281DD85B
:100B800007EBC00101F12804396821FA00F2D2070D
:100B9000A34605D4012202FA00F00843386006E0BB
:100BA000A068396988422CBF834600F057FDA660D3
:100BB000CBF80C60C6F808B0F4605EE05FEA1B207A
:100BC00008BF002123D0B0F5803F28BF1F211ED2CF
:100BD000A0F58072120C02F008029040A0F580513E
:100BE000090C01F004018840A0F580431B0CC2F100
:100BF0000E0203F00203521AD21A984002EBD032CE
:100C0000D01D2BFA00F101F0010101EB4201F1616D
:100C100000227261326108EB81007A6822FA01F3E6
:100C2000DB0707D4012303FA01F111437960066061
:100C3000B0611DE002681F291DBF4908C1F11901FB
:100C40000BFA01F1594600E002465068C008C000A6
:100C5000584518D002F11003CC0F03EB8403490070
:100C600018680028F0D13869834204D31E60B2614D
:100C7000F660B66001E000F0F1FC13E100F0EEFC7C
:100C80000DE18B46A3E6396990688A4228BF884205
:100C9000F1D3C6609660B060F2600020B061ECE70E
:100CA0002DE9F84F06468846716848420140491EC2
:100CB000080B00F01000C1404A0902F00802D140C0
:100CC0008B0803F00403D9404D0805F00205101805
:100CD000E9401818C1F34004281806F5987A204412
:100CE000E14009185AF821104868C008C0000D46B4
:100CF000A0EB080909E001464868C008C000A0EB65
:100D0000080048453CBF81460D4608690028F2D1DD
:100D100049690029F0D130698542C0F0BE80686819
:100D2000C00808EB090BC000584518BF00F096FC3E
:100D300005EB08008542009080F0AF80EF68AC6959
:100D4000AF420CD0A8683169884222D3C168A94259
:100D500004BFB968A9421CD1C760B8601BE005F1A7
:100D60001402176837B905F1100217689FB101E046
:100D70001A46176807F114031968002902BF07F122
:100D8000100318680028F3D131698A4228BF106027
:100D900001D200F063FC002C31D0E9690AEB81003C
:100DA0000268954208D107608FB9E869716801222D
:100DB00082409143716022E03069844205D320690A
:100DC000A84214BF6761276101E000F047FCB7B19A
:100DD0003069874211D3BC61286930B131698842DA
:100DE00026BF3861876100F039FC686938B1316924
:100DF000884202D37861876101E000F02FFCB9F1ED
:100E0000100F0BD24BF003006860291D281D50F80D
:100E10000B0040F0010041F80B003DE048F00301F9
:100E2000696049F00100291D41F80800009840F868
:100E30000990D6F808804FEAD80BBBF1200F28BFE5
:100E400000F00CFCB8F1000F22D006EBCB00776964
:100E500000F12804A246B8F1100F38BF00F0FEFBE5
:100E6000306820FA0BF1C90705D4012101FA0BF112
:100E70000843306006E0A068316988422CBF824692
:100E800000F0ECFBA760CAF80C70C7F808A0FC6083
:100E9000C6F808900098706104E000F0DFFB0020C5
:100EA000BDE8F28F05F10800BDE8F28F2DE9FE4F95
:100EB0000546AFF30080F52DDFF89C6780F00481D4
:100EC0000B2D31BF10250B35ED08ED003068EC0817
:100ED000E04010F0030F46D0C04300F001000419B9
:100EE00006F1280000EBC408E700D8F8085068684D
:100EF000C008C000B84218BF00F0B0FBD5F8089099
:100F0000454508BF00F0AAFB4D4508BF00F0A6FB11
:100F10006868C008C000B84218BF00F09FFBC84511
:100F200007D13168012000FA04F421EA0404346096
:100F30000DE03069814508D3D9F80C00A84204D1EE
:100F4000C8F80890C9F80C8001E000F087FB47F072
:100F500003006860291D281D05F10804C05940F0F0
:100F60000100C851F8E0B168A94280F0BE800028B5
:100F700000F0A1804FF0010808FA04F1490000FADE
:100F800004F4484201430C4060420440641E200BBC
:100F900000F01000C440610901F00801CC40A20833
:100FA00002F00402D440630803F002030818DC4096
:100FB0001018C4F3400718183818FC40241806F11C
:100FC000280000EBC40AE700DAF80890D9F804001A
:100FD000C008C000B84218BF00F040FBD9F808B004
:100FE000D14508BF00F03AFBD94508BF00F036FBF9
:100FF000D9F80400C008C000B84218BF00F02EFBAA
:10100000DA4506D1316808FA04F421EA04043460B0
:101010000DE03069834508D3DBF80C00484504D166
:10102000CAF808B0CBF80CA001E000F017FB45F0BF
:101030000300C9F804007F1B09F1040147F0010017
:10104000485109EB05000190C751B4684FEAD40A32
:10105000BAF1200F28BF00F001FB34B3CDF800A097
:1010600006F12800756900EBCA0AD346102C38BF78
:1010700000F0F4FA3168009821FA00F2D30704D4A2
:1010800008FA00F00843306007E0DAF80800316938
:1010900088422CBF834600F0E1FACAF80850CBF82A
:1010A0000C50C5F808B0C5F80CA0B76009F10804E9
:1010B0000198706150E07068C0B329463046FFF770
:1010C000EFFD040011D047E015F1400F28BF4FF0AD
:1010D000FF350AD20B35ED087068ED0028B12946BE
:1010E0003046FFF71BFC040036D1B068A8421DD380
:1010F000411B726910290AD350197061B16041F027
:1011000001034360415045F0030555600BE00021A9
:10111000B1607161131D40F003015160111D095848
:1011200041F00101195002F1080415E0F068854210
:101130000DD2401BB169F0604A19B26140F0010064
:10114000506045F003054D6001F1080404E02946B4
:101150003046FFF7F7FA0446AFF300802046FFF76A
:10116000EEBA002800D170472DE9FC47A0F1080530
:10117000AFF30080DFF8E06432699542C0F0598235
:10118000686800F00301012900F05382C1084FEAAA
:10119000C109C10705EB090839D42C6810F0030F09
:1011A00000F04982604205449542A144C0F041826A
:1011B0007069854200F0C780E408202C5ED2D5F823
:1011C0000CA0AF68554508BF00F048FABD4208BF03
:1011D00000F044FA6868C008C000B0EBC40F18BF44
:1011E00000F03CFA06F1280000EBC400874205D06D
:1011F00031698F423FD3F968A9423CD1BA452CD11D
:101200003068012101FA04F420EA04043460454501
:1012100080F00F82D8F80440E00740F10A82A0076E
:1012200000F16881B069804540F0A080F068B56148
:101230008144C6F80C9049F00100686070698542ED
:1012400002D100207061B060F069484580F0F38100
:1012500000213046FFF728FBEDE1824506D03069DA
:10126000824508D3DAF80800A84204D1C7F80CA0D8
:10127000CAF80870CBE700F0F1F9C8E7EC68AF698D
:10128000AC420BD0A868904223D3C168A94204BFE6
:10129000A168A9421DD1C460A0601CE005F114033F
:1012A0001C6834B905F110031C68A4B101E0634661
:1012B0001C6804F1140CDCF80010002902BF04F1D2
:1012C000100CDCF800000028F1D1934228BF19600F
:1012D00001D200F0C3F9002F99D0E96906F59870A2
:1012E00000EB81000268954209D10460200011D111
:1012F000E8697168012282409143716087E7306933
:10130000874205D33869A84214BF7C613C6101E083
:1013100000F0A4F9002C3FF47AAF31698C42AAD3D3
:10132000A761286928B1884226BF2061846100F046
:1013300095F9686900283FF46AAF316988429AD309
:101340006061846163E798F8040000F003000328FB
:101350007FF45DAFC6F8089049F00101D8F80400A9
:1013600040084000C8F8040069600AE070698045E0
:101370000AD1B06875618144C6F8089049F001004F
:10138000686045F8099056E1E408E400A144E408E7
:10139000202C3AD2D8F80CA0D8F80870D04508BF55
:1013A00000F05CF9B84508BF00F058F9D8F804001F
:1013B000C008C000B0EBC40F18BF00F04FF906F131
:1013C000280000EBC400874207D031698F42C0F08B
:1013D0008480F968414540F08080BA4507D1306883
:1013E000012101FA04F420EA0404346077E0824524
:1013F00006D031698A4570D3DAF8080040456CD1CF
:10140000C7F80CA0CAF8087069E0D8F80C40D8F802
:10141000187044450DD0D8F808003169884222D3AD
:10142000C168414504BFA16841451CD1C460A060AA
:101430001BE008F11402146834B908F110021468B2
:101440009CB101E01A46146804F1140319680029DC
:1014500002BF04F1100318680028F3D131698A42F1
:1014600028BF106001D200F0F9F8002F37D0D8F86B
:101470001C1006F5987000EB8100026890450AD1B7
:101480000460200012D1D8F81C007168012282404B
:101490009143716023E03069874205D33869404544
:1014A00014BF7C613C6101E000F0D8F8BCB1316947
:1014B0008C4212D3A761D8F8100028B1884226BF09
:1014C0002061846100F0CAF8D8F8140038B131699D
:1014D000884202D36061846101E000F0BFF849F006
:1014E0000100686045F80990706985420BD1C6F823
:1014F0000890A0E064086400C8F8044049F00100C6
:10150000686045F809904FEAD907202F22D206F1EA
:10151000280000EBC704A046B9F1100F38BF00F057
:101520009DF8306820FA07F1C90705D4012101FAB6
:1015300007F70743376006E0A068316988422CBF8F
:10154000804600F08BF8A560C8F80C50C5F80880FC
:10155000EC6070E05FEA192008BF002123D0B0F5ED
:10156000803F28BF1F211ED2A0F58072120C02F00E
:1015700008029040A0F58051090C01F00401884058
:10158000A0F580431B0CC2F10E0203F00203521AB5
:10159000D21A984002EBD032D01D29FA00F101F0A6
:1015A000010101EB420106F5987202EB8100002275
:1015B0006A612A61E961726822FA01F3DB0707D4E4
:1015C000012303FA01F1114371600560A8611DE078
:1015D00002681F291DBF4908C1F1190109FA01F16B
:1015E000494600E002465068C008C000484526D081
:1015F00002F11003CC0F03EB8403490018680028A4
:10160000F0D13069834204D31D60AA61ED60AD6002
:1016100001E000F023F8306A401E30620BD1D6F8AA
:10162000C80100E080680028FCD14FF0FF30306234
:1016300001E000F013F8AFF30080BDE8F3873169F3
:1016400090688A4228BF8842E3D3C5609560A8604D
:10165000EA600020A861DEE774000020012000F0AD
:1016600017B800000749086808B10020704706480D
:10167000C008C00008600549C908C900091A01600E
:10168000704700BF740400207F080020780A002003
:1016900080B5AFF30080024A11001820ABBEFBE713
:1016A0002600020038B5040001D1012032BD00201F
:1016B000A06204F15005687820B900212970204605
:1016C00000F0E6FA0220687000F028F86268A0686E
:1016D000A1690243E0680243206902436069024352
:1016E00001F40071E0690A430243206A0243A06AE0
:1016F000024320680260A169606A090C01F00401DC
:101700000143206841602068C16921F40061C16122
:101710000020686001206870002032BD20680168E8
:1017200021F04001016070472DE9F843044604F1BF
:1017300050060027307801280D469146984608BF8C
:10174000022000F09A800121317000F0E5FA7178F2
:10175000012918BF022740F08B80290018BFB9F17A
:10176000000F00F084800322727077602163A4F878
:101770003490A4F83690A763A787E7876764276447
:10178000A268B2F5004F04D12268136843F4804385
:101790001360226815686B0603D4136843F0400396
:1017A0001360E5686268B5F5006F27D1002A1CBF99
:1017B000E38E012B06D1256831F8022BEA60E28E18
:1017C000531EE3868946054605E039F8021BC160D1
:1017D000E08E411EE186E08E002850D020688168AE
:1017E0008A07F2D4B8F1000F52D018F1010FF2D0ED
:1017F00000F092FA401B4045EDD349E0002A1CBF9F
:10180000E38E012B06D1256811F8012B2A73E28E95
:10181000531EE3868946054605E019F8011B01734E
:10182000E08E411EE186E08E48B3206881688A0719
:10183000F3D4B8F1000F2BD018F1010FF3D000F062
:101840006BFA401B4045EED322E02A464146204633
:1018500000F0EBF918B120200127706008E0A068C3
:1018600018B90097206800F08AF9706800B1012764
:1018700001217170002030703846BDE8F283009578
:10188000434601220221204600F089F90028DCD0DD
:101890000327EDE72DE9F84388460025074614465F
:1018A0007968B1F5827F04BFB8680028994607F1CE
:1018B00050060AD104217170CDF8009023464246AB
:1018C0004146384600F07BF877E03078012808BFC1
:1018D000022072D00121317000F01EFA71780129C6
:1018E00018BF022564D1B8F1000F18BF002C5ED0DC
:1018F000042171707560C7F83880BC87FC873D6330
:10190000BD86FD863D647D64B968B1F5004F04D1A4
:1019100039680A6822F480420A6039680B685A06FE
:1019200003D40A6842F040020A600446F9680029BC
:101930001CD104E0007B08F8010B00F01CF9F88FC3
:1019400028B300F013F9F5D4B9F1000F07D019F15D
:10195000010FF4D000F0E0F9001B4845EFD3032558
:1019600026E0C06828F8020B00F005F9F88F70B186
:1019700000F0FCF8F5D4B9F1000FF0D019F1010F27
:10198000F4D000F0C9F9001B4845EFD3E7E77868C9
:10199000B0F5827F09D1B868B0F5004F18BFB0F537
:1019A000806F02D13868FFF7BAFE706800B1012578
:1019B00001217170002030702846BDE8F2832DE9C6
:1019C000F84F074607F1500601243078002501281A
:1019D000884691469A4608BF022000F0B4803470D1
:1019E00000F09AF971780129834609D07A68B2F536
:1019F000827F02BFB8680028042901D002259DE03B
:101A0000B8F1000F1CBFB9F1000FBAF1000F01D1FE
:101A1000012593E07078012804BF0521717075607D
:101A2000C7F83890A7F83EA0A7F83CA0C7F83080C8
:101A3000A7F836A0A7F834A03D647D64386800F0AC
:101A4000A6F8F968DDF828A07868B1F5006F32D102
:101A500000281CBFF98E012905D13A6838F8020B1D
:101A6000D06000F07FF8F98E002904BFF88F0028BD
:101A70006BD0002C1CBFF88E002808D03868816815
:101A80008A0704D538F8022BC26000F06AF8F88F94
:101A900038B100F06BF804D5C06829F8020B00F0EB
:101AA00069F81AF1010FDED000F036F9A0EB0B0057
:101AB0005045D8D353E000281CBFF98E012905D129
:101AC0003A6818F8010B107300F04CF8F98E0029F1
:101AD00004BFF88F002838D0002C1CBFF88E0028D7
:101AE00008D0386881688A0704D518F8012B02737A
:101AF00000F037F8F88F38B100F038F804D5C06836
:101B000009F8010B00F036F81AF1010FDED000F0F1
:101B100003F9A0EB0B005045D8D320E05A465146BC
:101B2000384600F082F818B120200125706005E0E9
:101B3000B86818B90095386800F021F80120707075
:101B4000002030702846BDE8F28FCDF800B0534633
:101B500001220221384600F022F80028DED00325B9
:101B6000ECE70024F88E411EF986704738688168DA
:101B7000CA0770470124F88F411EF9877047C16872
:101B8000009180680090009970474A600068016881
:101B90004A0603D4026842F04002026070472DE911
:101BA000F041069F05460E4690461C46286881680F
:101BB0003140B1420CBF01200020404532D014F129
:101BC000010FF3D024B100F0A7F8C01BA042EDD361
:101BD0002868416821F0E00141606868B0F5827FC3
:101BE00009D1A868B0F5004F18BFB0F5806F02D1D9
:101BF0002868FFF794FDA86AB0F5005F0AD129684C
:101C00000A684DF6FF7002400A602868016841F4D6
:101C10000051016005F15000012242700021017065
:101C2000032000E00020BDE8F0811CB500920B46C7
:101C3000044600228021FFF7B2FF10B100F002F845
:101C4000032016BD606D40F0200060657047000005
:101C500080B52148214901604FF482714160002123
:101C60008160C160016141614FF4007181610021B7
:101C7000C1610162416281620A21C162FFF712FD06
:101C800028B1BDE80440452117A000F017B901BDF7
:101C900000681249884200D0704780B586B00021A4
:101CA0000F4800913821026842F40042026002228B
:101CB000006800F40040009000980191002003901B
:101CC0000321062004910590029201A9054800F025
:101CD0000DF907B000BD00006C030020003C00407F
:101CE0004038024000040240443A5C4F6E65447242
:101CF0006976655CE9A284E5A487E9989FE6898B0B
:101D0000E69F845C6669726D776172655C5372638D
:101D10005C7370692E63000001484068704700BF23
:101D200064000020F0B58BB000F0E6F900F059F83F
:101D300000F0FCF900F00CFB00F02CFBFFF788FF33
:101D400000F0F2FB00F0C3FB012000F04EFD00F0BC
:101D50008DFA00BF5AA1554CDFF854510FF284168A
:101D60005DA7D1E9002305A857A1C0E9002307A872
:101D7000102200F01DFE052105A800F08FFD0F21A7
:101D800007A800F093FD97E80E0002A880E80E0077
:101D9000D6E900122878CDE900120028F3D00A21F4
:101DA00002A800F049FE002004EB40014988A1F59B
:101DB0000061C901CA1201EB125109132DF810106C
:101DC000401C0428F0DB02A9009A0A6002A8019ACC
:101DD0004A600A2100F098FD00F09BFD0020287069
:101DE000D1E780B592B0002000903248016841F000
:101DF000805101600021006800F080500090009840
:101E00002D4800910221026842F4804202600122C2
:101E1000006800F4804000900098069110200A901D
:101E20000C9100200D90082109920E91A8200F908E
:101E3000022104221091119206A800F001FE00B1C7
:101E4000FEE70F21019102200021029003914FF43F
:101E5000A0504FF480510490059101A8052100F095
:101E600067FF00B1FEE700F0E8FF4FF47A71B0FBC6
:101E7000F1F001F072F8042001F083F80022002153
:101E80004FF0FF3001F042F813B000BD0849488818
:101E9000401C4880052280B290FBF2F202EB8202E5
:101EA000801A04BF01200870704700000C04002055
:101EB000700400204038024000700040FEE700003F
:101EC0001010101011000000101010101100000070
:101ED0000000000000000000000000000000000002
:101EE0000000000000000000000000002DE9F84F95
:101EF0004FF0000E744A754BDFF8D4814FF00F0994
:101F000006468A460121DAF8004001FA0EF10C403B
:101F10008C4240F0BC80DAF80450022D18BF122D1C
:101F20004FEA8E0012D14FEADE0506EB850C00F079
:101F30001C05DCF8207009FA05FB27EA0B07DAF824
:101F400010B00BFA05F53D43CCF820504FEA4E0C8B
:101F5000032537689AF804B005FA0CF5ED430BF049
:101F6000030B2F400BFA0CFB4BEA07073760DAF83C
:101F70000470012F18BF022F03D0112F18BF122F8A
:101F800013D1B768DAF80CB02F400BFA0CFB4BEA10
:101F90000707B760776827EA0101DAF80470C7F32A
:101FA000001707FA0EF739437160F1680D40DAF84F
:101FB000081001FA0CF12943F160DAF80410C900A5
:101FC00065D50025009500F00C00D8F8001041F40C
:101FD0008041C8F8001009FA00F7D8F8005005F45D
:101FE0008045009500994FEA9E0153F8215025EA5B
:101FF0000707384DAE4208BF002522D0364DAE420D
:1020000008BF01251DD0354DAE4208BF022518D0AE
:10201000334DAE4208BF032513D0324DAE4208BF48
:1020200004250ED0304DAE4208BF052509D02F4DF6
:10203000AE4208BF062504D02D4DAE420CBF072589
:10204000082505FA00F0384343F82100E043116801
:10205000DAF804500140ED0348BF21431160516894
:10206000DAF804500140AD0348BF21435160916844
:10207000DAF804500140ED0248BF21439160D16875
:102080000140DAF80400800248BF2143D1600EF11C
:10209000010EBEF10F0F7FF635AFBDE8F18F00697D
:1020A000084018BF0120C0B2704781B002B90904CE
:1020B000816101B070470F4A136803421CBF106072
:1020C00000F0F3B870470000003C014008380140C0
:1020D0004438024000000240000402400008024070
:1020E000000C0240001002400014024000180240A0
:1020F000001C0240143C014080B50B48016841F4CB
:1021000000710160026842F480620260016841F47B
:1021100080710160032000F0ECFE002000F04CFF15
:1021200000F06AFF002002BD003C024038B586B0D6
:10213000002005907E4C7F487F4D016841F0800172
:102140000160026802F08002059200220599059262
:10215000036843F004030360016801F00401059182
:1021600005990592036843F001030360016801F0DB
:102170000101059105990592036843F0400303604E
:10218000016801F040010591059905924FF4004165
:10219000036843F002030360006800F0020005904A
:1021A00005982046FFF781FF00224FF44071284632
:1021B000FFF77BFF40F2FF10009000205F49019184
:1021C000029069465E48FFF791FE3C200021009096
:1021D0000191029169465B48FFF788FE4FF4004089
:1021E00000F03CF82046FFF781FE4FF4007000F04D
:1021F00035F82846FFF77AFE00220221062000F07B
:1022000085FE062000F09FFE00220221072000F03C
:102210007DFE072000F097FE00220221082000F03A
:1022200075FE082000F08FFE00220221092000F038
:102230006DFE092000F087FE002202210A2000F036
:1022400065FE0A2000F07FFE00220221172000F028
:102250005DFE172000F077FE07B030BD0090012131
:1022600000200191029003906946704700B585B047
:102270004FF480700090012033490191029069462B
:102280002D48FFF733FE05B000BD38B52D4C0821B1
:102290002046FFF704FF054610212046FFF7FFFE0A
:1022A000800340EAC53080B232BD2DE9FF410024F1
:1022B000B0F5807F014602D100F044FB36E0DFF844
:1022C00080804046FFF7EBFE08B14FF40054002732
:1022D00001261E4D35F827104046FFF7E0FE40B9B5
:1022E00005EB870191F90220288D06FA02F21043CE
:1022F00028857F1C0A2FEDDBFFF7C7FF0022002394
:10230000298D044368460C43002180E80E002C858B
:10231000022205F1280102A800F04AFB0A216846C2
:1023200000F0F2FA00F0F5FA00202885BDE8FF8100
:10233000000002403038024000040240000031102A
:102340000008024000180240000021100000002098
:1023500080B50020009000220D48016841F4800102
:1023600001600021006800F48000009000983A208D
:1023700000F0CCFD3A2000F0E6FD002200214620CE
:1023800000F0C4FDBDE80240462000F0DCBD00BF07
:1023900030380240514838B5514C00BF56A5206036
:1023A00084B04FF4803060600020A0600120206184
:1023B000A06100202062E0624A48A0620020E06044
:1023C0000520E0610120206300206061204600F0CC
:1023D0005DFE10B14A2100F030F80220009001218A
:1023E0000320019102906946204600F006FF10B1DB
:1023F000542100F022F80420022100F021F810B14D
:102400005D2100F01AF80520032100F019F810B141
:10241000662100F012F80620042100F011F810B136
:102420006F2100F00AF80720052100F009F810B12B
:10243000782100F002F805B030BD2846FFF73EBD18
:10244000009001912046694600F0D7BE38B5044699
:1024500086B020682149884237D100212248234D87
:102460000091F421026842F4807202600322006845
:1024700000F4807000900098019100200390029277
:1024800001A91B48FFF732FD00206860A860E860E2
:102490004FF4806028614FF4006068614FF4005091
:1024A000A8614FF48070E8614FF48030286200200A
:1024B000104968622960284600F0FAFF18B1A4218B
:1024C0000DA0FFF7FBFCA563AC6307B030BD04486B
:1024D000052200F1480100F012BE0000002001407A
:1024E000C40300200100000F443802400C03002008
:1024F0000000024010640240443A5C4F6E65447232
:102500006976655CE9A284E5A487E9989FE6898BF2
:10251000E69F845C6669726D776172655C53726375
:102520005C6164632E63000080B5434843490160E9
:102530004FF4E131416000218160C16001610C21F3
:10254000416100218161C16101F06EF928B1BDE8EE
:10255000044045213EA0FFF7B1BC01BD2DE9F04785
:10256000044686B020683549884262D1002134484B
:10257000344D354E0FF2D80A00914FF4C061026815
:1025800042F0100202600222006800F01000009089
:102590004FF000670098019101200390032107206C
:1025A00004910590029201A92848FFF79FFC0020A2
:1025B000A860E8606861A861E86168624FF48068BB
:1025C0004FF480392E606F60C5F81080C5F82090F8
:1025D000284600F06DFF18B16F215046FFF76EFCE2
:1025E00006F1780005F1840665632866AC63402037
:1025F000A8666F660020E8666867A867E8673060CD
:10260000C5F87080C5F8809005F1600000F050FFBB
:1026100018B181215046FFF751FC05F1600020639D
:10262000746100220121252000F070FC252000F0BB
:102630008AFC06B0BDE8F0871804002000100140B5
:10264000443802404C020020406402400000024036
:10265000443A5C4F6E6544726976655CE9A284E534
:10266000A487E9989FE6898BE69F845C6669726D12
:10267000776172655C5372635C75736172742E630B
:10268000000000000A46010004D14FF40041DFF8C9
:10269000E00205E0012805D14FF40071DFF8D40213
:1026A000FFF703BD704711B583B0002200F059F861
:1026B000322100910123DFF8C042DFF8C02203A9D4
:1026C0002046FFF77CF93223012201A92046FFF7BB
:1026D000E1F8012100F048F89DF8040004B010BDB5
:1026E00032B582B0044644F0200200F03AF83221BC
:1026F00000910123A04DA14A01A92846FFF75FF9E7
:102700003223012202A92846FFF70EF8012100F02A
:102710002BF82046072809D0402807DAFFF7C3FF27
:102720009DF80810884201D000203EBD01203EBD2A
:1027300071B50C4681B0154600F015F832210091B4
:1027400001238D4E8D4A01A93046FFF738F9322317
:102750002A4621463046FFF79DF8012100F004F893
:1027600073BD8DF80420002100208BE72DE9FC418A
:10277000074615460C462846FEF798FB064647F0E6
:1027800020008DF80400FFF7EEFF322000900123B7
:10279000DFF8E481794A01A94046FFF710F93220B9
:1027A00000902B46324621464046FFF708F90121AA
:1027B000FFF7DAFF2A4631463846FFF7B9FF402FC8
:1027C0000DDA002000E0401CA84208DA315C225CEF
:1027D0009142F8D0304601F02EFA002003E0304656
:1027E00001F029FA0120BDE8F6812DE9F84F012713
:1027F00007FA00F10625A1F101090090604E6D1E57
:102800004AD0317841F002010020FFF769FF044609
:102810000A2001F013FA01210120FFF761FF804631
:102820000F210420FFF75CFF824600210520FFF7FF
:1028300057FF83460A21112008EA0404FFF750FFDE
:102840000AEA04040BEA0404044026210620FFF7E8
:1028500047FF20400740009806281DDA5FFA89F1FB
:102860000220FFF73DFF3178044641F003010020CC
:10287000FFF736FF0440052106F1140000F00EF8C2
:102880000F210440301D00F011F82740380008BF28
:102890000127B4D0BDE8F28F0020FBE7052901D065
:1028A000002070470146052210205FE770B5012522
:1028B0000F29044601D0002070BD002606EB8600DB
:1028C000211806F10A000522C0B2FFF74FFF0540AC
:1028D000761C012EF2DD0026A019817A06F10C008B
:1028E000C0B2FFF7FDFE0540761C042EF4DB28463F
:1028F00070BD09B140F0080021490A781043087002
:102900000146FFE70020EBE60A4601461D4800F0BD
:102910003FB810B50720FFF7C6FE184C2070C00660
:1029200001D500F031F801210220FFF7E2FF00F0AD
:1029300005F8BDE8104001210120A3E60A22211D6F
:10294000A02013E780B50720FFF7ADFE0B49087004
:10295000800601D500F009F80021E120FFF7C0FE54
:10296000BDE80440FF210720BAE60021012089E6E6
:1029700000000240000402406C03002048000020D8
:102980002C0000204C00002010210720A8E60000A9
:1029900062B38B0708D0521E11F8013B00F8013BCF
:1029A00000F024808B07F6D1830740F0208000BF21
:1029B000103A07D330B4B1E83810103AA0E8381014
:1029C000F9D230BC530724BFB1E80810A0E80810C2
:1029D00044BF51F8043B40F8043BD20724BF31F810
:1029E000022B20F8022B44BF0B7803707047121F94
:1029F00017D35B0009D151F8043B20F8023B1B0CB4
:102A0000121F20F8023BF6D20BE051F8043B00F80D
:102A1000013B1B0A20F8023B1B0C121F00F8013B74
:102A2000F3D238BF121D521E24BF11F8013B00F82B
:102A3000013BF8D870470000002201F013B90000F4
:102A40002DE9F843040017D02078B54EC10741D5D1
:102A5000B06800F00C00042807D0B06800F00C004B
:102A600008280BD17068410208D53168880331D538
:102A70006068002840F0B68001204FE16068B0F542
:102A8000803F06D0B0F5A02F316807D141F48021F6
:102A90003160306840F48030306006E021F48031ED
:102AA0003160326822F480223260606868B1FFF7DA
:102AB00033F905463168880300F19480FFF72CF95B
:102AC000401B6528F6D3032028E1FFF725F90546CA
:102AD0003068810340F18680FFF71EF9401B6528AE
:102AE000F6D3F0E7FFF718F9401B022840F2A78061
:102AF000E9E7E06870B101213960FFF70DF905469B
:102B00003068810700F1CB80FFF706F9401B0228EF
:102B1000F6D9D8E73860FFF7FFF805463068810737
:102B200063D5FFF7F9F8401B0228F7D9CBE7086017
:102B3000FFF7F2F80546706F810775D5FFF7ECF8DF
:102B4000401B0228F7D9BEE70528306F06D140F0B8
:102B500004003067306F40F0010005E0400840009D
:102B60003067306F20F00400306741F28938A06888
:102B700068B1FFF7D1F88146306F810700F19C8082
:102B8000FFF7CAF8A0EB09004045F5D39BE7FFF734
:102B9000C3F88146306F810740F18E80FFF7BCF8A3
:102BA000A0EB09004045F5D38DE7FFF7B5F8401BD2
:102BB000022840F2968086E7FFF7AEF8001B022855
:102BC00040F2A7807FE700203866FFF7A5F80446AB
:102BD0003068810140F1A180FFF79EF8001B0228B8
:102BE000F6D970E720784F4F81071BD5B06810F0F9
:102BF0000C0F09D0B06800F00C0008287FF479AF02
:102C0000706841023FF575AF3168880703D5E06809
:102C100001287FF431AF3168206921F0F80141EAE1
:102C2000C0013160217808070DD560693E49002850
:102C30003FF47DAF01220A60FFF76EF80546706F22
:102C400081077FF54FAF217848073AD5306C0025D2
:102C5000C1000AD400950125306C40F080503064EA
:102C6000306C00F0805000900098DFF8C080D8F8F9
:102C70000010C8051BD4D8F8000040F48070C8F8D4
:102C80000000FFF749F88146D8F80010C8050ED4B7
:102C9000FFF742F8A0EB09000228F5D913E73068E6
:102CA000216920F0F80040EAC1003060BAE7A0686E
:102CB00001287FF449AF4DE71DB1306C20F0805002
:102CC0003064A06948B3B16801F00C0108293FF4F1
:102CD000D3AE02287FF477AF00203866FFF71CF8E8
:102CE0000546306881013FF560AFE169206AA26A5C
:102CF0000143606A520841EA8011521EE06A41EACB
:102D0000024141EA0061716001213966FFF704F870
:102D10000446306881017FF54FAF0020BDE8F283A3
:102D20000038024000004742800E474200700040D9
:102D30002DE9F84304000F4677D04A4E306800F082
:102D40000F00B84202D200F072F86ED12068464DF2
:102D5000810712D5400703D5A86840F4E050A86069
:102D60002178080703D5A86840F46040A860A968E6
:102D7000A06821F0F0010143A9602078C1074CD57B
:102D80006068012802D129688A0305E0022818BF7B
:102D9000032803D129688A0103D446E02A689107F1
:102DA00043D5A968890840EA8100A86041F28939C1
:102DB000FEF7B2FF8046A868616800F00C00B0EB37
:102DC000810F2AD0FEF7A8FFA0EB08004845F2D3F8
:102DD000032020E02078410705D5A968E06821F4A8
:102DE000E0510143A9602078010706D5A868216950
:102DF00020F4604040EAC100A86000F03FF8AA68F3
:102E00001A49C2F30312895C194AC84010600020B5
:102E100000F0D2F80020BDE8F283306800F00F0027
:102E20008742D7D200F003F8D4D00120F3E73770FF
:102E3000316801F00F01B94270470D4800687047D2
:102E40000B480C4A006813680B49C3F3822206E062
:102E50000748084A006813680749C3F34232895C8F
:102E6000C8407047003C024000380240C43F0008A0
:102E700070000020083802400841000818B5124CC4
:102E8000606800F00C00042802D0082802D019E085
:102E90000E4812BD00232268206841022068C0F35A
:102EA00088104CBF09490A4902F03F02A1FB00010A
:102EB00000F0F2FE2168C1F30141491C4900B0FB5A
:102EC000F1F012BD024812BD0438024000127A002F
:102ED0000024F4000901020081B006D52F4A00F059
:102EE0000F00104400F8041C01E02D4B195401B0F0
:102EF00070472C4A13684FF6FF0100020B4000F4A4
:102F0000E0601843284908431060704738B5254BE6
:102F10001C68C4F30223C3F10704052C28BF042452
:102F20001D1D072D34BF0023DB1E012505FA04F407
:102F3000641E2140994005FA03F35B1E1A401143B9
:102F4000BDE83440C6E7012200F01F01174BFFE740
:102F50008A40400943F82020704710B5401EB0F168
:102F6000807F01D3012010BD114C60600F214FF014
:102F7000FF30FFF7AFFF0022A26007202060002093
:102F800010BD04280A4904D1086840F00400086014
:102F900070470A6822F004020A60704718ED00E0EA
:102FA00000E400E00CED00E00000FA0500E100E0C4
:102FB00010E000E0FEF76ABF38B50D4D0D4A2978E4
:102FC00004464FF47A70B0FBF1F11068B0FBF1F0F9
:102FD000FFF7C3FF50B9102C08D2002221464FF052
:102FE000FF30FFF793FFAC60002032BD012032BDFF
:102FF000640000207000002080B5002000900022B6
:103000002148416841F480414160416801F48041B8
:10301000009100990092036843F0805303600068B8
:1030200000F08050009000980320FFF762FF00221C
:1030300000216FF00B00FFF769FF002200216FF005
:103040000A00FFF763FF002200216FF00900FFF77D
:103050005DFF002200216FF00400FFF757FF002200
:1030600000216FF00300FFF751FF002200216FF0F5
:103070000100FFF74BFFBDE80840002200214FF0A0
:10308000FF30FFF743BF00BF4038024070B5044631
:1030900000250CB9012070BD04F13C06706820B910
:1030A000B56030702046FFF7D1F97068C10610D4C2
:1030B000706820F4885040F002007060204600F0F4
:1030C00033F9B560706820F0020040F001007060D4
:1030D00000E0012500203070284670BD816841F075
:1030E000804181607047DFF83C130A6812F01F0FBF
:1030F000704703D1026842F08042026070477CB59D
:103100000446002004F13C0300901D78012D01D1FC
:10311000022076BD0120187020688568EE0714D45F
:103120008568DFF8086345F001058560DFF8000376
:103130000568B5FBF6F606EB4606009602E0009839
:10314000401E009000980028F9D12568A868C6079D
:1031500051D55E68DFF8D002064046F480765E60A6
:103160006868450505D5586820F4005040F4805043
:1031700058605868C50404D5986820F00600986027
:1031800001E000259D6000201870A36B0FF2A920BC
:10319000D863A36B0FF2FD201864A36B0FF2FD2020
:1031A000D8646FF02200256828602068436843F0E7
:1031B000806343602068836843F4807383601346B0
:1031C00020680A4600F14C01A06B00F0E4F9206889
:1031D000FFF789FF06D1816811F0405F0BD1FFF73F
:1031E0007DFF08E08D4A904202BF8D48016811F0D2
:1031F000405FFFF77EFF002076BD78B502460020D5
:10320000009092F83C30012B01D1022072BD0120C8
:1032100082F83C0007240B6810680A2B11D30A3B84
:10322000C56803EB430300F07BF8C460C3680D6816
:103230008C68A5F10A0606EB4606B4402343C3603A
:103240000FE0056903EB430304FA03F325EA0303E4
:10325000036103690D688C6805EB4505AC402343A9
:1032600003611F244B68072B0CD25B1E456B00F0DB
:1032700055F84463436B4D680C886E1E00F049F8A6
:1032800043631BE00D2B0CD2DB1F056B00F046F8EF
:103290000463036B4D680C88EE1F00F03AF803637B
:1032A0000CE00D3BC56A00F039F8C462C36A4D6892
:1032B0000C88A5F10D0600F02CF8C362574B98421C
:1032C00022D10B685748122B03D1046844F48004C0
:1032D00004600B68102B18BF112B15D1036843F441
:1032E00000030360086810280ED151494F4C0B6849
:1032F000B3FBF4F40A204443009402E00099491E11
:10330000009100980028F9D1002182F83C1000209B
:1033100072BD06EB8606B4402343704703EB83037C
:103320009C4025EA040470473E4A116821F440316C
:103330001160136841680B4313600268516821F4FF
:10334000807151605168036941EA032151605168FD
:1033500021F040715160536881680B43536091685C
:1033600021F4006191609368C1680B439360816AA6
:10337000304B994210D0936823F070639360936848
:10338000816A0B439360916821F04051916093688A
:10339000C16A0B43936007E0916821F0706191600E
:1033A000916821F040519160916821F00201916093
:1033B0009168836941EA43019160016A69B1536888
:1033C00043F400635360516821F4604151605168D7
:1033D000436A5B1E41EA433102E0516821F4006117
:1033E0005160D16A21F47001D162D16AC3695B1E58
:1033F00041EA0351D162916821F4007191609168B2
:10340000036B41EA43219160916821F480619160EE
:103410009168406941EA8021916070470020014035
:103420000820014004230140FEF9FFFF40420F0045
:10343000700000200100000F816B0A6C12F0500F29
:1034400024D1086C40F4007008640A68906810F099
:10345000405F04BF8869002815D1D36A13F4700F48
:1034600002D0906843050ED4506820F020005060D0
:10347000086C20F480700864086CC20403D4086CE3
:1034800040F001000864084600F01DBD896BCA6C5D
:1034900010470000806B00F017BD0000806B4021DA
:1034A0000164416C41F00401416400F00EBD000074
:1034B0007CB50446FEF730FC06460CB9012076BD0B
:1034C00004F13405002028700220687000F079F9BA
:1034D00021680868C20720D5FEF71EFC801B06285D
:1034E000F6D320202862032015E0B0F5005F09D153
:1034F000032E42D8DFE806F00C0A0C02B1F1C07FBF
:103500003BD105E0022E03D9F61E36D1C80134D5D1
:10351000402028620120687076BD0A68DFF89002BA
:10352000024060680243A0680243E06802432069E9
:10353000024360690243A0690243E0690243206AD2
:103540000243606A042803D1E36A206B03431A43F1
:103550000A6023685A69606AD208042840EAC202F5
:103560000BD1A66AE16A324339B1A0690028BCD107
:10357000002E18BF022EC9D0C0D35A61204600F0D9
:103580003BF9A96A3F228A4082600020286201201C
:103590006870002076BDF8B5044604F134060025B5
:1035A0003078776A012801D10220F2BD0120307005
:1035B0007078012820D1022070703562204600F01A
:1035C0000BF9B06A3F218140B9602068016841F081
:1035D000160101602068416941F080014161F06895
:1035E00020B12068016841F008010160206802688C
:1035F00042F00102026001E0357002252846F2BD6A
:1036000090F83510022903D08022426501207047CE
:10361000052180F8351000680168490849000160FB
:10362000002070472DE9FC41044604F134060020D7
:10363000604900904FF41650776A0A683D68B2FB03
:10364000F0F8B06A082100F0B8F80ED020680268DF
:1036500053070AD5036823F004030360B06A81406E
:10366000B960306A40F001003062B06A25FA00F1BA
:10367000C9070BD521684A69110607D5012101FA4E
:1036800000F0B860306A40F002003062042100F0BF
:1036900093F808D021680A68930704D5B860306AA7
:1036A00040F004003062102100F086F81BD0216841
:1036B0000A68130717D5B860206801684A0307D560
:1036C000006801030BD5716969B1204688470AE09B
:1036D0000168CA0503D4026822F008020260F1689A
:1036E00009B120468847B06A202100F066F841D031
:1036F00021680A68D3063DD5B8602068717805292D
:1037000020D1026822F0160202602068416921F08F
:1037100080014161F168002904BF7069002804D06C
:103720002068016821F0080101603F22B06A8240F0
:10373000BA6000F04CF8F169002935D02046BDE8A8
:10374000FC41084701684A0307D5006801030DD40E
:10375000316979B1204688470CE00168CA0505D473
:10376000026822F01002026000F031F8B16809B17D
:1037700020468847306AB8B1316AC8070ED505209F
:10378000707000F01EF820680099491C884500916F
:1037900002D30168CA07F7D400F019F8B16919B16A
:1037A0002046BDE8FC410847BDE8F3810000000069
:1037B0003F8010F070000020B06A01FA00F005426E
:1037C000704720680168490849000160704700207F
:1037D000307001207070704738B50468256825F492
:1037E0008025256063608068402802D1A260E16086
:1037F00031BDA160E26031BD81B0016801F0FF021E
:10380000103A1823B2FBF3F205A39B5CC365890A47
:103810008902042A28BF091D8165084601B0704746
:10382000000610160006101638B5040001D101205C
:1038300032BD00F022F808B900F023F800F013F8C8
:1038400000F024F8FFE7416100F001F832BD206884
:10385000C16841F40051C160002068602020687098
:10386000A87000207047242068702068C16821F487
:103870000051C160204600F01DB904F13805687898
:103880007047002129702046FEF768BE2068016954
:1038900021F4904101612068416921F02A017047BB
:1038A000416921F040014161606B704738B50446C1
:1038B00025682968EA686B6911F00F0007D188064E
:1038C0005DD590065BD52046BDE83240ACE0D80718
:1038D00002D412F4907F52D0C80705D5D00503D585
:1038E000E06B40F00100E063480705D5D80703D539
:1038F000E06B40F00200E063880705D5D80703D5E8
:10390000E06B40F00400E063080705D5D80703D555
:10391000E06B40F00800E063E06B00286ED08906A1
:1039200004D5900644BF204600F07EF82068406928
:10393000E16B0A0701D440061BD5204600F05FF872
:10394000206841694A060FD5FFF7AAFF60B10FF260
:10395000CD010165606BFFF753FE00284ED0606B10
:10396000016DBDE8344008472046BDE8324000F014
:10397000ADBA204600F0AAFA0020E06331BD080687
:103980002CD510062AD594F83900212836D1A16803
:10399000206AB1F5805F0DD10188C1F3080169602B
:1039A000206918B9216A881C206207E0206A411C3E
:1039B000216203E0411C216200786860E08C401EB7
:1039C000E08480B2D0B92068C16821F08001C16074
:1039D0002068C16841F04001C16031BD48060DD585
:1039E00050060BD5E86820F04000E860202184F8FC
:1039F00039102046BDE8324000F069BA31BD016897
:103A0000CA6822F49072CA6001684A69520852007A
:103A10004A61202180F83A1070470000806B002135
:103A2000C185C18400F052BA80B590F83A102229BD
:103A30003ED18268B2F5805F14D1826A016941B9D2
:103A400003685968C1F308011180826A911C816280
:103A500018E001684B6803F0FF031380816A4A1C79
:103A600082620FE001690029816A04D14A1C8262E6
:103A70000268536805E04A1C82620268536803F0DA
:103A80007F030B70C18D491EC18589B271B9016870
:103A9000CA6822F49072CA6001684A6952085200EA
:103AA0004A61202180F83A1000F012FA002002BD8D
:103AB000022002BD2DE9F0470446642521680A6909
:103AC000E06822F4405202430A611926CA68484855
:103AD0000240A06802432069024360690243E06932
:103AE0000243CA604A69A06922F4407202434A61F3
:103AF000E3694048404AB3F5004F3BD1914218BFBB
:103B0000814210D1FFF7A4F90746FFF7A1F98046DB
:103B1000FFF79EF98146FFF79BF906FB09F98246FC
:103B2000FFF796F90FE0FFF78BF90746FFF788F9E3
:103B30008046FFF785F98146FFF782F906FB09F910
:103B40008246FFF77DF96168490000F057F8DB0015
:103B50003233B3FBF5F35B00B2FBF5F203F4F87319
:103B600000F05AF8ED0032356420B5FBF0F000F0BB
:103B7000070037E0914218BF81420ED1FFF768F984
:103B80000746FFF765F98046FFF762F98146FFF7C0
:103B90005FF98246FFF75CF90DE0FFF751F9074640
:103BA000FFF74EF98046FFF74BF98146FFF748F9DA
:103BB0008246FFF745F906FB09F96168890000F0C4
:103BC0001DF81B013233B3FBF5F3B2FBF5F203F042
:103BD000F00300F021F82D0132356420B5FBF0F040
:103BE00000F00F002168C3188B60BDE8F08700006B
:103BF000F369FFFF00140140001001407743B7FB59
:103C0000F1F206FB08F7B7FBF1F3B9FBF1F7B7FBED
:103C1000F5F705FB1733704703EB021306FB0AF7B2
:103C20004643B7FBF1F2B6FBF1F06421B0FBF1F0D3
:103C300005FB10257047FDF794BA000038B504461F
:103C4000FEF76AF814F1010F054602D00448017826
:103C50006418FEF761F8401BA042FAD331BD00BFE3
:103C60006400002000B500BF13009646944610394A
:103C700028BFA0E80C50FAD85FEA417C28BF0CC0EE
:103C800048BF40F8042BC90728BF20F8022B48BFC3
:103C900000F8012B00BD0000B3BBD9B1B2F5803FE5
:103CA0007DD2022A1ED98C46B1FBF2F102FB11C370
:103CB0001B0443EA1043B3FBF2FC02FB1C3380B24B
:103CC00040EA0343B3FBF2F002FB103240EA0C403F
:103CD00000237047022A05D98446B0FBF2F002FBAC
:103CE00010C270474AB105D100F0010249085FEAED
:103CF0003000704700220023704700F0EBB80B0043
:103D00000200002100207047904271EB030CF6D3B3
:103D1000B3F5803F2FD2F0B5B3FA83F7B1FA81F44F
:103D2000A7F10F0E3D1B5340CEF1200602FA0EF212
:103D3000F3415340B5F10F0746D80F3C2C444140A6
:103D4000C4F12006A040F1414140B1FBF3F603FB72
:103D50001611A2FB0645001BA94102D2761E80184F
:103D6000594180EA010221FA0EF362FA0EF20021B3
:103D70005A403046F0BD30B4B1FBF3FC03FB1C11DC
:103D8000A2FB0C45001BA94103D2ACF1010C801829
:103D9000594130BC02460B46604600217047B2F1E3
:103DA000807F65D3F0B5B2FA82F7B1FA81F4C7F13A
:103DB0000F063D1B22FA06F307F1110EF2412035E2
:103DC0005A40B5F10F07B8D94140C4F12006A040D0
:103DD000F1414140B1FBF3FC03FB1C11A2FB0C457C
:103DE000001BA94103D2BCF1010C801859410F2FCF
:103DF00012D30F3FC90341EA5041B1FBF3F603FB75
:103E00001611A2FB0645D4EBC030A94102D2761EA2
:103E10008018594146EACC3C07B34140C7F120061F
:103E2000B840F1414140B1FBF3F603FB1611A2FB90
:103E30000645001BA94102D2761E8018594180EA2E
:103E4000010221FA0EF3C7F1200462FA0EF20CFA15
:103E500007F05A402CFA04F13043F0BD80EA010229
:103E600021FA0EF3002162FA0EF260465A40F0BDCC
:103E70008C46B1FBF2F102FB11C31B0243EA106353
:103E8000B3FBF2FC02FB1C331B024CEA002043EAAA
:103E90001063B3FBF2FC02FB1C331B024CEA002054
:103EA00043EA1063B3FBF2FC02FB1C331B024CEA37
:103EB000002043EA1063B3FBF2FC02FB1C324CEA25
:103EC0000020002370477047704770477047704765
:103ED00070470000704700007047FEE7FEE7FEE70E
:103EE000FEE770477047704780B500F03BF8BDE8CB
:103EF0000140FFF75FB80120FEF7DDB80220FEF7B2
:103F0000DAB80420FEF7D7B80820FEF7D4B810209E
:103F1000FEF7D1B880B52020FEF7CDF84020FEF79F
:103F2000CAF88020FEF7C7F84FF48070FEF7C3F898
:103F3000BDE802404FF40070FEF7BDB80548FFF73A
:103F4000B5BC0548FFF76EBB0448FFF76BBB0448E0
:103F5000FFF768BB180400200C0300204C0200206F
:103F6000AC0200200248416802788918416070471D
:103F7000640000200E48016841F4700101600022D5
:103F80000C49086840F0010008608A600A480A6825
:103F900002400A60002209484860086820F4802036
:103FA0000860CA604FF00060054908607047000073
:103FB00088ED00E000380240FFFFF6FE10300024DC
:103FC00008ED00E000000000000000000102030412
:103FD0000607080919E050F8042BD30744BFA9F1DC
:103FE00001039A18091F0023042942F8043BF9D25F
:103FF0005FEA817C134604D54FF0000CA2F800C0A4
:104000009B1CC90744BF0021197050F8041B0029EC
:10401000E1D1704730B5016884684218416802EB0D
:104020005103C9070BD54C4409E012F9011B12F8E2
:10403000015B002904F8015B05D5491CF9D19A42BE
:10404000F3D10C3030BD491EF1D5F8E710B5074962
:1040500079441831064C7C44163404E00A68081D83
:10406000114488470146A142F8D110BD2C00000040
:10407000480000004EF68851CEF20001086840F476
:1040800070000860BFF34F8FBFF36F8F4FF0007069
:10409000E1EE100A704700003DFFFFFF040400003E
:1040A00074000020000000006DFFFFFF8001000091
:1040B000B00000000000002000F00DF8002801D042
:1040C000FFF7C4FFAFF300800020AFF30080FDF7DF
:1040D00029FE00F002F80120704700F001B800004E
:1040E00007463846FDF7D4FAFBE700000148804751
:1040F00001480047753F0008FD400008AFF300800D
:10410000FFF7B8FFFFF7D8FF00000000010203042B
:10411000FFF7FEBFFFF7FEBFFFF7FEBFFFF7FEBFD3
:10412000FFF7FEBFFFF7FEBFFFF7FEBFFFF7FEBFC3
:10413000FFF7FEBFFFF7FEBFFFF7FEBFFFF7FEBFB3
:10414000FFF7FEBFFFF7FEBFFFF7FEBFFFF7FEBFA3
:10415000FFF7FEBFFFF7FEBFFFF7FEBFFFF7FEBF93
:10416000FFF7FEBFFFF7FEBFFFF7FEBFFFF7FEBF83
:10417000FFF7FEBFFFF7FEBFFFF7FEBFFFF7FEBF73
:10418000FFF7FEBFFFF7FEBFFFF7FEBFFFF7FEBF63
:10419000FFF7FEBFFFF7FEBFFFF7FEBFFFF7FEBF53
:1041A000FFF7FEBFFFF7FEBFFFF7FEBFFFF7FEBF43
:1041B000FFF7FEBFFFF7FEBFFFF7FEBFFFF7FEBF33
:1041C000FFF7FEBFFFF7FEBFFFF7FEBFFFF7FEBF23
:1041D000FFF7FEBFFFF7FEBFFFF7FEBFFFF7FEBF13
:1041E000FFF7FEBFFFF7FEBFFFF7FEBFFFF7FEBF03
:1041F000FFF7FEBFFFF7FEBFFFF7FEBFFFF7FEBFF3
:10420000FFF7FEBFFFF7FEBFFFF7FEBFFFF7FEBFE2
:10421000FFF7FEBFFFF7FEBFFFF7FEBFFFF7FEBFD2
:10422000FFF7FEBFFFF7FEBFFFF7FEBF0001FD0077
:104230002202000100040002000800030040000602
:1042400000800007000001080000020900100005BE
:1042500000200004F700012030FD400401020304A7
:1042600005FA00042030404042F90009010203042D
:1042700005060708090AF2000001F9000010FC0019
:044280000224F40020
:04000005080040FDB2
:00000001FF
