:020000040800F2
:10000000A0040020ED18000821180008231800089B
:10001000251800082718000829180008000000000B
:100020000000000000000000000000002B18000885
:100030002D180008000000002F18000831180008D3
:100040002119000825190008291900082D19000890
:100050003119000835190008391900083D19000840
:100060004119000845190008491900084D190008F0
:100070005119000855190008591900085D190008A0
:100080006119000865190008691900086D19000850
:100090003518000871190008751900087919000849
:1000A0007D190008811900088519000889190008C0
:1000B0008D19000891190008951900089919000870
:1000C0009D190008A1190008A5190008A919000820
:1000D000AD1900083B180008B1190008B51900084F
:1000E000B9190008BD190008C119000838B5040085
:1000F0001ED094F8200010B9204600F0D5FA2068F0
:10010000016821F00201016000F062FB05462068F1
:1001100041688A0762D500F05BFB401B0B28F6D3D1
:1001200004E000F055FB401B0B285AD300F0F2F816
:10013000012032BD016821F080010160617E2068EC
:10014000012904D1026842F04002026003E0016824
:1001500021F040010160A17E2068012904D10268DC
:1001600042F02002026003E0016821F020010160FA
:10017000E17E2068012904D1026822F010020260A9
:1001800003E0016841F010010160217F206801292E
:1001900004D1026842F00802026003E0016821F025
:1001A00008010160617F2068012904D1026842F0E2
:1001B0000402026003E0016821F004010160A2680A
:1001C000E068216802432069024360690243606875
:1001D000401E0243CA6100206062A3E000F0A7F85D
:1001E000054620684168CA079BD5217E0129A1D117
:1001F000026842F080020260A0E7F8B5066890F855
:100200002020012A18BF022A54D106F500720124C9
:10021000106840F00100106006F511750B7DD06983
:1002200003F01F0304FA03F3DC432040D06106F51A
:100230001076C86970B9D7682740D7604F68C8681A
:1002400000F03BF808688F6880B240EA07404F69C9
:1002500045F83700C86901280ED1D7681F43D76019
:100260004F68086800F029F8C8688E6880B240EAD4
:1002700006404E6945F83600886918B9556825402A
:10028000556002E0506818435060086918B9556914
:100290002C40546102E0506918435061086A0128FB
:1002A00002D1D1690B43D36110684008400010604F
:1002B0000020F2BD00F044F83FE0BFB247EA00473B
:1002C000486946F83070704738B5044694F8200005
:1002D000012816D1022184F82010206801684908FD
:1002E0004900016000F074FA054620684168C807BB
:1002F0000DD500F06DFA401B0B28F6D300F00AF87C
:1003000003E0606A40F400206062012032BD0020FA
:10031000606232BD606A40F400306062052184F89A
:1003200020107047012084F82000002032BD0168B1
:1003300041F00101016000F04BBA41620120F2BDC1
:10034000416A41F480217047416A41F48021416251
:100350000120704778B590F82040012C18BF022C7E
:1003600068D10029046801D1E56800E0256915F02D
:10037000030F03D1416A41F400115DE00D0104F562
:10038000D876745914F004049460066806F5D8769B
:1003900003D17459640D146002E07659F608566072
:1003A000046804F5D8767659C6F34004D46000F0AA
:1003B0004BF804F00F04146100F046F8C4F307246E
:1003C000946100F041F8240C546102682A44D2F888
:1003D000B8211A7002682A44D2F8B821120A5A7059
:1003E00004686219D2F8B821120C9A700468621974
:1003F000D2F8B821120EDA7000F021F81A710268F2
:100400002A44D2F8BC21120A5A7100F018F8120CD2
:100410009A7100F014F8120EDA71006821B9C168FF
:1004200041F02001C16003E0016941F02001016158
:10043000002072BDFFF784FF4162012072BD046895
:100440006219D2F8BC21704704682C44D4F8B44136
:10045000704790F82020012A18BF022A03D10068B3
:100460004269114300E06FE74161002070472DE9C8
:10047000F84F05464FF0000828684669D0F804B0E8
:100480008468D0F80C90D0F810A08769F10745D5A2
:10049000E10713D501218160A00703D5284600F0AC
:1004A0009DF90BE0600748BF4FF4006806D42007B1
:1004B0004EBF4FF48058284600F091F9E00515D55D
:1004C00029684FF480708860A00503D5284600F0A5
:1004D00087F90BE0600548BF48F4005806D42005B2
:1004E0004EBF48F48048284600F07BF9E00315D55C
:1004F00029684FF480308860A00303D5284600F0B7
:1005000071F90BE0600348BF48F4004806D42003AB
:100510004EBF48F48038284600F065F9300748BFE0
:100520005FEAC96004D52968102048F40078C860E3
:10053000700748BF5FEA097005D529680820C860C0
:10054000284600F043F9B00707D52868C16811F0C4
:10055000030F1CBF284600F00DF9700648BF5FEA84
:10056000CA6004D52968102048F480680861B00684
:1005700048BF5FEA0A7005D5296808200861284647
:1005800000F032F9F00607D52868016911F0030F71
:100590001CBF284600F029F9B00348BF5FEACB60D2
:1005A00005D5296810204860284600F01FF9F0039F
:1005B00048BF5FEA0B7005D52968082048602846C7
:1005C00000F015F9300440D55FEA4B703AD5F005DC
:1005D00003D5F80748BF48F00108B00503D5B807B0
:1005E00048BF48F00208700503D5780748BF48F0B7
:1005F0000408300526D517F0700F23D007F07007D8
:10060000102F0CD0202F0DD0302F0ED0402F0FD018
:10061000502F10D0602F08BF48F480780DE048F0CC
:1006200008080AE048F0100807E048F0200804E055
:1006300048F0400801E048F080082868816921F00E
:1006400070018161042029684860B8F1000F08D06A
:10065000686A48EA000068622846BDE8F24F00F088
:10066000C7B8BDE8F18F000080B55248524901601B
:100670000321416000218160C1604FF400210161CC
:100680004FF4801141610021017601214176002162
:100690004183017701214177FFF728FD18B1BDE8BB
:1006A000014000F0E0B801BD18B585B0044601A8CE
:1006B000102100F0D9F821683F4A914230D13F48DB
:1006C0003F4C416841F0007141600022416801F0F7
:1006D000007100910099016841F0040101604FF43C
:1006E0000061006800F004000090009801910292FF
:1006F000039201A9204600F0BBF84FF4805001900E
:10070000022103200291049001A9204600F0B0F8D4
:1007100000220121142000F0A9F9142000F0C3F9EF
:1007200006B010BD10B58AB00020002105900691DA
:100730000091019102910391049101200E210790F3
:100740000890099169461B4C2046FFF756FD08B1F9
:1007500000F089F82046FFF7B7FD08B100F083F8F4
:1007600002212046FFF775FE04212046FFF771FEA7
:100770000AB010BD10B5134C04F11C032246002131
:10078000FFF7E8FD08B100F06EF8216840F2213073
:10079000814201BFA06800282169082908D104F11D
:1007A0001C01BDE8104064230822074800F0E2B9AC
:1007B00010BD0000500000200064004018100240EE
:1007C0000008014078000020100000207047000061
:1007D00001484068704700BF000000207047704724
:1007E0007047704770477047704770477047704751
:1007F000704780B500F0CCFB00F009F800F0DAFBA0
:10080000FFF732FF00F012FCFFF78CFFFEE700B5A8
:100810008FB005A8282100F027F86846142100F0C1
:1008200023F80120059000214FF4803006900D90B0
:1008300007914FF4E010012202210E9009920C91D1
:1008400005A800F051FC0F2002210090019100202A
:100850004FF480610290039104900221684600F0F9
:10086000D1FD0FB000BD7047002200F0B9BE0000FE
:100870002DE9F84F83460F46002080466049614AC3
:10088000614B4FF00F094FF0010A3C680AFA08F675
:1008900006EA040EB64540F0A4807C683CB3012C07
:1008A0001AD0022C1DD0032C2ED0112C16D0122CB5
:1008B0001AD0564DAC421CBF554DAC4217D0554DC9
:1008C000AC421CBF544DAC4211D0544DAC421CBF85
:1008D000534DAC420BD018E0F86816E0F868001DE4
:1008E00013E0F868083010E0F8680C300DE0B868E4
:1008F00008B9042009E0012819BF0820CBF81460CA
:100900000820CBF8106000E00020BEF5807F03D205
:10091000DC464FEA880404E0A8F108040BF1040C5B
:10092000A400DCF8005009FA04F6B54300FA04F418
:100930002C43CCF800407C68E40052D51C6844F09D
:1009400001041C604FEA980C1D6805F00105009534
:10095000009C52F82C604FEA880404F00C0409FA59
:1009600004F526EA05052F4EB34508BF00260ED034
:100970002D4EB34508BF012609D02C4EB34508BF04
:10098000022604D02A4EB3450CBF0326042606FADD
:1009900004F42C4342F82C406FEA0E067C68E50311
:1009A00004D50D684EEA05050D6002E00C68344080
:1009B0000C607C68A5034C684CBF4EEA04043440CC
:1009C0004C607C68E5028C684CBF4EEA04043440FD
:1009D0008C607C68A502CC684CBF4EEA04043440AD
:1009E000CC6008F10108B8F10F0F7FF64EAFBDE8FB
:1009F000F18F81B002B90904016101B070470000B4
:100A000000040140080001401810024000001110CD
:100A10000000121000002110000022100000311010
:100A20000000321000080140000C0140001001409D
:100A3000001401400901020081B006D5294A00F0E6
:100A40000F00104400F8041C01E0274B195401B0BA
:100A50007047264A13684FF6FF0100020B4000F46E
:100A6000E0601843224908431060704738B51F4BB7
:100A70001C68C4F30223C3F10704052C28BF042417
:100A80001D1D072D34BF0023DB1E012505FA04F4CC
:100A9000641E2140994005FA03F35B1E1A4011437E
:100AA000BDE83440C6E7012200F01F01114BFFE70B
:100AB0008A40400943F82020704710B5401EB0F12D
:100AC000807F01D3012010BD0B4C60600F214FF0DF
:100AD000FF30FFF7AFFF0022A26007202060002058
:100AE00010BD000018ED00E000E400E00CED00E0B7
:100AF0000000FA0500E100E010E000E038B5040075
:100B000001D1012032BD00F022F808B900F023F82D
:100B100000F013F800F024F8FFE7416100F001F85D
:100B200032BD2068C16841F40051C1600020686096
:100B300020206870A870002070472420687020680A
:100B4000C16821F40051C160204600F0ACB904F145
:100B500038056878704700212970204600F07EBA79
:100B60002068016921F4904101612068416921F008
:100B70002A0170472DE9F843054605F138070C4670
:100B800078782028164698463CD1002C14BF002EB9
:100B9000012038D03878012834D001213970212043
:100BA000002179607870FFF713FEAE848146EE84F1
:100BB00003E0296814F8010B4860E88C28B3E98C3D
:100BC000481EE8844B46A868CDF80080B0F5805FE9
:100BD0000DD100F024F870B920882968C0F308000E
:100BE00048602869002814BF641CA41CE5E700F0D5
:100BF00016F80028DDD0032005E0202078700020C2
:100C0000387000E00220BDE8F283CDF800804B464A
:100C10000022402100F005F80028EED0EBE700228A
:100C200080212846AEE0416921F040014161606BBE
:100C3000704738B5044625682968EA686B6911F081
:100C40000F0007D188065DD590065BD52046BDE82C
:100C50003240DDE0D80702D412F4907F52D0C807AA
:100C600005D5D00503D5E06B40F00100E0634807EF
:100C700005D5D80703D5E06B40F00200E063880794
:100C800005D5D80703D5E06B40F00400E063080702
:100C900005D5D80703D5E06B40F00800E063E06BB2
:100CA00000286ED0890604D5900644BF204600F087
:100CB000AFF820684069E16B0A0701D440061BD5F4
:100CC000204600F091F8206841694A060FD5FFF7E9
:100CD000AAFF60B10FF22D114163606B00F09AFC26
:100CE00000284ED0606B416BBDE834400847204679
:100CF000BDE8324000F0EABC204600F0E7FC0020EE
:100D0000E06331BD08062CD510062AD594F83900C9
:100D1000212836D1A168206AB1F5805F0DD1018804
:100D2000C1F308016960206918B9216A881C206232
:100D300007E0206A411C216203E0411C2162007827
:100D40006860E08C401EE08480B2D0B92068C16841
:100D500021F08001C1602068C16841F04001C1609C
:100D600031BD48060DD550060BD5E86820F040008F
:100D7000E860202184F839102046BDE8324000F0B8
:100D8000A6BC31BD2DE9F041069C05460E469046B5
:100D90001F46286801683140B1420CBF0120002085
:100DA000404517D114F1010FF3D024B1FFF710FD26
:100DB000C01B8442EDD22868C16821F4D07100F0D4
:100DC0000CF805F13800202141708170002101707C
:100DD000032000E00020BDE8F081C160286841697F
:100DE00049084900416170470168CA6822F490725D
:100DF000CA6001684A69520852004A61202180F89D
:100E00003A107047406A0021C185C18400F05EBC81
:100E100080B590F83A10222943D18268B2F5805FFC
:100E200014D1826A016941B903685968C1F30801A4
:100E30001180826A911C816218E001684B6803F09E
:100E4000FF031380816A4A1C82620FE00169002956
:100E5000816A04D14A1C82620268536805E04A1C18
:100E600082620268536803F07F030B70C18D491ED4
:100E7000C18589B299B90168CA6822F02002CA60A6
:100E80000168CA6822F48072CA6001684A6952081F
:100E900052004A61202180F83A1000F019FC00202D
:100EA00002BD022002BD2DE9F047044664252168F9
:100EB0000A69E06822F4405202430A611926CA68AE
:100EC00031480240A068024320690243606902433E
:100ED000CA604A69A06922F4407202432B484A6101
:100EE00081420ED100F052FB074600F04FFB8046D6
:100EF00000F04CFB814600F049FB824600F046FBC7
:100F00000DE000F03BFB074600F038FB804600F0A8
:100F100035FB814600F032FB824600F02FFB06FBDA
:100F200009F9616889007743B7FBF1F206FB08F71E
:100F3000B7FBF1F3B9FBF1F7B7FBF5F705FB173397
:100F40001B013233B3FBF5F3B2FBF5F203F0F00310
:100F500003EB021306FB0AF74643B7FBF1F2B6FBBD
:100F6000F1F06421B0FBF1F005FB10252D013235C5
:100F70006420B5FBF0F0216800F00F00C3188B600F
:100F8000BDE8F08700000000F3E9FFFF00380140F2
:100F900080B50748016841F0100101600320FFF7A8
:100FA00058FD002000F096FB00F0B4FB002002BDCD
:100FB0000020024018B585B001A81021FFF754FCAD
:100FC0001848046844F0100404600168164C01F0ED
:100FD000100100910099016841F020010160026850
:100FE00002F02002009201220099016841F0040100
:100FF00001604FF40041006800F004000090009888
:101000002046FFF7F6FC0121029103914FF40040C6
:10101000022101900491204601A9FFF729FC06B0A6
:1010200010BD0000181002400010014080B52A4891
:101030002A4901604FF4E131416000218160C160C3
:1010400001610C21416100218161C161FFF756FD01
:1010500018B1BDE80140FFF706BC01BD18B585B069
:10106000044601A81021FFF7FFFB21681B4A9142AB
:1010700030D11B481B4C026842F4804202600222BD
:10108000016801F4804100910099016841F0040178
:1010900001604FF40071006800F0040000900098B7
:1010A000019103200490029201A92046FFF7E0FB82
:1010B0004FF480600021019002910391204601A924
:1010C000FFF7D6FB002202212520FFF7CFFC2520C9
:1010D000FFF7E9FC06B010BD100000200038014009
:1010E00018100240000801402DE9F8430646DFF8D9
:1010F000B0543078C1074AD5686800F00C00042865
:1011000007D0686800F00C0008280BD16868C1039C
:1011100008D5296888033AD57068002840F0C08057
:10112000012069E17068B0F5803F0FD038B92968B7
:1011300021F480312960286820F4802009E0B0F58E
:10114000A02F296807D141F480212960286840F444
:101150008030286006E021F4803129602A6822F47A
:1011600080222A60706868B1FFF732FB0446296864
:10117000880300F19580FFF72BFB001B6528F6D351
:10118000032039E1FFF724FB04462868810340F17E
:101190008780FFF71DFB001B6528F6D3F0E7FFF7FC
:1011A00017FB001B022840F2AA80E9E7306970B102
:1011B00001213960FFF70CFB04462868810700F124
:1011C000DC80FFF705FB001B0228F6D9D8E7386062
:1011D000FFF7FEFA04462868810765D5FFF7F8FA9D
:1011E000001B0228F7D9CBE70860FFF7F1FA0446A5
:1011F000686A810777D5FFF7EBFA001B0228F7D959
:10120000BEE708B9286A09E00528286A06D140F037
:1012100004002862286A40F0010005E04008400010
:101220002862286A20F00400286241F28938F068B8
:1012300068B1FFF7CDFA8146286A810700F1AA80DC
:10124000FFF7C6FAA0EB09004045F5D398E7FFF792
:10125000BFFA8146286A810740F19C80FFF7B8FAFF
:10126000A0EB09004045F5D38AE7FFF7B1FA001B70
:10127000022840F2A28083E7FFF7AAFA001B0228A7
:1012800040F2B5807CE700F0B9F804462868810197
:1012900040F1B180FFF79CFA001B0228F6D96FE7F6
:1012A0003078DFF8087381071BD5686810F00C0FE1
:1012B00009D0686800F00C0008287FF477AF6868F0
:1012C000C1033FF573AF2968880703D5306901284A
:1012D0007FF426AF2968706921F0F80141EAC00166
:1012E0002960317808071DD5B069DFF8C4120028DD
:1012F0003FF47AAF01220A60FFF76AFA0446686A8F
:1013000081077FF54CAFDFF89C120868C0084FF4E6
:101310007A72B0FBF2F2009200BF0098411E0028E2
:101320000091F9D13078410739D5E8690024C1002E
:1013300009D4E86940F08050E8610124E86900F0D0
:10134000805000900098DFF86C82D8F80010C80533
:101350001BD4D8F8000040F48070C8F80000FFF7F4
:1013600037FA8146D8F80010C8050ED4FFF730FAD6
:10137000A0EB09006528F5D302E72868716920F021
:10138000F80040EAC1002860ABE7F06801287FF46C
:1013900038AF3FE71CB1E86920F08050E861F069A0
:1013A00048B3696801F00C0108293FF4B9AE02287E
:1013B0007FF469AF00F022F80446286881013FF508
:1013C00054AF306AB0F5803F05D16968B06821F448
:1013D0000031014369606968306A21F47411014386
:1013E000706A01436960012000F009F8044628682A
:1013F00081017FF541AF0020BDE8F283002038660F
:10140000FFF7E6B92DE9F8436B4F05463868894682
:1014100000F00700484502D200F087F879D128682B
:101420005F4C810712D5400703D5606840F4E06047
:1014300060602978080703D5606840F460506060F8
:101440006168A86821F0F001014361602878C10754
:1014500057D56868012802D121688A0303E0022871
:1014600003D121688A0103D453E02268910750D543
:101470006168890840EA8100606041F28938FFF7BD
:10148000A7F90646686801280BD1606800F00C00D7
:10149000042836D0FFF79CF9801B4045F5D3032084
:1014A0002DE0022837D1606800F00C00082828D011
:1014B000FFF78EF9801B4045F5D3F0E72878410708
:1014C00005D56168E86821F4E0610143616028782E
:1014D000010706D56068296920F4605040EAC10020
:1014E000606000F02DF862683449C2F30312895C31
:1014F0002C4AC8401060002000F0ECF80020BDE845
:10150000F283386800F007008145D7D200F00DF86B
:10151000D4D00120F3E7606810F00C0FF1D0FFF792
:1015200057F9801B4045F6D3B9E73968C90849EA3D
:10153000C1013960386800F0070048457047000075
:101540001F4919480A6802F00C03082B00D07047A5
:1015500010B500BF1DA4C2F38343D203E35C09D5D9
:10156000096800BF1DA2C1F340415843515CB0FB64
:10157000F1F010BD18461349484310BD0948104A00
:10158000006813681049C3F3022206E005480C4ABC
:10159000006813680C49C3F3C222895CC8407047D5
:1015A000001002400C00002000127A0000004242AD
:1015B000800442420070004000200240A41700084E
:1015C0000410024000093D00181900080203040538
:1015D000060708090A0B0C0D0E0F1010010200007F
:1015E00000B500BF130096469446103928BFA0E806
:1015F0000C50FAD85FEA417C28BF0CC048BF40F8C5
:10160000042BC90728BF20F8022B48BF00F8012B84
:1016100000BD000038B590F821200024022A00F116
:10162000340103D00420486001243EE002681368BE
:1016300023F00E0313600268DFF8743015686D083C
:101640006D00156002689A4208BF012222D0DFF8BF
:1016500064309A4208BF10221CD0DFF85C309A42F6
:1016600008BF4FF4807215D0DFF850309A4208BF9F
:101670004FF480520ED0DFF848309A4208BF4FF442
:10168000803207D0DFF83C309A420CBF4FF4801212
:101690004FF08072DFF830301A60012280F821208C
:1016A00080F82040096801B18847204632BD00001B
:1016B000080002401C00024030000240440002408A
:1016C000580002406C00024004000240704770471E
:1016D0007047000038B50D4D0D4A297804464FF487
:1016E0007A70B0FBF1F11068B0FBF1F0FFF7E5F9AB
:1016F00050B9102C08D2002221464FF0FF30FFF7DE
:10170000B5F9AC60002032BD012032BD00000020E0
:101710000C0000200E4881B0016841F00101016019
:10172000026802F0010200920099416841F0805184
:101730004160406800F080500090009805480168C2
:1017400021F0E06141F00071016001B0704700BF1D
:1017500018100240040001400E49086840F00100E2
:1017600008604A680C4802404A600B680B48034016
:101770000B60086820F4802008604FF41F004A685E
:1017800022F4FE024A6088604FF00060044908605D
:1017900070470000001002400000FFF8FFFFF6FE57
:1017A00008ED00E00000000000000000010203045A
:1017B0000607080919E050F8042BD30744BFA9F124
:1017C00001039A18091F0023042942F8043BF9D2A7
:1017D0005FEA817C134604D54FF0000CA2F800C0EC
:1017E0009B1CC90744BF0021197050F8041B002935
:1017F000E1D1704710B450F8041B79B10268436816
:1018000002440830DC0744BFA9F10104E31852F890
:10181000044B43F8044B091FF9D1ECE710BC7047A7
:101820007047FEE7FEE7FEE7FEE770477047704748
:1018300000F00AB80248FEF71ABE0248FFF7F9B9ED
:10184000500000201000002002494A6808788218E1
:101850004A6070470000002010B5074979441831EC
:10186000064C7C44163404E00A68081D114488477D
:101870000146A142F8D110BD080000002800000078
:1018800035FFFFFF8C00000010000020000000006A
:1018900065FFFFFF10000000640000000000002052
:1018A0000000000000F00DF8002801D0FFF7D4FF81
:1018B000AFF300800020AFF30080FEF79AFF00F046
:1018C00002F80120704700F001B8000007463846D2
:1018D00000F002F8FBE7000080B5AFF30080024A99
:1018E00011001820ABBEFBE726000200014880472C
:1018F00001480047591700080D19000801000000B1
:10190000000000001000000000A24A04AFF30080B5
:10191000AFF30080FFF7C6FF0000000001020304E0
:10192000FFF7FEBFFFF7FEBFFFF7FEBFFFF7FEBFEB
:10193000FFF7FEBFFFF7FEBFFFF7FEBFFFF7FEBFDB
:10194000FFF7FEBFFFF7FEBFFFF7FEBFFFF7FEBFCB
:10195000FFF7FEBFFFF7FEBFFFF7FEBFFFF7FEBFBB
:10196000FFF7FEBFFFF7FEBFFFF7FEBFFFF7FEBFAB
:10197000FFF7FEBFFFF7FEBFFFF7FEBFFFF7FEBF9B
:10198000FFF7FEBFFFF7FEBFFFF7FEBFFFF7FEBF8B
:10199000FFF7FEBFFFF7FEBFFFF7FEBFFFF7FEBF7B
:1019A000FFF7FEBFFFF7FEBFFFF7FEBFFFF7FEBF6B
:1019B000FFF7FEBFFFF7FEBFFFF7FEBFFFF7FEBF5B
:0419C000FFF7FEBF70
:040000050800190DC9
:00000001FF
