:020000040800F2
:10000000F01F0020B9C1000881B5000883B50008C1
:1000100085B5000887B5000889B500080000000014
:100020000000000000000000000000008BB5000888
:100030008DB50008000000008FB5000891B50008DC
:1000400093C2000897C200089BC200089FC2000824
:10005000A3C20008A7C20008ABC20008AFC20008D4
:100060009DB50008A7B50008B1B50008B3C20008E7
:10007000B7C20008BBC20008BBB50008C5B5000880
:10008000CFB50008BFC20008C3C20008C7C200083D
:10009000D9B50008CBC20008CFC20008E3B50008FC
:1000A000D3C20008D7C20008DBC20008DFC20008C4
:1000B000E3C20008E7C20008EBC20008EFC2000874
:1000C000F3C20008F7C20008FBC20008FFC2000824
:1000D00003C30008EDB5000807C300080BC3000800
:1000E0000FC3000813C3000817C300081BC3000890
:1000F0001FC3000823C3000827C300082BC3000840
:100100002FC3000833C3000837C300083BC30008EF
:100110003FC3000843C3000809B6000847C30008EE
:100120004BC300084FC3000853C3000813B60008B0
:100130002DE9F84F74A7A2B0D7E90045CDE90045F5
:100140002C9EDFF8307C04918DF843605FF0000155
:100150006FA40D9112944FF0FF3682469046994657
:100160000FE0C3462C461BF8011B0498D04700281B
:10017000049000F0B2800D98401C641E0D90F2D1E6
:10018000A84498F80000252807D10021079108917C
:1001900009910A910B910C910DE06A463146404657
:1001A00001F01CF8050001D10D98B5E0D9D5012565
:1001B000E6E741F0010118F8010F2028F9D02328C3
:1001C0000CD02B2804D02D2805D0302809D086E06B
:1001D00041F00201EFE741F00401ECE741F00801D2
:1001E000E9E741F01001E6E700200F900AE00F98E0
:1001F000B84205DA00EB800302EB4302303A0F927B
:1002000008F1010898F80020A2F130000A28EED386
:1002100098F800002E2818BF0E9629D118F8010F63
:100220002A280BD1D9F80000C9F8000008F101080C
:1002300050F8042BC9F800000E9219E02D280CBFCD
:1002400018F8010B002000220E920BE040B90E9A24
:10025000BA4205DA02EB820403EB4403303B0E930F
:1002600008F1010898F80030A3F130020A2AEDD312
:10027000ADF84010129898F8001000F0B9FF08B1DE
:1002800018F8010B8DF842009DF84200682804BF61
:1002900098F80010682903D162208DF8420008E028
:1002A0006C2804BF98F800006C2804D171218DF8E7
:1002B000421008F1010813A806904A4618F8013BBD
:1002C00002A9504600F068F838B913AA02A95046AE
:1002D00000F0CAF900287FF554AF30461CE02A2808
:1002E00082D1D9F80020C9F8002052F8040BC9F8CF
:1002F000002000280F9003D540420F9041F00401E8
:1003000008F1010884E70000000000000000000080
:10031000686A6C747A4C000023B0BDE8F08F6228E4
:1003200020D0682811D06A2803D06C2827D07128E3
:1003300025D10868C01D20F007000860D0E900231F
:1003400008300860194610467047002A0A680A609B
:10035000106803D0121D0A6000B217E0121D0A6077
:1003600080B217E0002A0A680A60106803D0121DE4
:100370000A6040B20AE0121D0A60C0B20AE0002A18
:100380000A680A60106803D0121D0A60C11770471E
:10039000121D0A60002170477CB50D4611461C46AF
:1003A0002E69B4F1250200F04D811C3A00F08680E0
:1003B000121F022A40F282800E3A00F00781521F7B
:1003C0005AD0093A7AD0921E16D0521E35D0521EFB
:1003D000022A73D9121F30D0521F00F09A80521E89
:1003E0004AD0521E00F0E480D21E00F0FD80921E22
:1003F00042D0D21E40D02BE195F83A206C2A09D089
:100400006869421C6A610A680A6052F8043B0A6023
:10041000335427E10A680A6052F8043B0A6000215D
:10042000009301914FF0FF322A6329466A4600F09B
:1004300096F9002840F1168101E195F83A00012271
:10044000FFF76DFFC5E900010023994204DA6869EE
:10045000411C69612D210DE0288F810704D5686951
:10046000411C69612B2105E0C00722D56869411C48
:100470006961202131541CE095F83A000022FFF711
:100480004EFFC5E9000195F83800010711D5D5E9FF
:1004900000230020834208BF82420AD044F020009B
:1004A000782806D1686930213154401C411C6961AB
:1004B0003454214668693044E86083E00868C01D10
:1004C00020F007000860D0E9002308300860C5E983
:1004D0000023D5E90001C80F04D06869411C696197
:1004E0002D210DE0288F810704D56869411C6961C1
:1004F0002B2105E0C00704D56869411C69612021F2
:10050000315468693044E8602146284600F032FAE8
:10051000A8E005F13A02507820B14FF0FF340FF611
:10052000243070E01078622808D0682824D06A2827
:1005300012D06C282ED071280ED02BE00A680A60E9
:1005400052F8040B0A6020B94FF0FF340FF60C305C
:1005500059E0E96A017085E00A680A6052F8040B04
:100560000A6020B94FF0FF340FF6F0204BE0EA6A42
:10057000D317C0E9002375E00A680A6052F8040B3B
:100580000A6020B94FF0FF340FF6D0203BE0E96A53
:10059000018067E00A680A6052F8040B0A6020B91B
:1005A0004FF0FF340FF6B4202DE0E96A016059E006
:1005B0000A680A6052F8040B0A600021C5E90001CC
:1005C000EE607821284600F029F94BE06C2285F88E
:1005D0003A200B680B6053F8042B0B6052BB4FF0B2
:1005E000FF340FF6AC200EE095F83A206C2AF0D0DC
:1005F0000868086050F8044B0860EC603CB94FF0A4
:10060000FF340FF6702000F00DFE201A76BD2E6B21
:10061000002E04D5204600F025FE044608E03246B0
:100620000021204600F046FE002814BF041B34467B
:10063000AC6117E0294600F092F8002812D54FF07F
:10064000FF3076BD6869411C69612521315409E09C
:100650006969481C686125227254210002D0411C3E
:1006600069613454002076BD2DE9F0410E460546FF
:10067000716B7069B46A091A306A091AB069091A8B
:10068000706A091AF069091A96F838000C1B4107BC
:1006900090460DD4002C0BDD2746B0682021A847DA
:1006A0000028B06057D0F06A401C7F1EF062F4D181
:1006B000736942463146284600F0ACFC00284AD116
:1006C000376A002F0ADDB0683021A8470028B060E3
:1006D00041D0F06A401C7F1EF062F4D1B369F26829
:1006E0003146284600F096FCA8BB776A002F09DD4A
:1006F000B0683021A847B06068B3F06A401C7F1E24
:10070000F062F5D1F068B169F369421831462846C4
:1007100000F080FCF8B9B76A002F09DDB06830211D
:10072000A847B060B8B1F06A401C7F1EF062F5D1F6
:1007300096F8380041070BD5002C09DDB068202160
:10074000A847B06038B1F06A401C641EF062F5D171
:100750000020BDE8F0814FF0FF30BDE8F0812DE9C9
:10076000F8470D46A3B02F6B002F8146904648BF37
:100770006FF0004700F0CAFD696B40180FF62C11AE
:100780008128D1E90023CDE9012328BF4FF0FF30B4
:100790003ED20024002F2FDDD8F8001001AA6846B1
:1007A00000F01EFD0646002E35D4D8F8000008B92A
:1007B000761E30D4B7421FDB6869301881280AD30F
:1007C0000020686303AA29464846FFF74DFF04004E
:1007D00012D40020686103A8D5F814A032466946F7
:1007E000504400F09DFDB244C5F814A058F8040B25
:1007F000002818BFBF1BCDD12CB903AA29464846F3
:10080000FFF732FF044614B9002068616863204690
:1008100024B0BDE8F0874FF0FF34F8E72DE9FC473E
:1008200007468A463E69BAF16F0F08BF082405D013
:100830004AF02001782914BF0A2410243C25D7E966
:100840000023BAF1640F18BFBAF1690F90469946B8
:1008500006D100218B4203DAD8F1000869EB49097F
:100860000020814508BF80451FD1386BE8B9082CAE
:100870004CD197F83800010748D530203B2586F841
:100880003B0043E000280ED597F8380000F0140034
:10089000102808D17A6B7869121A386A121A511A1C
:1008A0000029C8BF3962BDE8F3878DF800A0404633
:1008B00049462246E31700F087FD3032D0B26D1E64
:1008C0003A28019504DB9DF80000A0F151018A1837
:1008D0007255404649462246E31700F075FD8046B2
:1008E00089460020814508BF804503D0F86871190A
:1008F0008842DCD3082C09D197F83800010705D5C8
:10090000715D302902D06D1E30207055C5F13C015B
:10091000B9617019F860386B8142B3DA411A3962F3
:100920004FF6EF70398F01403987BDE8F3872DE925
:10093000D04306460F4614464FF00008DFF83894BF
:1009400012E0E00707D542464B463046394600F0F4
:1009500053FE06460F464046494642464B4600F087
:100960004BFE641080468946002CEAD13046394659
:10097000BDE8D0832DE9F34F054641F020048DB04A
:10098000D5E90089612C02AE09D0286B002848BF48
:10099000062003D408BF672C01D101202863D5E9C4
:1009A000002358004015401C0ED119030CD0032021
:1009B000A8619DF8380061381A2802D20FF2F4615C
:1009C00011E00FF2F4610EE058004015401C0FD109
:1009D00019030DD10320A8619DF8380061381A2849
:1009E00014D30FF2DC61E868032200F099FCD3E134
:1009F000194621F00043B3F5801F10460DD20027A1
:100A0000BB4208BFBA42019703D111E00FF2AC61BB
:100A1000E9E701AA00F0C2FE0AE0DFF8607307EB25
:100A20001352DFF85C3301921940DFF85833194351
:100A3000C5E90001612C0ED1E86830210170811CEC
:100A4000E9609DF8381061290CBF78215821417068
:100A50006869801C6861D5E900AB2BF00043002079
:100A60002AF00002834204BF8242002300F05A8130
:100A7000612C40F0A980286B00284CBF2120401C2D
:100A800000904046009F7F1C49460022002300F052
:100A9000BDFED94601988DF8082038BF89F000497D
:100AA000001F0190002FD0460DF1090040F349814D
:100AB00040F2FF71DFF8D0B20C910646404649463D
:100AC0000022002300F0BAFE80F03A814800400D79
:100AD00000F11C0210D0002A0EDD0C98824205DBCA
:100AE00009F0004040EA0B01002013E0A448084050
:100AF00040EA025140460DE029F00043002028F072
:100B00000002834208BF82420FBF40461C2240467B
:100B100000F0ACFE8046894600F046FFFF1F002F24
:100B2000044609DD00F05EFF02460B46404649469A
:100B300000F06AFF80468946F01D072104E004F0BA
:100B40000F0200F8012D2411002C01DD491EF6D5FD
:100B5000491E5CBF002200F8012DF9D5ECE0002011
:100B6000194602AA0A4400E05B1E12F80149491E18
:100B70008442F9D00F2804D10DF10900425C521CC7
:100B80004254002904D50198001D02AE5B1C01905F
:100B9000591E12D49DF838007218147804F13008E8
:100BA0005FFA88F4392CC4BFA0F13A04A044491E6E
:100BB00002F80189F1D58DF83800286B002840F142
:100BC000B080591E2963ACE040464946002200230C
:100BD00000F01CFE019938BF89F0004947F2975098
:100BE00041436A4A91FBF2F20192D2F1070204DD1D
:100BF00040464946FFF79BFE0AE052420020644906
:100C0000FFF795FE02460B464046494600F06EFF50
:100C10008046662C286BDFF87CB106BF019F0A373F
:100C200006273F18142FC8BF142730208DF808005E
:100C300089460DF1090000E03046002F34DD0646FC
:100C40004046494601F076F801460A4606F1080397
:100C500004200A26B2FBF6F606EB860EA2EB4E0245
:100C6000303203F8012C0A22B6FBF2F202EB820EBC
:100C7000A6EB4E063036401E03F8026DE9D1083F60
:100C8000002F03F10806D7DD084601F067F8024699
:100C90000B464046494600F0B7FE00225B4600F096
:100CA000ABFC80468946CBE70DF10901401A0DF1F6
:100CB000090604E00199491E401E0191761C317815
:100CC0003029F7D0662C02D10199491C03E0652C2C
:100CD0000CBF012100212B6BCB189842B8BF431EDB
:100CE000002B1ED4834204DAF05C3528A8BF3920DB
:100CF00000DA30201946721E02EB010800E05B1E8C
:100D000018F80199491E8145F9D0392802D1705C43
:100D1000401C7054002904D50198401C16465B1CE9
:100D20000190019800B200901BB29DF83810324635
:100D3000284600F035F82FE0C61D002F3FF7BEAE65
:100D400030460DF10901401A009903468842C8BF98
:100D50000B46002B0DF109063FF52FAF8342BFF67E
:100D6000FEAE0DF10900C05C07287FF7F8AE0F203A
:100D7000F6E60000CBCCCC0C0000244002FCFFFFC8
:100D8000FFFF0F800000E03F0000F07FA086010021
:100D90000000F03F84D797410FB0BDE8F08F00000E
:100DA0002DE9F84783B006468A461746984600F074
:100DB00019FAB8F1000F406A356B90F8009002DC28
:100DC0004FF00108BFA7BDF930404AF02000662867
:100DD00008BF641C15D0672840F0848014F1040F0C
:100DE000C0F28680AC4280F2838096F83800641CA2
:100DF000010702D4A845B8BF454620B22D1A48BF06
:100E000000250FFA84FAF068B169BAF1000F25DC09
:100E10004A1C30234354002D03DC96F838000107A8
:100E200003D5F06800F80290521C15EB0A0FB8BF0A
:100E30006C4220B2441941424445B8BFA046B26159
:100E400071620FFA88F5F561F068B3692A46394690
:100E5000184400F065FA641BB462C4E022B2904505
:100E6000084417DA4246394600F05AFAB06940445D
:100E7000B061AAEB0801002D716203DC96F838100E
:100E80000A0705D5F16801F80090F069401CF0618F
:100E9000B562A8E0394600F043FAB069002D50442D
:100EA000A8EB040803DC96F838100A0703D5F168AC
:100EB00001F80090401CB0610FFA88F08542F0689C
:100EC000B369B8BFA8460FFA88F207EB0A011844C5
:100ED00000F026FAB0690FFA88F10844B061681A88
:100EE000706280E0BAF1610F14D14FF0700A16E021
:100EF000A84504DA96F838100A0758BF45466D1E13
:100F000048BF0025BAF1670F14BF4FF0450A4FF0F4
:100F1000650A04E0BAF1410F08BF4FF0500AB16909
:100F2000F368481CB061002D17F8012B5A5403DCFC
:100F300096F838100A071BD5F168431CB36101F815
:100F40000090002D14DDA8F101080FFA88F0854209
:100F5000F068B8BFA8460FFA88F23946184400F086
:100F6000DFF9B0690FFA88F108446D1AB061756253
:100F7000F068B1690844002C80F800A003D42B214C
:100F80004170811C03E02D2141706442811C0020CE
:100F90006A460AE023460A2493FBF4F404EB840532
:100FA000A3EB450302F8013B401C24B2002CF1DC0A
:100FB000012806DC4AF02002652A04BF302201F82D
:100FC000012B48B9302001F8010B07E0401E1DF845
:100FD0000020303201F8012B0028F7DCF068B269FC
:100FE0001044091AF16196F8380000F01400102836
:100FF0000DD17169B0694118706A4118F0694118E2
:10100000B06A4118706B8142BCBF411A316204B0B2
:10101000BDE8F087F8B505460E4617461C46002089
:1010200074B117F8011BB068A847B06030B1F06A1E
:10103000401CF0620020641EF3D1F2BD4FF0FF307F
:10104000F2BD00007072696E74665F733A20256E9F
:1010500020646973616C6C6F776564007072696E8F
:1010600074663A2062616420256E20617267756D36
:10107000656E74007072696E74665F733A206261A7
:101080006420257320617267756D656E74000000C1
:101090007072696E74665F733A2062616420256CB9
:1010A0007320617267756D656E740000000000004A
:1010B000000000006E616E004E414E00696E6600D9
:1010C000494E46003000F0B4024610689568131887
:1010D000506803EB5004C00721D54D441FE0F0BC1D
:1010E00002F10C00704713F8017B05F8017B491EE3
:1010F000F9D1A0B1B60813F8011B06F00306032EC0
:1011000008BF13F8016B01EB06214942801C2944FA
:1011100005D011F8016B05F8016B401EF9D1A3420F
:10112000DDD013F8016B16F0030104BF13F8011BA7
:10113000C91C30090F28DAD113F8010B0F30D6E79C
:10114000613807E005E0A0F161011A2901D2012010
:10115000704741381A288041C00F7047A0F109013B
:10116000052901D3202801D10120704700207047B4
:10117000A0F141011A2938BF203070471A48704742
:1011800030B45368D418042B09DA41B1057804F857
:10119000015B10F8015B15B15B1C491EF3E753605E
:1011A00030BC704738B514461D4661B1FFF7E8FF03
:1011B00061686A6B204690476FF00102811A02D085
:1011C000491E03D005E06FF0010032BD4FF0FF3043
:1011D00032BD0021616032BDDA6B1047024BE1E79E
:1011E000014BF9E701487047380F0020000F00203D
:1011F0000278C9B28A421AB11CBF10F8012FF9E770
:1012000018BF00207047B1F5807F02D34FF0FF3048
:1012100070470170012070470078401E8041C04334
:10122000C00F704780B500B906A005490B681BB117
:1012300022220021984701E000F09DFD222002BDFE
:10124000DC1B0020636F6E73747261696E742068BA
:10125000616E646C65723A20626164206D657373BF
:101260006167650000F10103810704D010F8011BDC
:1012700089B18107FAD10268B2F10131914311F0CD
:10128000803F04BF50F8042FF6E710F8011B11B19E
:1012900010F8011BFBE7C01A70478268521C82607D
:1012A000426832B10268531C036011704168491EE4
:1012B00041607047C9B2830706D0521E22D310F88E
:1012C000013B9942F7D11FE0083A13D302F104021F
:1012D00041EA012141EA014150F8043B121F21BFBC
:1012E0004B40A3F1013C2CEA030C1CF0803FF3D0EF
:1012F000C9B2001F083210F8013B521E28BF91EA04
:10130000030FF8D818BF0120401E704780B5FFF7C3
:1013100035FF006C02BD0268531C036011707047FA
:1013200062B38B0708D0521E11F8013B00F8013B55
:1013300000F024808B07F6D1830740F0208000BFA7
:10134000103A07D330B4B1E83810103AA0E838109A
:10135000F9D230BC530724BFB1E80810A0E8081048
:1013600044BF51F8043B40F8043BD20724BF31F896
:10137000022B20F8022B44BF0B7803707047121F1A
:1013800017D35B0009D151F8043B20F8023B1B0C3A
:10139000121F20F8023BF6D20BE051F8043B00F894
:1013A000013B1B0A20F8023B1B0C121F00F8013BFB
:1013B000F3D238BF121D521E24BF11F8013B00F8B2
:1013C000013BF8D870470102B3BBD9B1B2F5803FF9
:1013D0007DD2022A1ED98C46B1FBF2F102FB11C369
:1013E0001B0443EA1043B3FBF2FC02FB1C3380B244
:1013F00040EA0343B3FBF2F002FB103240EA0C4038
:1014000000237047022A05D98446B0FBF2F002FBA4
:1014100010C270474AB105D100F0010249085FEAE5
:101420003000704700220023704700F0A7BC0B007B
:101430000200002100207047904271EB030CF6D3AC
:10144000B3F5803F2FD2F0B5B3FA83F7B1FA81F448
:10145000A7F10F0E3D1B5340CEF1200602FA0EF20B
:10146000F3415340B5F10F0746D80F3C2C4441409F
:10147000C4F12006A040F1414140B1FBF3F603FB6B
:101480001611A2FB0645001BA94102D2761E801848
:10149000594180EA010221FA0EF362FA0EF20021AC
:1014A0005A403046F0BD30B4B1FBF3FC03FB1C11D5
:1014B000A2FB0C45001BA94103D2ACF1010C801822
:1014C000594130BC02460B46604600217047B2F1DC
:1014D000807F65D3F0B5B2FA82F7B1FA81F4C7F133
:1014E0000F063D1B22FA06F307F1110EF2412035DB
:1014F0005A40B5F10F07B8D94140C4F12006A040C9
:10150000F1414140B1FBF3FC03FB1C11A2FB0C4574
:10151000001BA94103D2BCF1010C801859410F2FC7
:1015200012D30F3FC90341EA5041B1FBF3F603FB6D
:101530001611A2FB0645D4EBC030A94102D2761E9B
:101540008018594146EACC3C07B34140C7F1200618
:10155000B840F1414140B1FBF3F603FB1611A2FB89
:101560000645001BA94102D2761E8018594180EA27
:10157000010221FA0EF3C7F1200462FA0EF20CFA0E
:1015800007F05A402CFA04F13043F0BD80EA010222
:1015900021FA0EF3002162FA0EF260465A40F0BDC5
:1015A0008C46B1FBF2F102FB11C31B0243EA10634C
:1015B000B3FBF2FC02FB1C331B024CEA002043EAA3
:1015C0001063B3FBF2FC02FB1C331B024CEA00204D
:1015D00043EA1063B3FBF2FC02FB1C331B024CEA30
:1015E000002043EA1063B3FBF2FC02FB1C324CEA1E
:1015F0000020002370470102B0B581EA030C0CF013
:10160000004C40F2FF7515EA11541DBF15EA13573F
:10161000AC42AF4239E0E41923EA455343F4801366
:10162000C90241F0004141EA505EC7021100A7FB28
:10163000020200284FF00000EEFB01204FF00001F5
:10164000E3FB072118BF42F0010240180021494185
:10165000E3FB0E01A4F580640F0302D25200404167
:10166000494154F101046CDD470872F1004250F128
:10167000000051EB0451A1F580115CBF41EA0C015F
:10168000B0BD4CEA05510020B0BD05EA1357AC428D
:1016900014BFAF4241E050EA410E1CBF52EA430E74
:1016A00002E061460020B0BD24423C441BD15FEA09
:1016B000070EF6D0090302BF01460020AEF1140E5A
:1016C000B1FA81F7AEEB070401FA07FE0C37C7F158
:1016D000200100FA07F7C8404EEA000E23EA4553FE
:1016E00043F48013A2E733F00043B3FA83F704BF57
:1016F000B2FA82FE77440B3FE41BB7F1200E2FBFF6
:1017000002FA0EF3BB40C7F1200E22FA0EFE38BFDC
:1017100043EA0E03BA40641C82E750EA410E14BF4C
:1017200052EA430E6FF000014FF4001717EB430F1E
:101730008ABF194617EB410FB5E74CEA0551002067
:10174000B0BDD4F10104B4F120070FDAC4F12007D1
:10175000520828BF42F0010210FA07F501FA07F714
:10176000E1BF2A43E0403843E1400FE0352C98DCEC
:10177000C7F1200452EA400220FA07F218BF42F0F3
:10178000010231FA07F0A1400A43002172F1004240
:1017900050F1000051EB0C01B0BD000010B5144633
:1017A00000F002F8226010BDC1F30A5343B14A00B1
:1017B00012F5001F28D2A3F2FE32A1EB02517047AE
:1017C00050EA410C20D001F0004C31EA0C01B1FA92
:1017D00081F204BFB0FA80F3D2180B3AB2F12003C1
:1017E0002CBF00FA03F1914041EA0C013EBFC2F167
:1017F000200C20FA0CF319439040524240F2FD3382
:10180000D21A01EB03517047002270474FF4001CBD
:101810001CEB410F94BF1CEB430F09E041EA030CA2
:1018200050EA4C0C52EA0C0C03D2994208BF904289
:10183000704714BF8B428242704700004FF4001C77
:101840001CEB410F94BF1CEB430F09E041EA030C72
:1018500050EA4C0C52EA0C0C03D28B4208BF824275
:10186000704714BF9942904270470000124254D40E
:1018700040F2FF7C1CEA11530FD0634531D09B1816
:1018800063453CBF01EB0251704701F0004141EA62
:101890000C510020AFF30080704750EA410320D084
:1018A00001F0004C91EA0C011CD0B1FA81F30B3B22
:1018B0009A420DD9D21A994051EA0C01C3F1200C79
:1018C00020FA0CFC61449840531C40F2FF7CD7E79F
:1018D000914041EA0C01C2F1200C20FA0CF31943AB
:1018E00090407047B0FA80F31533202BE0D3202AC4
:1018F000EED3203A203B9A4209D9D21A00FA03F1DA
:1019000041EA0C010020531C40F2FF7CB8E700FACA
:1019100002F141EA0C0100207047524240F2FF7C84
:101920001CEA11530DD06345DBD0B2EB030C3CBF76
:10193000A1EB025170470CF1010221EA035141F47D
:10194000801150EA410CCCD001F0004C352A27DC44
:1019500030B481EA0C01B2F1200309DAC2F12003AC
:10196000044601FA03F5D0402843D1409C400CE0E6
:10197000C3F12002450020FA03F418BF44F001042B
:1019800021FA03F091400C43002174F1004550F11D
:10199000000051EB0C01244230BC7FF47BAF704758
:1019A0006146002076E70000C1F30A5340F2FE32A0
:1019B0009B1A14DDD3F120034FEAE17208DDC9025E
:1019C00041EA505141F00040D840801850407047E3
:1019D00003F2E13010B1D24382F0004070470020A2
:1019E00070470000C11768B14840401AB0FA80F251
:1019F0009040D21CC907C2F5846241EA025202EB50
:101A0000D02140057047000070B44FF0004591EAC6
:101A1000030F40F1BD816B40841A71EB030603D2C2
:101A2000001BB141121973414FF4001C1CEB410F14
:101A300034BF7CEB430442E00C0DA4EB1356352E6F
:101A40004FDC45EAC323DB0A45EAC121C912B6F1DE
:101A500020050DDD63FA05F6EB4086EA0305124228
:101A600018BF45F00105C01851F100010CD213E078
:101A700062FA06F5F2405540F3415A40B340F34054
:101A80005A408018594107D349085FEA30005FEA9D
:101A9000350528BF45F0010501F58011420875F1B3
:101AA000004250F1000041EB04514E0016F5001FBA
:101AB00070BC38BF70470020090D090570471CEB4A
:101AC000410F10D252EA43060BD0BCEB410F05D8B0
:101AD0000C0DAB43661E342EB6DD02E0AB4380181E
:101AE000594170BC704770BC70470000F0B540F2BF
:101AF000FF7581EA030C0CF0004C15EA11541DBF70
:101B000015EA1357AC42AF42E5E0BC41C1F3130103
:101B1000C3F31303801A994143F4801304D2641E63
:101B20004000494180185941C90241EA5051B1FB76
:101B3000F3F603FB1611A2FB0675D7EBC020A941F3
:101B400002D2761E80185941C90241EA5051B1FBB8
:101B5000F3FE03FB1E11A2FB0E75D7EBC020A941BB
:101B600003D2AEF1010E80185941890241EA905129
:101B7000760546EA8E2EB1FBF3F603FB1611A2FBA7
:101B80000675D7EB8020A94102D2761E80185941F4
:101B9000C90241EA50514EEA060EB1FBF3F603FBCF
:101BA0001611A2FB0675D7EBC020A94102D2761E02
:101BB00080185941C90241EA5051B1FBF3F703FBC8
:101BC0001711A2FB0735D3EBC020A94167F100072D
:101BD0000CBF004247F0010766F3D5274FEA1E31DC
:101BE000B80814F5806412DDBD0775F1004250EBB2
:101BF0000E5051EB045111F5801F5CBF41EA0C01FE
:101C0000F0BD4CF07F6141F0E0410020F0BDBD0728
:101C10006D0840EA0E5041F48011D4F10104B4F192
:101C200020060ADAC4F120060200E04001FA06F3B9
:101C3000E1401843B24015430EE0342C13DCC6F1EA
:101C4000200445EA40056D0820FA06F2154321FA02
:101C500006F0A1400D43002175F1004250F1000053
:101C600051EB0C01F0BD00205FEA0C01F0BDCFB9D3
:101C700092185B41B3FA83F704BFB2FA82F6BF1938
:101C80000B3FB7F120062FBF02FA06F3BB40C7F1A6
:101C9000200622FA06F638BF3343BA401CB1E419D5
:101CA000641E33E77F4231F00041B1FA81F404BF92
:101CB000B0FA80F6A4190B3CB4F120062FBF00FA4D
:101CC00006F1A140C4F1200620FA06F638BF3143E0
:101CD000A0403C1B1AE7AC421ABF05EA1357AF42BB
:101CE00012E050EA41061CBF52EA4306BFE750EA41
:101CF0004107304661461CBF41EA0551F0BD52EA3A
:101D0000430C08BFC143F0BD00204FF4001616EB92
:101D1000410F98BF16EB430F08BF16EB410F24BFCE
:101D2000C14305E016EB430F0CBF61464CEA055179
:101D3000F0BD0000400D491840EA81200CD2490D49
:101D4000A1F58061491C40F0004005DBD1F11F0185
:101D500054BFC840C017704700207047014648B1C3
:101D6000B0FA80F18840C91CC1F58461090501EB16
:101D7000D02140057047012000F0BEB87047000038
:101D800070B44FF0004591EA030F7FF545AE6B400C
:101D9000841A71EB030604D26E40001BB141121984
:101DA00073414FF4001C1CEB410F34BF7CEB430626
:101DB00082E00C0DA4EB1356362E7BDC012E45EA97
:101DC000C32341DC43EA525312BFD20292025B08A2
:101DD000240545EAC12141EA5051D2EBC020994186
:101DE00025D407D1B0FA80F610FA06F162D00020AF
:101DF000203608E0B1FA81F6B140C6F1200220FA9F
:101E000002F21143B0404FEAF474B4EB465434F09C
:101E100001064FEA74040AD8D6F50016760D04F0D0
:101E20000044F04061FA06F25040F1404840C00AD8
:101E300040EA415021F0004128BF5FEA500550F1CF
:101E4000000044EBD12135E0DB0A45EAC121C90A93
:101E5000B6F120050EDD42EA0242120CC5F1200661
:101E600003FA06F6EB4042EA06056D42984161F13D
:101E700000010DE062FA06F5F240554063FA06FCF7
:101E800082EA0C02F3405A406D42904161EB03013B
:101E900011F4801F05D1641E620502D06D0040411F
:101EA000494121F48011430875F1004350F10000CD
:101EB00041EB045170BC70471CEB410F15D223F06D
:101EC000004352EA43060BD04FEA4C0CBCEB410FE7
:101ED00004D80C0D661E342EB7DDEBE7801A99414D
:101EE00050EA410608BF0021E4E708BF1CEB430F9E
:101EF00028BF6FF00001DDE780B5AFF30080024A34
:101F000011001820ABBEFBE7260002002DE9F041CE
:101F10000400002500270026002C01D10120A2E0AA
:101F200094F83C00002805D1002084F83D002000F2
:101F300000F0E9FD022084F83C002068006830F0E1
:101F40000200216808602068006850F001002168E4
:101F5000086000F0F9FE804620684068C0070DD494
:101F600000F0F2FEB0EB08000B28F5D3032084F854
:101F70003C00002084F83D00032074E020684068A5
:101F8000C00763D5A069012802D156F0800601E0A0
:101F900036F08006E069012802D156F0400601E0E3
:101FA00036F04006206A012802D156F0200601E0F2
:101FB00036F02006606A012802D156F0100601E0D2
:101FC00036F01006A06A012802D156F0080601E09A
:101FD00036F00806E06A012802D156F0040601E056
:101FE00036F004062068006830F0FC0030432168B9
:101FF0000860A168E068014320690143606901430A
:102000006068401E01432068C16120680068400884
:1020100040002168086000F097FE80462068406814
:10202000C0070DD500F090FEB0EB08000B28F5D3EB
:10203000032084F83C00002084F83D00032012E0D7
:1020400020684068C00701D401200500012D06D199
:1020500000202064012084F83C00002003E00420DC
:1020600084F83C000120BDE8F08130B40200002477
:1020700001204B6910FA03F31068D0F8000230F425
:102080007C504D6A50EA052050F001001568C5F8F3
:1020900000021068D0F81C0298431568C5F81C02AD
:1020A000C86900281CD11068D0F80C029843146845
:1020B000C4F80C0210684C6900EBC400CC684D6891
:1020C000ADB255EA0445C0F8405210684C6900EBC7
:1020D000C4008C680D68ADB255EA0445C0F844529E
:1020E000C86901281CD11068D0F80C021843146884
:1020F000C4F80C0210684C6900EBC4000C684D6811
:10210000ADB255EA0445C0F8405210684C6900EB86
:10211000C4008C68CD68ADB255EA0445C0F844529D
:102120008869002807D11068D0F804029843146821
:10213000C4F8040206E01068D0F8040218431468DA
:10214000C4F804020869002807D11068D0F8140206
:1021500098431468C4F8140206E01068D0F814021A
:1021600018431468C4F81402086A012806D11068DC
:10217000D0F81C0218431468C4F81C021068D0F888
:102180000002400840001468C4F80002002030BC7F
:1021900070472DE9F04106000D0004215FF00008B2
:1021A00030688068400108D430688068000104D439
:1021B00030688068C00040F1248196F83D00012815
:1021C00001D1022021E1012086F83D0096F83C0073
:1021D000222804D0322806D0622808D00BE0422002
:1021E00086F83C000AE0522086F83C0006E07220A7
:1021F00086F83C0002E0122086F83C0030688068D7
:10220000400101D5002406E030688068000101D556
:10221000012400E00224306821010844D0F8800144
:1022200010F00100316822011144C1F88001306BC7
:102230008068002811D1306821010844D0F880015D
:10224000316B0968326BD26852EA415210433168EF
:1022500022011144C1F8800113E0306821010844D3
:10226000D0F88011306B4068326B926852EAC0023D
:10227000306BC06802431143306822011044C0F83B
:102280008011306B007C10F00F00316B08613068FA
:1022900021010844D0F884010009000131682201BD
:1022A0001144C1F88401306821010844D0F8841138
:1022B000306B00690143306822011044C0F884117A
:1022C000306BC07D316B897D090451EA0061306B50
:1022D000407D51EA0021306B007D014330682201CE
:1022E0001044C0F88811306BC07E316B897E0904C0
:1022F00051EA0061306B407E51EA0021306B007E74
:102300000143306822011044C0F88C11306821016B
:102310000844D0F8800150F00100316822011144D6
:10232000C1F8800100F010FD0700002C0CD13068CE
:102330008168DFF81C050140DFF81405814201D1F6
:1023400001201CE000201AE0012C0CD130688168CB
:10235000DFF800050140DFF8FC04814201D10120D3
:102360000DE000200BE030688168DFF8EC040140EC
:10237000DFF8E404814201D1012000E000200028C0
:1023800022D115F1010FD0D0002D04D000F0DCFCDB
:10239000C01B8542C9D2032086F83C00002C03D123
:1023A0008020316888600AE0012C04D14FF400409D
:1023B0003168886003E05FF40000316888600020C5
:1023C00086F83D00032020E096F83C00422804D027
:1023D000522806D0722808D00BE0222086F83C0054
:1023E0000AE0322086F83C0006E0622086F83C00D5
:1023F00002E0012086F83C00002086F83D00002025
:1024000003E0042086F83C000120BDE8F0810200D2
:102410000800C0B2002811D192F83C0022280BD04D
:1024200092F83C00422807D092F83C00622803D082
:1024300092F83C00722801D1022072E00800C0B27C
:10244000012811D192F83C0032280BD092F83C00C0
:10245000522807D092F83C00622803D092F83C0042
:10246000722801D102205CE092F83D00012801D1E0
:10247000022056E0012082F83D000800C0B200288A
:1024800018D192F83C00122804D0322806D05228E5
:1024900008D00BE0422082F83C0023E0622082F862
:1024A0003C001FE0722082F83C001BE0222082F8F2
:1024B0003C0017E092F83C00122804D0222806D0F5
:1024C000422808D00BE0522082F83C000AE062204B
:1024D00082F83C0006E0722082F83C0002E03220E4
:1024E00082F83C00002010641068406940F40F40FE
:1024F00050F0010013685861002082F83D00080088
:10250000C0B2002806D11068406950F00A00136874
:10251000586105E01068406950F050001368586138
:10252000002070472DE9F0478046002200235FF02D
:1025300000095FF0000AD8F80000C068000910F038
:102540000100D8F800104969C1F3C00111F0010180
:10255000002807D0002905D05AF4007A1022D8F8B4
:102560000030DA60D8F800201669360916F0010646
:10257000D8F800205269C2F3801717F00107002E27
:1025800007D0002F05D05AF4806A1020D8F8001028
:102590000861D8F800004069C00750D5D8F800009D
:1025A0008168AB480140AA48814201D1012600E080
:1025B0000026D8F800008168A6480140A54881425D
:1025C00001D1012700E00027D8F800008168A24867
:1025D0000140A148814202D15FF0010901E05FF0B2
:1025E000000957EA060059EA0000002827D0D8F869
:1025F00000008068400810F001000600D8F80000D4
:102600008068400A10F001000700D8F800008068D8
:1026100010F00100814657EA060059EA0000002840
:1026200003D0404600F01EF901E05AF4006AD8F8E1
:102630000000816889480143D8F800008160D8F81B
:102640000000C46814F00304D8F800004069C0F327
:10265000400515F00105002C05D0002D03D0002108
:10266000404600F02EF9D8F80000066916F003067F
:10267000D8F800004069C0F3001717F00107002EDA
:1026800005D0002F03D00121404600F01AF9D8F8F8
:1026900040005AEA0000C8F84000D8F800008069FD
:1026A00010F00100D8F800104969C1F3002111F0C1
:1026B0000101D8F800205269C2F3C03212F00102C1
:1026C000002809D0002907D0002A05D0D8F84030CA
:1026D00053F00103C8F84030D8F800309B695B081C
:1026E00013F00103D8F800406469C4F3402414F0E7
:1026F0000104D8F800506D69C5F3C03515F0010527
:10270000002B09D0002C07D0002D05D0D8F84000B0
:1027100050F00200C8F84000D8F800008269920822
:1027200012F00102D8F800004069C0F3802010F0D8
:102730000100D8F800104969C1F3C03111F001015E
:10274000002A09D0002807D0002905D0D8F8403049
:1027500053F00403C8F84030D8F800309B6913F0F8
:10276000700F01D1012400E00024D8F80020526944
:10277000C2F3C02515F00105D8F800205269C2F354
:10278000C03616F00106002C49D1002D47D0002E8E
:1027900045D0D8F80000806910F0700004002000D7
:1027A00010280AD020280FD0302814D0402819D063
:1027B00050281ED0602823D029E0D8F8400050F0DF
:1027C0000800C8F8400022E0D8F8400050F010009F
:1027D000C8F840001BE0D8F8400050F02000C8F8CE
:1027E000400014E0D8F8400050F04000C8F8400025
:1027F0000DE0D8F8400050F08000C8F8400006E036
:10280000D8F8400050F48070C8F84000FFE7D8F8CE
:102810000000806930F07000D8F800108861D8F8A6
:102820004000002811D00420D8F800104860012092
:1028300088F83C00D8F80000416909480140D8F800
:1028400000004161404600F048FABDE8F087000012
:10285000010000040001000800000110090501004A
:10286000A470FFFF10B504002068406940084000D4
:102870002168486194F83C00122805D1206840691D
:1028800030F40F402168486194F83C00422804D09D
:10289000522806D0722808D00BE0222084F83C0091
:1028A0000AE0322084F83C0006E0622084F83C0014
:1028B00002E0012084F83C00200000F04BFA0020E8
:1028C00010BDF8B504000D00002100222800C0B2A0
:1028D000002801D1666B00E0A66B20682A00D2B206
:1028E00012011044D0F8B00110F00400B060B068DC
:1028F000002809D120682A00D2B212011044D0F871
:10290000B001400D306008E020682A00D2B2120108
:102910001044D0F8B001C008706020682A00D2B21C
:1029200012011044D0F8B00110F00200F0602068ED
:102930002A00D2B212011044D0F8B40110F00F00F6
:1029400030612800C0B2306220682A00D2B2120181
:102950001044D0F8B401C0F30720F06120682A00C9
:10296000D2B212011044D0F8B801307520682A00A4
:10297000D2B212011044D0F8B801000A7075206874
:102980002A00D2B212011044D0F8B801000CB07580
:1029900020682A00D2B212011044D0F8B801000E0B
:1029A000F07520682A00D2B212011044D0F8BC01A0
:1029B000307620682A00D2B212011044D0F8BC014F
:1029C000000A707620682A00D2B212011044D0F8B2
:1029D000BC01000CB07620682A00D2B2120110446B
:1029E000D0F8BC01000EF0762800C0B2002809D152
:1029F00020202268D0602068406930F00A002268F8
:102A0000506108E02020226810612068406930F0A1
:102A100050002268506194F83C70222F01D0322F70
:102A200005D12068406930F40F40216848612800D2
:102A3000C0B2002818D194F83C00422804D0622883
:102A400006D0722808D00BE0122084F83C0023E066
:102A5000322084F83C001FE0522084F83C001BE048
:102A6000012084F83C0017E094F83C00522804D080
:102A7000622806D0722808D00BE0122084F83C00AF
:102A80000AE0222084F83C0006E0422084F83C0062
:102A900002E0012084F83C00200000F00AF9002048
:102AA000F2BD000080B59A489A4908600320994910
:102AB000486000209749886000209649C8605FF40C
:102AC0000020944908615FF4801092494861002019
:102AD0009049886101208F49C86100208D490862B2
:102AE00000208C49486200208A4988620120894977
:102AF000C8628848FFF70AFA002803D053218648A5
:102B000000F023FB01BD18B585B0040020688049A2
:102B1000884221D18148006850F000707F490860E8
:102B20007E48006810F00070009000984FF400603C
:102B30000190002002900020039001A9784800F045
:102B400055FB4FF480500190022002900320049026
:102B500001A9734800F04AFB06B010BD80B571486A
:102B60006C49086370486B49486300F014F8002111
:102B70006848FFF74CFC002807D0664800684069A9
:102B800050F00A00634909684861684800F066FD32
:102B900000F0B5F801BD80B500206549486100200E
:102BA0006349886101206249C8610020604908606A
:102BB00000205F49486000205D49886000205C4932
:102BC000C86000205A4908610120594908620E2056
:102BD0005749486256494F48FFF747FA01BD70B55B
:102BE00004000D0016004B48006B046000204949AA
:102BF000096BC86000204749096B88604548006B35
:102C000006610020082806DA295C424A126B024459
:102C10001175401CF6E764213E48FFF7BAFA002818
:102C200001D0002000E0012070BD38B504000D0087
:102C300040F60100844206D3D62237493D4800F0D1
:102C40004FFEAFF300803C480068322806DBD722F5
:102C50003149384800F044FEAFF300803748364928
:102C6000096840F8315035483349096800EBC10024
:102C7000446031480068401C2F490860002032BD84
:102C800070B504000D0000262B48006886420EDA5D
:102C90002A4800EBC6004068844206D12800274934
:102CA00051F836108847012002E0761CECE700203E
:102CB00070BD10B50400616B606B0068FFF7E0FF4A
:102CC00000212000FFF7A3FB002805D02068406901
:102CD00050F00A002168486110BD10B504000020C2
:102CE0002168486000212000FFF791FB002805D0F3
:102CF0002068406950F00A002168486110BD80B525
:102D00000F4910480068FFF790FF01BD0000000068
:102D100000640040281700207CB800081C10024006
:102D200000080140401B0020C41A002088BE000893
:102D30009C1A00204CC20008801B0020A812002012
:102D400051B60008A81B002001480068704700BF6A
:102D50009C1B00207047000080B500F0D3FD00F000
:102D600057F800F0E3FD00F01DFFFFF79BFE00F0B9
:102D700086FF01F005F901F066F801F099FB00F01B
:102D8000A1FB01F063F901F00DF801F02CF901F05D
:102D9000A6F800F091F8DFF8C00301F0AFFC00F0F6
:102DA000E6FC01F023FD01F0F8FD01F0E2FFFFF782
:102DB000D5FE02F0D7F801F03BFC01F006FBDFF88E
:102DC0009C0300F04BFC00F0D9FCDFF89403006892
:102DD000002805D002F02DF90020DFF884130860E8
:102DE000DFF8800300780228EDD102F0DFFADFF887
:102DF00078130880DFF87003008802F017FBDFF813
:102E00006C130860DFF86003008801F0E3FEDAE786
:102E100000B595B001200B905FF480300C9000203D
:102E20000D9001200F90022012905FF480301390DB
:102E30005FF4E01014900BA802F006FB002804D009
:102E4000C521DFF82C0300F080F90F20009002204C
:102E50000190002002904FF48060039000200490C5
:102E60000221684602F01BFD002804D0D321DFF8C0
:102E7000000300F06AF9022005904FF4004007902B
:102E800005A802F059FE002803D0DA21B84800F066
:102E90005CF902F001FE4FF47A71B0FBF1F003F03F
:102EA0000AF8042003F00DF8002200215FF0FF3043
:102EB00002F0E5FF15B000BD80B500220121092018
:102EC00002F0DDFF092002F0EFFF002201210A20BD
:102ED00002F0D5FF0A2002F0E7FF002201211420B2
:102EE00002F0CDFF142002F0DFFF002201211720A5
:102EF00002F0C5FF172002F0D7FF00220121252094
:102F000002F0BDFF252002F0CFFF00220021362075
:102F100002F0B5FF362002F0C7FF01BD704710B5C3
:102F20000400206893490968884240F00D81924866
:102F30000068401C9049086005208F4909688E4A46
:102F4000126892FBF0F200FB121000280BD16420F3
:102F500001F011FB03F05CF881480068002802D101
:102F600001207F490860052083490968824A126868
:102F700092FBF0F200FB1210002836D17F48006867
:102F80007F4903F075F805D87E480068401C7D49EC
:102F9000086002E000207B4908607A480068092840
:102FA00007DB794879490322FEF7BAF9784800F03F
:102FB00055FB78480068012809D100237648C2688B
:102FC000764801687648006800F00DFC0DE0714815
:102FD0000068022809D17148036871480268634893
:102FE00001687048006800F0FEFB6348006842F228
:102FF0001071884202DB00205F4908605948007860
:10300000002803D068480078012800D09CE055488B
:10301000007801280CD165480068654903F03AF84A
:1030200006D20020614908600020624908608BE0F8
:103030005E480068002103F03FF800F085805E489C
:103040000068401C5C4908605B48006810287BDB16
:1030500001F09FFD002058490860584800F0FEFA32
:1030600040480078012842D155480178554800F081
:10307000F5FA5048006803F02DF802000B005248A2
:1030800000F0ECFA4948006803F024F802000B0055
:103090004E4800F0E3FA3548006803F01BF80200E0
:1030A0000B004B4800F0DAFA4A4801684A4800F041
:1030B000D5FA3E4800683F49096802F0FDFF03D099
:1030C0003A4800683B4908603D480278414800683A
:1030D000821806203749096892FBF0F300FB13229F
:1030E0003E48006850F8220001F07DFC20E01D48B9
:1030F000007802281CD12D4800682E49096802F08A
:10310000DBFF03D0294800682A4908603448026878
:1031100030480068821806202649096892FBF0F3BF
:1031200000FB13222F48006850F8220001F05BFCDE
:1031300028480068401C274908602648006807287E
:1031400002DB01202349086010BD38B504000D00E2
:10315000254800F083FAFEE73C1A002004C200086C
:10316000841B0020850F0020E81B0020BC1B0020D2
:10317000C0B700083C1900208C1B0020C81B002091
:1031800001008040881B0020981B00207C0E00203E
:1031900068C10008D41B0020C00E0020B41B002012
:1031A000B01B0020B81B0020830F0020D81B00207C
:1031B0000000E040741B00207C1B0020BCBA00080B
:1031C000EA1B002014BE0008DCBF00082CBE00086B
:1031D00044BE0008640E0020F0BF00086C1B0020F5
:1031E000781B00205800002004C000082DE9F84397
:1031F000020000240025002600275FF000085FF091
:10320000000EBEF1100F80F01581012010FA0EF0B3
:103210000400086820400500A54240F00881486885
:10322000002831D0012820D0022825D003283CD006
:1032300011281DD0122823D0DFF83CC2604523D0CE
:10324000DFF838C260451FD0DFF834C260451BD0BC
:10325000DFF830C2604517D0DFF82CC2604513D0CC
:10326000DFF828C260450FD022E0C86807001FE0E1
:10327000C868001D07001BE0C8680830070017E099
:10328000C8680C30070013E08868002802D10420C9
:10329000070009E08868012803D1082007001461AD
:1032A00002E008200700546102E000200700FFE769
:1032B000B5F5807F01D2130000E0131DB5F5807FC6
:1032C00002D25FEA8E0803E0BEF108085FEA8808D0
:1032D000D3F800C00F2010FA08F03CEA000C17FAEF
:1032E00008F050EA0C0CC3F800C04868C00040F178
:1032F0009E80DFF89C01006850F00100DFF890C16B
:10330000CCF80000DFF88801006810F001000090A0
:103310000098DFF88001F4465FEA9C0C50F82CC05E
:103320005FF00F091EF00300C0B2800019FA00F927
:103330003CEA090C5848824202D15FF000091FE0C4
:103340005648824202D15FF0010919E05448824296
:1033500002D15FF0020913E05248824202D15FF0CD
:1033600003090DE05048824202D15FF0040907E0F2
:103370004E48824202D15FF0050901E05FF0060984
:1033800066461EF00300C0B2800019FA00F959EA3F
:1033900006064048F4465FEA9C0C40F82C604868FA
:1033A000C00307D5424800682843DFF804C1CCF8C1
:1033B000000006E03E480068A843DFF8F4C0CCF8FF
:1033C00000004868800307D53A4800682843DFF8C2
:1033D000E4C0CCF8000006E036480068A843DFF8F7
:1033E000D4C0CCF800004868C00207D53248006855
:1033F0002843DFF8C4C0CCF8000006E02E4800687F
:10340000A843DFF8B4C0CCF800004868800207D5B4
:103410002A4800682843DFF8A4C0CCF8000006E082
:1034200026480068A843DFF894C0CCF800001EF1DD
:10343000010EE6E6BDE8F1831300DBB2002B03D0FA
:103440000B009BB2036103E00B009BB21B04036102
:10345000704710B504001A480068210089B208427C
:1034600007D0200080B216490860200080B200F02A
:10347000DEFA10BD00000000000011100000121064
:103480000000211000002210000031100000321056
:10349000181002400800014000080140000C0140E3
:1034A000001001400014014000180140001C0140C0
:1034B0000004014004040140080401400C040140E0
:1034C0001404014080B5DFF8B803DFF8B8130860D2
:1034D0005FF4E130DFF8AC1348600020DFF8A4139C
:1034E00088600020DFF89C13C8600020DFF8941388
:1034F00008610C20DFF88C1348610020DFF884138A
:1035000088610020DFF87C13C861DFF8780302F0DF
:1035100005FE002804D04F21DFF86C03FFF715FEED
:1035200001BD18B585B004002068DFF85413884247
:1035300040F09280DFF85403006850F48040DFF8D8
:103540004C130860DFF84403006810F480400090DA
:1035500000984FF400700190022002900320049024
:1035600001A9DFF82C03FFF741FE4FF480600190C2
:10357000002002900020039001A9DFF81403FFF758
:1035800035FEDFF81003DFF8101308600020DFF8C5
:10359000081348600020DFF8001388608020DFF8FF
:1035A000F812C8600020DFF8F01208610020DFF890
:1035B000E81248610020DFF8E01288610020DFF89F
:1035C000D812C861DFF8D00203F050FA002804D006
:1035D0007A21DFF8B402FFF7B8FDDFF8BC026063C0
:1035E000DFF8B4024462DFF8B402DFF8B412086016
:1035F0001020DFF8AC1248600020DFF8A4128860C9
:103600008020DFF89C12C8600020DFF89412086167
:103610000020DFF88C1248610020DFF884128861F6
:103620004FF44050DFF87812C861DFF8740203F0FD
:103630001DFA002803D08A219348FFF786FDDFF8A2
:1036400060022063964844628E480068C06850F06B
:1036500010008C490968C86006B010BD0EB478B57A
:10366000040001208F49086005AE33002200652167
:103670008D4803F091FD05004FF47A732800020095
:1036800092B289497F4802F084FD00208549086094
:1036900071BC5DF810FB2DE9FC41040020687849FD
:1036A00088422BD10020009020680068009020689C
:1036B0004068009000982068056820684768764850
:1036C000006846686F4802F0B3FE7849784803F016
:1036D00081FD77480078002802D0012075490860F4
:1036E00062250027DFF8C4813A002900404603F034
:1036F00097FD63226D49634802F03FFEBDE8F38108
:1037000038B504002068056820680068C00705D542
:10371000206840687FF00100216808602068006828
:10372000800705D5206840687FF0020021680860A6
:1037300020680068400705D5206840687FF00400D5
:103740002168086020680068000705D52068C06807
:103750007FF008002168086001225749494802F0BB
:1037600088FD63225149474802F007FE31BD80B50C
:1037700063224E49434802F000FE01BDF8B54D48B2
:10378000006800282ED04D4A6946494801F03BF8B0
:10379000050015F1030F0ED14A48FFF75FFF6224C1
:1037A0000026434F32002100380003F039FD00208D
:1037B0004049086016E04149009801F056F80400BD
:1037C000002C04D53D4801683D48FFF747FF6225BE
:1037D0000026374F32002900380003F021FD002079
:1037E00034490860F1BD2DE9FF4F81B02D480068D4
:1037F000012840D001223049224802F03AFD102031
:103800003149887006203049C8700D202E4908754E
:103810000A202D4948750420009001AC2B4D009AD8
:1038200021002800FDF77CFD042502AE284F2A0068
:1038300031003800FDF774FD04270DF10C08DFF8A6
:1038400094903A0041464846FDF76AFD5FF004094E
:103850000DF1100ADFF880B04A4651465846FDF790
:103860005FFD16221849074802F03CFD002802D0EF
:103870001A48FFF7F3FE05B0BDE8F08F0000000026
:1038800000380140FC190020F0B600081810024072
:103890000008014058000240F41700204400024094
:1038A00038180020A41B00200015002068150020F7
:1038B000CC150020A01B0020EC1B00206C1A00205F
:1038C00018C000085CBE0008880E00208C0E002086
:1038D000900E0020940E0020980E0020A8C1000831
:1038E00000B583B00091019202906A460449182005
:1038F000ABBE002801D1FEF73EFA03B000BD00BF09
:103900001010020080B50848006850F01000064909
:103910000860032002F0ADFA002003F0B5FC03F0CC
:10392000D9FC002002BD00000020024000B585B097
:103930008748006850F02000854908608448006886
:1039400010F02000049004988148006850F01000A6
:103950007F4908607E48006810F0100004900498C9
:103960007B48006850F00400794908607848006896
:1039700010F00400049004987548006850F00800A6
:10398000734908607248006810F0080004900498B9
:10399000012220216F48FFF74FFD01224FF4E05133
:1039A0006D48FFF749FD382000906C4801900020D9
:1039B000029069466A48FFF719FC20200090012018
:1039C0000190012002900120039069466148FFF7B1
:1039D0000DFC4FF4806000900120019001200290C6
:1039E0000120039069465C48FFF700FC4FF4C0508B
:1039F0000090012001900020029001200390694670
:103A00005548FFF7F3FB0420009056480190012031
:103A1000029069465448FFF7E9FB00220021082084
:103A200002F02DFA082002F03FFA05B000BD38B5CB
:103A30000400200080B2042812D168464B490322BA
:103A4000FDF76EFC009803F09BFC012000F024FDC4
:103A500000F0E4F803F01EFD03F0F9FC03F0AEFD06
:103A600043480078022803D041480078002800D15C
:103A700067E040480068401C3E49086001F0A3F838
:103A80003D4908703D480078012815D13C48006840
:103A90003C49096802F010FB03D0394800683949F5
:103AA00008603848016838480068334A127850F88E
:103AB000220000F098FF44E030480078002814D13C
:103AC0000225002D0DD42C4800782841C00703D5CD
:103AD0001CA0FFF7C3FD02E01BA0FFF7BFFD6D1E9A
:103AE000EFE71AA0FFF7BAFD2BE02348007827493B
:103AF000274A1268885427492748254A126850F8EF
:103B0000220000F070FF22480068401C2049086035
:103B10001F480068062814DB00201D4908600020AB
:103B20001649087001F035F81C48FFF797FD00258D
:103B3000062D06DA1548415D1948FFF78FFD6D1C0B
:103B4000F6E731BD31000000300000000D0A000032
:103B50001810024000100140000C0140000031101C
:103B6000000801400000111000140140941B0020C7
:103B7000850F0020CC1B0020EA1B0020830F0020B3
:103B8000D81B0020741B00206C1B00205C00002050
:103B9000701B00200000204140000020B4BF00083E
:103BA000C8BF000880B51C48006850F001001A49E1
:103BB00008601948006810F001000090009816484D
:103BC000006850F00200144908601348006810F0C3
:103BD000020000900098002200210E2002F04FF910
:103BE0000E2002F061F9002200210F2002F047F9B7
:103BF0000F2002F059F900220021102002F03FF9B5
:103C0000102002F051F9002200213B2002F037F988
:103C10003B2002F049F901BD1410024080B558481C
:103C2000584908604FF48270564948600020554951
:103C3000886000205349C860002052490861002074
:103C4000504948614FF400704E49886108204D4941
:103C5000C86100204B49086200204A4948620020A0
:103C6000484988620A204749C862464803F08EFDE9
:103C7000002803D046214448FFF767FA01BD80B50C
:103C80004248434908604FF482704149486000202F
:103C90003F4988604FF400603D49C86000203C49BE
:103CA000086101203A4948614FF400703849886141
:103CB00028203749C861002035490862002034496E
:103CC00048620020324988620A203149C86230487F
:103CD00003F05CFD002803D05C212B48FFF735FA88
:103CE00001BD18B585B004002068254988421ED161
:103CF0002848006850F4805026490860254800682C
:103D000010F480500090009828200190022002902A
:103D10000320049001A92048FFF768FA1F480068B3
:103D200050F0E06050F001001C49086025E0206878
:103D30001649884221D11A48006850F48040184939
:103D400008601748006810F48040009000984FF415
:103D500020400190022002900320049001A90E4807
:103D6000FFF744FA4FF480400190002002900020B9
:103D7000039001A90848FFF739FA06B010BD00000A
:103D8000003001403016002068B9000800380040BB
:103D90008816002018100240000C01400400014069
:103DA0001C10024000B589B0DFF88806DFF88816DD
:103DB00008600020DFF8801648600020DFF87816E1
:103DC00088605620DFF87016C8600020DFF868169B
:103DD00008610020DFF860168861DFF85C0603F0F8
:103DE00070FD002804D04921DFF85006FFF7ADF937
:103DF00000200090002001906946DFF83C0604F0A6
:103E000027F9002804D05021DFF83006FFF79DF98C
:103E10006020029000200390002004900020069073
:103E2000002202A9DFF8100603F0D3FE002804D018
:103E30005921DFF80806FFF788F9DFF8FC0500F0E4
:103E400076FA09B000BD00B58BB0DFF8F405DFF8F5
:103E5000F41508600020DFF8EC1548600020DFF85A
:103E6000E41588604FF6FF70DFF8D815C8600020B1
:103E7000DFF8D01508610020DFF8C815886103203D
:103E80000290002003900120049000200590002063
:103E90000690002007900120089000200990002043
:103EA0000A9002A9DFF89C0503F052FD002804D017
:103EB0007621DFF88805FFF748F900200090002000
:103EC00001906946DFF87C0504F0C2F8002804D0B0
:103ED0007D21DFF86805FFF738F90BB000BD00B5AC
:103EE00089B0DFF86405DFF8641508600020DFF8AA
:103EF0005C1548600020DFF8541588605620DFF814
:103F00004C15C8600020DFF8441508610020DFF878
:103F10003C158861DFF8340503F0D3FC002804D099
:103F20008F21DFF81805FFF710F90020009000201E
:103F300001906946DFF8140504F08AF8002804D0DF
:103F40009621DFF8F804FFF700F9602002900020C6
:103F500003900020049000200690002202A9DFF8C0
:103F6000EC0403F036FE002804D09F21DFF8CC04D7
:103F7000FFF7EBF8DFF8D40400F0D9F909B000BD81
:103F8000E0B5DFF8CC04DFF8CC1408604720DFF898
:103F9000C41448600020DFF8BC14886040F2E730A9
:103FA000DFF8B014C8600020DFF8A8148861DFF8DB
:103FB000A40403F031FC002804D0B121DFF87C0414
:103FC000FFF7C3F800200090002001906946DFF859
:103FD000840404F03DF8002804D0B821DFF85C0424
:103FE000FFF7B3F807BDE0B5DFF86C04DFF86C1439
:103FF00008604720DFF8641448600020DFF85C1494
:1040000088604FF6FF70DFF85414C8600020DFF8B6
:104010004C148861DFF8440403F0FEFB002804D050
:10402000C821DFF81804FFF790F800200090002066
:1040300001906946DFF8240404F00AF8002804D04F
:10404000CF21DFF8F803FFF780F807BD80B590B007
:10405000DFF80C04DFF80C1408600020DFF804140B
:1040600048600020DFF8FC13886041F29310DFF80D
:10407000F413C8600020DFF8EC1308610020DFF8BB
:10408000E41348610020DFF8DC138861DFF8D40313
:1040900003F017FC002804D0E321DFF8A003FFF7AA
:1040A00054F800200090002001906946DFF8B40326
:1040B00003F0CEFF002804D0EA21DFF88003FFF7E9
:1040C00044F860200290002003900020049000201B
:1040D0000590002006900020079000200890002204
:1040E00002A9DFF8800303F074FD002804D0F62154
:1040F000DFF84803FFF729F8042202A9DFF8640378
:1041000003F067FD002804D0FB21DFF83003FFF740
:104110001CF8082202A9DFF84C0303F05AFD00281E
:1041200005D04FF48071DFF81403FFF70EF800207C
:10413000099000200A9000200B9000200C90002095
:104140000D904FF400500E9000200F9009A9DFF859
:10415000140303F04BFF002805D04FF48671DFF8FD
:10416000DC02FEF7F2FFDFF8FC0200F0E0F811B02D
:1041700000BD1CB504002068DFF8B812884249D1A0
:10418000DFF8E402006850F00200DFF8DC1208609B
:10419000DFF8D402006810F0020000900098DFF809
:1041A000CC02DFF8CC1208601020DFF8C41248609F
:1041B0000020DFF8BC1288608020DFF8B412C860ED
:1041C0004FF48070DFF8A81208614FF48060DFF8C8
:1041D000A01248612020DFF8981288610020DFF8E3
:1041E0009012C861DFF8880202F040FC002804D079
:1041F0004FF495719148FEF7A8FFDFF874026062F2
:10420000DFF86C024462DFF86802A063DFF8600246
:10421000446248E020688C49884234D19248006862
:1042200050F00800904908608F48006810F00800BE
:10423000009000988F489049086010208E4948608F
:1042400000208D49886080208B49C8604FF48070C1
:10425000894908614FF48060874948612020864978
:10426000886100208449C861834802F0FFFB002870
:1042700004D04FF4A5717148FEF767FF7E48606275
:104280007D4844620FE02068754988420BD17B4825
:10429000006850F40050794908607848006810F4CC
:1042A00000500090009813BD18B585B00400206838
:1042B0006349884215D16C48006850F004006A498F
:1042C00008606948006810F0040000900098C02061
:1042D0000190002002900020039001A96848FEF799
:1042E00085FF06B010BD81B00168594A91420CD1DA
:1042F0005D49096851F010015B4A11605A4909682B
:1043000011F01001009100990FE00168524A9142AA
:104310000BD15549096851F02001534A11605249A7
:10432000096811F020010091009901B070471FB594
:10433000040020683F49884214D1102000900220D8
:1043400001900320039069464D48FEF74FFF4D480A
:10435000006830F4406050F0E06050F4006049497B
:10436000086031E02068384988420AD10120009075
:10437000022001900220039069464348FEF736FF71
:1043800022E02068364988421ED180200090022019
:1043900001900220039069463B48FEF727FF032067
:1043A0000090022001900220039069463448FEF7F5
:1043B0001DFF4FF4E0700090022001900220039056
:1043C00069463248FEF712FF1FBD80B5214803F051
:1043D00069FA18211B4803F01AFB47F6FF702C49B5
:1043E000086000211F4803F088FA00211D4803F0EF
:1043F000B9FD04211B4803F080FA0421194803F099
:10440000B1FD0821174803F078FA0821154803F098
:10441000A9FD01BD10B5040000201E4908600F4829
:1044200003F016FA1B480068A042FBD30B4803F0C8
:104430001EFA10BD000400407C180020A0B900083E
:1044400000080040BC180020000C0040FC180020B0
:10445000001000403C190020001400407C1900208E
:1044600000340140BC1900201C1002406C000240C6
:104470006C17002058040240B017002018100240AA
:10448000000C014004000140000801400010014000
:10449000240800402414004038B504000025A5423B
:1044A00005D24FF47A70FFF7B5FF6D1CF7E731BD09
:1044B000E0B5824882490860002081498860002078
:1044C0007F49C86000207E4948615FF460207C49D4
:1044D000C86100207A49486001207949086178481C
:1044E00003F0F2FD002803D045217648FEF72DFEAB
:1044F0000A20009001200190002002906946704837
:1045000003F0DFFF002803D04F216E48FEF71DFEA9
:1045100007BD18B585B0040020686849884213D1EA
:104520006948006850F40070674908606648006890
:1045300010F4007000900098012001900320029078
:1045400001A96248FEF752FE06B010BD80B55C4876
:1045500003F06CFE0A215A4803F0FDFE584804F0AF
:1045600059F8800504D5564803F0A8FF80B201E051
:104570004FF6FF7002BD2DE9F84304000025002628
:104580003000210080B289B2884209D2FFF7DEFFF5
:1045900000F04CFF290004F0B9F80500761CEFE7A5
:1045A000200080B200F042FF0100280004F020F952
:1045B000474904F09BF95FF0804104F097F95FF000
:1045C0008B4104F015F90700380001F083FD414AE2
:1045D000414BFDF78BFA414A414BFDF7D1FB804639
:1045E00089464048006801F075FD02000B00404616
:1045F0004946FDF709FA04F0E5F93B4908603B48F4
:104600000068002101F046FD10D23748006801F033
:1046100061FD31F00041364A364BFDF70FF905D800
:104620003148006890F000402F490860BDE8F183F0
:10463000F8B50025C82400263000210080B289B2D8
:1046400088420CD2FFF782FF00F0F0FE290004F050
:104650005DF80500012004F0E9F9761CECE7200084
:1046600080B200F0E3FE0100280004F0C1F8184910
:1046700004F03CF95FF0804104F038F95FF08B41C1
:1046800004F0B6F80700380001F024FD114A124B7F
:10469000FDF72CFA114A124BFDF772FB04F092F968
:1046A000104908600F48006801F014FD02000B007B
:1046B0001148FEF7D3FFF1BD0000000000240140C7
:1046C0003C1A002024B800081810024000100140D5
:1046D00033335340AE47E17A14AEC73F8131453E94
:1046E000EB062BC05C1B0020C81B0020AC1B00206D
:1046F0009B9999999999B93F74BE0008F8B505003E
:1047000000270020009095F82400012801D1022004
:1047100069E0012085F82400280003F0D1FF06009D
:104720003000C0B2002859D1A86A30F4885050F047
:104730000200A862022001F086FADFF8AC100968D6
:10474000B1FBF0F0400000900098002803D00098E2
:10475000401E0090F8E7280003F05EFF286880689C
:1047600050F0080029688860FEF7EEFA0700286814
:10477000806800070FD5FEF7E7FAC01B0B28F6D3B9
:10478000A86A30F0020050F01000A862002085F8FE
:104790002400012027E02868806850F00400296880
:1047A0008860FEF7D1FA04002868806840070FD5BA
:1047B000FEF7CAFA001B0B28F6D3A86A30F00200F5
:1047C00050F01000A862002085F8240001200AE0C3
:1047D000A86A30F0020050F00100A862002085F8BD
:1047E00024003000C0B2F2BD840E002010B50024B9
:1047F0000C2C07DA152004F02DF9464941F8240065
:10480000641CF5E710BDF0B4030000270024002667
:10481000DD5D7F1C2800C0B20D281CD02800C0B26E
:10482000202810D1002052F826C00CF80400761C75
:1048300000200400D85D05007F1C5B2F02DB7FF0A9
:10484000020010E0E6E752F826000555641CD85D2A
:1048500005007F1CDEE7002052F826C00CF804009B
:10486000761C0E600020F0BC70472DE9F047040074
:104870000D00002010260027B74225D229682648BF
:10488000E02202FB07F2104404F006F9002819D1D7
:104890002248FEF7E3FE290020001F4AE02303FB25
:1048A00007F31A44D2F8DC2090475FF081085FF0EC
:1048B0000009DFF86CA04A464146504602F0B0FCC1
:1048C000002003E07F1CD7E77FF00100BDE8F08700
:1048D000F8B504000D001026022C03DB1148FEF78A
:1048E000BDFE16E00027B74213D20B48E02101FBC2
:1048F00007F101440C48FEF7B1FE0748E02101FB37
:1049000007F1084410F114010848FEF7A7FE7F1CC8
:10491000E9E7F1BD6C1A002064000020D4B800085B
:104920003814002050BA0008C8C1000868C0000848
:1049300010B50400DFF860030460DFF8600300785E
:10494000012810D12000002101F0A4FB05D2DFF8DE
:104950005003DFF85013086014E0DFF84C03DFF871
:10496000441308600EE02000002101F093FB04D204
:104970000120DFF83813087004E05FF0FF30DFF843
:104980002C130870200001F0A5FB31F0004104F069
:1049900019F8DFF81C13086010BD10B400200021C6
:1049A000062919DADFF80C23525C1000DFF808231F
:1049B00052F82120DFF8F0320400E4B243F824205A
:1049C000DFF8F82252F82120DFF8D4320400E4B2F4
:1049D00043F82420491CE3E7DFF8CC12DFF8C422B7
:1049E000116010BC704770B504000D006078D0F104
:1049F00003002678861B3000C0B200F099F8002032
:104A0000DFF8BC1208600021607800F031F829005E
:104A1000207800F02DF8DFF884020078022803D116
:104A20006068DFF8A012086070BD38B504000D00A2
:104A30002000C0B2002803D0022811D008D316E00D
:104A40002A00D2B28021DFF88002FEF7F5FC0EE0EA
:104A50002A00D2B20121DFF87402FEF7EDFC06E075
:104A60002A00D2B20221DFF86402FEF7E5FC31BD74
:104A700038B504000D002800002101F00BFB02D224
:104A800095F00045FFE72800DFF8441201F0F0FA46
:104A900002D8DFF84052FFE72000C0B2002803D060
:104AA000022831D018D342E00021DFF82C0203F0B5
:104AB00059FADFF82802006800F0B8FC290003F07A
:104AC00015FFDFF81C1203F093FE04F00BF880B220
:104AD000DFF8101208602AE00421DFF8FC0103F07F
:104AE00041FADFF8F801006800F0A0FC290003F0AB
:104AF000FDFEDFF8EC1103F07BFE03F0F3FF80B264
:104B0000DFF8E411086012E00821734803F02AFA84
:104B10007248006800F08AFC290003F0E7FE704943
:104B200003F066FE03F0DEFF80B27049086031BD1D
:104B300010B504002000C0B2002803D002281BD00A
:104B40000DD325E00021644803F022FA00228021E1
:104B50005D48FEF771FC00206249086018E00421FE
:104B60005D4803F015FA002201215848FEF764FC65
:104B700000205D4908600BE00821574803F008FA5F
:104B8000002202215148FEF757FC002057490860D7
:104B900010BD80B500210020FFF76AFF0021012031
:104BA000FFF766FF00210220FFF762FF00210020CF
:104BB000FFF73BFF00210120FFF737FF0021022014
:104BC000FFF733FF01BD4A48006810F03800C0B25B
:104BD000C00870472DE9F041040000212600B6B25C
:104BE00000274548B0F90050304890F900204FF4B4
:104BF000C3704243022092FBF0F04519AE4201D24D
:104C000016F58046294890F9000001280BD1701B49
:104C100000F00CFC394903F0EBFD03F063FF804624
:104C200018F101080AE0701B00F000FC334903F0A2
:104C3000DFFD03F057FF8046B8F10308B8F1000F1D
:104C400001D518F10608062098FBF0F100FB118849
:104C50002B48007801281BD12A480068804517D0CE
:104C60002848C0F80080124800682749096801F008
:104C700023FA03D00E4800682349086022480168DF
:104C80001C4800681F4A126850F82200FFF7ABFE6C
:104C9000BDE8F08100000000AC1B0020850F002063
:104CA000241B00206C1B0020081B0020820F00200A
:104CB000D81B00205C00002040000020F4BC00084D
:104CC0007C1B0020681B002000080140000C0140F4
:104CD0000100BE420000BE42BC1900202C3401403D
:104CE0000000C84234340140383401403C340140B3
:104CF0000808014058000020800F00200000C34336
:104D0000830F0020781B0020741B002078B585B02D
:104D100003F05CFF002001905748039001200490AD
:104D2000694601A803F0ECFF002805D05348FEF7C0
:104D300095FC03F05EFF1AE012250026AE4211DA60
:104D40004F4850F826000400220000234A4911EB86
:104D50008601022003F0DCFE31004A48FEF77EFCAB
:104D6000761CEBE703F045FF4748FEF777FC06B0FB
:104D700070BD38B512240025A54225DA3E4810EB57
:104D8000850000683E4941F825003D4850F825005F
:104D900001F0A0F902000B0029003C48FEF75EFC80
:104DA000374850F82520510008000016401C002804
:104DB00001D0002100E00902002903D00020304981
:104DC00041F825006D1CD7E72AA0FEF747FC2C48C8
:104DD000006803F087FE2E4908602948406803F008
:104DE00081FE2C4908702648806803F07BFE2A4922
:104DF000087023480069294908602148406927490B
:104E000088601F488069254948601D48C069244959
:104E100008601B48006A224988601948406A204996
:104E200048601748806A1F4908601548C06A1D49D4
:104E300088601348006B1B4948601148406B01F0C3
:104E400049F9194AC2E900010D48806B1749086009
:104E50000B48C06B01F03EF9154AC2E90001084851
:104E6000006C0F4948610648406C03F03BFE114955
:104E7000086031BD0D0A0000000002088CBF000868
:104E8000E0160020A0BF0008F8C10008FCBD000823
:104E9000A81B0020850F0020EB1B0020A00E002087
:104EA000C00E0020E00E002000000020C01B0020EB
:104EB00008000020901B00202DE9F84304000D009D
:104EC00016002800310003F0A7FF07003800216911
:104ED00003F0A2FF0100294803F008FD8046A16904
:104EE000274803F003FD414603F010FC804627618C
:104EF000E069390003F0FAFCE16803F007FCE060C8
:104F00006069E16801F0C6F802D26069E0600AE019
:104F1000E068616991F0004101F0BCF803D260697A
:104F200090F00040E060C4F818802068390003F079
:104F3000DDFC81466068414603F0D8FC494603F039
:104F4000E5FB8146E168A06803F0D0FC494603F028
:104F5000DDFBBDE8F2830021C16000210161002179
:104F60008161704780B50748FFF7F5FF0648FFF7F6
:104F7000F2FF0648FFF7EFFF01BD0000A69BC43E0D
:104F8000A4701D3FA00E0020C00E0020E00E0020E7
:104F900010B50400DFF8280304602000002101F0B0
:104FA00067F812D82100DFF81C030078FFF760FDD6
:104FB0000021DFF810034078FFF75AFD0021DFF8E9
:104FC0000403007CFFF754FD13E0210091F0004141
:104FD000DFF8F002007AFFF74BFD0021DFF8E40272
:104FE000407AFFF745FD0021DFF8D802007CFFF78B
:104FF0003FFD10BD10B50400DFF8CC02007800289A
:1050000003D12000FFF7C4FF12E0DFF8BC020078F4
:1050100003280AD1200003F065FD010009B2DFF882
:10502000AC02006803F038FF02E02000FFF780FCCC
:1050300010BDF8B5002400250026DFF894020078A2
:10504000400740F1B580DFF88C020268DFF8880283
:105050000168DFF88802FFF72FFF0600DFF8700213
:105060000078800769D5DFF878020660DFF8700203
:10507000006801F02FF802000B00DFF86872D7E932
:105080000001FCF7C3FB07D2964AD2E9000103F006
:1050900099FC9349086014E09148006801F01AF8FF
:1050A000904FD7E9002393F00043FCF7AFFB08D201
:1050B0008C4AD2E9000191F0004103F083FC884959
:1050C000086089480268864801688848FFF7F4FE4E
:1050D00005007F480078C0071CD5854805608548D5
:1050E0000268834801688448FFF7E6FE0400200058
:1050F000824900F0BDFF02D88148040006E020008C
:10510000804900F0C7FF01D27E4804002000FFF76D
:1051100071FFD3E02800794900F0AAFF02D878484F
:10512000050006E02800774900F0B4FF01D2754879
:1051300005002800FFF75EFFC0E065480078C00763
:1051400023D56B4806606A4800686F4900F090FFFD
:1051500004D85FF08040664908600AE0644800684F
:105160005FF0404100F096FF03D25FF0404060499D
:105170000860604802685E4801685F48FFF79CFE6F
:1051800004002000FFF736FF98E030005B4900F094
:105190006FFF02D85A48060006E03000594900F077
:1051A00079FF01D2574806003000FFF723FF85E062
:1051B0004748007880075CD54948006800F08AFFBE
:1051C00002000B00474FD7E90001FCF71FFB07D295
:1051D000444AD2E9000103F0F5FB4149086014E0BC
:1051E0003F48006800F076FF3E4FD7E9002393F078
:1051F0000043FCF70BFB08D23A4AD2E9000191F0D8
:10520000004103F0DFFB3649086037480268344844
:1052100001683648FFF750FE05002D480078C007AA
:1052200023D53348056032480068374900F020FF35
:1052300004D85FF080402E4908600AE02C480068DE
:105240005FF0404100F026FF03D25FF04040284964
:10525000086028480268264801682748FFF72CFEA6
:1052600004002000FFF7C6FE28E02800FFF7C2FE7A
:1052700024E017480078C00720D51D48006822495F
:1052800000F0F6FE04D85FF08040194908600AE09B
:10529000174800685FF0404100F0FCFE03D25FF069
:1052A00040401349086013480268114801681248D9
:1052B000FFF702FE04002000FFF79CFEF1BD000096
:1052C000AC1B0020680E0020850F0020901B0020E2
:1052D000ED1B0020BC1B0020B81B0020E00E0020AE
:1052E000B01B002000000020B41B0020C00E0020D6
:1052F000C41B0020C81B0020A00E00200100BE42DD
:105300000000BE420000BEC2010000401FB5040004
:105310000020ADF804000020ADF8060001210120B6
:1053200000F074F8ADF80400002220211D48FEF7BB
:1053300083F86423012201A91B4803F0F3FD012235
:1053400020211848FEF778F80121200080B200F0F3
:105350005DF8ADF80400002220211248FEF76CF839
:1053600064200090012302AA01A90F4803F06FFFF7
:10537000012220210B48FEF75FF800222021094876
:10538000FEF75AF8642301220DF10601064803F0E6
:10539000A1FE012220210348FEF74EF8BDF80600C9
:1053A00004B010BD001001408816002038B500245C
:1053B000002543F6FF70FFF7A9FF0100480402D55E
:1053C0004FF6FF7002E08804800C80B232BD10B44A
:1053D00001000022002300200F2809DA0124844064
:1053E00023000C00A4B21C4200D0521C401CF3E766
:1053F000022092FBF0F400FB1420002801D10020D1
:1054000002E05B00180080B210BC704770B5040069
:105410000D00002626432800C0B256EA8036300030
:1054200080B2FFF7D4FF304380B270BD00280AD0AD
:10543000B0FA80F18840D1F19D01C905020672F1F0
:10544000004241EB102070477CB504000025207815
:10545000C00740F18480DFF8A006006810F00C005F
:1054600004280BD0DFF89006006810F00C00082824
:105470000ED1DFF884060068C00309D5DFF8740692
:10548000006880036BD56068002868D1012005E2C0
:105490006068B0F5803F08D1DFF85806006850F426
:1054A0008030DFF85016086038E06068002810D1BE
:1054B000DFF84006006830F48030DFF83816086006
:1054C000DFF83006006830F48020DFF82816086026
:1054D00024E06068B0F5A02F10D1DFF8180600684E
:1054E00050F48020DFF80C160860DFF8080600682A
:1054F00050F48030DFF8FC1508600FE0DFF8F405A9
:10550000006830F48030DFF8EC150860DFF8E4055F
:10551000006830F48020DFF8DC150860606800283F
:105520000ED0FDF711FC0500DFF8C8050068800308
:1055300015D4FDF709FC401B6528F5D30320ADE128
:10554000FDF702FC0500DFF8AC050068800306D516
:10555000FDF7FAFB401B6528F5D303209EE1207878
:1055600080075CD5DFF89005006810F00C0F0BD0B9
:10557000DFF88405006810F00C0008281AD1DFF865
:1055800078050068C00315D4DFF868050068800757
:1055900004D52069012801D001207FE1DFF85405FE
:1055A000006830F0F800616950EAC100DFF8441586
:1055B000086034E0206900281ED00120DFF848157B
:1055C0000860FDF7C1FB0500DFF8280500688007CB
:1055D00006D4FDF7B9FB401B0328F5D303205DE19A
:1055E000DFF81005006830F0F800616950EAC1008A
:1055F000DFF80015086012E00020DFF80C150860E5
:10560000FDF7A2FB0500DFF8EC040068800706D573
:10561000FDF79AFB401B0328F5D303203EE12078D9
:1056200000072CD5A069002816D00120DFF8DC1473
:105630000860FDF789FB0500DFF8C80400688007F3
:1056400006D4FDF781FB401B0328F5D3032025E199
:10565000012000F03AFA12E00020DFF8B0140860F0
:10566000FDF772FB0500DFF89C040068800706D593
:10567000FDF76AFB401B0328F5D303200EE12078D9
:10568000400740F1A8800026DFF884040068C000CD
:1056900010D4DFF87C04006850F08050DFF87014FC
:1056A0000860DFF86C04006810F0805000900098EB
:1056B00001200600DFF85C040068C00516D4DFF89E
:1056C0005404006850F48070DFF848140860FDF757
:1056D0003BFB0500DFF83C040068C00506D4FDF77D
:1056E00033FB401B6528F5D30320D7E0E068012891
:1056F00008D1DFF82404006850F00100DFF8181426
:10570000086037E0E068002810D1DFF80C0400687A
:1057100040084000DFF800140860DFF8FC03006870
:1057200030F00400DFF8F013086023E0E06805289B
:1057300010D1DFF8E403006850F00400DFF8D8135C
:105740000860DFF8D403006850F00100DFF8C813E8
:1057500008600FE0DFF8C003006840084000DFF891
:10576000B8130860DFF8B003006830F00400DFF819
:10577000A8130860E068002810D0FDF7E5FA0500DE
:10578000DFF894030068800719D4FDF7DDFA401BA9
:1057900041F289318842F3D303207FE0FDF7D4FA48
:1057A0000500DFF874030068800708D5FDF7CCFA20
:1057B000401B41F289318842F3D303206EE0300070
:1057C000C0B2012807D1DFF84803006830F08050EC
:1057D000DFF83C130860E06900285ED0DFF81803AA
:1057E000006810F00C00082855D0E06902283FD16D
:1057F0000020DFF828130860FDF7A6FA0600DFF89E
:10580000F4020068800106D5FDF79EFA801B03288C
:10581000F5D3032042E0206AB0F5803F09D1DFF8DC
:10582000D802016831F40031A0680143DFF8C802F2
:105830000160DFF8C402016831F47411206A014389
:10584000606A0143DFF8B00201600120DFF8CC128A
:105850000860FDF779FA0500DFF89802006880011A
:105860001BD4FDF771FA401B0328F5D3032015E084
:105870000020DFF8A8120860FDF766FA0500DFF8DF
:1058800074020068800108D5FDF75EFA401B03280A
:10589000F5D3032002E0012000E0002076BD70B5C2
:1058A00004000D000026DFF87802006810F0070001
:1058B000A84211D2DFF868020068C008C00028437F
:1058C000DFF85C120860DFF85802006810F007008B
:1058D000A84201D00120A5E02078800709D5DFF893
:1058E0001802016831F0F001A0680143DFF80802F6
:1058F00001602078C0075AD56068012806D1DFF81A
:10590000F4010068800312D401208BE06068022853
:1059100006D1DFF8E0010068800108D4012081E0B1
:10592000DFF8D0010068800701D401207AE0DFF8B9
:10593000C80101688908890060680143DFF8B8017F
:105940000160FDF701FA0600606801280FD1DFF859
:10595000A801006810F00C00042828D0FDF7F4F925
:10596000801B41F289318842F1D303205AE06068FC
:1059700002280ED16048006810F00C00082816D0EC
:10598000FDF7E2F9801B41F289318842F2D303200E
:1059900048E05948006810F00C0F08D0FDF7D4F922
:1059A000801B41F289318842F3D303203AE05C48FE
:1059B000006810F0070085420ED259480068C00800
:1059C000C0002843564908605548006810F0070099
:1059D000A84201D0012025E02078400707D546489D
:1059E000016831F4E061E0680143434801602078D8
:1059F000000708D54048006830F46050216950EA3B
:105A0000C1003D49086000F00EF846493A4A126864
:105A1000C2F30312895CC84039490860002001F0D4
:105A200033FC002070BD78B585B001A83E49102236
:105A3000FBF786FC3D480088ADF8000000200021FF
:105A40000022002300242C4D2D6815F00C06042E96
:105A500002D0082E02D01CE028481BE001A8C5F3A4
:105A60008346805D0300E8030DD56846224E366804
:105A7000C6F34046805D0100204800FB03F0B0FB08
:105A8000F1F0020003E02A4800FB03F002001000DE
:105A900000E01A4806B070BD19480068704780B52C
:105AA000FFF7FAFF2349144A1268C2F30222895C05
:105AB000C84002BD80B5FFF7EFFF1E490E4A1268CD
:105AC000C2F3C222895CC84002BD81B00C4909689A
:105AD000C9084FF47A72B1FBF2F101FB00F10091B9
