:020000040800F2
:10000000A00400200D180008291700082B1700086D
:100010002D1700082F1700083117000800000000F6
:10002000000000000000000000000000331700087E
:1000300035170008000000003717000839170008BE
:100040003118000835180008391800083D18000854
:100050004118000845180008491800084D18000804
:100060005118000855180008591800085D180008B4
:100070006118000865180008691800086D18000864
:100080007118000875180008791800087D18000814
:100090003D17000881180008851800088918000815
:1000A0008D18000891180008951800089918000884
:1000B0009D180008A1180008A5180008A918000834
:1000C000AD180008B1180008B5180008B9180008E4
:1000D000BD18000843170008C1180008C51800081B
:1000E000C9180008CD180008D118000838B5040058
:1000F0001ED094F8200010B9204600F0C2FA206803
:10010000016821F00201016000F02CFB0546206827
:1001100041688A0762D500F025FB401B0B28F6D307
:1001200004E000F01FFB401B0B285AD300F0F2F84C
:10013000012032BD016821F080010160617E2068EC
:10014000012904D1026842F04002026003E0016824
:1001500021F040010160A17E2068012904D10268DC
:1001600042F02002026003E0016821F020010160FA
:10017000E17E2068012904D1026822F010020260A9
:1001800003E0016841F010010160217F206801292E
:1001900004D1026842F00802026003E0016821F025
:1001A00008010160617F2068012904D1026842F0E2
:1001B0000402026003E0016821F004010160A2680A
:1001C000E068216802432069024360690243606875
:1001D000401E0243CA6100206062A3E000F0A7F85D
:1001E000054620684168CA079BD5217E0129A1D117
:1001F000026842F080020260A0E7F8B5066890F855
:100200002020012A18BF022A54D106F500720124C9
:10021000106840F00100106006F511750B7DD06983
:1002200003F01F0304FA03F3DC432040D06106F51A
:100230001076C86970B9D7682740D7604F68C8681A
:1002400000F03BF808688F6880B240EA07404F69C9
:1002500045F83700C86901280ED1D7681F43D76019
:100260004F68086800F029F8C8688E6880B240EAD4
:1002700006404E6945F83600886918B9556825402A
:10028000556002E0506818435060086918B9556914
:100290002C40546102E0506918435061086A0128FB
:1002A00002D1D1690B43D36110684008400010604F
:1002B0000020F2BD00F0A5F89AE0BFB247EA00477F
:1002C000486946F83070704738B5044694F8200005
:1002D000012816D1022184F82010206801684908FD
:1002E0004900016000F03EFA054620684168C807F1
:1002F0000DD500F037FA401B0B28F6D300F00AF8B2
:1003000003E0606A40F400206062012032BD0020FA
:10031000606232BD606A40F400306062052184F89A
:1003200020107047012084F82000002032BD0168B1
:1003300041F00101016000F015BAF8B590F82040D5
:100340000568AD68012C18BF022C4FD115F0E05F95
:1003500048D0C5F30164032C03D3416A41F4000182
:1003600046E00125A5401D6024010368CE6803F521
:10037000C0758B681BB90B6846EA435603E04F68AB
:1003800043EAC7031E432E5105680B6905F5C27683
:100390003351097D012906D1036803F5C2710D5956
:1003A00045F480750D519379D17955791B0443EA51
:1003B0000163117900F01FF8C1F88C319378D1787E
:1003C00055781B0443EA0163117800F014F8C1F872
:1003D0008831006800F5C070015941F001010151F8
:1003E0000020F2BD416A41F4001101E000F009F87B
:1003F00041620120F2BD43EA05230B430168214419
:100400007047416A41F480217047416A41F480217C
:1004100041620120704790F82020012A18BF022A6B
:1004200003D100684269114300E0EEE7416100201A
:1004300070472DE9F84F05464FF0000828684669D7
:10044000D0F804B08468D0F80C90D0F810A0876978
:10045000F10745D5E10713D501218160A00703D538
:10046000284600F085F90BE0600748BF4FF40068AC
:1004700006D420074EBF4FF48058284600F079F983
:10048000E00515D529684FF480708860A00503D574
:10049000284600F06FF90BE0600548BF48F40058AB
:1004A00006D420054EBF48F48048284600F063F982
:1004B000E00315D529684FF480308860A00303D588
:1004C000284600F059F90BE0600348BF48F40048A3
:1004D00006D420034EBF48F48038284600F04DF97A
:1004E000300748BF5FEAC96004D52968102048F486
:1004F0000078C860700748BF5FEA097005D52968B1
:100500000820C860284600F039F9B00707D52868E8
:10051000C16811F0030F1CBF284600F030F97006C7
:1005200048BF5FEACA6004D52968102048F4806893
:100530000861B00648BF5FEA0A7005D5296808203F
:100540000861284600F01CF9F00607D52868016903
:1005500011F0030F1CBF284600F013F9B00348BF89
:100560005FEACB6005D5296810204860284600F076
:1005700009F9F00348BF5FEA0B7005D52968082028
:100580004860284600F0FFF8300440D55FEA4B7021
:100590003AD5F00503D5F80748BF48F00108B00583
:1005A00003D5B80748BF48F00208700503D578079F
:1005B00048BF48F00408300526D517F0700F23D047
:1005C00007F07007102F0CD0202F0DD0302F0ED039
:1005D000402F0FD0502F10D0602F08BF48F48078E4
:1005E0000DE048F008080AE048F0100807E048F07D
:1005F000200804E048F0400801E048F0800828683E
:10060000816921F070018161042029684860B8F196
:10061000000F08D0686A48EA000068622846BDE812
:10062000F24F00F0B1B8BDE8F18F000080B5484846
:10063000484901600321416000218160C1604FF49D
:10064000002101614FF480114161002101760121F7
:10065000417600214183017701214177FFF746FD73
:1006600008B100F0FAF83C4840F221310160012164
:1006700041600021C1608160082101610021017594
:1006800001BD18B585B0044601A8102100F0E6F8B8
:100690002168304A914230D13048314C416841F0B4
:1006A000007141600022416801F0007100910099E1
:1006B000016841F0040101604FF40061006800F03E
:1006C00004000090009801910292039201A9204633
:1006D00000F0C8F84FF480500190022103200291ED
:1006E000049001A9204600F0BDF800220121142049
:1006F00000F0B6F9142000F0D0F906B010BD10B526
:100700008AB000200021059006910091019102918C
:100710000391049101200E210790089009916946E8
:100720000B4C2046FFF769FD08B100F096F8204613
:10073000FFF7CAFD08B100F090F802212046FFF74C
:100740006AFE04212046FFF766FE0AB010BD0000D5
:100750005800002000640040800000201810024073
:100760000008014001484068704700BF08000020B1
:1007700070477047704770477047704770477047C1
:100780007047704770477047704700002DE9F84385
:1007900000F0AEF900F035F800F0BCF9FFF746FFC5
:1007A00000F0F4F9FFF7ABFF0E4D0F4E0F4FDFF8DF
:1007B0004080DFF84090002200F01EF80A244346F3
:1007C0003A4631462846FFF7B8FD0A2000F03CFAC9
:1007D000641EF4D1012200F00FF84FF47A7000F09B
:1007E00033FAE8E7580000208000002000000020D5
:1007F00098000020001001404FF40041484600F0EE
:10080000F2B800B58FB005A8282100F027F8684697
:10081000142100F023F80120059000214FF48030CE
:1008200006900D9007914FF4E010012202210E90E6
:1008300009920C9105A800F01BFA0F2002210090EC
:10084000019100204FF480610290039104900221F5
:10085000684600F09BFB0FB000BD7047002200F01F
:1008600083BC00002DE9F84F83460F4600208046E8
:100870006049614A614B4FF00F094FF0010A3C6833
:100880000AFA08F606EA040EB64540F0A4807C6831
:100890003CB3012C1AD0022C1DD0032C2ED0112CCD
:1008A00016D0122C1AD0564DAC421CBF554DAC423E
:1008B00017D0554DAC421CBF544DAC4211D0544DD5
:1008C000AC421CBF534DAC420BD018E0F86816E0A8
:1008D000F868001D13E0F868083010E0F8680C3084
:1008E0000DE0B86808B9042009E0012819BF082004
:1008F000CBF814600820CBF8106000E00020BEF5B3
:10090000807F03D2DC464FEA880404E0A8F10804A3
:100910000BF1040CA400DCF8005009FA04F6B5430E
:1009200000FA04F42C43CCF800407C68E40052D573
:100930001C6844F001041C604FEA980C1D6805F027
:1009400001050095009C52F82C604FEA880404F0E1
:100950000C0409FA04F526EA05052F4EB34508BF35
:1009600000260ED02D4EB34508BF012609D02C4ECF
:10097000B34508BF022604D02A4EB3450CBF032658
:10098000042606FA04F42C4342F82C406FEA0E06C3
:100990007C68E50304D50D684EEA05050D6002E0AC
:1009A0000C6834400C607C68A5034C684CBF4EEA70
:1009B000040434404C607C68E5028C684CBF4EEA0D
:1009C000040434408C607C68A502CC684CBF4EEABD
:1009D00004043440CC6008F10108B8F10F0F7FF631
:1009E0004EAFBDE8F18F81B002B90904016101B0D9
:1009F0007047000000040140080001401810024048
:100A00000000111000001210000021100000221040
:100A1000000031100000321000080140000C0140BD
:100A200000100140001401400901020081B006D508
:100A3000294A00F00F00104400F8041C01E0274B85
:100A4000195401B07047264A13684FF6FF0100029F
:100A50000B4000F4E06018432249084310607047DF
:100A600038B51F4B1C68C4F30223C3F10704052CDF
:100A700028BF04241D1D072D34BF0023DB1E0125C4
:100A800005FA04F4641E2140994005FA03F35B1E45
:100A90001A401143BDE83440C6E7012200F01F01AF
:100AA000114BFFE78A40400943F82020704710B5FA
:100AB000401EB0F1807F01D3012010BD0B4C60605F
:100AC0000F214FF0FF30FFF7AFFF0022A260072099
:100AD0002060002010BD000018ED00E000E400E000
:100AE0000CED00E00000FA0500E100E010E000E09D
:100AF00080B50748016841F0100101600320FFF74D
:100B0000A2FF002000F04AFB00F068FB002002BDBD
:100B10000020024018B585B001A81021FFF79EFE05
:100B20001848046844F0100404600168164C01F091
:100B3000100100910099016841F0200101600268F4
:100B400002F02002009201220099016841F00401A4
:100B500001604FF40041006800F00400009000982C
:100B60002046FFF740FF0121029103914FF400401E
:100B7000022101900491204601A9FFF773FE06B0FF
:100B800010BD0000181002400010014080B52A4836
:100B90002A4901604FF4E131416000218160C16068
:100BA00001610C21416100218161C16100F038FBCC
:100BB00018B1BDE80140FFF750BE01BD18B585B0C2
:100BC000044601A81021FFF749FE21681B4A914203
:100BD00030D11B481B4C026842F480420260022262
:100BE000016801F4804100910099016841F004011D
:100BF00001604FF40071006800F00400009000985C
:100C0000019103200490029201A92046FFF72AFED9
:100C10004FF480600021019002910391204601A9C8
:100C2000FFF720FE002202212520FFF719FF2520D3
:100C3000FFF733FF06B010BD180000200038014058
:100C4000181002400008014038B50446FFF78AFD3D
:100C500014F1010F054602D0044908780419FFF782
:100C600081FD401BA042FAD331BD00BF0800002027
:100C70002DE9F8430646DFF8B0543078C1074AD56D
:100C8000686800F00C00042807D0686800F00C00C9
:100C900008280BD16868C10308D5296888033AD5AC
:100CA0007068002840F0C080012069E17068B0F5EC
:100CB000803F0FD038B9296821F480312960286835
:100CC00020F4802009E0B0F5A02F296807D141F475
:100CD00080212960286840F48030286006E021F4F3
:100CE000803129602A6822F480222A60706868B105
:100CF000FFF738FD04462968880300F19580FFF767
:100D000031FD001B6528F6D3032039E1FFF72AFDEA
:100D100004462868810340F18780FFF723FD001B0C
:100D20006528F6D3F0E7FFF71DFD001B022840F20F
:100D3000AA80E9E7306970B101213960FFF712FD3F
:100D400004462868810700F1DC80FFF70BFD001BDB
:100D50000228F6D9D8E73860FFF704FD0446286872
:100D6000810765D5FFF7FEFC001B0228F7D9CBE70A
:100D70000860FFF7F7FC0446686A810777D5FFF73C
:100D8000F1FC001B0228F7D9BEE708B9286A09E080
:100D90000528286A06D140F004002862286A40F03D
:100DA000010005E0400840002862286A20F00400A5
:100DB000286241F28938F06868B1FFF7D3FC8146B8
:100DC000286A810700F1AA80FFF7CCFCA0EB09009C
:100DD0004045F5D398E7FFF7C5FC8146286A8107AF
:100DE00040F19C80FFF7BEFCA0EB09004045F5D325
:100DF0008AE7FFF7B7FC001B022840F2A28083E7D6
:100E0000FFF7B0FC001B022840F2B5807CE700F041
:100E1000B9F804462868810140F1B180FFF7A2FCCF
:100E2000001B0228F6D96FE73078DFF808738107D6
:100E30001BD5686810F00C0F09D0686800F00C0032
:100E400008287FF477AF6868C1033FF573AF29685E
:100E5000880703D5306901287FF426AF29687069B7
:100E600021F0F80141EAC0012960317808071DD559
:100E7000B069DFF8C41200283FF47AAF01220A609B
:100E8000FFF770FC0446686A81077FF54CAFDFF816
:100E90009C120868C0084FF47A72B0FBF2F200921C
:100EA00000BF0098411E00280091F9D13078410719
:100EB00039D5E8690024C10009D4E86940F08050C0
:100EC000E8610124E86900F0805000900098DFF8A4
:100ED0006C82D8F80010C8051BD4D8F8000040F484
:100EE0008070C8F80000FFF73DFC8146D8F800107C
:100EF000C8050ED4FFF736FCA0EB09006528F5D332
:100F000002E72868716920F0F80040EAC100286013
:100F1000ABE7F06801287FF438AF3FE71CB1E86920
:100F200020F08050E861F06948B3696801F00C0175
:100F300008293FF4B9AE02287FF469AF00F022F827
:100F40000446286881013FF554AF306AB0F5803F10
:100F500005D16968B06821F40031014369606968AE
:100F6000306A21F474110143706A01436960012001
:100F700000F009F80446286881017FF541AF0020A0
:100F8000BDE8F28300203866FFF7ECBB2DE9F8439B
:100F90006B4F05463868894600F00700484502D285
:100FA00000F087F879D128685F4C810712D5400797
:100FB00003D5606840F4E06060602978080703D5D5
:100FC000606840F4605060606168A86821F0F001DA
:100FD000014361602878C10757D56868012802D1AC
:100FE00021688A0303E0022803D121688A0103D41F
:100FF00053E02268910750D56168890840EA810072
:10100000606041F28938FFF7ADFB06466868012849
:101010000BD1606800F00C00042836D0FFF7A2FB6B
:10102000801B4045F5D303202DE0022837D16068AE
:1010300000F00C00082828D0FFF794FB801B4045E7
:10104000F5D3F0E72878410705D56168E86821F411
:10105000E061014361602878010706D5606829696D
:1010600020F4605040EAC100606000F02DF8626832
:101070003449C2F30312895C2C4AC8401060002036
:1010800000F08CF80020BDE8F283386800F007001B
:101090008145D7D200F00DF8D4D00120F3E7606885
:1010A00010F00C0FF1D0FFF75DFB801B4045F6D32D
:1010B000B9E73968C90849EAC1013960386800F000
:1010C00007004845704700001F4919480A6802F0A8
:1010D0000C03082B00D0704710B500BF1DA4C2F34D
:1010E0008343D203E35C09D5096800BF1DA2C1F3A5
:1010F00040415843515CB0FBF1F010BD1846134914
:10110000484310BD0948104A006813681049C3F3EA
:10111000022206E005480C4A006813680C49C3F334
:10112000C222895CC84070470010024014000020B1
:1011300000127A00000042428004424200700040E7
:1011400000200240AC1600080410024000093D00D7
:101150002818000802030405060708090A0B0C0DED
:101160000E0F10100102000000B500BF13009646DC
:101170009446103928BFA0E80C50FAD85FEA417CA9
:1011800028BF0CC048BF40F8042BC90728BF20F86F
:10119000022B48BF00F8012B00BD000038B50D4DF3
:1011A0000D4A297804464FF47A70B0FBF1F11068CB
:1011B000B0FBF1F0FFF77BFC50B9102C08D20022F5
:1011C00021464FF0FF30FFF74BFCAC60002032BDF2
:1011D000012032BD08000020140000200E4881B01C
:1011E000016841F001010160026802F00102009211
:1011F0000099416841F080514160406800F08050A2
:10120000009000980548016821F0E06141F000710C
:10121000016001B0704700BF181002400400014097
:1012200038B5040001D1012032BD00F022F808B920
:1012300000F023F800F013F800F024F8FFE7416114
:1012400000F001F832BD2068C16841F40051C1606E
:101250000020686020206870A8700020704724205B
:1012600068702068C16821F40051C160204600F018
:1012700022B904F1380568787047002129702046AA
:10128000FFF79CBC2068016921F49041016120684E
:10129000416921F02A017047416921F04001416113
:1012A000606B704738B5044625682968EA686B6941
:1012B00011F00F0007D188065DD590065BD520465A
:1012C000BDE83240ACE0D80702D412F4907F52D08F
:1012D000C80705D5D00503D5E06B40F00100E063F9
:1012E000480705D5D80703D5E06B40F00200E0635E
:1012F000880705D5D80703D5E06B40F00400E0630C
:10130000080705D5D80703D5E06B40F00800E06377
:10131000E06B00286ED0890604D5900644BF2046B5
:1013200000F07EF820684069E16B0A0701D44006AE
:101330001BD5204600F05FF8206841694A060FD5AA
:10134000FFF7AAFF60B10FF2CD014163606B00F0BF
:1013500027F900284ED0606B416BBDE83440084748
:101360002046BDE8324000F077B9204600F074F91D
:101370000020E06331BD08062CD510062AD594F86C
:101380003900212836D1A168206AB1F5805F0DD1DE
:101390000188C1F308016960206918B9216A881CB5
:1013A000206207E0206A411C216203E0411C2162A7
:1013B00000786860E08C401EE08480B2D0B920687C
:1013C000C16821F08001C1602068C16841F040011E
:1013D000C16031BD48060DD550060BD5E86820F038
:1013E0004000E860202184F839102046BDE83240F2
:1013F00000F033B931BD0168CA6822F49072CA6046
:1014000001684A69520852004A61202180F83A1066
:1014100070470000406A0021C185C18400F01CB9FA
:1014200080B590F83A10222943D18268B2F5805FE6
:1014300014D1826A016941B903685968C1F308018E
:101440001180826A911C816218E001684B6803F088
:10145000FF031380816A4A1C82620FE00169002940
:10146000816A04D14A1C82620268536805E04A1C02
:1014700082620268536803F07F030B70C18D491EBE
:10148000C18589B299B90168CA6822F02002CA6090
:101490000168CA6822F48072CA6001684A69520809
:1014A00052004A61202180F83A1000F0D7F800205D
:1014B00002BD022002BD2DE9F047044664252168E3
:1014C0000A69E06822F4405202430A611926CA6898
:1014D00031480240A0680243206902436069024328
:1014E000CA604A69A06922F4407202432B484A61EB
:1014F00081420ED1FFF70EFE0746FFF70BFE804636
:10150000FFF708FE8146FFF705FE8246FFF702FE61
:101510000DE0FFF7F7FD0746FFF7F4FD8046FFF704
:10152000F1FD8146FFF7EEFD8246FFF7EBFD06FB7E
:1015300009F9616889007743B7FBF1F206FB08F708
:10154000B7FBF1F3B9FBF1F7B7FBF5F705FB173381
:101550001B013233B3FBF5F3B2FBF5F203F0F003FA
:1015600003EB021306FB0AF74643B7FBF1F2B6FBA7
:10157000F1F06421B0FBF1F005FB10252D013235AF
:101580006420B5FBF0F0216800F00F00C3188B60F9
:10159000BDE8F08700000000F3E9FFFF00380140DC
:1015A00038B590F821200024022A00F1340103D03C
:1015B0000420486001243EE00268136823F00E0313
:1015C00013600268DFF8743015686D086D001560EF
:1015D00002689A4208BF012222D0DFF864309A42A2
:1015E00008BF10221CD0DFF85C309A4208BF4FF4CD
:1015F000807215D0DFF850309A4208BF4FF4805205
:101600000ED0DFF848309A4208BF4FF4803207D03E
:10161000DFF83C309A420CBF4FF480124FF08072DA
:10162000DFF830301A60012280F8212080F8204055
:10163000096801B18847204632BD00000800024019
:101640001C000240300002404400024058000240AA
:101650006C00024004000240704770477047000071
:101660000E49086840F0010008604A680C480240D2
:101670004A600B680B4803400B60086820F4802028
:1016800008604FF41F004A6822F4FE024A60886036
:101690004FF00060044908607047000000100240ED
:1016A0000000FFF8FFFFF6FE08ED00E0000000007C
:1016B00000000000010203040607080919E050F8C1
:1016C000042BD30744BFA9F101039A18091F002373
:1016D000042942F8043BF9D25FEA817C134604D521
:1016E0004FF0000CA2F800C09B1CC90744BF0021AA
:1016F000197050F8041B0029E1D1704710B450F85C
:10170000041B79B10268436802440830DC0744BF17
:10171000A9F10104E31852F8044B43F8044B091FE4
:10172000F9D1ECE710BC70477047FEE7FEE7FEE733
:10173000FEE770477047704700F00AB80248FEF7AE
:1017400078BE0248FFF7AEBD580000201800002008
:1017500002494A68087882184A60704708000020E9
:1017600010B5074979441831064C7C44163404E01E
:101770000A68081D114488470146A142F8D110BDEE
:10178000080000002800000035FFFFFF8400000073
:10179000180000200000000065FFFFFF1800000097
:1017A00054000000000000200000000000F00DF8D0
:1017B000002801D0FFF7D4FFAFF300800020AFF383
:1017C0000080FEF7E3FF00F002F80120704700F010
:1017D00001B800000746384600F002F8FBE70000B9
:1017E00080B5AFF30080024A11001820ABBEFBE7C2
:1017F000260002003132333435360D0A0100000074
:10180000000000001000000000A24A0401488047C8
:1018100001480047611600081D180008AFF300805A
:10182000AFF30080FFF7C2FF0000000001020304D5
:10183000FFF7FEBFFFF7FEBFFFF7FEBFFFF7FEBFDC
:10184000FFF7FEBFFFF7FEBFFFF7FEBFFFF7FEBFCC
:10185000FFF7FEBFFFF7FEBFFFF7FEBFFFF7FEBFBC
:10186000FFF7FEBFFFF7FEBFFFF7FEBFFFF7FEBFAC
:10187000FFF7FEBFFFF7FEBFFFF7FEBFFFF7FEBF9C
:10188000FFF7FEBFFFF7FEBFFFF7FEBFFFF7FEBF8C
:10189000FFF7FEBFFFF7FEBFFFF7FEBFFFF7FEBF7C
:1018A000FFF7FEBFFFF7FEBFFFF7FEBFFFF7FEBF6C
:1018B000FFF7FEBFFFF7FEBFFFF7FEBFFFF7FEBF5C
:1018C000FFF7FEBFFFF7FEBFFFF7FEBFFFF7FEBF4C
:0418D000FFF7FEBF61
:040000050800181DBA
:00000001FF
