:020000040800F2
:10000000D0040020C119000865180008671800080E
:10001000691800086B1800086D180008000000003F
:100020000000000000000000000000006F18000841
:100030007118000800000000731800087518000807
:10004000F5190008F9190008FD190008011A00083F
:10005000051A0008091A00080D1A0008111A0008EC
:10006000151A0008191A00081D1A0008211A00089C
:10007000251A0008291A00082D1A0008311A00084C
:10008000351A0008391A00083D1A0008411A0008FC
:10009000451A0008491A00084D1A0008511A0008AC
:1000A000551A0008591A00085D1A0008611A00085C
:1000B000791800087F180008651A0008691A0008F6
:1000C0006D1A0008711A0008751A0008791A0008DC
:1000D0007D1A000885180008811A0008851A000892
:1000E00099180008891A00088D1A000838B504000C
:1000F00001D1012032BD00F037F818B900F030F816
:1001000000F055FBFFE702206870211D206800F019
:10011000BAF901206870002032BD38B5040001D161
:10012000012032BD00F020F818B900F019F800F0F5
:10013000DBFBE8E710B500F01BF800F0A6FA20683A
:10014000DFF83410884205D1DFF830100A6842F435
:1001500000420A60016841F001010160002010BD09
:10016000002129702046704704F13C0568787047EB
:100170000446012220687047002C0140442C0140B5
:1001800010B50446206801698A0715D5C1688A0739
:1001900012D56FF00202026101212177806910F00F
:1001A000030F204602D000F0A0FB03E000F09EFB0E
:1001B00000F087F800202077206801694A0715D5EC
:1001C000C1684A0712D56FF004020261022121774B
:1001D000806910F4407F204602D000F086FB03E0E7
:1001E00000F084FB00F06DF80020207720680169A2
:1001F0000A0715D5C1680A0712D56FF00802026117
:1002000004212177C06910F0030F204602D000F0CE
:100210006CFB03E000F06AFB00F053F8002020774D
:1002200020680169CA0615D5C168CA0612D56FF0E3
:100230001002026108212177C06910F4407F204636
:1002400002D000F052FB03E000F050FB00F039F860
:100250000020207720680169CA0708D5C168CA074D
:1002600005D56FF001020261204600F040FB2068D6
:1002700001690A0608D5C1680A0605D56FF0800233
:100280000261204600F034FB206801694A0608D567
:10029000C1684A0605D56FF040020261204600F0B1
:1002A00028FB206801698A060AD5C1688A0607D535
:1002B0006FF0200202612046BDE8104000F01ABB3A
:1002C00010BD204600F017BB70B500F065F801D1F5
:1002D000022070BD00F067F832B1042A17D0082A56
:1002E00028D00C2A39D04AE03068294600F0FAF8C4
:1002F0003068816941F0080100F04AF821F00401FA
:10030000816131688A69286902438A6137E030680F
:10031000294600F009F93068816941F4006100F074
:1003200037F821F4806100F033F82A6941EA0221AC
:10033000816124E03068294600F01FF93068C16906
:1003400041F0080100F020F821F00401C16131689A
:10035000CA6928690243CA6111E03068294600F081
:1003600037F93068C16941F4006100F00DF821F4FB
:10037000806100F009F82A6941EA0221C161012087
:1003800060700020207070BDC1613068C169704725
:100390008161306881697047064606F13C040D466C
:1003A0002078012870470121217002206070704779
:1003B00038B500F05DF801D1022032BD0122227073
:1003C000022060702A68DFF8480293680340936057
:1003D0000868002837D0102837D0202837D0302898
:1003E00037D040282BD050281ED0602820D070282D
:1003F0000BD0B0F5805F03D0B0F5005F0CD02CE0DF
:1004000028688168C908C9000CE000F028F828684D
:10041000816841F0770105E000F021F828688168E3
:1004200041F48041816018E000F01EF8502111E095
:10043000CA684968286800F004F960210AE000F001
:1004400013F8402106E0002104E0102102E0202101
:1004500000E03021286800F006F90FE00000CB68CA
:100460004A688968286806E1CA6849682868D9E046
:10047000054605F13C042078012870470120607092
:100480000020207032BD70B5624E0368624C634D2F
:10049000B04218BFB0F1804F03D0A84218BFA042AD
:1004A00009D14A6823F070031343B0421CBFB0F176
:1004B000804FA84201D0A04203D1CA6823F4407300
:1004C00013434A6923F0800313430360B0428A68F0
:1004D000C2620A68826202D10969514A116001222E
:1004E000426170BD30B5026A520852000262056A6C
:1004F0004368846900F066F825F002051543454A13
:1005000090420BD123F44073CA6825F008051543C7
:100510004A6913438A6925F00405134343608461E3
:1005200049684163056230BD70B5026A394E22F0F8
:1005300010020262B042056A436884690A6824F4C2
:10054000E64444EA02248A6825F0200545EA0215BB
:100550000DD1CA684E6925F0800545EA02158A6901
:1005600023F44063164325F0400543EA86034360C5
:10057000846149688163056270BD70B5026A254E69
:1005800022F480720262056A4368C46900F01AF8B6
:1005900025F40075B04245EA02250DD1CA684E69BE
:1005A00025F4006545EA02258A6923F44053164381
:1005B00025F4806543EA06134360C4614968C1635A
:1005C000056270BD0A6824F0730414438A6870479A
:1005D00070B5026A0F4E22F480520262B042046A81
:1005E0004268C3690D6823F4E64343EA05238D6836
:1005F00024F4005444EA053404D14D6922F48042C5
:1006000042EA85124260C36149680164046270BDB8
:100610008800FFFF002C014000080040000400405B
:10062000302C014010B5036A046A64086400046257
:1006300023F00A03846924F0F00444EA021484617C
:100640002CE010B5036A23F0100303628369046A87
:1006500023F4704343EA023324F0A004836144EAA4
:100660000114046210BD826822F07002114341F04F
:1006700007018160704710B5846824F47F442143EA
:10068000114341EA0321816010BD10B5036A0124C2
:100690008C40A343036202FA01F1036A1943016229
:1006A00010BD0000D0B586B00DF1080000F0DAF8FA
:1006B0004FF0804088A4D4E90067804C206041F668
:1006C0001F4060600020A06042F20F70E0600020D8
:1006D00020618020CDE90067A0612046FFF706FD7C
:1006E00008B100F049F94FF48050029002A9204669
:1006F000FFF75EFE08B100F03FF900F051F808B1D5
:1007000000F03AF906B0D0BDD8B58DB009A800F018
:10071000A9F800BF72A402A8D4E90067CDE9006778
:100720001C2100F02BF9664C6648206040F2CF2077
:1007300060601020A0606320E060002020618020C5
:10074000A0612046FFF7D2FC08B100F015F94FF484
:100750008050099009A92046FFF72AFE08B100F051
:100760000BF92046FFF7D9FC08B100F005F900F0BD
:1007700017F808B100F000F9602002903221002043
:10078000039104900690002202A92046FFF79CFDE9
:1007900008B100F0F1F8204600F067F80EB0D0BDC7
:1007A0000020009001906946204600F0EBB818B593
:1007B00085B000F055F820684349B0F1804F39D139
:1007C000486840F001004860486800F0010000906F
:1007D0000098086840F0040008600A6802F004020B
:1007E000009202220098086840F00800086009683A
:1007F00001F0080100914FF400410098334800F0E7
:1008000056F80820022101900291049101A9304874
:1008100000F0DEF82F48016821F4407141F0E061FA
:1008200041F480710160002201211C2000F0DAF9FE
:100830001C2011E0234A904210D1486840F0020089
:1008400048600022486800F00200009001210098F2
:100850001D2000F0C7F91D2000F0E1F906B010BD21
:10086000044601A8102100F089B818B585B0FFF73B
:10087000F7FF2168134A914217D11348026842F0EA
:10088000080202601021006800F0080000900222B7
:1008900000980F4800F00BF80E48016821F4406101
:1008A00041F0E06141F40061016006B010BD0191CA
:1008B0000292049201A900F08BB800001000002001
:1008C00050000020000400401810024000080140C1
:1008D000000C014004000140000000000000000086
:1008E000000000000000000070477047704770472C
:1008F000704770477047704780B500F0BBF900F053
:100900000FF800F0C9F9FFF7CDFE00F01FFAFFF76E
:10091000FBFE00210148FFF70DFCFEE75000002020
:1009200000B58FB005A8282100F028F868461421EA
:1009300000F024F80120059000214FF4803006904B
:100940000D9007914FF4E010012202210E900992C0
:100950000C9105A800F058FA0F2002210090019197
:1009600000204FF4806102900391049002216846B8
:1009700000F0D8FB0FB000BD70470000002200F06F
:10098000BFBC000030B500F13C031A78012A01D148
:10099000022030BD01241C7002225A700268546883
:1009A00024F070045460046865680A681543656043
:1009B0000268946824F0800494600268946848682F
:1009C00004439460012058700020187030BD00006E
:1009D0002DE9F84F83460F46002080466449654A5A
:1009E000654B4FF00F094FF0010A3C680AFA08F610
:1009F00006EA040EB64540F0A4807C683CB3012CA6
:100A00001AD0022C1DD0032C2ED0112C16D0122C53
:100A10001AD05A4DAC421CBF594DAC4217D0594D5B
:100A2000AC421CBF584DAC4211D0584DAC421CBF1B
:100A3000574DAC420BD018E0F86816E0F868001D7E
:100A400013E0F868083010E0F8680C300DE0B86882
:100A500008B9042009E0012819BF0820CBF8146068
:100A60000820CBF8106000E00020BEF5807F03D2A4
:100A7000DC464FEA880404E0A8F108040BF1040CFA
:100A8000A400DCF8005009FA04F6B54300FA04F4B7
:100A90002C43CCF800407C68E40052D51C6844F03C
:100AA00001041C604FEA980C1D6805F001050095D3
:100AB000009C52F82C604FEA880404F00C0409FAF8
:100AC00004F526EA0505334EB34508BF00260ED0CF
:100AD000314EB34508BF012609D0304EB34508BF9B
:100AE000022604D02E4EB3450CBF0326042606FA78
:100AF00004F42C4342F82C406FEA0E067C68E503B0
:100B000004D50D684EEA05050D6002E00C6834401E
:100B10000C607C68A5034C684CBF4EEA040434406A
:100B20004C607C68E5028C684CBF4EEA040434409B
:100B30008C607C68A502CC684CBF4EEA040434404B
:100B4000CC6008F10108B8F10F0F7FF64EAFBDE899
:100B5000F18F81B002B90904016101B07047114AF7
:100B6000136803421CBF106000F01EB870470000FD
:100B7000000401400800014018100240000011105C
:100B8000000012100000211000002210000031109F
:100B90000000321000080140000C0140001001402C
:100BA00000140140140401407047000009010200D4
:100BB00081B006D5294A00F00F00104400F8041C4B
:100BC00001E0274B195401B07047264A13684FF6CD
:100BD000FF0100020B4000F4E06018432249084383
:100BE0001060704738B51F4B1C68C4F30223C3F173
:100BF0000704052C28BF04241D1D072D34BF002326
:100C0000DB1E012505FA04F4641E2140994005FA13
:100C100003F35B1E1A401143BDE83440C6E70122CE
:100C200000F01F01114BFFE78A40400943F82020E4
:100C3000704710B5401EB0F1807F01D3012010BD78
:100C40000B4C60600F214FF0FF30FFF7AFFF002229
:100C5000A26007202060002010BD000018ED00E019
:100C600000E400E00CED00E00000FA0500E100E027
:100C700010E000E080B50748016841F01001016014
:100C80000320FFF7A2FF002000F054FB00F072FBEE
:100C9000002002BD0020024018B585B06846102132
:100CA000FFF76CFE2648046844F0100404600168F5
:100CB000244C01F0100104910499016841F02001D5
:100CC0000160026802F0200204920499016841F078
:100CD00004010160026802F00402049200220499F7
:100CE000016841F0080101604FF40041006800F024
:100CF0000800049004982046FFF72BFF4FF4C040F3
:100D00000090002010490191029069462046FFF7AB
:100D10005FFE4FF40040012100900191002002216C
:100D20000290039120466946FFF752FE00220221FD
:100D30002820FFF757FF2820FFF771FF06B010BDEE
:100D400018100240001001400000111080B52A4820
:100D50002A4901604FF4E131416000218160C160A6
:100D600001610C21416100218161C16100F026FB1C
:100D700018B1BDE80140FFF7FFBD01BD18B585B052
:100D8000044601A81021FFF7F9FD21681B4A914292
:100D900030D11B481B4C026842F4804202600222A0
:100DA000016801F4804100910099016841F004015B
:100DB00001604FF40071006800F00400009000989A
:100DC000019103200490029201A92046FFF700FE42
:100DD0004FF480600021019002910391204601A907
:100DE000FFF7F6FD002202212520FFF7FBFE25205C
:100DF000FFF715FF06B010BD90000020003801403D
:100E000018100240000801402DE9F8430646DFF8BB
:100E1000B0543078C1074AD5686800F00C00042847
:100E200007D0686800F00C0008280BD16868C1037F
:100E300008D5296888033AD57068002840F0C0803A
:100E4000012069E17068B0F5803F0FD038B929689A
:100E500021F480312960286820F4802009E0B0F571
:100E6000A02F296807D141F480212960286840F427
:100E70008030286006E021F4803129602A6822F45D
:100E800080222A60706868B100F058FC0446296826
:100E9000880300F1958000F051FC001B6528F6D313
:100EA000032039E100F04AFC04462868810340F140
:100EB000878000F043FC001B6528F6D3F0E700F0C4
:100EC0003DFC001B022840F2AA80E9E7306970B1BE
:100ED0000121396000F032FC04462868810700F1E6
:100EE000DC8000F02BFC001B0228F6D9D8E7386024
:100EF00000F024FC04462868810765D500F01EFC3C
:100F0000001B0228F7D9CBE7086000F017FC044665
:100F1000686A810777D500F011FC001B0228F7D919
:100F2000BEE708B9286A09E00528286A06D140F01A
:100F300004002862286A40F0010005E040084000F3
:100F40002862286A20F00400286241F28938F0689B
:100F500068B100F0F3FB8146286A810700F1AA809E
:100F600000F0ECFBA0EB09004045F5D398E700F05A
:100F7000E5FB8146286A810740F19C8000F0DEFB9A
:100F8000A0EB09004045F5D38AE700F0D7FB001B32
:100F9000022840F2A28083E700F0D0FB001B022869
:100FA00040F2B5807CE700F0B9F80446286881017A
:100FB00040F1B18000F0C2FB001B0228F6D96FE7B8
:100FC0003078DFF8087381071BD5686810F00C0FC4
:100FD00009D0686800F00C0008287FF477AF6868D3
:100FE000C1033FF573AF2968880703D5306901282D
:100FF0007FF426AF2968706921F0F80141EAC00149
:101000002960317808071DD5B069DFF8C4120028BF
:101010003FF47AAF01220A6000F090FB0446686A50
:1010200081077FF54CAFDFF89C120868C0084FF4C9
:101030007A72B0FBF2F2009200BF0098411E0028C5
:101040000091F9D13078410739D5E8690024C10011
:1010500009D4E86940F08050E8610124E86900F0B3
:10106000805000900098DFF86C82D8F80010C80516
:101070001BD4D8F8000040F48070C8F8000000F0DD
:101080005DFB8146D8F80010C8050ED400F056FB71
:10109000A0EB09006528F5D302E72868716920F004
:1010A000F80040EAC1002860ABE7F06801287FF44F
:1010B00038AF3FE71CB1E86920F08050E861F06983
:1010C00048B3696801F00C0108293FF4B9AE022861
:1010D0007FF469AF00F022F80446286881013FF5EB
:1010E00054AF306AB0F5803F05D16968B06821F42B
:1010F0000031014369606968306A21F47411014369
:10110000706A01436960012000F009F8044628680C
:1011100081017FF541AF0020BDE8F28300203866F1
:1011200000F00CBB2DE9F8436B4F05463868894643
:1011300000F00700484502D200F087F879D128680E
:101140005F4C810712D5400703D5606840F4E0602A
:1011500060602978080703D5606840F460506060DB
:101160006168A86821F0F001014361602878C10737
:1011700057D56868012802D121688A0303E0022854
:1011800003D121688A0103D453E02268910750D526
:101190006168890840EA8100606041F2893800F0A6
:1011A000CDFA0646686801280BD1606800F00C0093
:1011B000042836D000F0C2FA801B4045F5D3032046
:1011C0002DE0022837D1606800F00C00082828D0F4
:1011D00000F0B4FA801B4045F5D3F0E728784107CA
:1011E00005D56168E86821F4E06101436160287811
:1011F000010706D56068296920F4605040EAC10003
:10120000606000F02DF862683449C2F30312895C13
:101210002C4AC8401060002000F08CF80020BDE887
:10122000F283386800F007008145D7D200F00DF84E
:10123000D4D00120F3E7606810F00C0FF1D000F07B
:101240007DFA801B4045F6D3B9E73968C90849EAF9
:10125000C1013960386800F0070048457047000058
:101260001F4919480A6802F00C03082B00D0704788
:1012700010B500BF1DA4C2F38343D203E35C09D5BC
:10128000096800BF1DA2C1F340415843515CB0FB47
:10129000F1F010BD18461349484310BD0948104AE3
:1012A000006813681049C3F3022206E005480C4A9F
:1012B000006813680C49C3F3C222895CC8407047B8
:1012C000001002400C00002000127A000000424290
:1012D0008004424200700040002002405418000880
:1012E0000410024000093D00EC1900080203040547
:1012F000060708090A0B0C0D0E0F10100102000062
:1013000000B500BF130096469446103928BFA0E8E8
:101310000C50FAD85FEA417C28BF0CC048BF40F8A7
:10132000042BC90728BF20F8022B48BF00F8012B67
:1013300000BD000038B50D4D0D4A297804464FF424
:101340007A70B0FBF1F11068B0FBF1F0FFF771FCBF
:1013500050B9102C08D2002221464FF0FF30FFF781
:1013600041FCAC60002032BD012032BD00000020F5
:101370000C00002080B50F48016841F001010160B8
:10138000026802F0010200920099416841F0805128
:101390004160406800F08050009000980520FFF701
:1013A00014FC0548016821F0E06141F00071016022
:1013B00001BD00BF181002400400014038B5040010
:1013C00001D1012032BD00F022F808B900F023F865
:1013D00000F013F800F024F8FFE7416100F001F895
:1013E00032BD2068C16841F40051C16000206860CE
:1013F00020206870A8700020704724206870206842
:10140000C16821F40051C160204600F022B904F106
:10141000380568787047002129702046FFF7AEBC78
:101420002068016921F4904101612068416921F03F
:101430002A017047416921F040014161606B7047AA
:1014400038B5044625682968EA686B6911F00F0011
:1014500007D188065DD590065BD52046BDE83240B1
:10146000ACE0D80702D412F4907F52D0C80705D55B
:10147000D00503D5E06B40F00100E063480705D5D7
:10148000D80703D5E06B40F00200E063880705D57C
:10149000D80703D5E06B40F00400E063080705D5EA
:1014A000D80703D5E06B40F00800E063E06B00284C
:1014B0006ED0890604D5900644BF204600F07EF821
:1014C00020684069E16B0A0701D440061BD520461D
:1014D00000F05FF8206841694A060FD5FFF7AAFFC0
:1014E00060B10FF2CD014163606B00F02DF900286F
:1014F0004ED0606B416BBDE8344008472046BDE8E4
:10150000324000F07DB9204600F07AF90020E06317
:1015100031BD08062CD510062AD594F839002128AB
:1015200036D1A168206AB1F5805F0DD10188C1F381
:1015300008016960206918B9216A881C206207E0E7
:10154000206A411C216203E0411C2162007868602E
:10155000E08C401EE08480B2D0B92068C16821F0E0
:101560008001C1602068C16841F04001C16031BDA7
:1015700048060DD550060BD5E86820F04000E8601D
:10158000202184F839102046BDE8324000F039B9F6
:1015900031BD0168CA6822F49072CA6001684A6964
:1015A000520852004A61202180F83A10704700002A
:1015B000406A0021C185C18400F022B980B590F84D
:1015C0003A10222943D18268B2F5805F14D1826A31
:1015D000016941B903685968C1F308011180826A41
:1015E000911C816218E001684B6803F0FF031380CF
:1015F000816A4A1C82620FE001690029816A04D174
:101600004A1C82620268536805E04A1C82620268D2
:10161000536803F07F030B70C18D491EC18589B2E9
:1016200099B90168CA6822F02002CA600168CA68D4
:1016300022F48072CA6001684A69520852004A6105
:10164000202180F83A1000F0DDF8002002BD0220D1
:1016500002BD2DE9F0470446642521680A69E06867
:1016600022F4405202430A611926CA6831480240F6
:10167000A06802432069024360690243CA604A6964
:10168000A06922F4407202432B484A6181420ED184
:10169000FFF70CFE0746FFF709FE8046FFF706FE40
:1016A0008146FFF703FE8246FFF700FE0DE0FFF7DD
:1016B000F5FD0746FFF7F2FD8046FFF7EFFD814697
:1016C000FFF7ECFD8246FFF7E9FD06FB09F96168CB
:1016D00089007743B7FBF1F206FB08F7B7FBF1F39C
:1016E000B9FBF1F7B7FBF5F705FB17331B013233F5
:1016F000B3FBF5F3B2FBF5F203F0F00303EB0213D7
:1017000006FB0AF74643B7FBF1F2B6FBF1F06421A2
:10171000B0FBF1F005FB10252D0132356420B5FB3F
:10172000F0F0216800F00F00C3188B60BDE8F0876F
:1017300000000000F3E9FFFF003801400148406865
:10174000704700BF0000002038B590F82120002429
:10175000022A00F1340103D00420486001243EE055
:101760000268136823F00E0313600268DFF8743018
:1017700015686D086D00156002689A4208BF012265
:1017800022D0DFF864309A4208BF10221CD0DFF864
:101790005C309A4208BF4FF4807215D0DFF85030A9
:1017A0009A4208BF4FF480520ED0DFF848309A4278
:1017B00008BF4FF4803207D0DFF83C309A420CBFAC
:1017C0004FF480124FF08072DFF830301A6001223F
:1017D00080F8212080F82040096801B18847204620
:1017E00032BD0000080002401C00024030000240F0
:1017F00044000240580002406C00024004000240D5
:1018000070477047704700000E49086840F00100BB
:1018100008604A680C4802404A600B680B48034065
:101820000B60086820F4802008604FF41F004A68AD
:1018300022F4FE024A6088604FF0006004490860AC
:1018400070470000001002400000FFF8FFFFF6FEA6
:1018500008ED00E0000000000000000001020304A9
:10186000060708097047FEE7FEE7FEE7FEE7704758
:101870007047704700F01CB80448FEF781BC04486C
:10188000FEF77EBC0348FFF7DBBD00001000002020
:10189000500000209000002080B54FF40050FFF76A
:1018A0005EF9BDE802404FF48040FFF758B90000F0
:1018B00002494A68087882184A6070470000002090
:1018C00019E050F8042BD30744BFA9F101039A187B
:1018D000091F0023042942F8043BF9D25FEA817C06
:1018E000134604D54FF0000CA2F800C09B1CC9079A
:1018F00044BF0021197050F8041B0029E1D1704742
:1019000010B450F8041B79B10268436802440830EF
:10191000DC0744BFA9F10104E31852F8044B43F873
:10192000044B091FF9D1ECE710BC704710B507490B
:1019300079441831064C7C44163404E00A68081DCA
:10194000114488470146A142F8D110BD08000000AB
:10195000280000006DFFFFFFC00000001000002005
:10196000000000009DFFFFFF100000006400000069
:10197000000000200000000000F00DF8002801D059
:10198000FFF7D4FFAFF300800020AFF30080FEF735
:10199000B3FF00F002F80120704700F001B800002A
:1019A0000746384600F002F8FBE7000080B5AFF3C9
:1019B0000080024A11001820ABBEFBE7260002009F
:1019C000014880470148004709180008E11900084C
:1019D00001000000000000001000000000A24A0406
:1019E000AFF30080AFF30080FFF7C6FF00000000F8
:1019F00001020304FFF7FEBFFFF7FEBFFFF7FEBFC4
:101A0000FFF7FEBFFFF7FEBFFFF7FEBFFFF7FEBF0A
:101A1000FFF7FEBFFFF7FEBFFFF7FEBFFFF7FEBFFA
:101A2000FFF7FEBFFFF7FEBFFFF7FEBFFFF7FEBFEA
:101A3000FFF7FEBFFFF7FEBFFFF7FEBFFFF7FEBFDA
:101A4000FFF7FEBFFFF7FEBFFFF7FEBFFFF7FEBFCA
:101A5000FFF7FEBFFFF7FEBFFFF7FEBFFFF7FEBFBA
:101A6000FFF7FEBFFFF7FEBFFFF7FEBFFFF7FEBFAA
:101A7000FFF7FEBFFFF7FEBFFFF7FEBFFFF7FEBF9A
:101A8000FFF7FEBFFFF7FEBFFFF7FEBFFFF7FEBF8A
:04000005080019E1F5
:00000001FF
