:020000040800F2
:1000000098180020E5B30008E9A60008EBA6000850
:10001000EDA60008EFA60008F1A600080000000009
:10002000000000000000000000000000F3A600082F
:10003000F5A6000800000000F7A60008F9A60008D1
:1000400067B400086BB400086FB4000873B400080C
:1000500077B400087BB400087FB4000883B40008BC
:1000600087B4000805A700080FA700088BB4000894
:100070008FB4000893B4000819A7000823A700084C
:1000800097B400089BB400089FB40008A3B400080C
:100090002DA70008A7B40008ABB4000837A70008D4
:1000A000AFB40008B3B40008B7B40008BBB400088C
:1000B000BFB40008C3B40008C7B40008CBB400083C
:1000C000CFB40008D3B40008D7B40008DBB40008EC
:1000D000DFB4000841A70008E3B40008E7B4000853
:1000E000EBB40008EFB40008F3B40008F7B400085C
:1000F000FBB40008FFB4000803B5000807B500080A
:100100000BB500080FB5000813B5000817B50008B7
:100110001BB500081FB500085DA7000823B500083F
:1001200027B500082BB500082FB5000833B5000827
:1001300038B504000D00DFF824070078002803D04C
:1001400002284AD027D36AE0DFF8140701F0E8F864
:10015000DFF810070078002809D1DFF80807407899
:10016000012804D1DFF8000701F0DAF812E0DFF827
:10017000F4060078012809D1DFF8E8064078022863
:1001800004D1DFF8E80601F0CBF803E0DFF8E00681
:1001900001F0C6F843E0DFF8DC0601F0C1F8DFF853
:1001A000D8060078012804D1DFF8D00601F0B8F8AD
:1001B00012E0DFF8C4060078002804D1DFF8C0069A
:1001C00001F0AEF808E0DFF8B0060078022803D1AD
:1001D000DFF8A80901F0A4F821E0DFF8980601F0A3
:1001E0009FF8DFF894060078012804D1DFF88C0628
:1001F00001F096F812E0DFF880060078002804D1BC
:10020000DFF87C0601F08CF808E0DFF86C06007877
:10021000022803D1DFF8640901F082F8FFE7DFF874
:1002200060090078002804D1DFF8580901F078F857
:100230001CE0DFF84C090078012804D1DFF84809F8
:1002400001F06EF812E0DFF838090078022804D1D6
:10025000DFF8380901F064F808E0DFF824090078D5
:10026000032803D1DFF8280901F05AF8DFF8C8099C
:100270000078002804D1DFF8C40901F051F83FE00C
:10028000DFF8B4090078012804D1DFF8B40901F0DF
:1002900047F835E0DFF8A0090078022804D1DFF83C
:1002A000A40901F03DF82BE0DFF88C090078032861
:1002B00004D1DFF8D40901F033F821E0DFF8780940
:1002C0000078042804D1DFF8C40901F029F817E008
:1002D000DFF864090078052804D1DFF8B40901F0DB
:1002E0001FF80DE0DFF850090078062804D1DFF888
:1002F000A40901F015F803E0DFF8700C01F010F824
:1003000031BD38B504000D00686801F0C3F9010083
:10031000DFF8840901F004F8686801F0BBF9DFF840
:100320007C190860DFF87409006801F0E1F9DFF872
:10033000701C086001F0EEF931BD38B504000D0005
:1003400001F01BFA31BD38B504000D00686801F0FA
:10035000A1F9002804D1DFF8480900F0E1FF12E01C
:10036000686801F097F9012804D1DFF8040A00F069
:10037000D7FF08E0686801F08DF9022803D1DFF8A3
:10038000F40900F0CDFF686801F084F9DFF8CC14BF
:100390000870DFF8C804007801F066FADFF8001C86
:1003A000486001F0B7F931BD38B504000D00686848
:1003B00001F070F9002804D1DFF8BC0900F0B0FFAB
:1003C0001CE0686801F066F9012804D1DFF8AC0987
:1003D00000F0A6FF12E0686801F05CF9022804D181
:1003E000DFF89C0900F09CFF08E0686801F052F912
:1003F000032803D1DFF8EC0900F092FF686801F0F0
:1004000049F9DFF87C170870DFF87407007801F00D
:100410002BFADFF88C1B886001F07CF931BD38B510
:1004200004000D00686801F035F9002804D1DFF8F8
:10043000E00900F075FF3FE0686801F02BF9012842
:1004400004D1DFF8D00900F06BFF35E0686801F0F7
:1004500021F9022804D1DFF8C00900F061FF2BE088
:10046000686801F017F9032804D1DFF8B00900F03B
:1004700057FF21E0686801F00DF9042804D1DFF886
:10048000040A00F04DFF17E0686801F003F9052841
:1004900004D1DFF8F40900F043FF0DE0686801F0D3
:1004A000F9F8062804D1DFF8E40900F039FF03E089
:1004B000DFF8DC0900F034FF686801F0EBF8DFF8E2
:1004C00078170870DFF87007007801F0CDF9DFF8D1
:1004D000D01AC86001F01EF931BD38B504000D0016
:1004E00095A1686801F06AFA002806D0DD48DFF8B7
:1004F000A419142201F08CFA18E0BEA1686801F07A
:100500005DFA002806D0D748DFF88C19142201F0D4
:100510007FFA0BE0B8A1686801F050FA002805D016
:10052000D048DFF8281B142201F072FA31BD38B52B
:1005300004000D00C9480078002807D1686801F060
:10054000F3FC01F019FD01F04BFD06E0686801F0D5
:10055000EBFC01F011FD01F0EFFE686801F0E4FC36
:1005600002000B00DFF8E80A00F0DAFE31BD38B512
:1005700004000D00686801F0D7FC02000B00DFF8F2
:10058000240A00F0CDFE686801F0CEFC01F0F4FC16
:10059000DFF8C01A086031BD38B504000D00686886
:1005A00001F0C2FC02000B00DFF8FC0900F0B8FE0D
:1005B000686801F0B9FC01F0DFFCDFF89C1A086004
:1005C00031BD38B504000D00DFF8140A02F039F926
:1005D000686801F0A9FC02000B00DFF8080A00F0CF
:1005E0009FFE686801F0A0FC01F0C6FCDFF86C1A01
:1005F000086031BD2DE9F84384B081468846D8F8BB
:100600000C0001F091FC06000F00D8F8080001F082
:100610008BFC04000D00D8F8040001F085FCCDE946
:100620000267CDE9004502000B00DFF8BC0900F0CD
:1006300077FED8F8040001F077FC01F09DFCDFF8AC
:10064000201A0860D8F8080001F06EFC01F094FC54
:10065000DFF80C1A8860D8F80C0001F065FC01F096
:100660008BFCDFF8FC194860DFF8F4090068DFF85C
:1006700030190861DFF8E8098068DFF8241948615B
:10068000DFF8DC094068DFF81819886101F042F8EA
:1006900005B0BDE8F0832DE9F84384B08146884673
:1006A000D8F80C0001F040FC06000F00D8F8080054
:1006B00001F03AFC04000D00D8F8040001F034FC0D
:1006C000CDE90267CDE9004502000B00DFF894098F
:1006D00000F026FED8F8040001F026FC01F04CFCE6
:1006E000DFF884190860D8F8080001F01DFC01F05B
:1006F00043FCDFF874198860D8F80C0001F014FC92
:1007000001F03AFCDFF860194860DFF85C09006826
:10071000DFF88C18C861DFF850098068DFF88018AE
:100720000862DFF844094068DFF87418486200F096
:10073000F1FF05B0BDE8F083616200002DE9F843E8
:1007400084B081468846D8F80C0001F0EDFB060025
:100750000F00D8F8080001F0E7FB04000D00D8F8FE
:10076000040001F0E1FBCDE90267CDE9004502009C
:100770000B00DFF8F80800F0D3FDD8F8040001F012
:10078000D3FB01F0F9FBDFF858180860D8F808002F
:1007900001F0CAFB01F0F0FBDFF844188860D8F8DC
:1007A0000C0001F0C1FB01F0E7FBDFF834184860F2
:1007B000DFF82C080068DFF8E8178862DFF8200807
:1007C0008068DFF8DC17C862DFF814084068DFF8DB
:1007D000D017086300F09EFF05B0BDE8F08338B580
:1007E00004000D00686800F055FFDFF88418086009
:1007F00031BD0000626300006163000038B5040091
:100800000D0013A1686801F0D9F8002806D015483A
:10081000DFF88016142201F0FBF818E00DA16868DB
:1008200001F0CCF8002806D00E48DFF86C16142230
:1008300001F0EEF80BE008A1686801F0BFF80028AD
:1008400005D00848DFF80418142201F0E1F831BDA2
:10085000616200006263000061630000C50C00205B
:10086000A4B20008AC0B0020B4B20008C4B2000867
:10087000D4B2000854B00008C30C002068B00008CF
:100880007CB0000838B504000D00DFF8E8070078F8
:10089000002803D0022849D027D368E0DFF8D80722
:1008A00000F03EFDDFF8D4070078002809D1DFF81A
:1008B000CC074078012804D1DFF8C40700F030FDF0
:1008C00012E0DFF8B8070078012809D1DFF8AC079B
:1008D0004078022804D1DFF8AC0700F021FD03E0E6
:1008E000DFF8A40700F01CFD41E0DFF8A00700F0EE
:1008F00017FDDFF89C070078012804D1DFF8940782
:1009000000F00EFD11E0DFF888070078002804D120
:10091000DFF8840700F004FD07E0DFF874070078D3
:10092000022802D1954800F0FBFC20E0DFF86C07BC
:1009300000F0F6FCDFF858070078012804D1DFF852
:10094000540700F0EDFC11E0DFF8440700780028C0
:1009500004D1DFF8440700F0E3FC07E0DFF83007DC
:100960000078022802D1854800F0DAFCFFE78448CD
:100970000078002803D1834800F0D2FC16E08048BC
:100980000078012803D1804800F0CAFC0EE07C48C2
:100990000078022803D17D4800F0C2FC06E07848C8
:1009A0000078032802D17A4800F0BAFCA248007807
:1009B000002803D1A14800F0B3FC33E09E48007842
:1009C000012803D19E4800F0ABFC2BE09A48007848
:1009D000022803D19B4800F0A3FC23E0964800784E
:1009E000032803D1A84800F09BFC1BE09248007844
:1009F000042803D1A54800F093FC13E08E4800784A
:100A0000052803D1A24800F08BFC0BE08A4800784F
:100A1000062803D19F4800F083FC03E0DFF84C0573
:100A200000F07EFC9D480168DFF8740600F078FC59
:100A3000DFF840060178DFF86C0600F071FC7E48B4
:100A40000178DFF8640600F06BFC4D480178DFF8B0
:100A50005C0600F065FCDFF8FC05006801F00EFFA5
:100A600002000B00DFF8480600F05AFCDFF84406ED
:100A7000006801F003FF02000B00DFF83C0600F005
:100A80004FFCDFF8D405006801F0F8FE02000B000F
:100A9000DFF8280600F044FCDFF82406006801F0C7
:100AA000EDFE02000B00DFF81C0600F039FCDFF859
:100AB000AC05006801F0E2FE02000B00DFF808065A
:100AC00000F02EFCDFF80406006801F0D7FE0200FB
:100AD0000B00DFF8FC0500F023FCDFF8F8050168E7
:100AE000DFF8F40500F01CFCDFF8F0050168DFF822
:100AF000F00500F015FCDFF8EC050168DFF8E8050B
:100B000000F00EFCDFF8E4050168DFF8E40500F012
:100B100007FCDFF8E005006801F0B0FE02000B0002
:100B2000DFF8D40500F0FCFBDFF8D005006801F029
:100B3000A5FE02000B00DFF8C80500F0F1FBDFF8AE
:100B4000C405006801F09AFE02000B00DFF8B8054A
:100B500000F0E6FBDFF8B405D0E90023DFF8B005CC
:100B600000F0DEFBDFF8AC05006801F087FE020054
:100B70000B00DFF8A40500F0D3FB31BD98AE0008F0
:100B800090140020B0AE0008C8AE000890B0000875
:100B900084AD0008F8B504000D0000270A2F11D21B
:100BA0006968DFF8780550F8370000F007FF002883
:100BB00006D0DFF8680500EBC7004068060001E0DA
:100BC0007F1CEBE791A1A86800F0F8FE00280AD08E
:100BD000E86800F05FFD307032786968DFF8400542
:100BE00000F09EFB27E0A5A1A86800F0E7FE002822
:100BF0000BD0E86800F04EFD3080B6F9002069683F
:100C0000DFF81C0500F08CFB15E09DA1A86800F042
:100C1000D5FE00280FD0E86801F086F901F0ACF9A4
:100C20003060306801F02AFE02000B006968DFF8CE
:100C3000F40400F075FBF1BD92140020E0AE000852
:100C4000A0AD0008F8AE0008F8B504000D000821BA
:100C5000DFF8D40401F05CFF06001021DFF8C804BF
:100C600001F056FF07002021DFF8BC0401F050FF1F
:100C7000F6B23300FFB23A00C0B20100DFF8AC04B4
:100C800000F04EFBF1BD0000F4AB0008BCAD000865
:100C900020AB000814AC0008A4B000084C140020DD
:100CA000D8AD0008F8B504000D000027E86800F092
:100CB000F1FC0600A0A1A86800F080FE00282BD05F
:100CC00068680078612804D021D3632815D00AD33E
:100CD0001DE0322000FB06F000F00AFD01000020BC
:100CE00001F0C5FB3BE0322000FB06F000F000FD08
:100CF0000100012001F0BBFB31E0322000FB06F0D7
:100D000000F0F6FC0100022001F0B1FB27E0DFF863
:100D1000200400F005FB29E068680078612804D011
:100D200018D363280FD007D314E030000100C9B2F4
:100D3000002001F077FB12E030000100C9B2012071
:100D400001F070FB0BE030000100C9B2022001F09D
:100D500069FB04E0DFF8D80300F0E2FA06E03300B4
:100D6000AA686968DFF8CC0300F0DAFAF1BD000088
:100D700034AC000880AA000854AC000874AC000829
:100D8000F4AD000838B504000D00686800786E28DE
:100D900007D10120BE490870DFF89C0300F0C0FABB
:100DA00019E0DFF89813686800F008FE002803D007
:100DB0000020B74908700EE0DFF88413686800F07F
:100DC000FDFD002807D001F0BDFB0220B0490870EE
:100DD000DC4800F0A5FA68680178DB4800F0A0FA6A
:100DE00031BD000044AB000838B504000D000120FF
:100DF000A7490870686800F04DFCD4490880D348C2
:100E0000B0F90010D24800F08BFA31BD75380000FF
:100E100010AE000894AC00082CAE000868AB0008C7
:100E200038B588B004000D0004A8CA49102200F0AB
:100E3000EFFD6846C849102200F0EAFD6868059099
:100E4000A868019001F05DFB04A90420FFF72AFFC8
:100E500069460420FFF726FFE86800F01BFC01F05C
:100E6000ADFE01F04EFBE86801F05EF802000B00F9
:100E7000BA4800F055FA09B030BD0000696E740040
:100E800066000000B4AC0008A8AA0008D0AA0008B8
:100E900068A90008700B0020840B0020F8B504003E
:100EA0000D0068680678A86807783000C0B261282D
:100EB00010D13800C0B2622803D1A949A94801F075
:100EC00096FA3800C0B263282DD1A549A64801F092
:100ED0008EFA28E03000C0B2622810D13800C0B2CB
:100EE000612803D19E49A14801F081FA3800C0B2BF
:100EF000632818D19A499E4801F079FA13E030002E
:100F0000C0B263280FD13800C0B2612803D1944920
:100F1000984801F06CFA3800C0B2622803D19049B9
:100F2000954801F064FAE86800F0B4FB01F046FE71
:100F300001F0E7FAF1BD00006800000038B50400D8
:100F40000D0001F047FB31BD38B504000D0001F084
:100F500032FB31BD38B504000D0001F0E3FE80B274
:100F60000100864800F0DCF931BD000058AA0008F5
:100F700070B504000D00686800F08CFB010080482B
:100F800000F0CEF9686800F085FB80B201F0DBFE6E
:100F90000600310089B27B4800F0C2F970BD000044
:100FA000B4120020B8B00008CCB0000838B5040076
:100FB0000D00686800F0B8FF544AC2E900015348C8
:100FC000D0E90023524800F0ABF9504AD2E90001C1
:100FD00000F0D2FF6C49486300F09CFB31BD00007B
:100FE000200C0020E0B00008D4AC000838B50400A4
:100FF0000D005FF07E50644948605FF07E506249AA
:10100000886000206049C86000205F4908610020B6
:101010005D49486100205C49886100205A49C861E7
:10102000002059490862002057494862002056496B
:10103000886200205449C86200205349086353481D
:101040005149486300F066FB31BD0000980B002059
:1010500010AF000864140020541400205C14002019
:10106000E00B002048AE0008000C0020F4AC0008A3
:1010700078140020C50C0020A4B20008AC0B00209E
:10108000B4B20008C4B20008D4B2000854B00008DA
:10109000C30C002068B000087CB0000814AD000844
:1010A00040B40008F4B0000828AF0008E4B200081B
:1010B00008B10008681400201CB1000840AF000807
:1010C0005814002030B1000864AE000860140020FD
:1010D00058AF000834000040F4B200083800004067
:1010E00004B300083C00004014B30008240800408A
:1010F00024B300082414002034B300087C1400201A
:1011000044B100085014002000B400080000002082
:1011100058B100087414002070AF00081C0B0020A8
:101120006CB1000880B100080008014050A8000818
:1011300044B3000888AF000894B1000848B4000820
:1011400050B400088CAB0008A8B10008C00C002007
:10115000BCB1000874B3000884B3000854B300089D
:10116000000048420800002010000020200000205D
:1011700018000020280000203000002064B3000880
:10118000D0B10008A0AF0008B41200200050C3473F
:1011900080B5DFF88C03DFF88C1308605FF4E13072
:1011A000DFF8801348600020DFF8781388600020A3
:1011B000DFF87013C8600020DFF8681308610C20A6
:1011C000DFF8601348610020DFF8581388610020C1
:1011D000DFF85013C861DFF84C0301F001FE00286E
:1011E00004D04F21DFF8400302F0A8FC01BD18B580
:1011F00085B004002068DFF82813884240F08E8014
:10120000DFF82803006850F48040DFF820130860FE
:10121000DFF81803006810F48040009000984FF445
:1012200000700190022002900320049001A9DFF8D1
:10123000000301F047FB4FF4806001900020029012
:101240000020039001A9DFF8E80201F03BFBDFF882
:10125000E402DFF8E41208600020DFF8DC124860E6
:101260000020DFF8D41288608020DFF8CC12C8603C
:101270000020DFF8C41208610020DFF8BC124861CA
:101280000020DFF8B41288610020DFF8AC12C861DA
:10129000DFF8A40202F0A2FC002804D07A21DFF8D3
:1012A000880202F04BFCDFF890026063DFF88802EE
:1012B0004462DFF88802DFF8881208601020DFF847
:1012C000801248600020DFF8781288608020DFF804
:1012D0007012C8600020DFF8681208610020DFF893
:1012E000601248610020964988614FF4405094494B
:1012F000C861934802F072FC002803D08A218A4812
:1013000002F01CFC8E4820638D48446285480068CA
:10131000C06850F0100083490968C86006B010BD6D
:101320000EB478B5040001208649086005AE33008C
:1013300022006521844802F0E7FF05004FF47A732C
:101340002800020092B28049764801F084FD002016
:101350007C49086071BC5DF810FB2DE9FC4104007C
:1013600020686F4988422BD10020009020680068D7
:101370000090206840680090009820680568206808
:1013800047686D4800684668664801F0B3FE6F49DB
:101390006F4802F0D7FF6E480078002802D0012085
:1013A0006C49086062250027DFF8A0813A00290017
:1013B000404602F0EDFF632264495A4801F03FFEC7
:1013C000BDE8F38138B5040020680568206800682E
:1013D000C00705D5206840687FF0010021680860DB
:1013E00020680068800705D5206840687FF002000B
:1013F0002168086020680068400705D520684068BB
:101400007FF004002168086020680068000705D5A7
:101410002068C0687FF008002168086001224E49FA
:10142000404801F088FD632248493E4801F007FE2C
:1014300031BD80B5632245493A4801F000FE01BD47
:10144000F8B54448006800281CD0444A6946404822
:1014500000F025FA05004149009800F04DFA04001B
:10146000002C04D53D4801683D48FFF759FF62252F
:101470000026374F32002900380002F089FF002093
:1014800034490860F1BD2DE9FF4F81B02D48006857
:10149000012840D001223049224801F04CFD1020A3
:1014A0003049887006202F49C8700D202D490875D5
:1014B0000A202C4948750420009001AC2A4D009A5E
:1014C0002100280000F094FA042502AE274F2A00DC
:1014D0003100380000F08CFA04270DF10C08DFF819
:1014E00090903A004146484600F082FA5FF00409C5
:1014F0000DF1100ADFF87CB04A465146584600F01C
:1015000077FA16221749074801F04EFD002802D04D
:101510001948FFF705FF05B0BDE8F08F0000000097
:10152000003801407412002028AA00081810024058
:101530000008014058000240EC1000204400024026
:101540003011002048140020200F0020880F0020B8
:10155000EC0F002044140020911400201C130020E4
:1015600070B20008C80B0020CC0B0020D00B00206C
:10157000D40B0020D80B0020D4B300082DE9FC4F79
:1015800083B00E4617460BB100221A6080464446CF
:1015900000E0641C207802F02EFF0028F9D12078AA
:1015A0002D2816BF2B2814F801BB4FF02B0B002F52
:1015B000019603D4012F01D0252F04DB002E47D044
:1015C000C6F8008044E0002F0ADD102F04BF207809
:1015D000302802BF617841F0200178290ED10AE05D
:1015E0002078302818BF0A2708D1607840F0200002
:1015F000782802D11027A41C00E00827029400E0FC
:10160000641C20783028FBD04FF0000924A0264627
:10161000CA468DF8000007E09DF80050451BCA46F9
:10162000EDB207FB0959641C207802F0EEFE00BF02
:101630001BA301463A46184602F000FF0028EBD1F2
:101640000299A142484605D1019808B1C0F800802E
:1016500000201CE01CA1A61BC95D761A002E0FD429
:1016600005DC451B03D3B5FBF7F1514508D0AFF3BB
:101670000080049808B1012101604FF0FF3003E0C1
:10168000BBF12D0F08BF4042019901B10C6005B0BC
:10169000BDE8F08FFFE700230A2200216EE700007B
:1016A00030313233343536373839616263646566D8
:1016B0006768696A6B6C6D6E6F7071727374757642
:1016C0007778797A0000000000002115110E0D0CCA
:1016D0000B0B0A0A0909090909080808080808087B
:1016E000070707070707070707070707070000009F
:1016F000C2175040801AB0FA80F10AD08840D1F168
:101700009D01D20742EAC151020672F1004241EB4B
:101710001020704778B585B002F01AFF00200190C4
:101720004448039001200490694601A802F0AAFFF2
:10173000002805D04048FFF7F3FD02F01CFF1AE037
:101740000E250026AE4211DA3C4850F8260004006F
:1017500022000023374911EB8601022002F09AFE95
:1017600031003748FFF7DCFD761CEBE702F003FFA2
:101770003448FFF7D5FD06B070BD38B50E240025FE
:10178000A54213DA2B4810EB850000682B4941F87D
:1017900025002A4850F8250001F070F802000B00DF
:1017A00029002948FFF7BCFD6D1CE9E720A0FFF7E1
:1017B000B7FD2248006802F0F1FF244908601F4885
:1017C000406802F0EBFF224908701C48806802F074
:1017D000E5FF20490870194800691F49086017484B
:1017E00040691D498860154880691B494860134855
:1017F000C0691A4908601148006A184988600F4892
:10180000406A164948600D48806A154908600B48CF
:10181000C06A134988600948006B1149486007484D
:10182000406B01F02BF80F4AC2E9000131BD000006
:101830000D0A000000000208E4B10008B412002004
:10184000F8B100080CB40008B8AF00084C14002030
:10185000C50C002090140020E00B0020000C00209C
:10186000200C00200000002000280AD0B0FA80F1EF
:101870008840D1F19D01C905020672F1004241EB99
:101880001020704710B500240C2C07DA152002F048
:10189000A7FF434941F82400641CF5E710BDF0B4EC
:1018A0000300002700240026DD5D7F1C2800C0B255
:1018B0000D2817D02800C0B220280BD1002052F8E4
:1018C00026C00CF80400761C00200400D85D05003A
:1018D0007F1CEBE752F826000555641CD85D050017
:1018E0007F1CE3E7002052F826C00CF80400761CA9
:1018F0000E600020F0BC70472DE9F04704000D0099
:1019000000201F260027B74224D2296825485822E4
:1019100002FB07F2104402F085FF002818D122488C
:10192000FFF7FEFC290020001E4A582303FB07F3A3
:101930001A44526D90475FF081085FF00009DFF8AC
:101940006CA04A464146504602F022FD002003E0CA
:101950007F1CD8E77FF00100BDE8F087F8B50400F0
:101960000D001F26022C03DB1148FFF7D9FC16E0FF
:101970000027B74213D20B48582101FB07F101445D
:101980000C48FFF7CDFC0748582101FB07F108443C
:1019900010F114010848FFF7C3FC7F1CE9E7F1BD13
:1019A0001C13002074000020FCA70008580E002023
:1019B00068AD0008F4B3000894B2000810B4020047
:1019C0000023D05CCC5CA04207D1D05C002804D0BE
:1019D000C85C002801D05B1CF3E7D05C002804D170
:1019E000C85C002801D1012000E0002010BC704735
:1019F00062B38B0708D0521E11F8013B00F8013B7F
:101A000000F024808B07F6D1830740F0208000BFD0
:101A1000103A07D330B4B1E83810103AA0E83810C3
:101A2000F9D230BC530724BFB1E80810A0E8081071
:101A300044BF51F8043B40F8043BD20724BF31F8BF
:101A4000022B20F8022B44BF0B7803707047121F43
:101A500017D35B0009D151F8043B20F8023B1B0C63
:101A6000121F20F8023BF6D20BE051F8043B00F8BD
:101A7000013B1B0A20F8023B1B0C121F00F8013B24
:101A8000F3D238BF121D521E24BF11F8013B00F8DB
:101A9000013BF8D87047F0B40246106895681318F7
:101AA000506803EB5004C00721D54D441FE0F0BC43
:101AB00002F10C00704713F8017B05F8017B491E09
:101AC000F9D1A0B1B60813F8011B06F00306032EE6
:101AD00008BF13F8016B01EB06214942801C294421
:101AE00005D011F8016B05F8016B401EF9D1A34236
:101AF000DDD013F8016B16F0030104BF13F8011BCE
:101B0000C91C30090F28DAD113F8010B0F30D6E7C2
:101B10007CB51D4621F000431446B3F5801F20F02C
:101B2000000209D20026B34208BFB24200960ED08E
:101B30006A4602F09DFE0AE0DFF8C06306EB13522E
:101B40000092DFF8BC33DFF8BC2311401943224672
:101B50002B4602F0C5FE0B465A00009C520DA418FD
:101B60003AB1002C05DD40F2FF72944200DB4EE0FA
:101B700048E021F00043002420F00002A3420EBF01
:101B8000A242009A02F07EFF7CBD7CB51D4621F08A
:101B900000431446B3F5801F20F0000209D200264E
:101BA000B34208BFB24200960ED06A4602F060FE11
:101BB0000AE0DFF8486306EB13520092DFF8403387
:101BC000DFF840231140194322462B4602F0F8FF6C
:101BD0000B465A00009C520DA4183AB1002C05DDAA
:101BE00040F2FF72944200DB11E00BE021F0004371
:101BF000002420F00002A3420EBFA242009A02F08D
:101C000041FF7CBD6FF31E5343EA04517CBDBE4BC4
:101C100001F0004040EA030100207CBD2DE9F84CB2
:101C2000002A82468B461F4600F0BA802BF0004502
:101C300000202AF00004854208BF844200F0B080F2
:101C40004FEA4B004015401C08BF5FEA0B3100F023
:101C5000A7800020002AAD4911D55242B4A608251C
:101C60001446002C18BF002D4FD0E20744BFD6E920
:101C7000002302F035FE640808366D1EF1E777DDBB
:101C8000ABA608241546EA0744BFD6E9002302F0B4
:101C900027FE6D100836641E002D01DD002CF2D1E8
:101CA00002460B4650465946FFF732FF8B468246A6
:101CB0002BF0004300202AF00002834208BF82423A
:101CC0002C4655D04FEA4B004015401C08BF5FEA38
:101CD0000B314DD0002C4BDD504659468C4A8D4B74
:101CE000FFF716FF21F00045002220F00003954287
:101CF00008BF93423AD04A005215521C01D10B033F
:101D000034D0641E002CE9DC30E002460B4650461D
:101D10005946FFF73AFF8B4682462BF000430020DE
:101D20002AF00002834208BF824221D04FEA4B00D2
:101D30004015401C08BF5FEA0B3119D0C4B15046B2
:101D40005946754A754BFFF7E3FE21F00045002226
:101D500020F00003954208BF934207D04A00521575
:101D6000521C01D10B0301D0641EEAD182468B467E
:101D70002BF0004300202AF00002834208BF824279
:101D800007D04FEA4B004015401C08BF5FEA0B31FB
:101D900006D1AFF300801FB1386840F00100386011
:101DA00050465946BDE8F48C2DE9F94987B01F002B
:101DB0001CBF0020386004920C46079D07A803F062
:101DC00022F8C11020F0080001F00101012805915E
:101DD0002FD10220009001AB07992246284603F03C
:101DE000A3F8040002D1002000211DE0029803F0B6
:101DF0007FF9022C18DB0DF10C08661EDFF820B10C
:101E000002460B460020594602F06AFD044658F887
:101E1000040B0D4603F06CF922462B4603F07AF9C9
:101E2000761E02460B46EDD1049A019C3B46A21851
:101E30004DE002284ED1009001AB0799224628467A
:101E400003F024FA040002D10020002119E00298D6
:101E500003F04EF9022C14DB0DF10C08661EDFF8BE
:101E6000C4B000225B4602F03BFD044658F8040B68
:101E70000D4603F03DF922462B4603F04BF9761E42
:101E8000EFD1019B0C466200520D03EB020511D00D
:101E9000002D0FDD40F2FF72954206DB1A4B01F078
:101EA000004040EA030100200FE06FF31E5444EAB3
:101EB00005510AE021F00045002620F00004B5425B
:101EC0000EBFB4421A4602F0DDFD049A3B46FFF70E
:101ED000A5FE0CE0032802D100200B4907E00428EE
:101EE00007BF4FF0FF306FF0004100200021059A3E
:101EF0000AB181F0004109B0BDE8F08902FCFFFFA2
:101F00000000E03FFFFF0F800000F07F0000F03F87
:101F10003CBF737FDD4F1575436FAC642806C80A5C
:101F200065CDCD410000B0410023002200213BE7F8
:101F300000000000000024400000000000005940A4
:101F4000000000000088C3400000000084D79741D3
:101F50000080E03779C34143176E05B5B5B89346A5
:101F6000F5F93FE9034F384D321D30F94877825A71
:101F70003CBF737FDD4F157501F000428B1AA3F152
:101F80006051B1F5801F0ADBB1F17F6F1FD242EAC9
:101F9000C102C10071F1004142EB507070470B1556
:101FA000C3F10903212B10D2890241EA905180022A
:101FB0000128494141F0004121FA03F0C3F1200317
:101FC000994071F1004150417047100070476FF027
:101FD000000013EB103F5CBF000E42EAC050704798
:101FE00010B50400DFF8000304602000002103F0B6
:101FF0005BFA22D80021DFF8F402007800F012FA30
:102000000121DFF8E802407800F00CFA0021DFF847
:10201000DC02007C00F006FA2100DFF8D002007834
:1020200000F025FA0021B148407800F020FA0021A4
:10203000AE48007C00F01BFA1FE00021AB48007A9C
:1020400000F0F0F90121A948407A00F0EBF90021F5
:10205000A648007C00F0E6F9210091F00041A34879
:10206000007A00F004FA0021A048407A00F0FFF95D
:1020700000219E48007C00F0FAF910BD10B5040064
:102080009B480078002803D12000FFF7A9FF02E059
:10209000200000F051F910BDF8B5002400250026FD
:1020A00094480078400740F1C18093480068934904
:1020B000096803F00BFA00F0E1FB31F00041002267
:1020C0008F4B03F043FA03D200208E4908600AE1E7
:1020D0008A480268884801688B4800F063FB060064
:1020E00084480078800766D588480660874800687D
:1020F00000F0C4FB02000B00854FD7E9000103F09C
:1021000025FA07D2824AD2E90001FFF735FF7F495D
:10211000086014E07D48006800F0B0FB7C4FD7E910
:10212000002393F0004303F011FA08D2784AD2E971
:10213000000191F00041FFF71FFF744908607548E6
:10214000026872480168744800F02CFB0500694879
:102150000078C0071CD571480560714802686F4857
:102160000168704800F01EFB040020006E4903F077
:102170009BF902D86D48040006E020006C4903F08A
:10218000FDF901D26A4804002000FFF777FFAAE0BA
:102190002800654903F088F902D86448050006E084
:1021A0002800634903F0EAF901D2614805002800DC
:1021B000FFF764FF97E04F480078C00723D55748E2
:1021C0000660564800685B4903F06EF904D85FF07A
:1021D0008040524908600AE0504800685FF0404182
:1021E00003F0CCF903D25FF040404C4908604C4802
:1021F00002684A4801684B4800F0D4FA0400200005
:10220000FFF73CFF6FE03000474903F04DF902D87B
:102210004648060006E03000454903F0AFF901D218
:10222000434806003000FFF729FF5CE031480078A2
:10223000800733D53748026834480168364800F0D3
:10224000B1FA05002B480078C00723D53348056054
:1022500032480068374903F027F904D85FF080401E
:102260002E4908600AE02D4800685FF0404103F005
:1022700085F903D25FF04040284908602848026889
:1022800026480168274800F08DFA04002000FFF777
:10229000F5FE28E02800FFF7F1FE24E0154800785D
:1022A000C00720D51D480068224903F0FDF804D876
:1022B0005FF08040194908600AE0184800685FF044
:1022C000404103F05BF903D25FF0404013490860DE
:1022D0001348026811480168124800F063FA0400CC
:1022E0002000FFF7CBFEF1BD50140020AC0B002006
:1022F000C50C0020921400205C1400206014002003
:10230000000034407C140020200C002054140020D5
:102310000000002058140020000C0020641400204D
:1023200068140020E00B00200100BE420000BE4205
:102330000000BEC20100004010B50400DFF8E00359
:102340000460DFF8E0030078012810D120000021AC
:1023500003F014F905D2DFF8D003DFF8D0130860DA
:1023600014E0DFF8CC03DFF8C41308600EE02000AF
:10237000002103F003F904D20120DFF8B81308703C
:1023800004E05FF0FF30DFF8AC130870200000F0CD
:1023900075FA31F00041FFF7EFFDDFF89C1308609C
:1023A00010BD10B400200021062919DADFF88C23B3
:1023B000525C1000DFF8882352F82120DFF87033D8
:1023C0000400E4B243F82420DFF8782352F82120F7
:1023D000DFF854330400E4B243F82420491CE3E757
:1023E000DFF84C13DFF84423116010BC704738B598
:1023F00004000D0000F085F80020DFF84C130860A1
:102400000121607800F00EF82900207800F02FF804
:10241000DFF810030078022803D16068DFF82C137E
:10242000086031BD38B504000D002000C0B200289E
:1024300003D0022813D009D318E02A00D2B24FF4F7
:102440000041DFF80C0300F06EFB0FE02A00D2B26F
:102450004FF48041DFF8F80200F065FB06E02A0047
:10246000D2B24FF40051BA4800F05DFB31BD38B52F
:1024700004000D002800002103F080F802D295F03E
:102480000045FFE72800B34903F00EF801D8B24D2C
:10249000FFE72000C0B2002803D0022821D010D3CB
:1024A0002EE0AE480068FFF7DFF9290003F078F866
:1024B000AB4903F0E1F802F071F980B2A949086074
:1024C0001EE0A6480068FFF7CFF9290003F068F87E
:1024D000A34903F0D1F802F061F980B2A249086083
:1024E0000EE09E480068FFF7BFF9290003F058F896
:1024F0009B4903F0C1F802F051F980B29B49086092
:1025000031BD80B500210020FFF78CFF00210120A4
:10251000FFF788FF00210220FFF784FF0021002041
:10252000FFF7A5FF00210120FFF7A1FF00210220F6
:10253000FFF79DFF01BD8E48006810F03800C0B263
:10254000C0087047F8B50020002700240A2C1DDAC7
:1025500088498948FFF74BFF0A2000F02FFBFFF75F
:10256000D0FFFFF7E8FF050028003100C0B2C9B274
:10257000884200D17F1C2E00032F05DB3A0021008A
:102580007E48FEF7CDFE01E0641CDFE7F1BD10B52B
:1025900000240B2C0EDA774969484069FFF727FFC2
:1025A000052000F00BFBFFF7ACFF052000F006FB59
:1025B000641CEEE710BD80B5FFF7E9FF4FF47A70B9
:1025C00000F0FCFA00F0AEFB80B201006C48FEF7B0
:1025D000A7FE01BD2DE9F0415FF0000800270024AF
:1025E000FFF7D5FF4FF47A7000F0E8FA00F09AFB9D
:1025F00005000026032E22DA5FF00008B8F1060F6E
:102600001BDA5C494E4850F82800FFF7F0FE052021
:1026100000F0D4FAFFF775FF00F084FB07003900E3
:1026200089B2280080B2091A012901DB641C00E08C
:10263000641E3D0018F10108E0E7761CDAE7012C82
:1026400003DB3F484F49086002E04F484D490860AE
:1026500021004E48FEF764FEBDE8F0812DE9F0410F
:10266000040000212600B6B200274948B0F9005006
:10267000304890F900204FF4C3704243022092FB8F
:10268000F0F04519AE4201D216F58046294890F97E
:10269000000001280BD1701BFFF7E6F83D4902F05E
:1026A000EBFF02F07BF8804618F101080AE0701B8E
:1026B000FFF7DAF8374902F0DFFF02F06FF88046E3
:1026C000B8F10308B8F1000F01D518F1060806208B
:1026D00098FBF0F100FB11882F48007801281BD1EE
:1026E0002E480068804517D02C48C0F8008012485A
:1026F00000682B49096803F03DF803D00E480068D4
:1027000027490860264801681E480068234A126865
:1027100050F82200FFF76BFEBDE8F08100000000DA
:1027200050140020C50C0020D41300201C140020DD
:10273000B8130020C20C00207C1400206C00002084
:102740003800002080AE00082C140020181400204F
:10275000001001400100BE420000BE422C000040BB
:102760000000C8423C0000403800004034000040F7
:10277000080801400000204130000020D4A80008D3
:102780002CB00008680000205000002084B200082F
:10279000C00C00200000C343C30C002028140020FC
:1027A000241400202DE9F84304000D001600280031
:1027B000310002F08BFE07003800216902F086FE2E
:1027C0000100294802F0ECFE8046A169274802F08A
:1027D000E7FE414602F0DCFF80462761E0693900F0
:1027E00002F0DEFEE16802F0D3FFE0606069E168BC
:1027F00002F0C4FE02D26069E0600AE0E06861694C
:1028000091F0004102F0BAFE03D2606990F00040FE
:10281000E060C4F818802068390002F0C1FE8146EB
:102820006068414602F0BCFE494602F0B1FF8146B5
:10283000E168A06802F0B4FE494602F0A9FFBDE8D5
:10284000F2830021C1600021016100218161704794
:1028500080B50748FFF7F5FF0648FFF7F2FF064887
:10286000FFF7EFFF01BD0000A69BC43EA4701D3F13
:10287000E00B0020000C0020200C0020C0F3C7510A
:1028800081B1FF2906D0C110400721F0E04101F1DC
:102890006051704741020CBF40F4E0016FF000410D
:1028A0000020704700F0004100020AD0B0FA80FC1E
:1028B00000FA0CF001F16051A1EB0C5101EBD021B9
:1028C000400570472DE9F84302000024002500264A
:1028D00000275FF000085FF0000EBEF1100F80F0DF
:1028E0001581012010FA0EF0040008682040050050
:1028F000A54240F008814868002831D0012820D046
:10290000022825D003283CD011281DD0122823D01E
:10291000DFF85CC2604523D0DFF858C260451FD0A5
:10292000DFF854C260451BD0DFF850C2604517D0B5
:10293000DFF84CC2604513D0DFF848C260450FD0C5
:1029400022E0C86807001FE0C868001D07001BE000
:10295000C8680830070017E0C8680C30070013E0AB
:102960008868002802D10420070009E0886801284F
:1029700003D108200700146102E008200700546119
:1029800002E000200700FFE7B5F5807F01D21300C9
:1029900000E0131DB5F5807F02D25FEA8E0803E0E8
:1029A000BEF108085FEA8808D3F800C00F2010FACB
:1029B00008F03CEA000C17FA08F050EA0C0CC3F8D7
:1029C00000C04868C00040F19E80DFF8BC0100688C
:1029D00050F00100DFF8B0C1CCF80000DFF8A8012A
:1029E000006810F0010000900098DFF8A001F446A4
:1029F0005FEA9C0C50F82CC05FF00F091EF003003A
:102A0000C0B2800019FA00F93CEA090C6048824221
:102A100002D15FF000091FE05E48824202D15FF000
:102A2000010919E05C48824202D15FF0020913E01B
:102A30005A48824202D15FF003090DE058488242B1
:102A400002D15FF0040907E05648824202D15FF0EC
:102A5000050901E05FF0060966461EF00300C0B2FA
:102A6000800019FA00F959EA06064848F4465FEA78
:102A70009C0C40F82C604868C00307D54A480068A1
:102A80002843DFF824C1CCF8000006E0464800687F
:102A9000A843DFF814C1CCF800004868800307D5CC
:102AA000424800682843DFF804C1CCF8000006E083
:102AB0003E480068A843DFF8F4C0CCF8000048683E
:102AC000C00207D53A4800682843DFF8E4C0CCF8D4
:102AD000000006E036480068A843DFF8D4C0CCF810
:102AE00000004868800207D5324800682843DFF8B4
:102AF000C4C0CCF8000006E02E480068A843DFF808
:102B0000B4C0CCF800001EF1010EE6E6BDE8F1838A
:102B1000020090680B009BB2184201D0012000E037
:102B20000020C0B270471300DBB2002B03D00B00B3
:102B30009BB2036103E00B009BB21B04036170476F
:102B4000C3680A0092B25340C360704710B50400D6
:102B500019480068210089B2084207D0200080B2DD
:102B600015490860200080B202F0F2FE10BD00009E
:102B700000001110000012100000211000002210AF
:102B8000000031100000321018100240080001400F
:102B900000080140000C01400010014000140140F9
:102BA00000180140001C01400004014004040140E1
:102BB000080401400C0401401404014070B50400F5
:102BC00002F064FF0500260016F1010F02D0044850
:102BD0000078861902F05AFF401BB042FAD370BD4C
:102BE000C40C00201FB504000020ADF80400002034
:102BF000ADF806000121012000F0D7F8ADF804007F
:102C0000002240214548FFF78EFF6423012201A9DD
:102C1000434802F041FF012240214048FFF783FF73
:102C20000121200080B200F0C0F8ADF804000022BD
:102C300040213A48FFF777FF64200090012302AA61
:102C400001A9374803F0BDF8012240213348FFF7BE
:102C50006AFF002240213148FFF765FF642301220B
:102C60000DF106012E4802F0EFFF012240212B4812
:102C7000FFF759FFBDF8060004B010BD3EB50400D3
:102C80000D000020ADF804000121012000F08DF8B6
:102C9000ADF80400002240212048FFF744FF6423E0
:102CA000012201A91E4802F0F7FE012240211B4823
:102CB000FFF739FF0021200080B200F076F8ADF870
:102CC0000400002240211548FFF72DFF64200090EA
:102CD000012302AA01A9124803F073F8012240213E
:102CE0000E48FFF720FF002240210C48FFF71BFF92
:102CF000280080B200F069F8ADF8060064230122D4
:102D00000DF10601064802F0C7FE012240210348EA
:102D1000FFF709FFBDF808003EBD000000100140AC
:102D20005010002038B50024002543F6FF70FFF74F
:102D300059FF0100480402D54FF6FF7002E08804F5
:102D4000800C80B232BD70B5040000250026210041
:102D500089B20320FFF792FF0100480402D54FF625
:102D6000FF7002E08804800C80B270BD10B40100D6
:102D70000022002300200F2809DA012484402300C8
:102D80000C00A4B21C4200D0521C401CF3E70220ED
:102D900092FBF0F400FB1420002801D1002002E097
:102DA0005B00180080B210BC704770B504000D00C5
:102DB000002626432800C0B256EA8036300080B292
:102DC000FFF7D4FF304380B270BD38B50400002552
:102DD0002543280080B2FFF7C9FF284380B232BDE7
:102DE00010B50400002C01D1012033E0A0690028B7
:102DF000FFD194F83900002805D1002084F838006C
:102E00002000FEF7F4F9242084F839002068C06817
:102E100030F400502168C860200000F0BDFB20683D
:102E2000006930F49040216808612068406930F002
:102E30002A00216848612068C06850F40050216869
:102E4000C8600020E063202084F83900202084F846
:102E50003A00002010BD2DE9FC4705000C001600CB
:102E60001F005FF0000A95F83900202860D1002C7F
:102E700003D0300080B2002801D1012059E095F83C
:102E80003800012801D1022053E0012085F83800E4
:102E90000020E863212085F8390002F0F7FD814623
:102EA000AE84EE84E88C00282FD0E88C401EE884A5
:102EB000A868B0F5805F18D100974B4600228021AA
:102EC000280000F06DFA002801D0032031E0A04670
:102ED000B8F80000C005C00D2968486028690028BE
:102EE00001D1A41CDEE7641CDCE700974B460022FE
:102EF0008021280000F054FA002801D0032018E0B7
:102F0000207829684860641CCCE700974B46002273
:102F10004021280000F044FA002801D0032008E0F6
:102F2000202085F83900002085F83800002000E0D6
:102F30000220BDE8F68710B4030093F83A00202879
:102F40002FD1002903D0100080B2002801D1012028
:102F500028E093F83800012801D1022022E0012066
:102F600083F8380099629A85DA850020D863222098
:102F700083F83A00002083F838001868C06850F4DD
:102F800080701C68E0601868406950F001001C689F
:102F900060611868C06850F020001C68E060002084
:102FA00000E0022010BC704773B50400150094F8CF
:102FB0003900202841D10198002803D0280080B290
:102FC000002801D1012039E094F83800012801D10E
:102FD000022033E0012084F8380001982062A584A3
:102FE000E5840020E063212084F839000FF2C1203D
:102FF000216B88620FF2ED20216BC8620FF249301D
:10300000216B08630020216B486301AE2B009BB24B
:103010002068021D3168206B00F02FFE7FF0400019
:1030200021680860002084F838002068406950F06A
:10303000800021684861002000E0022076BD73B561
:103040000400150094F83A00202851D10198002876
:1030500003D0280080B2002801D1012049E094F873
:103060003800012801D1022043E0012084F8380013
:103070000198A062A5850020E063222084F83A0030
:103080000FF27120616B88620FF2AD20616BC86234
:103090000FF2B520616B08630020616B486301AEDD
:1030A0002B009BB232682068011D606B00F0E5FDCB
:1030B0000020009020680068009020684068009020
:1030C0000098002084F838002068C06850F48070B0
:1030D0002168C8602068406950F00100216848619B
:1030E0002068406950F0400021684861002000E0FD
:1030F000022076BD70B50600002031684C69E409F5
:1031000014F0010496F83910212910D1002C0ED0AA
:103110003068406930F0800031684861306B0028C9
:1031200002D0306B00F0F5FD300000F070F930682F
:103130004569AD0915F0010596F83A00222810D12D
:10314000002D0ED03068406930F040003168486191
:10315000706B002802D0706B00F0DBFD300000F0D7
:1031600060F9002070BD2DE9F8430600306807685B
:103170003068D0F80C803068D0F81490002000251A
:1031800017F00F04002C08D1B80606D55FEA886056
:1031900003D5300000F0A9F988E0002C74D05FEA74
:1031A000C97002D418F4907F6ED017F00100C0B23D
:1031B000002806D05FEAC85003D5F06B50F001003C
:1031C000F063780708D519F00100C0B2002803D0D9
:1031D000F06B50F00200F063B80708D519F0010059
:1031E000C0B2002803D0F06B50F00400F063380741
:1031F00008D519F00100C0B2002803D0F06B50F0E0
:103200000800F063F06B00283DD0B80605D55FEAF2
:10321000886002D5300000F068F9306840698009A4
:1032200010F001000500F06B000701D4002D25D03F
:10323000300000F0F6F83068406940061AD5306872
:10324000406930F0400031684861706B00280DD053
:103250000FF2F110716B4863706B00F075FD002880
:1032600011D0706B716B496B88470CE03000FEF732
:10327000A9F808E03000FEF7A5F804E03000FEF7FA
:10328000A1F80020F06311E0380606D55FEA086077
:1032900003D5300000F0E2F808E0780606D55FEAD2
:1032A000486003D5300000F010F9FFE7BDE8F18376
:1032B00038B50400656A2068006880060ED40020D6
:1032C000E8842868406930F08000296848612868EF
:1032D000C06850F040002968C86002E0280002F091
:1032E000E9FE31BD38B50400656A280002F0E3FE4E
:1032F00031BD000038B50400656A206800688006AA
:1033000016D40020E8852868C06830F480702968E9
:10331000C8602868406940084000296848612868FA
:10332000406930F0400029684861202085F83A0063
:10333000280002F0C1FE31BD38B50400656A2800DE
:1033400002F0BBFE31BD0000F8B506000020776A30
:1033500039684C69E40914F0010497F839102129FF
:1033600006D1002C04D00020F884380000F04FF87B
:1033700038684569AD0915F0010597F83A0022282B
:1033800006D1002D04D00020F885380000F049F85F
:10339000F86B50F01000F8633800FEF713F8F1BD39
:1033A0002DE9F04105000E0090461F00069C28689C
:1033B00000683040B04201D1012000E000204146C9
:1033C000C9B2884220D114F1010FF0D0002C04D0F2
:1033D00002F05CFBC01B8442E9D22868C06830F46C
:1033E000D0702968C8602868406940084000296892
:1033F0004861202085F83900202085F83A00002017
:1034000085F83800032000E00020BDE8F081016865
:10341000C96831F0C0010268D160202180F83910FC
:1034200070470168C96831F490710268D160016821
:1034300049694908490002685161202180F83A1021
:103440007047000038B50400656A0020E885002058
:10345000E8842800FDF7B6FF31BD0000010091F8B7
:10346000390021282FD18868B0F5805F11D1086A12
:1034700002001088C005C00D0B685860086900285C
:1034800003D1086A801C086209E0086A401C0862CF
:1034900005E0086A431C0B6200780B685860C88C12
:1034A000401EC88480B200280BD10868C06830F084
:1034B00080000B68D8600868C06850F040000B6856
:1034C000D860002000E00220704710B5040020689A
:1034D000C06830F040002168C860202084F83900BE
:1034E000200002F0E7FD002010BD38B5040094F87C
:1034F0003A0022284ED1A068B0F5805F16D1A06AAC
:1035000005002069002808D120684068C005C00D6A
:103510002880A06A801CA0621AE02068406800F041
:10352000FF002880A06A401CA06211E020690028EA
:1035300006D1A06A411CA16221684968017007E0B8
:10354000A06A411CA1622168496811F07F010170E5
:10355000E08D401EE08580B2002819D12068C06847
:1035600030F020002168C8602068C06830F48070A6
:103570002168C860206840694008400021684861AF
:10358000202084F83A00200002F096FD002002E09E
:10359000002000E0022032BD2DE9F84305000024A0
:1035A0002868016931F44051E868014328680161E5
:1035B000A96828690143686901430C432868C16808
:1035C0005948014021432868C1602868416931F4A5
:1035D0004071A869014328684161286853498842BD
:1035E00050D103F0A1F8814603F09EF8804603F025
:1035F0009BF8070003F098F8060003F095F81921EE
:1036000001FB09F969688900B9FBF1F16422B1FB9A
:10361000F2F2192101FB08F869688900B8FBF1F39F
:1036200019214F4369688900B7FBF1F16427B1FBA9
:10363000F7F7642101FB1733190132316423B1FB21
:10364000F3F313F0F00313EB021319214E436968EF
:103650008900B6FBF1F21921484369688900B0FB83
:10366000F1F06421B0FBF1F1642000FB11221001A4
:1036700032306421B0FBF1F010F00F00C31828685D
:1036800083604FE003F045F8814603F042F880463E
:1036900003F03FF8070003F03CF8060003F039F8A8
:1036A000192101FB09F969688900B9FBF1F164226C
:1036B000B1FBF2F2192101FB08F869688900B8FB37
:1036C000F1F319214F4369688900B7FBF1F16427D1
:1036D000B1FBF7F7642101FB173319013231642381
:1036E000B1FBF3F313F0F00313EB021319214E4374
:1036F00069688900B6FBF1F21921484369688900BD
:10370000B0FBF1F06421B0FBF1F1642000FB112269
:10371000100132306421B0FBF1F010F00F00C3183B
:1037200028688360BDE8F183F3E9FFFF00380140BA
:1037300080B503F03BF800F053F802F09BF803F07B
:1037400049F803F067F803F0E3F903F049FA03F0EE
:10375000ECFA03F013FB03F0A7FA03F0D1FBFDF73B
:1037600017FD00F092F8DFF8E40303F0EFFCFDF73B
:1037700060FE03F093FBFEF785F8FEF712FEFDF7FF
:10378000FCFF03F0A6F8FFF763F803F079FCDFF81D
:10379000C003FDF7C5FDFDF753FEDFF8B803006871
:1037A000002805D0FEF778FC0020DFF8A813086099
:1037B000DFF8A40300780228EDD1FFF7B3FADFF8B1
:1037C0009C130880DFF894030088FEF74DF8DFF8BB
:1037D00090130860DFF884030088FEF73FFFDAE704
:1037E00000B595B001200B905FF480300C90002064
:1037F0000D9001200F90022012905FF48030139002
:103800005FF4E01014900BA802F058FC002804D0DC
:10381000BA21DFF8500300F091F90F200090022048
:103820000190002002904FF48060039000200490EB
:103830000221684602F06DFE002804D0C821DFF89E
:10384000240300F07BF9022005904FF4004007901C
:1038500005A803F0F3FC002804D0CF21DFF804030F
:1038600000F06CF902F052FF4FF47A71B0FBF1F006
:1038700003F0A3FE042003F0A6FE002200215FF067
:10388000FF3003F07EFE15B000BD80B5002201219F
:10389000092003F076FE092003F088FE00220121B2
:1038A0000A2003F06EFE0A2003F080FE00220121B0
:1038B000142003F066FE142003F078FE002201219C
:1038C000172003F05EFE172003F070FE0022012196
:1038D000252003F056FE252003F068FE002200217B
:1038E000362003F04EFE362003F060FE01BD704727
:1038F00010B5040020689C490968884240F01D8189
:103900009A480068401C9949086005209749096851
:10391000964A126892FBF0F200FB121000280BD1BD
:10392000642003F050FB03F015FF8A48006800286C
:1039300002D101208749086005208C4909688B4A1B
:10394000126892FBF0F200FB1210002846D1884862
:103950000068884901F0A8FD05D887480068401C28
:103960008549086002E000208349086082480068B9
:10397000052807DBFEF7C5FD002080490860804868
:10398000FDF7CEFC7F48006801280AD17B48036818
:103990007D48C2687D48016875480068FDF773FD81
:1039A0001CE07848006802280AD17848036870480B
:1039B00002687748016877480068FDF764FD0DE00C
:1039C00070480068032809D171480368714802688B
:1039D0007148016862480068FDF755FD634800685A
:1039E0004FF6FD71884202DB0020604908605A48AA
:1039F0000078002803D069480078012800D09CE0B6
:103A00005548007801280CD165480068654901F0E7
:103A1000B5FD06D2002062490860002057490860C1
:103A20008BE05F480068002101F0A4FE00F0858073
:103A30005D480068401C5C4908605B4800681028CD
:103A40007BDBFEF75EFD0020574908605748FDF715
:103A500067FC41480078012842D155480178554813
:103A6000FDF75EFC45480068FEF708FF02000B000A
:103A70005148FDF755FC4A480068FEF7FFFE02007A
:103A80000B004E48FDF74CFC35480068FEF7F6FE8B
:103A900002000B004A48FDF743FC4A4801684A48C7
:103AA000FDF73EFC3E4800683449096801F062FEBB
:103AB00003D03B480068314908603D4802784148DE
:103AC0000068821806202D49096892FBF0F300FB7C
:103AD00013223E48006850F82200FEF788FC20E0E0
:103AE0001D48007802281CD12D4800682349096828
:103AF00001F040FE03D02A4800682049086034489D
:103B0000026830480068821806201C49096892FB48
:103B1000F0F300FB13222F48006850F82200FEF754
:103B200066FC28480068401C264908602548006853
:103B3000072802DB01202349086010BD38B50400C6
:103B40000D002548FDF7ECFBFEE70000EC1200201D
:103B500018B4000834140020C50C00208C14002078
:103B60006014002098A90008F41100203C140020E3
:103B70006814002001008040381400202414002024
:103B800094B3000878140020E00B00206414002097
:103B900054140020581400205C140020C30C002092
:103BA0007C1400200000E0402C140020B0AB000882
:103BB0008F140020D0AF000834B20008E8AF00082E
:103BC00000B000086C0B002048B200081C14002054
:103BD00028140020680000205CB2000810B4010026
:103BE0000022002901D1012045E00868DFF81833E0
:103BF00098420CD20B68DFF81403C3181420B3FBEF
:103C0000F0F080000864DFF80803C8630BE00B687D
:103C1000DFF80003C3181420B3FBF0F08000086441
:103C2000DFF8F402C863022081F821000868036805
:103C30006FF30D134C6888680443C868044308692F
:103C400004434869044388690443C869044323431F
:103C500008680360002088620020C86200200863B2
:103C60000020486300208863012081F821000020A3
:103C700081F82000002010BC70472DE9F0410400BD
:103C80000D0016001F005FF0000894F820000128C6
:103C900001D102203BE0012084F8200094F82100AB
:103CA00001282DD1022084F821000020A063206883
:103CB000006840084000216808603B00320029008D
:103CC000200000F00BFBE06A002806D020680068A6
:103CD00050F00E00216808600BE02068006830F0AA
:103CE0000400216808602068006850F00A0021681C
:103CF00008602068006850F001002168086004E056
:103D0000002084F82000022080464046C0B2BDE872
:103D1000F081020000201168096831F00E0113687B
:103D2000196011680968490849001368196001237E
:103D3000116C8B40D16B4B60012182F82110002166
:103D400082F82010C0B2704738B50400002594F8FE
:103D50002100022804D00420A06301200500CFE048
:103D60002068006830F00E00216808602068006854
:103D700040084000216808602068DFF8A0118842F0
:103D800059D32068DFF89811884201D101204EE014
:103D90002068DFF89011884201D1102047E02068A8
:103DA000DFF88411884202D14FF480703FE0206830
:103DB000DFF87811884202D14FF4805037E0206854
:103DC000DFF86C11884202D15FF480302FE0206868
:103DD000DFF86011884202D15FF4801027E020688C
:103DE000DFF85411884202D15FF080701FE0206834
:103DF000DFF81411884201D1012018E02068DFF8B3
:103E00003C11884201D1102011E02068DFF8301108
:103E1000884202D14FF4807009E02068DFF8241155
:103E2000884202D14FF4805001E05FF48030DFF827
:103E30001811086058E02068DFF8E410884201D1CA
:103E400001204EE02068DFF8DC10884201D110200C
:103E500047E02068DFF8D010884202D14FF480702C
:103E60003FE02068DFF8C410884202D14FF4805050
:103E700037E02068DFF8B810884202D15FF4803064
:103E80002FE02068DFF8AC10884202D15FF4801088
:103E900027E02068DFF8A010884202D15FF0807030
:103EA0001FE02068DFF86010884201D1012018E08F
:103EB0002068DFF88810884201D1102011E02068C6
:103EC000DFF87C10884202D14FF4807009E020684E
:103ED000DFF87010884202D14FF4805001E05FF4A7
:103EE0008030DFF8C0130860012084F82100002032
:103EF00084F82000606B002802D02000616B8847A6
:103F00002800C0B232BD000008040240F8FFFDBF27
:103F100000000240F8FBFDBF0004024081000240A7
:103F2000080002401C0002403000024044000240F1
:103F3000580002406C000240800002401C04024015
:103F400030040240440402400404024070B50400FE
:103F5000E06B0568206806680421206C81400D42F2
:103F600000F0C080700740F1BD80206800688006C6
:103F700005D42068006830F00400216808602068DB
:103F8000DFF82413884258D32068DFF820138842D2
:103F900001D104204EE02068DFF81413884201D1DB
:103FA000402047E02068DFF80C13884202D14FF42C
:103FB00080603FE02068DFF80013884202D14FF4B0
:103FC000804037E02068DFF8F412884202D15FF4C5
:103FD00080202FE02068DFF8E812884202D15FF4E9
:103FE000800027E02068DFF8DC12884202D15FF011
:103FF00080601FE02068DFF8D012884201D10420E1
:1040000018E02068DFF8C412884201D1402011E096
:104010002068DFF8BC12884202D14FF4806009E0CA
:104020002068DFF8B012884202D14FF4804001E0EE
:104030005FF48020A84908604CE020689B498842D2
:1040400001D1042044E020689949884201D14020F0
:104050003EE020689749884202D14FF4806037E003
:1040600020689549884202D14FF4804030E02068B2
:104070009249884202D15FF4802029E0206890496B
:10408000884202D15FF4800022E020688D49884296
:1040900002D15FF080601BE020688B49884201D12B
:1040A000042015E020688949884201D140200FE0B2
:1040B00020688749884202D14FF4806008E0206878
:1040C0008449884202D14FF4804001E05FF48020AF
:1040D00074490860E06A002800F0E3802000E16A8B
:1040E0008847DEE00221206C81400D4200F0B9805B
:1040F000B00740F1B68020680068800608D42068C8
:10410000006830F00A0021680860012084F821006E
:104110002068654988424DD320686449884201D1AE
:10412000022044E020686249884201D120203EE01C
:1041300020686049884202D14FF4007037E020685F
:104140005D49884202D14FF4005030E020685B495D
:10415000884202D15FF4003029E020685849884243
:1041600002D15FF4001022E020685649884202D153
:104170005FF000701BE020685349884201D10220A3
:1041800015E020685149884201D120200FE02068C5
:104190004F49884202D14FF4007008E020684D4931
:1041A000884202D14FF4005001E05FF400304A49E8
:1041B00008604CE020683D49884201D1022044E07B
:1041C00020683B49884201D120203EE020683949DF
:1041D000884202D14FF4007037E0206836498842A7
:1041E00002D14FF4005030E020683449884202D1B7
:1041F0005FF4003029E020683149884202D15FF441
:10420000001022E020682F49884202D15FF0007040
:104210001BE020682C49884201D1022015E020686B
:104220002A49884201D120200FE02068284988428D
:1042300002D14FF4007008E020682649884202D17C
:104240004FF4005001E05FF4003016490860002090
:1042500084F82000A06A002823D02000A16A8847A3
:104260001FE00821206C81400D421AD0300718D57C
:104270002068006830F00E00216808600121206C81
:104280008140E06B41600120A063012084F821009F
:10429000002084F82000206B002802D02000216B31
:1042A000884770BD040002408100024008000240BF
:1042B0001C0002403000024044000240580002400E
:1042C0006C00024080000240080402401C040240CE
:1042D00030040240440402400404024030B401258A
:1042E000046CA540C46B6560046863604468102C6E
:1042F00004D10468A2600468E16003E00468A1607E
:104300000468E26030BC704708B584B000230393B2
:1043100000290EBF01930190491E0291009301A94B
:1043200004AB07487844183003F048FA019909B102
:1043300000220A70002858BF039805B000BD00BFD6
:10434000870400005FEA000C80EA01039B0715D197
:10435000830706D011F8013B00F8013BB3B1830796
:10436000F8D10A68B2F1013323EA020313F0803F67
:1043700002BF40F8042B51F8042FF3E711F8013B7A
:1043800000F8013B13B111F8013BF9E760467047B3
:1043900062F30F2262F31F42401810F0030308D0AB
:1043A000C91A1FD3DB0748BF00F8012D28BF20F82A
:1043B000022D130030B414461546103928BF20E9E9
:1043C0003C00FAD8490728BF20E90C0048BF40F854
:1043D000042D890028BF20F8022D48BF00F8012DC8
:1043E00030BC7047C91818BF00F8012DCB0728BF93
:1043F00000F8012D704710B5044604F0C9F90146D4
:104400002046096ABDE81040084710B5044604F08C
:10441000BFF901462046896ABDE810400847B1F55A
:10442000807F02D34FF0FF3070470170012070474A
:104430000078401E8041C043C00F7047C9B2830757
:1044400006D0521E22D310F8013B9942F7D11FE04B
:10445000083A13D302F1040241EA012141EA014181
:1044600050F8043B121F21BF4B40A3F1013C2CEA42
:10447000030C1CF0803FF3D0C9B2001F083210F8C3
:10448000013B521E28BF91EA030FF8D818BF012044
:10449000401E70472DE9F84F82460E0014001D00A3
:1044A0005FF0010B00275FF00008DFF8BC01007E21
:1044B000012801D1022049E00120DFF8AC11087683
:1044C0004CF2503000F06AF881464846C0B20028ED
:1044D00036D1BAF1010F02D10120804607E0BAF1CE
:1044E000020F02D10220804601E004208046002015
:1044F000070038004146C0B2C9B2884220D220002D
:104500002900FFB23A0104F07DF9010089B23800B8
:10451000C0B216EB400000F036F84CF2503000F01C
:104520003DF88146DFF84401006840084000DFF8AC
:104530003C1108604846C0B2002801D17F1CD8E772
:104540000020DFF8241108764846C0B2BDE8F28F9B
:1045500000204649096809060BD54649464A1160BC
:104560004649454A116041490968090601D50121BA
:104570000800C0B270473D48006850F080003B49D9
:104580000860002070470022374BDA61374A126812
:1045900052F00102354B1A600180704738B50400B3
:1045A00001F074FA050032480068C0070BD514F119
:1045B000010FF8D0002C04D001F068FA401B8442AF
:1045C000F1D2032017E02A480068800602D5202097
:1045D0002749086026480068C00607D428480068B4
:1045E000C00703D422480068400703D500F004F850
:1045F000012000E0002032BD00201D490968C906E5
:1046000007D51949C96951F00201174AD16150F023
:10461000100017490968490707D51349C96951F0BE
:104620000101114AD16150F0040015490968C90718
:104630000BD50D49C96951F004010B4AD1611049EC
:104640000968490849000E4A116040F20111884288
:1046500006D10B49096849084900094A116001E07F
:1046600003490860704700009813002010200240A2
:104670000C2002402301674504200240AB89EFCDA6
:104680001C200240F8B504000D0001260027DFF8C9
:104690000001007E012801D102204FE00120DFF857
:1046A000F01008762068022816D14CF25030FFF73F
:1046B00075FF00283CD1012000F041F84CF2503049
:1046C000FFF76CFF0600DFF8CC00006830F0040054
:1046D000DFF8C01008602BE04CF25030FFF75EFFAF
:1046E000002825D15FF0FF302860A0680700E1684E
:1046F0004FF40062A06802FB01018F4218D238001B
:1047000000F032F84CF25030FFF748FF0600DFF8B7
:104710008400006830F00200DFF878100860300094
:10472000C0B2002801D02F6002E017F50067DEE775
:104730000020DFF85C1008763000C0B2F2BD002126
:10474000DFF84C20D161DFF84C10096851F004010A
:10475000DFF840201160DFF83C10096851F040019B
:10476000DFF83020116070470021094AD161094902
:10477000096851F00201074A1160074908600549BC
:10478000096851F04001034A1160704700000000C1
:10479000981300201020024014200240C0F3C7519B
:1047A0007E390EDDC217D1F1200106DD000240F096
:1047B0000040C840104450407047D04380F0004053
:1047C0007047002070478268521C8260426832B194
:1047D0000268531C036011704168491E41607047B4
:1047E00070B5C51DED08AFF30080ED00072D98BF33
:1047F00008250B4E346814B12068A84208D204F092
:1048000011F800283060F4D1AFF30080002070BDB3
:1048100061193160451B0D60AFF30080204670BD0B
:104820008414002081EA00039B0717D1820707D078
:1048300010F8012B11F8013BBAB19A42F6D014E0FE
:1048400002680B689A42A2F1013301BF934313F04F
:10485000803F50F8042F51F8043FF3D010F8012B9B
:1048600011F8013B0AB19A42F8D0D01A704768009B
:1048700010B5144600F002F8226010BDC1F30A53CF
:1048800043B14A0012F5001F28D2A3F2FE32A1EB79
:104890000251704750EA410C20D001F0004C31EA3F
:1048A0000C01B1FA81F204BFB0FA80F3D2180B3ACE
:1048B000B2F120032CBF00FA03F1914041EA0C0150
:1048C0003EBFC2F1200C20FA0CF319439040524233
:1048D00040F2FD33D21A01EB0351704700227047BA
:1048E000B0B581EA030C0CF0004C40F2FF7515EAFC
:1048F00011541DBF15EA1357AC42AF4239E0E41919
:1049000023EA455343F48013C90241F0004141EAD0
:10491000505EC7021100A7FB020200284FF0000002
:10492000EEFB01204FF00001E3FB072118BF42F02E
:104930000102401800214941E3FB0E01A4F5806407
:104940000F0302D252004041494154F101046CDD91
:10495000470872F1004250F1000051EB0451A1F5FB
:1049600080115CBF41EA0C01B0BD4CEA055100204A
:10497000B0BD05EA1357AC4214BFAF4241E050EA64
:10498000410E1CBF52EA430E02E061460020B0BD5A
:1049900024423C441BD15FEA070EF6D0090302BF54
:1049A00001460020AEF1140EB1FA81F7AEEB070418
:1049B00001FA07FE0C37C7F1200100FA07F7C840DB
:1049C0004EEA000E23EA455343F48013A2E733F086
:1049D0000043B3FA83F704BFB2FA82FE77440B3F79
:1049E000E41BB7F1200E2FBF02FA0EF3BB40C7F154
:1049F000200E22FA0EFE38BF43EA0E03BA40641CB2
:104A000082E750EA410E14BF52EA430E6FF00001F4
:104A10004FF4001717EB430F8ABF194617EB410FEE
:104A2000B5E74CEA05510020B0BDD4F10104B4F162
:104A300020070FDAC4F12007520828BF42F0010214
:104A400010FA07F501FA07F7E1BF2A43E0403843BF
:104A5000E1400FE0352C98DCC7F1200452EA400217
:104A600020FA07F218BF42F0010231FA07F0A14024
:104A70000A43002172F1004250F1000051EB0C0199
:104A8000B0BD3100124254D440F2FF7C1CEA1153F5
:104A90000FD0634531D09B1863453CBF01EB0251F9
:104AA000704701F0004141EA0C510020AFF3008053
:104AB000704750EA410320D001F0004C91EA0C010C
:104AC0001CD0B1FA81F30B3B9A420DD9D21A99400E
:104AD00051EA0C01C3F1200C20FA0CFC614498400F
:104AE000531C40F2FF7CD7E7914041EA0C01C2F130
:104AF000200C20FA0CF3194390407047B0FA80F371
:104B00001533202BE0D3202AEED3203A203B9A42C3
:104B100009D9D21A00FA03F141EA0C010020531C12
:104B200040F2FF7CB8E700FA02F141EA0C010020F4
:104B30007047524240F2FF7C1CEA11530DD063458E
:104B4000DBD0B2EB030C3CBFA1EB025170470CF180
:104B5000010221EA035141F4801150EA410CCCD00A
:104B600001F0004C352A27DC30B481EA0C01B2F1A7
:104B7000200309DAC2F12003044601FA03F5D0400C
:104B80002843D1409C400CE0C3F12002450020FAAC
:104B900003F418BF44F0010421FA03F091400C43E0
:104BA000002174F1004550F1000051EB0C0124424A
:104BB00030BC7FF47BAF70476146002076E76C0025
:104BC000F0B540F2FF7581EA030C0CF0004C15EAD9
:104BD00011541DBF15EA1357AC42AF42E5E0BC418A
:104BE000C1F31301C3F31303801A994143F48013F3
:104BF00004D2641E4000494180185941C90241EA6B
:104C00005051B1FBF3F603FB1611A2FB0675D7EB6F
:104C1000C020A94102D2761E80185941C90241EA3A
:104C20005051B1FBF3FE03FB1E11A2FB0E75D7EB37
:104C3000C020A94103D2AEF1010E8018594189026A
:104C400041EA9051760546EA8E2EB1FBF3F603FB5E
:104C50001611A2FB0675D7EB8020A94102D2761E61
:104C600080185941C90241EA50514EEA060EB1FB83
:104C7000F3F603FB1611A2FB0675D7EBC020A94182
:104C800002D2761E80185941C90241EA5051B1FB47
:104C9000F3F703FB1711A2FB0735D3EBC020A941A3
:104CA00067F100070CBF004247F0010766F3D52704
:104CB0004FEA1E31B80814F5806412DDBD0775F1A6
:104CC000004250EB0E5051EB045111F5801F5CBFB8
:104CD00041EA0C01F0BD4CF07F6141F0E041002061
:104CE000F0BDBD076D0840EA0E5041F48011D4F1CB
:104CF0000104B4F120060ADAC4F120060200E04003
:104D000001FA06F3E1401843B24015430EE0342C9B
:104D100013DCC6F1200445EA40056D0820FA06F2CE
:104D2000154321FA06F0A1400D43002175F1004220
:104D300050F1000051EB0C01F0BD00205FEA0C01C6
:104D4000F0BDCFB992185B41B3FA83F704BFB2FA52
:104D500082F6BF190B3FB7F120062FBF02FA06F308
:104D6000BB40C7F1200622FA06F638BF3343BA40EB
:104D70001CB1E419641E33E77F4231F00041B1FAFF
:104D800081F404BFB0FA80F6A4190B3CB4F12006FC
:104D90002FBF00FA06F1A140C4F1200620FA06F662
:104DA00038BF3143A0403C1B1AE7AC421ABF05EAAA
:104DB0001357AF4212E050EA41061CBF52EA4306C5
:104DC000BFE750EA4107304661461CBF41EA055142
:104DD000F0BD52EA430C08BFC143F0BD00204FF4C0
:104DE000001616EB410F98BF16EB430F08BF16EBEA
:104DF000410F24BFC14305E016EB430F0CBF6146D2
:104E00004CEA0551F0BD2DE9F84305460C462E68E5
:104E1000002700E0761C3078FFF7EDFA0028F9D182
:104E200030782D280CBF08272B2800D1761C30782D
:104E300040F020016E2927D1707840F020006128D1
:104E400002BFB07840F020006E2802D02E68002704
:104E500046E0F61CB046042798F8000028283FD109
:104E600018F8019F484603F0F3FC0028F8D1A9F197
:104E700030000A28F4D398F800005F28F0D02928E1
:104E80002ED108F101062BE069292CD1707840F071
:104E900020006E2802BFB07840F02000662802D0C3
:104EA0002E6800271CE016F8030F40F02000692848
:104EB00002BF707840F020006E2847F003070FD142
:104EC000B07840F02000692802BFF07840F0200060
:104ED000742805D1307940F02000792808BF761D6C
:104EE000F4B126601CE0302802BF707840F020004A
:104EF000782813D1B01C01782E2908BF401C0078F7
:104F0000A0F16101062921BFA0F14102062A303833
:104F10000A2803D2B61C47F0020701E047F0010758
:104F20002E603846BDE8F2832DE9F14F8CB09246F1
:104F3000169A02EBC20200202D2AC8BF2D2218604B
:104F400083465860002501E0491C01250C78302C6F
:104F5000FAD000241F460B78A3F130060A2E80F009
:104F60009780944207DB3B685B1C3B600B78302BDF
:104F700005D0012003E0303B0DF80430641C491CCF
:104F80000125E8E73868401E3860761C0125307836
:104F90003028F7D03078A0F130010A2980F08780DE
:104FA000444507DA30380DF80400641C3968491E9E
:104FB000396003E0302818BF4FF00109761C012545
:104FC000E8E70DF1FF31095D49B93A68521C3A60D2
:104FD000641E002CF5DC04BF8DF800B0012400280D
:104FE0004BD0092394FBF3F3C4F1090103EBC30392
:104FF0005918092291FBF2F202EBC202DC468A1A2E
:1050000018BF4FF0010B5A468B46A4455DDA0921C3
:105010009BFBF1F11DF80C3001EBC101BBEB010171
:105020001DBF57F8221001EB810103EB4103521C15
:1050300047F822300BF1010B0CF1010CE5E70024DD
:105040000025DFF8A8C0314608E0654504DA05EB25
:10505000850402EB4405303D491C01240A78A2F185
:1050600030060A2EF1D30E46BEF12D0F396808BF67
:105070006D426D183D6004B91E46BAF1000F03D0B1
:1050800000B90C9ECAF8006058460DB0BDE8F08F1C
:105090000E469046814603F0AFFB406A31780278B5
:1050A000914208BF761C002C7FF474AF6FE75FEA73
:1050B000090128468DD00DF1FF310DF1FF3211F8B5
:1050C0000810491C02F8081083E7317841F02001EC
:1050D00065299346D1D1334616F8011F2B2916BFF7
:1050E0002D2916F801EB4FF02B0EA8E700E1F5058E
:1050F000C11768B14840401AB0FA80F29040D21C03
:10510000C907C2F5846241EA025202EBD021400590
:105110007047010270B44FF0004591EA030F43F16C
:10512000A9836B40841A71EB030604D26E40001B06
:10513000B141121973414FF4001C1CEB410F34BFF5
:105140007CEB430682E00C0DA4EB1356362E7BDC81
:10515000012E45EAC32341DC43EA525312BFD20277
:1051600092025B08240545EAC12141EA5051D2EB85
:10517000C020994125D407D1B0FA80F610FA06F183
:1051800062D00020203608E0B1FA81F6B140C6F1C5
:10519000200220FA02F21143B0404FEAF474B4EB5B
:1051A000465434F001064FEA74040AD8D6F50016C6
:1051B000760D04F00044F04061FA06F25040F140F0
:1051C0004840C00A40EA415021F0004128BF5FEA50
:1051D000500550F1000044EBD12135E0DB0A45EAEF
:1051E000C121C90AB6F120050EDD42EA0242120CC5
:1051F000C5F1200603FA06F6EB4042EA06056D42C9
:10520000984161F100010DE062FA06F5F240554067
:1052100063FA06FC82EA0C02F3405A406D42904168
:1052200061EB030111F4801F05D1641E620502D0F9
:105230006D004041494121F48011430875F100435C
:1052400050F1000041EB045170BC70471CEB410F62
:1052500015D223F0004352EA43060BD04FEA4C0C20
:10526000BCEB410F04D80C0D661E342EB7DDEBE706
:10527000801A994150EA410608BF0021E4E708BFBF
:105280001CEB430F28BF6FF00001DDE72DE9FD4E59
:105290008BB00024DDF858901C60C9EBC909B9F146
:1052A000230FC8BF4FF023095C60A24602E0491CEF
:1052B0004FF0010A08783028F9D000BF0FF2B81576
:1052C00073A0A3460A9509900F461E463978162208
:1052D0002846FFF7B3F8002800F09A80D94503DA92
:1052E0003068401C306007E00A9A0999801A085C0F
:1052F0000DF80B000BF1010B7F1C4FF0010AE5E7E5
:105300003068401E30607F1C4FF0010A387830282A
:10531000F6D0397816222846FFF790F8002800F0DA
:105320008480D9450ADB00BF59A1401B085C0DF8F9
:105330000B000BF1010B3168491E31607F1C4FF0EF
:10534000010AE6E70DF1FF32525C4AB933685B1C93
:105350003360491E0029F5DC04BF8DF800400121AF
:1053600032689200BAF1000F326046D04FF0070C5D
:1053700091FBFCFCC1F10705CCEBCC0C654407228A
:1053800095FBF2F20023C2EBC202AA1A18BF012455
:10539000A4468B425CDA072295FBF2F21DF803402B
:1053A000C2EBC202AA1A1ABF56F82C2004EB021450
:1053B0000CF1010C46F82C406D1C5B1CE9E7002346
:1053C00000252C48394608E0854204DA05EB8503C0
:1053D00007EB4305303D491C01230F78A7F1300945
:1053E000B9F10A0FF0D30F46BCF12D0F316808BF99
:1053F0006D426D18356003B917460C9921B1BAF1A9
:10540000000F08BF0B9F0F6020460EB0BDE8F08E66
:1054100003F0F2F9406A39780278914208BF7F1CA4
:10542000BBF1000F7FF475AF70E75946894591DAFB
:105430001DF80910072906DD0DF1FF3212F80910D9
:10544000491C02F8091049463268521C326081E753
:10545000397841F0200170296446CED13A4617F8D8
:10546000011F2B2916BF2D2917F801CB4FF02B0C4C
:10547000A5E7000000E1F505303132333435363729
:1054800038396162636465664142434445460000C1
:10549000000102030405060708090A0B0C0D0E0F94
:1054A0000A0B0C0D0E0F00004FF0807C1CEB400F20
:1054B00094BF1CEB410F05E040EA010C1CEB0C0F04
:1054C00001D28142704718BF8842704790EA010FAD
:1054D00040F1648181F00041421A3CBF801A891872
:1054E0004FF0004CC0F3C752FF2A24D0C1F3C7537A
:1054F00013B3D21AD2F1190327DD4CEA01214CFA79
:1055000003F321EA0303D140C20D4CEA0020401806
:1055100034BF20EA0C004CEA5000D20553EA006385
:1055200073EB0C0C52EB1020420012F1807F38BF5D
:105530007047C00DC0057047490212BF9A4200EB88
:105540005120F8E7D2F11703D9D570474FF4001C6A
:105550001CEB410F94BF1CEB430F09E041EA030C25
:1055600050EA4C0C52EA0C0C03D2994208BF90420C
:10557000704714BF8B428242704701024FF0807C1B
:105580001CEB400F94BF1CEB410F05E040EA010CFF
:105590001CEB0C0F01D28842704718BF8142704744
:1055A000FF2212EAD05C1DBF12EAD1539445934208
:1055B0002BE09C44D30780EA01021A4043EA002012
:1055C00043EA0121A1FB0030C04238BF40007CF11A
:1055D0007F010BDBFE294ADA5B0842EAC15153EA3C
:1055E000006373F1004C51EB10207047D1F1080CAF
:1055F000DCF120012FDB5B0810FA01F10B4320FAEC
:105600000CF073F100415041704794451CBF02EA11
:10561000D153934280EA010202F000421DD04000C3
:1056200019D0490017D05BB9634514D00902B1FA0B
:1056300081F39940BCEB030CC00140F00040C1E78E
:105640000002B0FA80FC10FA0CF0B3EB0C0CC901AC
:1056500041F00041B6E71000704740000AD0490011
:1056600008D010F1807F94BF11F1807F02E042F0FA
:10567000FF407047D043704710B5FF2313EAD05462
:105680001DBF13EAD1529C429A4239E0A41ADA07AC
:1056900080EA0103134042EA012142EA0020421A53
:1056A0003CBF641E01EB4202090AB2FBF1FE01FBA2
:1056B0001E221202B2FBF1F001FB10226EF30F204A
:1056C0001202B2FBF1FE4EEA00207F3406DDFE2C12
:1056D00024DA53EA500050EBC45010BDD4F1020458
:1056E00001FB1E2240F08071192C1DDC21FA04F010
:1056F000C4F12004A140114371F10042584110BD92
:105700009C421ABF03EAD1529A420FE080EA010E8E
:105710000EF00043400004D0490016D143F0FF4092
:1057200010BD490008BFD343180010BD9C4205D1ED
:10573000D21AF7D001F00041484010BD4A0212BF12
:105740000846484000F0004010BD4AB90902B1FACD
:1057500081F2914044B1A418C00140F000409EE79E
:10576000C90141F0004152420002B0FA80F4A04069
:10577000141B94E740EA010C1CEB0C0F07D0884285
:1057800005D14FEA400C1CF1807F98BF80427047E2
:1057900090EA010F7FF5A0AE81F00041431A4FF06F
:1057A00000423EBF5340C01AC91800BFD3095FEA88
:1057B000D05C13EB400F34BFB3EB410F40E07CEB08
:1057C000D1530CD342EA012122D8D1EB402009D396
:1057D000400A28BF5FEA500140EBCC507047401AA6
:1057E00015D04002B0FA80F2521C9040400A4FEAB5
:1057F0003C23B3EB026384BF00EB730007E040F48B
:1058000000001A16DB07C2F10102D04018437047AE
:10581000182BFCDC31FA03F202FA03F3591A38BFF1
:1058200042F00102D2EB40203CBF4000ACF1010C41
:105830005FEACC5CC20572F100414CEB502070472E
:1058400013EB400F0FD2C94209D0ACEBD153022B5E
:1058500003DB4902172BDDDD70479143401AC0423C
:10586000D5D10020704713EB410FD0D36FF000006B
:105870007047000000B585B07248006850F0100015
:10588000704908606F48006810F010000490049898
:105890006C48006850F020006A4908606948006858
:1058A00010F02000049004986648006850F004004E
:1058B000644908606348006810F00400049004988C
:1058C0006048006850F008005E4908605D48006864
:1058D00010F008000490049800224EF240015A484B
:1058E000FDF721F9002241F601415848FDF71BF967
:1058F0004EF2400000900120019000200290022012
:10590000039069465048FCF7DDFF3820009050486E
:1059100001900020029069464E48FCF7D3FF41F603
:10592000014000900120019000200290022003908D
:1059300069464648FCF7C6FF02200090002001900F
:105940000120029069464148FCF7BCFF05B000BD4C
:1059500038B5040040480078022803D03E4800785B
:10596000002800D167E03D480068401C3B490860C2
:10597000FCF7E1FD3A4908703A480078012815D152
:105980003948006839490968FFF7F4FE03D0364802
:105990000068364908603548016835480068304A73
:1059A000127850F82200FCF722FD44E02D480078E0
:1059B000002814D10225002D0DD429480078284153
:1059C000C00703D51CA0FBF7ABFC02E01BA0FBF754
:1059D000A7FC6D1EEFE71AA0FBF7A2FC2BE0204806
:1059E00000782449244A1268885424492448224AC9
:1059F000126850F82200FCF7FAFC1F480068401CAF
:105A00001D4908601C480068062814DB00201A495C
:105A10000860002013490870FCF773FD1948FBF774
:105A20007FFC0025062D06DA1248415D1648FBF77B
:105A300077FC6D1CF6E731BD31000000300000003E
:105A40000D0A00001810024000100140000C014037
:105A50000000311000080140C50C00207014002027
:105A60008F140020C30C00207C140020241400207C
:105A70001C1400206C000020201400200000204195
:105A8000380000200CB2000820B20008014800686D
:105A9000704700BF401400202DE9FC4706000D00B0
:105AA00017001C005FF0000A5FF0000896F8500035
:105AB000012801D10220C5E0012086F85000FFF73F
:105AC000E5FF814696F85100012802D00220804669
:105AD000B0E0002D03D0380080B2002802D10120B0
