:020000040800F2
:1000000010040020890B0008650B0008670B00082E
:10001000690B00086B0B00086D0B00080000000066
:100020000000000000000000000000006F0B00084E
:10003000710B000800000000730B0008750B00082E
:10004000B50B0008B90B0008BD0B0008C10B000878
:10005000C50B0008C90B0008CD0B0008D10B000828
:10006000D50B0008D90B0008DD0B0008E10B0008D8
:10007000E50B0008E90B0008ED0B0008F10B000888
:10008000F50B0008F90B0008FD0B0008010C000837
:10009000050C0008090C00080D0C0008110C0008E4
:1000A000150C0008190C00081D0C0008210C000894
:1000B000250C0008290C00082D0C0008310C000844
:1000C000350C0008390C00083D0C0008410C0008F4
:1000D000450C0008490C00084D0C0008510C0008A4
:1000E000550C0008590C00085D0C00082DE9F84378
:1000F0000646DFF88C543078C1074AD5686800F0AE
:100100000C00042807D0686800F00C0008280BD108
:100110006868C10308D5296888033AD57068002843
:1001200040F0C080012069E17068B0F5803F0FD0D9
:1001300038B9296821F480312960286820F48020AA
:1001400009E0B0F5A02F296807D141F4802129608A
:10015000286840F48030286006E021F4803129606E
:100160002A6822F480222A60706868B100F026FABA
:1001700004462968880300F1958000F01FFA001BEF
:100180006528F6D3032039E100F018FA0446286800
:10019000810340F1878000F011FA001B6528F6D337
:1001A000F0E700F00BFA001B022840F2AA80E9E712
:1001B000306970B10121396000F000FA0446286806
:1001C000810700F1DC8000F0F9F9001B0228F6D964
:1001D000D8E7386000F0F2F904462868810765D551
:1001E00000F0ECF9001B0228F7D9CBE7086000F01B
:1001F000E5F90446686A810777D500F0DFF9001B4E
:100200000228F7D9BEE708B9286A09E00528286A54
:1002100006D140F004002862286A40F0010005E0A1
:10022000400840002862286A20F00400286241F259
:100230008938F06868B100F0C1F98146286A810701
:1002400000F1AA8000F0BAF9A0EB09004045F5D30F
:1002500098E700F0B3F98146286A810740F19C8055
:1002600000F0ACF9A0EB09004045F5D38AE700F0B7
:10027000A5F9001B022840F2A28083E700F09EF956
:10028000001B022840F2B5807CE700F0B9F8044674
:100290002868810140F1B18000F090F9001B02282C
:1002A000F6D96FE73078DFF8E47281071BD568680C
:1002B00010F00C0F09D0686800F00C0008287FF4DB
:1002C00077AF6868C1033FF573AF2968880703D526
:1002D000306901287FF426AF2968706921F0F801A0
:1002E00041EAC0012960317808071DD5B069DFF8FF
:1002F000A01200283FF47AAF01220A6000F05EF9F4
:100300000446686A81077FF54CAFDFF87812086809
:10031000C0084FF47A72B0FBF2F2009200BF00986E
:10032000411E00280091F9D13078410739D5E8699C
:100330000024C10009D4E86940F08050E86101243C
:10034000E86900F0805000900098DFF84882D8F803
:100350000010C8051BD4D8F8000040F48070C8F81D
:10036000000000F02BF98146D8F80010C8050ED423
:1003700000F024F9A0EB09006528F5D302E728680E
:10038000716920F0F80040EAC1002860ABE7F0682E
:1003900001287FF438AF3FE71CB1E86920F08050B6
:1003A000E861F06948B3696801F00C0108293FF47D
:1003B000B9AE02287FF469AF00F022F8044628683D
:1003C00081013FF554AF306AB0F5803F05D16968CF
:1003D000B06821F40031014369606968306A21F432
:1003E00074110143706A01436960012000F009F84B
:1003F0000446286881017FF541AF0020BDE8F28303
:100400000020386600F0DAB82DE9F843624F05465F
:100410003868894600F00700484502D200F087F8A6
:1004200079D12868564C810712D5400703D56068FA
:1004300040F4E06060602978080703D5606840F404
:10044000605060606168A86821F0F001014361605C
:100450002878C10757D56868012802D121688A0326
:1004600003E0022803D121688A0103D453E0226803
:10047000910750D56168890840EA8100606041F2C7
:10048000893800F09BF80646686801280BD160683F
:1004900000F00C00042836D000F090F8801B404596
:1004A000F5D303202DE0022837D1606800F00C005E
:1004B000082828D000F082F8801B4045F5D3F0E7EB
:1004C0002878410705D56168E86821F4E0610143B7
:1004D00061602878010706D56068296920F46050BA
:1004E00040EAC100606000F02DF862682B49C2F359
:1004F0000312895C234AC8401060002000F064F8B1
:100500000020BDE8F283386800F007008145D7D2AB
:1005100000F00DF8D4D00120F3E7606810F00C0F64
:10052000F1D000F04BF8801B4045F6D3B9E73968AD
:10053000C90849EAC1013960386800F00700484538
:1005400070470000164910480A6802F00C03082B97
:1005500000D0704710B500BF13A4C2F38343D20389
:10056000E35C09D5096800BF13A2C1F340415843B9
:10057000515CB0FBF1F010BD18460A49484310BD6C
:10058000001002400C00002000127A0000004242DD
:10059000800442420070004000200240A40A00088B
:1005A0000410024000093D00020304050607080983
:1005B0000A0B0C0D0E0F10100102000001484068DC
:1005C000704700BF0000002038B50D4D0D4A297856
:1005D00004464FF47A70B0FBF1F11068B0FBF1F013
:1005E00000F04BF850B9102C08D2002221464FF0F1
:1005F000FF3000F025F8AC60002032BD012032BD94
:10060000000000200C0000200901020081B006D586
:10061000244A00F00F00104400F8041C01E0224BB3
:10062000195401B07047214A13684FF6FF010002C8
:100630000B4000F4E06018431D4908431060704708
:1006400038B51A4B1C68C4F30223C3F10704052C08
:1006500028BF04241D1D072D34BF0023DB1E0125E8
:1006600005FA04F4641E2140994005FA03F35B1E69
:100670001A401143BDE83440C6E710B5401EB0F142
:10068000807F01D3012010BD0A4C60600F214FF024
:10069000FF30FFF7B9FF0022A26007202060002092
:1006A00010BD000018ED00E000E400E00CED00E0FB
:1006B0000000FA0510E000E02DE9F84F83460F46F0
:1006C000002080466049614A614B4FF00F094FF0AE
:1006D000010A3C680AFA08F606EA040EB64540F03C
:1006E000A4807C683CB3012C1AD0022C1DD0032CB2
:1006F0002ED0112C16D0122C1AD0564DAC421CBF45
:10070000554DAC4217D0554DAC421CBF544DAC4278
:1007100011D0544DAC421CBF534DAC420BD018E02D
:10072000F86816E0F868001D13E0F868083010E07B
:10073000F8680C300DE0B86808B9042009E0012819
:1007400019BF0820CBF814600820CBF8106000E037
:100750000020BEF5807F03D2DC464FEA880404E027
:10076000A8F108040BF1040CA400DCF8005009FA0D
:1007700004F6B54300FA04F42C43CCF800407C683E
:10078000E40052D51C6844F001041C604FEA980C48
:100790001D6805F001050095009C52F82C604FEA99
:1007A000880404F00C0409FA04F526EA05052F4E26
:1007B000B34508BF00260ED02D4EB34508BF012615
:1007C00009D02C4EB34508BF022604D02A4EB345AB
:1007D0000CBF0326042606FA04F42C4342F82C40EE
:1007E0006FEA0E067C68E50304D50D684EEA050540
:1007F0000D6002E00C6834400C607C68A5034C6816
:100800004CBF4EEA040434404C607C68E5028C68BE
:100810004CBF4EEA040434408C607C68A502CC686E
:100820004CBF4EEA04043440CC6008F10108B8F132
:100830000F0F7FF64EAFBDE8F18F81B002B909040A
:10084000016101B070470000000401400800014050
:1008500018100240000011100000121000002110BA
:10086000000022100000311000003210000801408A
:10087000000C0140001001400014014010B500F0D0
:1008800049F800F01AF800F057F8084C012200F07F
:100890000FF84FF47A7000F08BF8002200F008F89F
:1008A0004FF47A7000F084F8F0E700000010014087
:1008B0004FF400412046FFF7C0BF00B58FB005A838
:1008C000282100F089F86846142100F085F80120FD
:1008D000059000214FF4803006900D9007914FF461
:1008E000E010012202210E9009920C9105A8FFF759
:1008F000FDFB0F2002210090019100204FF4806148
:1009000002900391049002216846FFF77DFD0FB02D
:1009100000BD000080B50748016841F0100101608A
:100920000320FFF780FE0020FFF74EFE00F058F88E
:10093000002002BD0020024018B585B001A810219A
:1009400000F04AF81848046844F010040460016894
:10095000164C01F0100100910099016841F020014E
:100960000160026802F020020092012200990168F1
:1009700041F0040101604FF40041006800F0040000
:10098000009000982046FFF758FF01210291039143
:100990004FF40040022101900491204601A9FFF785
:1009A0008BFE06B010BD0000181002400010014080
:1009B00038B50446FFF702FE14F1010F054602D0D8
:1009C000044908780419FFF7F9FD401BA042FAD347
:1009D00031BD00BF00000020002200F023B800005D
:1009E0000E4881B0016841F001010160026802F027
:1009F000010200920099416841F0805141604068D5
:100A000000F08050009000980548016821F0E061F6
:100A100041F00071016001B0704700BF1810024042
:100A20000400014000B500BF1300964694461039FB
:100A300028BFA0E80C50FAD85FEA417C28BF0CC060
:100A400048BF40F8042BC90728BF20F8022B48BF35
:100A500000F8012B00BD00000E49086840F00100BD
:100A600008604A680C4802404A600B680B48034023
:100A70000B60086820F4802008604FF41F004A686B
:100A800022F4FE024A6088604FF00060044908606A
:100A900070470000001002400000FFF8FFFFF6FE64
:100AA00008ED00E000000000000000000102030467
:100AB0000607080910B450F8041B79B102684368AE
:100AC00002440830DC0744BFA9F10104E31852F8DE
:100AD000044B43F8044B091FF9D1ECE710BC7047F5
:100AE00010B5074979441831064C7C44163404E0AB
:100AF0000A68081D114488470146A142F8D110BD7B
:100B00000800000018000000ADFFFFFF100000000B
:100B100088000000000000200000000000F00DF838
:100B2000002801D0FFF7DCFFAFF300800020AFF317
:100B30000080FFF7A3FE00F002F80120704700F0EC
:100B400001B800000746384600F002F8FBE7000055
:100B500080B5AFF30080024A11001820ABBEFBE75E
:100B6000260002007047FEE7FEE7FEE7FEE770475B
:100B70007047704700F000B802494A680878821848
:100B80004A60704700000020014880470148004744
:100B9000590A0008A90B000801000000000000002D
:100BA0001000000000A24A04AFF30080AFF3008001
:100BB000FFF7B4FFFFF7FEBFFFF7FEBFFFF7FEBF73
:100BC000FFF7FEBFFFF7FEBFFFF7FEBFFFF7FEBF59
:100BD000FFF7FEBFFFF7FEBFFFF7FEBFFFF7FEBF49
:100BE000FFF7FEBFFFF7FEBFFFF7FEBFFFF7FEBF39
:100BF000FFF7FEBFFFF7FEBFFFF7FEBFFFF7FEBF29
:100C0000FFF7FEBFFFF7FEBFFFF7FEBFFFF7FEBF18
:100C1000FFF7FEBFFFF7FEBFFFF7FEBFFFF7FEBF08
:100C2000FFF7FEBFFFF7FEBFFFF7FEBFFFF7FEBFF8
:100C3000FFF7FEBFFFF7FEBFFFF7FEBFFFF7FEBFE8
:100C4000FFF7FEBFFFF7FEBFFFF7FEBFFFF7FEBFD8
:100C5000FFF7FEBFFFF7FEBFFFF7FEBFFFF7FEBFC8
:0400000508000BA93B
:00000001FF
