:020000040800F2
:1000000070060020195B00088D5900088F59000800
:1000100000000000000000000000000000000000E0
:1000200000000000000000000000000091590008DE
:1000300000000000000000009359000895590008D6
:10004000AB17000843280008E3280008032C000829
:10005000832F0008BB2F0008BF2F0008A1590008FC
:10006000C32F0008F34A0008C758000813590008B6
:100070001B590008C35A0008075B0008435B0008CF
:10008000455B0008475B0008495B00084B5B0008C4
:100090004D5B00084F5B0008515B0008535B000894
:1000A000555B0008575B0008595B0008AD59000814
:1000B0005B5B00085D5B0008B75900085F5B0008E8
:1000C00081B0E022520080180268914203D3436855
:1000D000D218914202D380680028F5D101B0704750
:1000E0001848016800290ED1802149028160090960
:1000F00041600021C943C160016104214161124A8C
:100100001160124901600120704730B407230C00D0
:1001100008341C4201D1002304E008240D000835F6
:10012000641B2340C918D21A8161C26001231343A2
:100130004B602823091D8B5002490969C16130BCFD
:100140007047000044040020680200206859883C81
:10015000F0B587B0060007200C000834044205D033
:1001600008240D000835641B04400919039111008F
:100170000831014205D0082114000834091B084049
:10018000121817000398C018049004460398381AF0
:10019000C01A01900320184303994860BC4201D360
:1001A00001F0FEFA01257868284001D101F0F8FA43
:1001B0000198102801D201F0F3FAB069874207D103
:1001C000F06801994018F060B4610543656077E11B
:1001D0007069874208D1B06801994018B0607461B5
:1001E0000543656020506BE178688107890F01291C
:1001F00000D0D1E0072188430690C0081F2843D8CB
:10020000B9680291F968009105900098874201D180
:1002100001F0C6FA0298874201D101F0C1FA78686C
:10022000072188430599C900884201D001F0B8FA36
:10023000300028300599C90040180299814207D042
:100240003269914200D29FE0C968B94200D09BE078
:100250000099029A914206D13168059A0120904096
:100260008143316092E0814208D00846316988427A
:1002700000D289E08068B84200D085E00098D06064
:1002800002980099886081E0B8690290F968B942E3
:1002900010D0B8680091316988422CD3C168B94246
:1002A00029D100998968B94225D10099C160009986
:1002B000886022E03A00143210680090002805D1CE
:1002C0003A00103210680090002816D0009801E023
:1002D0000A001068010014310B68002BF8D10100EE
:1002E00010310B68002BF3D100903069824202D3A9
:1002F0000020106001E001F053FA0298002845D078
:10030000982040003018F9698900401801688F4230
:100310000AD100990160002915D17168FA6901209C
:1003200090408143716031E002983169884208D37E
:100330000069B8420098029901D1086103E0486160
:1003400001E001F02DFA009800281FD030690099D3
:10035000814219D30299009A91613969002908D024
:10036000814204D3009801610098886101E001F0A6
:1003700017FA7869002809D03169884204D30099B6
:1003800048610099816101E001F00AFA06983F187E
:1003900001980699401801907868A8437860019800
:1003A00028436060019820500198C0081F2826D873
:1003B0000290300028300299C9004018009007468A
:1003C0000198102801D201F0EBF93068029902007F
:1003D000CA402A4003D18D400543356008E00098AB
:1003E00080683169884201D3070001E001F0D8F943
:1003F00000988460FC60A7600098E06060E001986D
:10040000000A25D02904884201D31F2020E0FF21C3
:10041000C9434118090C082211408840AE4A82188D
:10042000120C04231A4000929040AC4A8218120C1D
:1004300002231A400E23591A009BC91A891A9040A8
:10044000C00B08184100019AC01DC2402A408818FC
:1004500098214900711882008918E06100236361C6
:10046000236172681700C7402F4004D185401543AF
:1004700075600C601DE009681F28019D01D101987D
:1004800005E019224008101A8540F8E739004A684B
:100490000727BA43824217D00A001032EF0FBF007D
:1004A000D2196D001768002FF0D13069824205D350
:1004B0001460A161E4600498A06001E001F070F9AB
:1004C0000398083007B0F0BD886832699142F5D3CF
:1004D0009042F3D3C460049A8A60A060E160A36193
:1004E000EEE7FEB584B005000E00AC692100FFF711
:1004F000E7FD01684068081800902738410701D1DE
:10050000002003E00821081A4007400F00990F1847
:100510002F3F20001030874200D22700019638007C
:100520001830039000200290059A283A019928007B
:10053000FFF7EBFD38000830400701D001F030F93B
:100540001B207860E02040002E1838000830310071
:10055000102201F03FF9019830600598706006980C
:10056000F06038000830B06007230399029A0098C1
:1005700000E0091D4B60521C0E0008368642F8D37D
:10058000012A01DC01F00CF9A74200D196E0391BE9
:10059000201D4018026801239A43026001260120B1
:1005A000084360606150C8081F2823D80190C0002C
:1005B0002818283000900746102901D201F0F0F8E1
:1005C000286801990200CA40324003D18E40064398
:1005D0002E6008E0009880682969884201D30700EE
:1005E00001E001F0DDF800988460FC60A7600098ED
:1005F000E06063E0080A25D01A04904201D31F206E
:1006000020E0FF22D2438218120C08231A409040A7
:10061000314BC3181B0C04273B40009398402F4BD1
:10062000C3181B0C02273B400E27BA1A009FD21B8F
:10063000D21A9840C00B10184200C01D0B00C340D6
:100640003340D0188200AA1898235B00D218009279
:10065000E0610022626122616B681F00C740374081
:1006600007D186401E436E60009804600098A06128
:100670001FE0009B1B681F2801D1080006E0192617
:100680004008361A0800B04000E03B005E680727CB
:10069000BE438E4214D01E001036C70FBF00F6199D
:1006A00040003768002FF0D12869864204D33460B7
:1006B000A361E460A46001E001F072F807B0F0BD4E
:1006C000986829698B42F7D38842F5D3C4609C604F
:1006D000A060E360A261F1E700F0FFFF00C0FFFF50
:1006E000F8B504000E00764D2868002801D1FFF708
:1006F000F7FC0096A96870182F30491E884386427F
:1007000000D386E0D82149006618B168002905D0D9
:100710003268101882427CD281427AD301F074F898
:10072000002876D0010002680020C043814270D0CA
:10073000306880183060D82040002058D8235B00F3
:10074000E3185B68984200D218007060A069002826
:100750002AD12069002801D0814200D22161316173
:1007600072610020F0612B6863620023DB43236227
:1007700023002833DB601D469D6008355D611D61E7
:10078000801C10332028F5D34E48844201D1283AEA
:1007900027E0201F0068072398432018083889188D
:1007A0000A1A283A01001CE0E0204000201803004B
:1007B00000E09B68002B2ED01D685E68AD19A94231
:1007C000F7D11D7B2D0726D4A7691E68B74222D317
:1007D0005D687619B7421ED2A8185860E068821882
:1007E000A1692000FFF791FC20E09B68002B19D045
:1007F0001D688542F9D1187B000713D4284619607B
:100800005D68AA185A60009B02002000FFF7A0FC58
:10081000F2BD0020F2BD2369994200D2216103009C
:100820008818E3E700232000FFF75BFEE0680099EB
:100830008142EED2401AE060A169009A8A18A26152
:100840000123034353600098032202434A600800D7
:100850000830F2BD38B41A4A1368002B0ED1802339
:100860005B0293601B0953600023DB43D360136179
:1008700004235361144C2360144B13603F22D24372
:10088000914219D28369002B16D0C2682831914257
:100890000CD2E021490041180C68A34203D34D68F3
:1008A0006419A34202D389680029F5D1C169914234
:1008B00002D20021C943C161002032BC7047000050
:1008C00044040020AC000020680200206859883CE5
:1008D000F2B584B000244F42090A25D0802252028A
:1008E000914201D31F211FE0FF22D2438A18120C2C
:1008F00008231A409140B84BCB181B0C04252B4001
:100900009940154D4D192D0C022635400E26B21A70
:10091000D21A521BA940C90B51184A00049BC91D89
:10092000CB40D907C90F5118019100909821490077
:100930004018029001998900405800282BD0019955
:100940001F29049B04D01921019A5208891A8B404F
:100950000021049A03E000BF00C0FFFF5B00456870
:100960000726B543AD1ABD4203D204002F0000D1C3
:100970008EE145691030DE0FB6008059002D02D09F
:10098000854200D029000028E8D104920800002800
:100990003DD1002C40D10123019801218140480024
:1009A0004142014300984068084000D16DE1424255
:1009B0000240521E100B10210840C2405109082568
:1009C00029400391CA409108042529400191CA4059
:1009D000510802252940CA4055082B40029D039E1C
:1009E0008019019E80194018C018DA4080188000D4
:1009F00028580CE0100042689A43521ABA4201D2B9
:100A0000170004000269002AF4D10491406900280B
:100A100002D004990723EEE7002C00D135E10098BD
:100A200080680499401A874200D32EE1009800693B
:100A3000844200D227E17818039060680721884338
:100A40000399884201D000F0ABFE04982518AC420F
:100A500000D318E1A0690190E668A6420DD0A06815
:100A600000990969884226D3C168A14223D1B1689F
:100A7000A14220D1C660B0601FE02000143006689B
:100A8000002E07D1200010300668002E15D001E09E
:100A900008000668310014310A68002AF8D13100D4
:100AA00010310A68002AF3D100990969884202D3FB
:100AB0000021016001E000F073FE0198002841D0A0
:100AC0000298E1698900401801688C420BD10660E8
:100AD000002E17D1009840680121E26991408843B7
:100AE000009948602EE0019800990969884207D36F
:100AF0000069A042019801D1066103E0466101E06E
:100B000000F04EFE002E1DD000980069864217D3DB
:100B10000198B0612069002808D0009909698842CD
:100B200002D33061866101E000F03AFE606900287E
:100B300008D000990969884202D37061866101E09A
:100B400000F02EFE03210120102F09D2039A114339
:100B50006160211D039A89180A68104308608FE0BC
:100B6000049A11436160012139436960EF51F9082A
:100B70001F2920D8009ACB00D2182832019216469D
:100B8000009A12681300CB40034004D18840104300
:100B90000099086008E0B06800990969884201D3AB
:100BA000060001E000F0FCFD01988560F560AE6094
:100BB0000198E86064E0390A2AD00204914201D326
:100BC0001F2125E0FF22D2438A18120C08231A4065
:100BD00003929140004A01E000F0FFFF8A18120CD6
:100BE00004231A4001929140314A8A18120C0223C0
:100BF0001A400E23039E9B1B019E9B1B9B1A914038
:100C0000C90B59184A00C91D3B00CB400340D118FD
:100C1000029A8B00D218E96100236B612B61009B63
:100C20005B681E00CE40064005D1884018430099FD
:100C3000486015601EE012681F2901D1380006E0E7
:100C400019204908411A3800884000E01A0051680C
:100C500007239943B9421DD011001031C30F9B00E7
:100C6000C91840000B68002BF0D100980069814240
:100C700004D30D60AA61ED60AD6001E000F090FD6D
:100C80002000083002E000F08BFD002005B0F0BD30
:100C900004927CE69068009909698A42EED3884202
:100CA000ECD3C5609560A860EA600020A861E7E722
:100CB00000C0FFFFF3B585B0416848420840401EC0
:100CC000010B10221140C840420908231A40D040AD
:100CD000830804242340D840440802252C40E040E7
:100CE0008507ED0F059E98277F00F6190196891854
:100CF000C91809194919E84008188000305804003B
:100D0000416807229143069A8D1A1746072207E089
:100D1000080041689143C91BA94201D20D0004009B
:100D200001690029F4D140690028F2D105980069D1
:100D3000844200D2D7E060689043E919884201D02C
:100D400000F02EFDE0190390844200D3CBE0A069AF
:100D50000090E668A6420DD0A0680599096988420E
:100D600026D3C168A14223D1B168A14220D1C66077
:100D7000B0601FE0200014300668002E07D120006C
:100D800010300668002E15D001E00800066831001A
:100D900014310A68002AF8D1310010310A68002A9B
:100DA000F3D105990969884202D30021016001E06D
:100DB00000F0F6FC0098002841D00198E169890014
:100DC000401801688C420BD10660002E17D105989F
:100DD00040680121E26991408843059948602EE00E
:100DE000009805990969884207D30069A0420098D4
:100DF00001D1066103E0466101E000F0D1FC002E64
:100E00001DD005980069864217D30098B06120690B
:100E1000002808D005990969884202D330618661AB
:100E200001E000F0BDFC6069002808D0059909695F
:100E3000884202D37061866101E000F0B1FC0320BA
:100E4000102D09D2E91908436060201D401801687F
:100E500001220A43026043E03843606001202843D6
:100E6000211DC85103984551059880680290C60815
:100E7000202E01D300F094FC029800282BD0059876
:100E80004069009001960598F100471828373E0008
:100E90000298102801D200F083FC05980168012017
:100EA000019A0B00D340034004D1904008430599B8
:100EB000086008E0B86805990969884201D306000E
:100EC00001E000F06DFC0098B8600098F0600098B8
:100ED00086600098C7600598856003980599486109
:100EE0002000083002E000F05BFC002007B0F0BDFD
:100EF000F8B586B0060000BF00BF0124BA4DF52E3C
:100F000000D326E10B2E01D2102602E00B3607207B
:100F10008643F1082868C840032738424FD0012291
:100F2000824388180390280028300399C90040188C
:100F3000019086680398C00002907068072188437A
:100F40000299884201D000F02BFCB0680090019813
:100F5000864201D100F024FC0098864201D100F0C5
:100F60001FFC7068072188430299884201D000F075
:100F700017FC01980099884206D12968039A01203C
:100F80009040814329600FE008462969884209D3CF
:100F9000C068B04206D10098019988600198009914
:100FA000C86001E000F0FCFB029807437760301D49
:100FB0000299401801680C430460370007E1AA68F1
:100FC000B24200D3D8E0002800D1B8E001228A4024
:100FD0005200884053421343034059421940491E6E
:100FE000080B10221040C1404A0908231A400292FF
:100FF000D1408A0804231A400192D1404A080223B2
:101000001A400092D1404A082240029BC018019B1E
:10101000C018009BC0188018D140401803902800C9
:1010200028300399C9004018029080680090039806
:10103000C0000490009840680721884304998842C2
:1010400001D000F0ADFB00988068019000980299F3
:10105000884201D100F0A4FB00980199884201D197
:1010600000F09EFB0098406807218843049988425D
:1010700001D000F095FB02980199884206D12968B9
:10108000039A012090408143296010E008462969B5
:1010900088420AD3C0680099884206D10198029913
:1010A000886002980199C86001E000F079FB04981B
:1010B000801B0290374300984760029820430099B4
:1010C000091D8851009880190590029805990850CB
:1010D000A8680490C608202E01D300F061FB049894
:1010E000002826D068690190039628002830F10076
:1010F00047183E000498102801D200F051FB2868E0
:1011000003990200CA40224003D18C4004432C6062
:1011100007E0B8682969884201D3060001E000F0C1
:101120003FFB0198B8600198F060019886600198D3
:10113000C7600298A86005986861009F47E06868EA
:10114000002836D031002800FFF7B4FD070013D087
:1011500044E03F20C043864202D30026F6430BE022
:101160000B36072086436868002805D03100280028
:10117000FFF7AEFB070031D1AA68B24219D3931B27
:1011800068690321102B08D382196A61AB601C4384
:101190005460D3503143416009E00023AB606B6180
:1011A00011434160011D89180A6814430C6007004F
:1011B0000DE0E86886420CD2801BE860A9698A19B4
:1011C000AA61044354600320304348600F0008378D
:1011D00004E031002800FFF783FA070000BF00BFDA
:1011E000380007B0F0BD0000AC000020002800D19E
:1011F0007047F8B584B00838050000BF00BF3D4C0B
:101200002069854200D2B5E26868032103220240CA
:10121000012A00D1AEE2C708FF00EA1900920126B8
:10122000304241D12A68084000D1A5E2BF1850429F
:101230002D182069854200D29CE26069854200D168
:10124000EFE0D008202869D2A9680291E9680191ED
:1012500003900198854201D100F0A2FA02988542DC
:1012600001D100F09DFA6868072188430399C900FD
:10127000884201D000F094FA200028300399C90078
:1012800040180299814205D02269914243D3C9682E
:10129000A94240D10199029A91422DD12168039A25
:1012A00001209040814321600098854200D361E293
:1012B0004068304200D15DE2810700D5B3E100997A
:1012C000A269914200D0BCE0E068C019E060A5616D
:1012D00006436E6061698D4202D100216161A160A7
:1012E000E169814200D347E200212000FFF7B2FA12
:1012F00042E200BFAC000020814206D008462169CE
:10130000884208D38068A84205D10198D06002982D
:1013100001998860C8E700F043FAC5E7A869029020
:10132000E968A94210D0A8680191216988422CD3AC
:10133000C168A94229D101998968A94225D1019999
:10134000C1600199886022E02A001432106801907F
:10135000002805D12A00103210680190002816D00C
:10136000019801E00A001068010014310B68002B9D
:10137000F8D1010010310B68002BF3D101902069E6
:10138000824202D30020106001E000F009FA0298C6
:10139000002889D0982040002018E9698900401869
:1013A00001688D420AD101990160002915D1616857
:1013B000EA69012090408143616075E702982169E4
:1013C000884208D30069A8420198029901D10861B6
:1013D00003E0486101E000F0E3F90198002800D142
:1013E00062E720690199814295D30299019A91613E
:1013F0002969002908D0814204D30198016101982C
:10140000886101E000F0CCF96869002800D14BE761
:101410002169884200D27EE7019948610199816182
:1014200042E7009840680140032900D03CE7A760EC
:1014300000984068B043009948603E436E60EF51A9
:101440009AE16269914207D1A068C019A060656104
:1014500006436E6028508FE1072188433F18C0087B
:1014600020284AD20099896802910099C96801919F
:10147000039000980199884201D100F091F90098F9
:101480000299884201D100F08BF900984068072149
:1014900088430399C900884201D000F081F92000F7
:1014A00028300399C90040180299814208D0226966
:1014B000914200D2ACE0C968009A914200D0A7E006
:1014C0000199029A914206D12168039A0120904025
:1014D000814321609EE0814209D00846216988420B
:1014E00000D295E080680099884200D090E0019891
:1014F000D0600298019988608CE000988069029021
:101500000098C0680099884212D0009989680190BB
:10151000206981422DD3C868009A904229D1019850
:101520008068904225D10198C8600198816022E0CE
:10153000009A143210680190002805D1009A1032E8
:1015400010680190002816D0019801E00A00106888
:10155000010014310B68002BF8D1010010310B6829
:10156000002BF3D101902069824202D30020106049
:1015700001E000F015F9029800284BD098204000B7
:1015800020180099C96989004018009902689142A1
:101590000BD101990160002917D161680098C269D7
:1015A000012090408143616034E0029821698842C3
:1015B00009D30069009988420198029901D1086114
:1015C00003E0486101E000F0EBF80198002821D029
:1015D0002069019981421BD30299019A9161009976
:1015E0000969002908D0814204D30198016101985A
:1015F000886101E000F0D4F800984069002809D023
:101600002169884204D3019948610199816101E00F
:1016100000F0C6F8012038436860EF5160698542E8
:1016200008D1A760A8E0B043009948600120384382
:101630006860EF51F808202827D202902000283057
:101640000299C900401800900190102F01D200F0BB
:10165000A7F8206802990200CA40324003D18E40A8
:101660000643266008E0009880682169884201D31B
:10167000019001E000F094F8009885600198C56041
:101680000198A8600098E86076E0380A01D100224D
:1016900025E03104884201D31F2220E0FF21C94305
:1016A0004118090C0822114088403B4A8218120C4C
:1016B00004231A4000929040384A8218120C0223E8
:1016C0001A400E23591A009BC91A891A9040C00B60
:1016D00008184100C01D3A00C24032408A189820C4
:1016E00040002018910040180090EA6100206861D5
:1016F000286161680B00D340334007D196400E4308
:101700006660009805600098A8611FE0009909686C
:101710001F2A01D13A0006E0192352089B1A3A0009
:101720009A4000E031004B680726B343BB4227D004
:101730000B001033D60FB6009B1952001E68002E06
:10174000F0D12069834204D31D60A961ED60AD60D2
:1017500001E000F025F8206A401E20620CD1E42050
:101760004000205800E080680028FCD10020C043E1
:10177000206201E000F014F800BF00BF05B0F0BD2A
:101780008A6823699942E4D39A42E2D3D5608D6096
:10179000AA60E960A861DEE700F0FFFF00C0FFFF7C
:1017A00080B5012000F046F801BDFEE7124207D0E7
:1017B0008B0706D00B78491C0370401C521EF7D8CB
:1017C0007047830706D00B78491C0370401C521EDB
:1017D000F9D1704770B4103A03D378C9103A78C081
:1017E000FBD2530701D318C918C001D508C908C0D6
:1017F000D20704D30B880380891C801C002A01D5E2
:101800000B78037070BC704707490868002801D046
:10181000002070470548072290430860044991431F
:10182000091A0160704700BF60040020770600209D
:101830007008002080B500BF00BF024A11001820C8
:10184000ABBEFBE726000200F0B5A5B004000D001A
:101850002A9E00BF73A003C86F4603C7089506A859
:101860003B2146540020119004940392029313E00C
:10187000039C3500049F21780898B84708900028F9
:1018800000D1B5E01198401C1190641C6D1EF2D17E
:10189000049703988019039003980078252809D1AC
:1018A00000260B960C960D960E960F96109600211C
:1018B000039C0FE00021C9436A46039800F0F6FF3D
:1018C000060001D1119895E0D2D50126E1E701206B
:1018D00008430100641C20782028F8D023280CD06D
:1018E0002B2804D02D2804D030280AD084E00220F0
:1018F000EEE70A0004211143ECE708000821014348
:10190000E8E708001021FAE713960AE0139A444B1F
:101910009A4205DA93009A18520010183038139042
:10192000641C20780200303A0A2AEFD320782E284F
:1019300003D00020C043129027E0641C22782A2A9A
:101940000AD102980068029A10600268001D029B8A
:1019500018601292641C18E02D2A01D1641C00E06A
:10196000002212960CE0002A09D1129B2C4DAB42AA
:1019700005DA9D00EB185B00181830381290641CD3
:1019800020780300303B0A2BEDD306AD298727785A
:1019900026A0390000F09AFF002801D0641C00E066
:1019A00000273A202F54285C682804D12178682920
:1019B00001D1622005E06C2806D120786C2803D183
:1019C00071203A216854641C16A80A902378029A60
:1019D00006A9049800F068F8611C0391002807D15B
:1019E00016AA06A9049800F0F9F9002800D453E7D4
:1019F0000020C04325B0F0BD2A2885D10298026896
:101A000002601068121D029B1A601390002804D512
:101A1000424213920A0004211143641C86E700002D
:101A2000CBCCCC0C0000000000000000686A6C7495
:101A30007A4C00000B0062281CD068280DD06A2860
:101A400003D06C2823D0712821D11A68D21D072019
:101A500082431A6003CA1A607047002A1968196025
:101A6000086803D0091D196000B217E0091D19604C
:101A700080B217E0002A19681960086803D0091DB0
:101A8000196040B20AE0091D1960C0B20AE0002ADC
:101A900019681960086803D0091D1960C1177047DB
:101AA000091D1960002170477CB50C0011001E0053
:101AB00025693200253A00D14AE11C3A00D182E082
:101AC000121F022A00D87EE00E3A00D104E1521F14
:101AD00058D0093A77D0921E16D0521E34D0521EDA
:101AE000022A70D9121F2FD0521F00D194E0521E2B
:101AF00048D0521E00D1DEE0D21E00D1FAE0921E84
:101B000040D0D21E3ED029E13A22A25C6C2A09D0F4
:101B10006069421C62610A680A601368121D0A60EB
:101B20002B5425E10A680A601368121D0A600093AD
:101B300000210191C94321636A46210000F0D0F9D8
:101B4000002800D414E100E101223A20205CFFF7D4
:101B500071FF03C4083C002904DA6069411C61611B
:101B60002D210DE0208F810704D56069411C616142
:101B70002B2105E0C00721D56069411C616120214E
:101B800029541BE000223A20205CFFF753FF03C4D6
:101B9000083C3820205C000710D503CC083C002905
:101BA00001D100280AD020203043782806D160696E
:101BB00030212954401C411C61612E546069281851
:101BC000E060310084E00868C01D0722904308608F
:101BD0000CC808600CC4083C03CC083CC80F04D0F7
:101BE0006069411C61612D210DE0208F810704D5C2
:101BF0006069411C61612B2105E0C00704D5606963
:101C0000411C61612021295460692818E06031007D
:101C1000200000F081FAABE03B20205C002803D0DC
:101C20000024E44353A074E03A20205C622808D0EA
:101C3000682823D06A2812D06C282ED071280ED0A4
:101C40002BE00A680A601068121D0A60002803D1A0
:101C50000024E4434DA05CE0E16A017088E008687C
:101C600008600268001D0860002A03D10024E443D4
:101C700046A04EE0E06AC11703C279E00A680A6034
:101C80001068121D0A60002804D10024E44300BF3C
:101C90003EA03EE0E16A01806AE00A680A601068DE
:101CA000121D0A60002803D10024E44337A030E06D
:101CB000E16A01605CE0086808600268001D086075
:101CC0000020C0430021104003C4083CE560782197
:101CD000200000F069F94BE06C223A23E2540B68D3
:101CE0000B601A681B1D0B60002A29D10024E443F5
:101CF0002CA00EE03A22A25C6C2AF0D008680860A2
:101D00000568001D0860E560002D06D10024E4434D
:101D10002BA000F0E7FD201A76BD266B002E03D520
:101D2000280000F003FE09E032000021280000F046
:101D300005FE002801D0401B00E03000A06117E044
:101D4000210000F0CDF8002812D50020C04376BD58
:101D50006069411C61612521295409E06169481CC1
:101D6000606125226A54310002D0411C61612E5409
:101D7000002076BD7072696E74665F733A20256EBE
:101D800020646973616C6C6F776564007072696E52
:101D900074663A2062616420256E20617267756DF9
:101DA000656E74007072696E74665F733A2062616A
:101DB0006420256C7320617267756D656E74000018
:101DC0007072696E74665F733A2062616420257375
:101DD00020617267756D656E74000000F8B50600CD
:101DE0000C001700606B6169401A216A401AA169F2
:101DF000401A616A401AE169401AA16A401A0090CB
:101E00003820205C40070ED4009800280BDD0546E2
:101E10002021A068B047A06000285DD0E06A401C87
:101E2000E0626D1EF4D13A0063692100300000F0D9
:101E3000EDFC002850D1256A002D0ADD3021A06874
:101E4000B047A060002847D0E06A401CE0626D1EE9
:101E5000F4D1A369E2682100300000F0D7FC00282B
:101E60003AD1656A002D0ADD3021A068B047A06034
:101E7000002831D0E06A401CE0626D1EF4D1E369B5
:101E8000E068A16942182100300000F0BFFC002882
:101E900022D1A56A002D0ADD3021A068B047A060DC
:101EA000002819D0E06A401CE0626D1EF4D1382091
:101EB000205C40070ED5009800280BDD0546202148
:101EC000A068B047A060002806D0E06A401CE0622D
:101ED0006D1EF4D10020F2BD0020C043F2BD000011
:101EE000F8B5A6B004000D0016002F6B002F00D52A
:101EF000864F00F02FFD696B0A1800BF28A003C8A9
:101F000003AB03C3812A47D20020059400950290B9
:101F1000002F30DD03AA316801A800F0CCFC0500D9
:101F20003AD43068002801D16D1E35D4AF4222DB8F
:101F300000984069401981280CD30024009844631C
:101F400006AA00990598FFF749FF0290002812D4CD
:101F5000009844610098446906A82A0001A9001964
:101F6000FFF724FC6019009948613068002802D00E
:101F7000361D7F1BCCE7059B009C0298002804D1EE
:101F800006AA21001800FFF729FF002802D100212E
:101F90006161616327B0F0BD0020C043FAE7000033
:101FA0000000000000000000F2B586B004002569C2
:101FB0000A466F2A01D1082707E00846202101437D
:101FC000782901D00A2700E010273C2603CC083CE2
:101FD00004AB03C3642A01D0692A09D1002907DAB6
:101FE00004A803C800220023121A8B4104A80CC0C5
:101FF00004A803C8002920D100281ED1206B002886
:102000001BD1082F4ED13820205C00074AD53B2633
:10201000302046E000290ED53821615C14220A40A8
:10202000102A08D1616B6269891A226A891A081A12
:10203000002800DD206207B0F0BD0294009504A8DE
:1020400030C8761E0196200029003A00FB1700F0E8
:1020500086FC3032D0B23A2803DB6846007E513825
:10206000121800988255200029003A00FB1700F052
:1020700076FC04000D0001D1002C05D00298C06848
:10208000009989198842DCD3029C009D082F09D150
:102090003820205C000705D5A85D302802D0761EC8
:1020A0003020A8553C20801BA061A919E160216B5C
:1020B0008842AFDA081A2062208F15490140218733
:1020C000B9E7F8B50026134F04000D00009216E0A2
:1020D00001200099084007D032003B002000290071
:1020E00000F072FC04000D000098401000903000D9
:1020F000390032003B0000F067FC06000F0000983A
:102100000028E5D120002900F4BD0000FFFFFF7F7B
:10211000EFFF000000002440F3B593B005AA03C808
:1021200002AB03C314A80078202101430191612967
:102130000BD01398006B002801D5062003E004D1D2
:10214000672902D1012013990863139803C84C0032
:102150006415641C13D10B0311D0032013998861FB
:1021600014A8007861381A2804D255497944FF31FF
:10217000513116E053497944FF314B3111E04C00A5
:102180006415641C13D10B0311D1032013998861CA
:1021900014A8007861381A281BD34B497944FF31C1
:1021A000293103221398C068FFF700FBC9E110AB87
:1021B00003C391A6C0CE10A803C8394080256D0383
:1021C000A9420BD20023009310AB30CB6040694092
:1021D0000EE03E497944FF310B39E2E7080D884CA7
:1021E0002418009410A803C8874D0D408549294341
:1021F000139B03C30198612813D11398C068302141
:102200000170811C139BD96014A90978612901D13F
:10221000782100E05821417013984069801C13997F
:102220004861139830C826402F4005D1002E03D1B5
:1022300000206B4698807BE10198612800D0A9E0DE
:102240001398006B002801D5212000E0401C01906C
:10225000019F7F1C02A803C80022002300F076FC27
:1022600002D28020000645400098001F0090694679
:102270000A7505A8461C002F00DC68E12000290033
:10228000002280235B0300F07AFC00D95FE1690043
:102290004A0D11001C31002A1AD0002918DDB74A56
:1022A000914206DB100529008022120611400143ED
:1022B00012E0554A2A400805104305000EE000BF11
:1022C00048380000483800004C380000443800000E
:1022D000290080221206114000240D002000290050
:1022E00000F066FC0290FF1F002F09DD00F09AFC51
:1022F00002000B002000290000F0FBFC04000D0090
:10230000F01D0721029A04E0401E0F2313400370C2
:102310001211002A01DD491EF6D5491E00D512E131
:10232000401E00220270F8E70023040005AD2D19BD
:1023300001E0401E6D1E641E2E789E42F9D00F2BC8
:1023400004D14B1C1B5D5B1C491C0B55002C04D598
:1023500005AA401C0099091D0091431E11D4D418F0
:1023600014A9097825783035EEB2392E02DD0E0039
:102370003A3EAD1925705B1E641E002BF2D514ABDE
:1023800019701399096B002900D4CEE0411E139BEC
:102390001963CAE002A803C80022002300F0D6FB9C
:1023A00006D202A803C880221206514002AA03C224
:1023B000009873494843734900F028FD00900720B6
:1023C0000099401A049005DD024602A803C8FFF7F1
:1023D00078FE0AE0424200206B49FFF772FE0200DD
:1023E0000B0002A803C800F06BFD019A662A0DD10C
:1023F000009A0A320BE000BFFFFFFFFFFFFFFF7FE5
:1024000002FCFFFF0000E03FFFFF0F800622139B4E
:102410001B6B9A18142A00DD142230236C46237596
:1024200005AB5C1C02E002A803C8049A002A3CDD4C
:1024300002AB03C3049202A803C800F0CBFB0F90C9
:1024400006460834042530000A2100F0E2FC0F00A3
:1024500030000A2100F096FD06003037601E07703C
:1024600030000A2100F0D5FC0F0030000A2100F0F6
:1024700089FD0600A41E303727706D1EE3D1083495
:102480000498083804900028CDDD0F9800F0BAFBBE
:1024900002000B0002A803C800F02BFC00223B4BFB
:1024A00000F092FA02AA03C2C5E705A8401C211A4F
:1024B00005A8421C009802E0491E401E521C1378D9
:1024C000302BF9D000900198662802D10098401C6A
:1024D00005E00198652801D1012000E00020139B50
:1024E0001B6B1818814200DA481E00281DD4884250
:1024F00004DA115C352901DB392300E030230400C4
:10250000511E0D1901E0401E6D1E641E2E789E4264
:10251000F9D0392B02D1135D5B1C1355002C04D567
:102520000A00401C0099491C009169468880009867
:1025300000B20090019B1BB214A80178139800F020
:1025400027F815B0F0BDC61D002F00DD96E605A9E1
:10255000481C331A05A8421C0198834200DC18006D
:10256000002800D50DE7984200DBDDE64B1C1B5C24
:10257000072B00DCD8E60F23D7E60000FF0700009A
:1025800097750000A08601000000F03F84D79741B6
:10259000F6B583B006000F001C0000F091F9694603
:1025A000406A00780870356B002C03DC012400BF02
:1025B000A3A0049020203843662803D10A9F3FB28D
:1025C0007F1C1AE0672800D085E00A9800B203213A
:1025D000C943884200DA82E0A84200DB7FE00A9F1C
:1025E0003FB27F1C3820305C000702D4AC4200DAD6
:1025F000250038B22D1A00D50025B169F0684018C1
:102600003AB2002A26DC491C30220270002D03DC7D
:102610003820305C000704D568460078F2685054D2
:10262000491CB16138B241428D4200DA6F423FB27B
:1026300078427062ED19A54200DA2C0024B2F461F0
:1026400022000499F068B369C018FFF7AFF8281B9F
:10265000B062C3E0944218DA22000499FFF7A6F8AA
:10266000B0690019B0613FB2391B7162002D03DC03
:102670003821715C090706D569460978F26811545A
:10268000F069401CF061B562A8E00499FFF78EF88C
:1026900038B2B1690918E41B002D03DC3822B25CA2
:1026A000120704D56A461278F3685A54491CB1617E
:1026B00021B28D4200DA2C0022B204990918F06888
:1026C000B369C018FFF772F824B2B0690019B0619D
:1026D000281B706282E0612F11D1702712E0AC429A
:1026E00004DA3821715C090700D425006D1E00D57D
:1026F0000025672F01D1652704E0452702E0412F1F
:1027000000D15027B069411CB161049A1278F36876
:102710001A540498401C0490002D03DC3820305CCF
:10272000000718D5481CB0616A461278F3685A54FD
:10273000002D10DD641E21B28D4200DA2C0022B281
:102740000499F3681818FFF731F824B2B06900193A
:10275000B061281B7062F068B169401807700A996F
:1027600009B2002904D42B214170801C049006E09A
:102770002D224270801C049048426946088500243E
:102780006D460A9800B205E00A2100F03FFB29706F
:10279000641C6D1C00B20028F6DC012C09DC202032
:1027A0003843652805D13020049908700498401CEE
:1027B0000490002C28D13020049908700498401C03
:1027C00007E0641E6946095D30310170401C002C31
:1027D000F7DCF168B2698918401AF0613820305C82
:1027E0001421014010290DD17069B1694018716A36
:1027F0004018F1694018B16A4018716B884201DADB
:10280000081A306205B0F0BD0498E0E7F8B507009B
:102810000020002B12D00E0014001D002178B0689B
:10282000B847B060002807D0F06A401CF062002072
:10283000641C6D1E02D0F1E70020C043F2BD000011
:102840003000FEE71F48704730B45368D418042B9B
:102850000BDA002909D0057825700578002D04D001
:102860005B1C491E641C401CF1E7536030BC704780
:1028700038B500290ED01D001400FFF7E5FF616890
:1028800020006A6B90470122D243811A02D0491E70
:1028900002D004E0012000E00020C04332BD00214E
:1028A000616032BD80B5DA6B904702BD80B5054BE3
:1028B000FFF7DEFF02BD80B5024BFFF7F3FF02BD5D
:1028C00001487047640000202C00002000BFC9B2FE
:1028D00000E0401C02788A4202D0002AF9D1002090
:1028E0007047FEE780B5002801D100BF07A0064968
:1028F0000B68002B03D022220021984701E0FEF74D
:102900004FFF222002BD000064040020636F6E733D
:10291000747261696E742068616E646C65723A20CD
:10292000626164206D65737361676500010000E09A
:10293000491C0A78002AFBD1081A7047C9B201E085
:10294000401C521E002A03D003788B42F8D17047F6
:102950000020704780B5FFF775FF006C02BD124282
:1029600024D0994228D970B500251B4202D00C0012
:10297000002109E00024012649186441944200D353
:10298000A41A7641F8D33100012601E0764109D23C
:10299000001864416D41A41A9D41F7D2A4185D410D
:1029A000B619F5D3300022002B0070BD1B42D8D1E0
:1029B00008B500F003FB08BD01D19042D3D202005C
:1029C0000B00002100207047F0B50E005E4001258D
:1029D000ED072E40B446AE0ADF184C18F44208D278
:1029E000F7420ED2640D01D07F0D12D10020614656
:1029F000F0BD05D1F74201D87F0D05D10020C143BC
:102A0000F0BDFBD1640DF9D00020C1434905490850
:102A10008FE0E419C902DB0229432B43DB0A460D90
:102A2000C00231438E4630B487B295B27D432E0C3E
:102A3000ADB2140C7C43A419260C240425439CB28B
:102A40007C43A419190C7943270CC919A4B20F04AB
:102A50003C43090C000C97B247432E0CBE1935437A
:102A6000ADB2170C4743360CBF19A6B2BF193E04CE
:102A70003543240C3E0C36199FB24743BF19BCB2F4
:102A80003E0C89191F0C47437F183E043443390C10
:102A9000704680B297B247432E0CBE193543ADB293
:102AA000170C4743360CBF19A6B2BF193E04354375
:102AB000240C3E0C36199FB24743BF19BCB23E0CE2
:102AC00089191F0C47437F183E043443390C77465D
:102AD0003F0C90B278432E0C80190604ADB22E4301
:102AE000050CA0B22D18120C7A435019020C80B2BA
:102AF000240CA4189AB27A43121914042043120C1D
:102B000089181B0C7B43C91830BCEF0A394203D12A
:102B1000B61940414941641E6F12BF0DE41B0BDB27
:102B2000FF19BC4211DA240500274208AE41784162
:102B3000614166463143F0BD641C05D1401C6141D2
:102B4000CF0201D34908F4E750E75DE730B4012430
:102B500064054D00EC420BD85D00EC4208D80C0037
:102B60001C4364000443144304D2994200D19042B0
:102B700030BC7047FCD08B42FAD18242F8E730B4C7
:102B8000012464054D00EC420BD85D00EC4208D8EE
:102B90000C001C4364000443144304D28B4200D154
:102BA000824230BC7047FCD09942FAD19042F8E79B
:102BB000F4464A1805D200F00FF801D580174008F6
:102BC000604700F009F80121C907884200D90800D0
:102BD000404260474A1812D2400DC9020843012101
:102BE000C9070843520D40210901521A521C06D44C
:102BF00052421F3201D4D0407047C01770470020A6
:102C00007047FEE7010042221201D21E004207D0A7
:102C100002D4521E0018FCD5C10A400512058918BD
:102C2000704700000100EED54042F446FFF7EBFF8D
:102C30000122D207114360478B4200D1824205D95D
:102C40008446100062468C4619006346DF184C1813
:102C5000640D7F0D3AD0661C760537D0E61B352E05
:102C600034DCDB022B43DB0A0C0DC9022943C912F9
:102C7000202E0DDB1700203E06D01F00F741F34049
:102C80005F400026012A7741C01871410DD217E03C
:102C90001700F741F2405740F3415A40B340F34028
:102CA0005A400026801859410AD3A21C52050FD061
:102CB000C207012F724117004008CB07184349088B
:102CC000641C24054208AF4170416141F0BC70476B
:102CD000641C21050020F9E76B4010E06B40ABE776
:102CE000F742F3D1E943F1E72442EFD1002000217C
:102CF000ECE7F0B40125ED070F005F40EED40C00C7
:102D0000871A9C4105D2C01BA141D2196341694079
:102D10006B40AE0ADF184C18F442E1D2640D7F0D0F
:102D2000E2D0E61B362ED1DCDB022B43DB0AA446C5
:102D30000C0DC9022943C90A012E28DC04D1D6078B
:102D40005208DF073A435B08EF0A76429041994107
:102D500014D039423BD1B61940414941761C394221
:102D600004D1761C001849413942FAD0B94367466C
:102D7000B74208D9A41B24052143A7E70042EAD1A2
:102D80003642E8D1A2E7E40AE10700209EE7202EC0
:102D90000BDD203E1F00F340F7415F40012A002277
:102DA00057417E42984191410BE01700F741F240B4
:102DB0005740F3415A40B340F3405A407E4290415D
:102DC00099410A0303D2641EB619404149410027C4
:102DD000641E24054208AE4178416141F0BC704751
:102DE000F446002804D4494200F013F840426047FA
:102DF0004042002905D45FD000F00BF84042494220
:102E00006047494200F005F84942604703460B43DA
:102E1000E6D40022030A8B420BD203098B4219D25B
:102E200043088B422ED2411A00D20146524110462D
:102E30007047FF2209023FD012068B4205D31212BF
:102E400009028B4201D31212090203098B4219D3E2
:102E500000E0090AC3098B4201D3CB01C01A5241D9
:102E600083098B4201D38B01C01A524143098B4223
:102E700001D34B01C01A524103098B4201D30B010C
:102E8000C01A5241C3088B4201D3CB00C01A524131
:102E900083088B4201D38B00C01A524143088B42F6
:102EA00001D34B00C01A5241884200D3401A52410C
:102EB000CFD201461046704708B500F081F808BD32
:102EC000F0B40E005E400125ED072E40B446AE0A78
:102ED000DF184C18F4423BD2F74241D2640D43D084
:102EE0007F0D38D0E41BC902DB0229432B43CF0AF4
:102EF000DB0A0600B61A9F4104D2641EB6197F4150
:102F0000B6185F416812800D24180018844222DA36
:102F1000E80C0021B6197F41B61A9F4102D2B618BB
:102F20005F413F1C40414941F4D3241C21DD24056D
:102F3000B6197F41B61A9F4105D33743C6073743B9
:102F40000026012F7041614166463143F0BC704755
:102F5000FCD1F74205D20020C14349054908F3E7F7
:102F600004D00020C143F1E77F0DFAD00020614674
:102F7000ECE72442FAD1401C61410F03F6D3002054
:102F8000E2E7FEE7094214D088420FD30122030C86
:102F900001D100041204002300185B418B4200D3CE
:102FA0005B1A5241F8D3190010007047010000204D
:102FB000704708B500F004F808BDFEE77047FEE76B
:102FC0007047FEE7F8B5040001D10120F2BD0025ED
:102FD000A5625C304078002804D15C216554200053
:102FE00000F054FC20005C300223437021680A6822
:102FF0004026B2430A60E1680091E026F600B14243
:1030000006D90021009AF0273F01BA4204D104E01A
:10301000D902009AB24200D0A5620122276B002F8C
:1030200005D1009FB74201D9236300E022636368A2
:10303000A6681E432769374363693B43A669570265
:103040003E401E43E3693343266A1E43A36A33436B
:1030500026683360A3691B0C04263340666A1E434E
:10306000636B3343E6681E4331432368596021682C
:10307000CB696D4C1C40CC61456042700020F2BDB4
:10308000FCB583B004000F001500002069460870ED
:1030900020004430007E012801D10220C1E026003A
:1030A00044360120307600F02DFC02210191717E22
:1030B000012901D00220AAE03E0000D0290000D161
:1030C000A4E02100443103224A760022CA61A663AB
:1030D000A587E58722640A804A80CA608A60A16861
:1030E00080221202914205D121680A688023DB0107
:1030F00013430B60216840220B68134002D10B6818
:103100001A430A60049D61680022D2430292E26879
:10311000A84B9A4227D3002902D0E18F012906D17A
:1031200031882268D160B61CE18F491EE187070013
:1031300005E03188C160B61CE08F401EE087E08F5B
:10314000002849D020688168019A0A40F1D1002DF9
:1031500007D002988542F2D000F0D4FBC01BA842F1
:10316000EDD3032053E0002902D0E18F012909D1DA
:103170002168E28F022A07D33288CA60B61CE18F29
:10318000891EE18707000BE032780A73761CE18F15
:10319000491EF6E73188C160B61CE08F801EE087CB
:1031A000E08F002818D020688168019A0A4008D072
:1031B000E18F0229EED231780173761CE08F401E38
:1031C000EDE7002DCDD002988542E9D000F09AFBC2
:1031D000C01BA842E4D3C4E729003A00200000F055
:1031E00008FB002803D0202021004431C861A068DA
:1031F000002806D101902068C16801918068019083
:10320000019820004430C069002802D0012069469E
:103210000870200044300121417600210176684683
:10322000007805B0F0BD0000FFF7FFFFFAB583B0EE
:103230000400170000206946087025004435042664
:1032400060688221490088420CD1A068002809D119
:103250006E76049800903B00039A1146200000F01F
:10326000ADF8A5E0287E012801D10220A0E00120D0
:103270000190287600F046FB697E012901D00220EA
:103280008CE00399002901D0390001D1019885E033
:10329000210044314E760022CA61039B23640F80D3
:1032A0004F80A263A287E2878A60CA602268414990
:1032B000E3688B42536802D3694D1D4001E0B502BB
:1032C0001D435560A26873039A4204D122681368B3
:1032D000394D1D4015602268402315681D4002D1FC
:1032E00015682B4313600022D2430292120C6B46E6
:1032F0005A80E2688A42039E049D3CD2070007E0A0
:10330000097B3170761C41886A4652888918418051
:1033100020004430418800292FD021688A68019B11
:103320001340EDD1002D07D002988542F0D000F077
:10333000E9FAC01BA842EBD303202FE0C968318013
:10334000B61C41886A465288891841802000443062
:103350004188002911D021688A68019B1340EDD172
:10336000002DE9D002988542F0D000F0CBFAC01BC6
:10337000A842EBD3E0E70700E8E729003A00200085
:1033800000F0FBF9002803D0202021004431C8615F
:1033900020004430C069002802D00120694608702E
:1033A00020004430012141760021017668460078F2
:1033B00005B0F0BD01070000FFBFFFFFF3B585B00A
:1033C000070014001E0001200490002069460870C8
:1033D0003D004435287E012801D1022027E101204B
:1033E000287600F08FFA0290687E01280BD0796869
:1033F00082225200914204D1B968002901D10428E7
:1034000001D0022009E10698002803D00394002C83
:1034100000D0310000D1FFE0697E042901D00521F0
:1034200069763900443101910021E961039A3A64D7
:10343000019A5680019A1680B863FE87BE87019A6A
:103440009160019AD1607B4AF968914203D2019957
:103450004988022906D339684B68014C1C4006E0B4
:10346000FFEFFFFF39684B68802464011C434C6008
:10347000396840230C681C4002D10C6823430B6060
:103480000C997B68FC68944247D3002B02D0FA8FDA
:10349000012A06D102883B68DA60801CFA8F521E2E
:1034A000FA870600039C0C91049DF88F002804D134
:1034B00001984088002800D19EE0002D0DD0F88FA3
:1034C00000280AD038688168890706D53188C1602C
:1034D000B61CF88F401EF887002501984088002808
:1034E0000DD0396801208A68024008D0C96821805F
:1034F000A41C01994988491E019A518001250C9804
:103500000021C9438842D0D000F0FCF90299401A4A
:103510000C998842C9D303207FE0002B02D0FA8F98
:10352000012A09D13A68FB8F022B0AD30388D360A2
:10353000801CFA8F921EFA870400039D0C91049E52
:1035400040E003781373401CFA8F521EF3E7227891
:103550000A73641CF98F0918F987002601994988B4
:10356000002923D03A68012193680B401ED0019BAB
:103570005B88022B11D3D0682880AD1C019840884D
:10358000801E019A50800198408802280DD2386828
:1035900042680B031343436007E0127B2A706D1CE3
:1035A000019A52881018019A508001260C98002127
:1035B000C943884206D000F0A5F90299401A0C9937
:1035C0008842A8D2F88F002803D1019840880028AB
:1035D00012D01948002EC1D0F98F0029BED0396809
:1035E0008A689207BAD5FA8F022AB0D32288CA60B5
:1035F000A41CF98F891EAFE70C99029A380000F0DD
:10360000F8F8002803D0202039004431C861380080
:103610004430C069002802D0012069460870380093
:10362000443001214176002101766846007807B0D8
:10363000F0BD000001070000FFFF0000FEB51F0005
:10364000089B002401250600009101920893306830
:103650008068009901400098814201D1012000E07A
:1036600000200199884234D00020C0438742EED028
:10367000002F05D000F046F90899401AB842E6D369
:1036800030684168E02291434160706882214900BE
:1036900088420BD1B068E903884202D049098842C8
:1036A00004D1306801684022914301606803B16A27
:1036B000814208D131680A68614B13400B60316860
:1036C0000A681043086030005C30457004700320C5
:1036D000FEBD0020FEBDF8B50F00069904001500E0
:1036E0001E000691206881683940A94243D0C0215C
:1036F000C9008F4206D1002D04D1007B69460870B5
:10370000684600780020C0438642EBD0002E05D0EA
:1037100000F0F8F80699401AB042E3D320684168F7
:10372000E0229143416060688221490088420CD1C7
:10373000A06880210902884202D04909884204D148
:103740002068016840229143016080208001A16AC5
:10375000814208D121680A68394B13400B60216807
:103760000A681043086020005C300121417000218C
:1037700001700320F2BD0020F2BDFEB504008027D9
:103780003F02822676006068B0420AD1A068B84243
:1037900002D07B09984204D1206803684025AB43DE
:1037A000036001920291202501980090029B002263
:1037B00080212000FFF742FF002813D16068B0424B
:1037C00015D1A068B84202D0690188420FD1019892
:1037D0000090029B0022C021C9002000FFF77BFF60
:1037E000002804D0206E054325660320FEBD00207E
:1037F000FEBDF8B504000F001600202500963B0022
:103800000022C0214901FFF766FF002812D100966F
:103810003B00002280212000FFF710FF002809D183
:1038200000963B000022C021C9002000FFF753FF93
:10383000002803D0206E054325660320F2BD00005A
:10384000FFDFFFFF80B52148214901608221490047
:10385000416000218160E022D200C26001614161CB
:103860008022920082611822C261016241628162FB
:103870000722C262016308214163FFF7A3FB00280E
:1038800003D0472114A000F0E3F801BD00681049FF
:10389000884200D0704780B586B0880C0D490A6810
:1038A00002430A600968084000900098E0200190F7
:1038B000022002900020039003210491059001A9A9
:1038C0009020C00500F0D2F807B000BD5C030020D6
:1038D0000030014018100240443A5C4F6E6544725B
:1038E0006976655CE694B6E58F91E599A85C6669B2
:1038F000726D776172655C5372635C7370692E637D
:103900000000000001480068704700BF5C04002010
:10391000F8B500F099F900F01BF800F0A5F900F0F7
:10392000E3F9FFF78FFF00F06BFA474800F027FA42
:10393000684600BF47A11022FDF74CFF012000F0B0
:1039400090FB0F21684600F0F9FB00F037FCFCE724
:1039500070B598B011200B9001240C941094102095
:103960001190022614960003159000011690002570
:1039700017950BA800F084FC002800D0FEE7072074
:1039800000900196029503950121684600F09EFE85
:10399000002800D0FEE70494069504A800F0A4FFD8
:1039A000002800D0FEE700F069FFFA218900FFF748
:1039B000E9FA01F05FF8042001F070F8002200211C
:1039C0000020C04301F04BF818B070BD3EB5694609
:1039D00000220A6001A900230CC11C4D010008311E
:1039E0000A782A704A786A702988002920D0002431
:1039F000002001238340DBB20B4209D1401C0A287E
:103A0000F7DB2C8004219020C00500F0FFF837BDC3
:103A10006A46890B117050706420907003226946C9
:103A2000E13000F0B9F929880EA000F02EFAE8E79D
:103A30000822010001A8FDF7B9FE082201A9A22071
:103A4000400000F0A9F937BDC00300206804002041
:103A5000FEE7000010101010110000000000000030
:103A6000000000002578200D0A000000F0B585B0A8
:103A70000A0000230F210491010031E0052403E036
:103A800069488142FAD10424AC403443029804606E
:103A900066480568019EF44325405668F60302D542
:103AA0002E00019D35430560456825405668B603E4
:103AB00002D52E00019D3543456085682540566836
:103AC000F60202D52E00019D35438560C5682C4065
:103AD0005568AD0202D52500019C2C43C4605B1CD7
:103AE00010680400DC4000D186E0012401259D40DF
:103AF00003950540019501980028F0D068469D0087
:103B000045705068022801D0122811D1D8088000D1
:103B10000D18286A6E4677781C263E40049FB740F1
:103B2000B8431769BC4637006646BE4006432E625E
:103B30000D6868465E00067003206E4637780326DF
:103B4000BE40F74302973E462E40556805406F46FB
:103B50003F78BD4035430D605568012D05D0022DDD
:103B600003D0112D01D0122D11D18E68029D354048
:103B7000D6686F463F78BE402E438E604D68039EE8
:103B8000B5435668360926409E402E434E60CE68A7
:103B9000029D354096686F463F78BE402E43CE600A
:103BA0005568ED009BD5224D2E6826432E602D686A
:103BB00025400295029D1F4D9E08B600AD19029545
:103BC0002E686D466F780C253D40049FAF40BE4384
:103BD0009027FF05B94201D1002455E7164FB9429D
:103BE000FBD0164CA14201D102244DE7144CA14256
:103BF00000D045E7032447E705B0F0BD81B0002AB7
:103C000001D0816100E0816201B0704742694A40A1
:103C1000426170470B4A1368034000D1704780B57A
:103C2000106000F05DF801BD001000480004014084
:103C30001810024008000140000400480008004835
:103C4000000C00481404014080B5064801681022A9
:103C50000A430260002000F03AFF00F04BFF002012
:103C600002BD00000020024010B586B08021C903CB
:103C70001A4802680A4302600268114000910099E4
:103C80008021890202680A430260026811400091A3
:103C900000998021C90202680A430260006801405D
:103CA000009100989024E40500221C212000FFF7D9
:103CB000A5FF1C2001900120029000200390049099
:103CC00001A92000FFF7D2FE00220121072000F009
:103CD000C6FE072000F0C7FE06B010BD141002405B
:103CE00080B500F0A3FA01BD80B5364836490160C1
:103CF0000421416000218160C160A022D2020261E2
:103D00008022D203426181610122C261016241626B
:103D10008162C16200F016FF002804D0452100BF77
:103D20002CA0FFF795FE01BD00682749884200D00E
:103D3000704780B586B08020800424490A68024319
:103D40000A600968084000900098C0204001019076
:103D5000022002900020039003200490042005908C
:103D600001A99020C005FFF781FE002202211E203C
:103D700000F075FE1E2000F076FE07B000BD14496D
:103D8000FF2246320A600022CA608A6003220A616A
:103D900001631C3141637047092A00DB704770B52D
:103DA00004001500074E306B1430FDF7FFFC306B3C
:103DB00005610460FA218900300000F060FF70BDE9
:103DC00000000000C0030020006400401C100240FE
:103DD00004040020443A5C4F6E6544726976655C69
:103DE000E694B6E58F91E599A85C6669726D776196
:103DF00072655C5372635C63616E2E630000000049
:103E000080B52E482E490160E12149024160002120
:103E10008160C16001610C2242618161C161016206
:103E2000416201F0C1F9002803D0442126A0FFF728
:103E30000FFE01BD00682249884200D0704780B55E
:103E400086B08020C0011F490A6802430A600968E1
:103E5000084000900098C020C0000190022002900D
:103E600000200390032004900120059001A99020D8
:103E7000C005FFF7FBFD002201211B2000F0EFFD34
:103E80001B2000F0F0FD07B000BD0EB418B5020015
:103E900003AB0A4C65212000703001F0DDFCFA23F1
:103EA0009B0082B221007031200001F0B1F901B015
:103EB000019810BC04B000470000000084020020FC
:103EC0000038014018100240443A5C4F6E6544725D
:103ED0006976655CE694B6E58F91E599A85C6669BC
:103EE000726D776172655C5372635C757361727435
:103EF0002E63000080B503000A009020C005190061
:103F000001D1102102E0012B02D10821FFF776FE3A
:103F100001BD11B583B00020694608710021FFF78B
:103F2000E9FFA54C322000900123B74A03A92000E5
:103F3000FFF744FA3223012201A92000FFF776F9A6
:103F400001210020FFF7D6FF6846007904B010BDBC
:103F500032B582B004002020204369460871002158
:103F60000020FFF7C7FF944D322000900123A64A9E
:103F700001A92800FFF722FA3223012202A9280012
:103F8000FFF77EF801210020FFF7B4FF200007288B
:103F900009D0402807DAFFF7BCFF6946097A884252
:103FA00001D000203EBD01203EBD71B581B00E00A4
:103FB000150000210020FFF79DFF7F4C322000906C
:103FC0000123914A01A92000FFF7F8F932232A00C2
:103FD00031002000FFF72AF901210020FFF78AFFB6
:103FE00073BDF2B582B0050014002000FCF780FF1D
:103FF0000600202028436946087100210020FFF7B1
:1040000079FF6D4F3220009001237F4A01A93800CB
:10401000FFF7D4F9322000902300320002993800D3
:10402000FFF7CCF901210020FFF764FF22003100E7
:104030002800FFF7BAFF402D0EDA0021029800E0B9
:10404000491CA14208DA725C435C9A42F8D0300005
:1040500001F022FC0020FEBD300001F01DFC01201B
:10406000FEBDFEB501260627694601228240521E8A
:10407000CA7002900871804C7F1E52D020780221B5
:1040800001430020FFF764FF05000A2001F008FC4F
:1040900001210120FFF75CFF694688700F21042091
:1040A000FFF756FF6946487000210520FFF750FFD3
:1040B000694608700A211120FFF74AFF694689788E
:1040C00029406A4652780A406946097811400840FA
:1040D00005000E210620FFF73BFF0100294031407B
:1040E0000E00029806281CDA68460079607068465F
:1040F000C1780220FFF72CFF05002078032101433F
:104100000020FFF725FF284005000521201D00F0B5
:104110000AF8010029403140080001D10126ABE72F
:10412000FEBD0020FEBD80B5052901D0002002BDE6
:10413000052201001020FFF754FF02BDF8B501264B
:104140000F2901D00020F2BD002405004A48407824
:1041500084420DDA0522A0000019291820000A3037
:10416000C0B2FFF73EFF30400600641C012CEDDDBD
:104170002C000025404F787802280BDD6019817AE9
:1041800028000C30C0B2FFF7E3FE304006006D1C83
:10419000032DF0DD3000F2BD80B5002902D0010012
:1041A0000820084334490A78104308700100FFE7EB
:1041B0000020FFF7CDFE01BD5C03002010B50121FA
:1041C0000120FFF797FE01210320FFF7E5FF0E4CCA
:1041D0002078402816DB0A22210010316120FFF7E9
:1041E000E4FEFF210720FFF7B3FE00210120FFF7C7
:1041F00081FE0021E220FFF7ABFE0A2120001030F3
:10420000FFF7E4FB10BD00000C00002080B500218A
:10421000E220FFF79DFE01210120FFF76BFE012147
:104220000320FFF7B9FF40210720C2E710B50720A0
:10423000FFF76FFE114C2070402804DAFF210720A1
:10424000FFF786FE10BD0A22210010316120FFF722
:10425000ACFEFF210720FFF77BFE012001F020FBD1
:104260000021E220FFF774FE0A2120001030FFF742
:10427000ADFBFFF7CBFF10BD000000200C000020BD
:10428000F1B582B0914C0078C00700D435E10C2123
:104290008025AD026068084004280AD0680862687A
:1042A000114008290ED16168C02252020A408242A0
:1042B00008D12068054034D002984068002822D1F7
:1042C0000120FEBD02994A68012A09D08049814B2C
:1042D000002A09D0052A07D1216882000A432260FA
:1042E00021680843206005E02068034023602068BF
:1042F000014021600298406800280DD0FFF702FBC2
:1043000006002068284000D0F7E0FFF7FBFA801B8A
:104310006528F6D30320FEBDFFF7F4FA06002068F7
:10432000284000D1E9E0FFF7EDFA801B6528F6D3BD
:10433000F0E7FFF7E7FA801B022800D813E1E9E76E
:104340000298C068002820680FD001210143216035
:10435000FFF7D8FA06002068800700D5EBE0FFF7EA
:10436000D1FA801B0228F6D9D4E7012188432060C6
:10437000FFF7C8FA022706002068384000D1E1E0C4
:10438000FFF7C0FA801B0228F6D9C3E70121884352
:104390006062FFF7B7FA02270600606A384000D172
:1043A000E5E0FFF7AFFA801B0228F6D9B2E7042058
:1043B000C0430122D24300290AD0052908D1206A2E
:1043C000042101432162206A01210143216205E0A9
:1043D000216A0A402262216A0840206202988068AD
:1043E00000280FD0FFF78EFAB74900910600206A27
:1043F000800700D5EAE0FFF785FA801B0099884224
:10440000F5D387E7FFF77EFAAF4900910600206AEF
:10441000800700D4DAE0FFF775FA801B0099884224
:10442000F5D377E7FFF76EFA801B022800D8E9E0A2
:1044300070E7FFF767FA801B022800D81AE169E7E6
:104440000421C9438842606B02D101406163DDE011
:10445000042101436163606B012188436063FFF7BE
:1044600051FA02270600606B384000D1D5E0FFF713
:1044700049FA801B0228F6D94CE70298006A002806
:1044800011D080277F02606B38436063FFF73AFAF0
:104490000600606B384000D0D9E0FFF733FA801B8C
:1044A0000228F6D936E7606B0A4901406163FFF7DD
:1044B00029FA80277F020600606B384000D1C6E0F1
:1044C000FFF720FA801B0228F6D923E700100240EC
:1044D000FFFFFBFFFFFFFEFF01402160FFF712FA25
:1044E0008027BF0406002068384000D1EAE0FFF7CB
:1044F00009FA801B0228F6D90CE70C250220029944
:10450000096801401ED0F827FF43616829400AD09E
:1045100061682940082904D161686A030A4081035F
:104520008A4200D00CE72168084004D00298C06895
:10453000012800D0C4E62068074002980069C00046
:104540003843206002980078000710D50298C069AF
:104550000028606A00D119E7012101436162FFF779
:10456000D1F902270600606A384000D1E1E60298DE
:104570000078400730D5002780204005E1690140E0
:1045800007D1E1690143E161E169084000900098C9
:104590000127A4480068C00511D4A2480168820D13
:1045A0000A430260FFF7AEF906009E480068C005A6
:1045B00005D4FFF7A7F9801B6528F6D3AAE6029871
:1045C0008168012900D0F2E6206AFEE6002F03D0C0
:1045D000E06995490140E16102980078C0061CD568
:1045E00002984069F827FF43012800D028E7606B54
:1045F000042101436163606B012101436163FFF7A3
:1046000081F90600606B800700D40BE7606B074000
:1046100002988069C0003843606302980078800681
:1046200015D5606828400C2809D060682840082803
:1046300003D1680361680140814200D01DE7606BCF
:10464000C00304D50298006A012800D038E6029819
:10465000406A002836D061680D40082D00D12FE651
:104660008D490228206800D036E701402160FFF71D
:1046700049F906002068800100D5DAE6E06A0F21DA
:1046800088430299096B0143E162606883490140F4
:104690000298C06A08430299896A014361602068F0
:1046A0008021490401432160FFF72CF90600802591
:1046B000AD042068284005D1FFF724F9801B0228AB
:1046C000F7D927E60020FEBD89130000F2B582B0BD
:1046D0000127FF430124734909682140029A91424E
:1046E0000AD270490A683A40029B13430B6009687A
:1046F0002140029A914222D10090694D02200099F6
:104700000968014006D06968F0229143009A9268D6
:104710000A436A6000990968214066D00099496897
:10472000012902D12868800308E0022902D1286803
:10473000800103E0032903D1686BC00303D464E064
:104740002A68104061D06868032290430143696081
:10475000FFF7D8F8060000984068534901910128F6
:104760000CD168680C21014004293ED0FFF7CAF83B
:10477000801B01998842F4D30320FEBD02280BD18F
:1047800068680C21014008292FD0FFF7BBF8801B77
:1047900001998842F4D3EFE70191032837D1686883
:1047A0000C2101400C2920D0FFF7ACF8801B0199A7
:1047B0008842F4D3E0E700980078400706D568689F
:1047C0003A4901400098C0680843686000F02EF83C
:1047D00037496A681206120F895CC840354908607B
:1047E000002000F074F90020FEBD2E4802990268F6
:1047F00022409142DFD201680F40029939430160A3
:104800000068044002988442D5D00120FEBD68684B
:104810000C210140E9D0FFF775F8801B019988420F
:10482000F5D3A9E700700040FFFFFFEFF0B5224984
:104830000B682248224A0C241C40082C02D00C2C65
:104840001AD0F0BD0F2500BF1FA49E0C2E40A45D02
:1048500021A6896A0D40715DC0256D022E001E40A3
:1048600080277F02BE4203D02B40AB4200D1100014
:10487000FEF788FB6043F0BD1000F0BD0D480068F6
:1048800070470C4800680F490B4A12685205520FD6
:10489000895CC84070470000FFFFFFFEFF7FC2FF3A
:1048A000001002400020024089130000FFF8FFFFC3
:1048B0007C590008280000200410024000127A00F1
:1048C000006CDC02345B00080203040506070809DB
:1048D0000A0B0C0D0E0F1010010203040506070849
:1048E000090A0B0C0D0E0F10FEB50700464C386878
:1048F000C00359D500200090802040052168014068
:1049000008D1216801432160216808400090009887
:10491000012000903D4E3068C00517D43068A10DCD
:1049200001433160FEF7EEFF05003068C0050DD48D
:10493000FEF7E8FF401B6528F7D30320FEBDFEF716
:10494000E1FF401B019988421FD3F6E7C020800099
:10495000616801402E4A1600002919D07A6810407B
:10496000814215D0606830406168802252020A435B
:1049700062606168274A0A4062606060C00707D5CC
:10498000FEF7C0FF24490191050060688007D6D575
:10499000606806407868304360600098002803D063
:1049A00020681E49014021603878C00705D560693C
:1049B00003218843B968014361613878800705D5D0
:1049C000606917490140F8680843606138788006DB
:1049D00005D56069102188433969014361613868F0
:1049E000800305D5606980218843B969014361610D
:1049F0003868400505D560694021884379690143DD
:104A000061610020FEBD00001C10024000700040EB
:104A1000FFFCFFFFFFFFFEFF89130000FFFFFFEF1A
:104A2000FFFFFCFF18B5C20018231340FF249C4071
:104A3000E2438907090E9940030007D51D4B000783
:104A4000000F083880088000181803E01A489B08F7
:104A50009B00C01803681A401143016011BD80B566
:104A6000FFF7E0FF01BD0121C006C00E81401348E1
:104A70000160704710B5401E80214904884201D36F
:104A8000012010BD0E4C606003210020C043FFF7E1
:104A9000C9FF0020A0600721216010BD084904283B
:104AA000086803D1042202430A607047042290433D
:104AB000086070471CED00E000E400E000E100E069
:104AC00010E000E080B500F001F801BD704710B5BE
:104AD0000400FFF7D3FEFA218900FEF753FAFFF72F
:104AE000C9FF002221000020C043FFF7B8FF0020CB
:104AF00010BDFEE780B5012011490A6802430A6033
:104B00000A68104000900098802040054A680243DF
:104B10004A60496808400090009800220021042063
:104B2000C043FFF79CFF002200210120C043FFF794
:104B300096FF002200210020C043FFF790FF01BD37
:104B400018100240F8B5050000D183E000243D2094
:104B5000285C002804D13C216C542800FFF7E4F8BD
:104B600002203D21685428680168022291430160B7
:104B700028680127016839430160FEF7C3FE06007B
:104B800028684168394067D1FEF7BCFE801B0B28BE
:104B9000F6D300F06CF9802291430160E8690128A6
:104BA0002868016803D140220A43026002E04022E3
:104BB00091430160286A01282868016803D12022F6
:104BC0000A43026002E0202291430160686A0128E2
:104BD0002868016803D110220A43026002E0102213
:104BE00091430160A86A01282868016803D108225E
:104BF0000A43026002E0082291430160E86A01284A
:104C00002868016803D104220A43026002E00422FA
:104C100091430160A868E96801432869084369690C
:104C200001436868401E08432968C8612868016814
:104C3000B9430160FEF766FE060028684168394006
:104C400015D0FEF75FFE801B0B28F6D3A1E70420EA
:104C50003D2168540120F2BD41683940F7D0A9696F
:104C60000129016897D180220A43026096E74068D3
:104C70003840ECD12C643D202F540020F2BDF8B513
:104C80000400226880200005430895681D4006D175
:104C90009568054003D19568ED0000D4D0E03C252F
:104CA000655D012D01D10220F2BD01253C26A555EF
:104CB0003D25655D222D04D0322D04D0622D04D017
:104CC00005E0422504E0522502E0722500E01225AD
:104CD0003D26A55595682B4001D0002605E0936838
:104CE000184001D0012600E002263001C0235B00FD
:104CF000D21812181368DD07ED0F1560226B2368B8
:104D0000C0256D005B191B189568002D1D6804D126
:104D100017687F05D2683A4307E0AC465568EF0054
:104D200095683D43D2682A4365462A431A600D00C0
:104D3000216B0A7C1207120F0A612168C2225200FD
:104D4000891809180A680F239A430A602168C22249
:104D50005200891809180A68236B1B6913430B60FA
:104D6000216BCA7D13068A7D12041A434B7D1B02F8
:104D70001343097D194322681218C4235B00D150E4
:104D8000216BCA7E13068A7E12041A434B7E1B02D5
:104D90001343097E194322681218C6235B00D150C1
:104DA0002168C022520089180818016801220A43AC
:104DB0000260FEF7A7FD07002168002E18D12348E6
:104DC0008968014081421AD00020C0438542F3D057
:104DD000002D04D0FEF796FDC01B8542ECD20320C7
:104DE0003D2160542068002E19D1816880221EE088
:104DF000012E0ED11648896801408142E4D13D2040
:104E0000205C422816D0522816D0722816D00120D5
:104E100027E01048896801408142D5D1EFE7012E93
:104E2000816802D18022120201E0802212040A432A
:104E3000826011E02220EBE73220E9E76220E7E719
:104E400004203D2160540120F2BD00000100000457
:104E5000000100080000011000203C2160540320E4
:104E6000F2BD3D21605400203C216054F2BD03207E
:104E70003D2168543C202C540320F2BDF8B50400B9
:104E800000252068C168C90606D54169090703D510
:104E90008025AD001021C16020680169C90608D5D0
:104EA0004169490605D529008025ED000D431021F3
:104EB000016120684169C90742D5654982680A4095
:104EC0008A4209D0B34982680A408A4204D0B24972
:104ED00082680A408A4233D18168890705D4816893
:104EE000890502D48168890321D541690122914352
:104EF00041613D20205C122804D120684169A74A05
:104F00000A4042613D20205C422807D0522803D04D
:104F1000722805D1622004E0322002E0222000E065
:104F200001203D216054200000F0CAFC03E028006D
:104F300080252D01054320688168994A0A438260D3
:104F4000206802264169314006D0C068800703D03E
:104F50000021200000F07EF820684169C90606D5CE
:104F60000069800703D00121200000F073F8206C55
:104F7000054325642068F201012183690B4008D0B4
:104F80004369134005D043691B0402D5236C0B43CE
:104F900023648369334008D043699B0505D5436981
:104FA0001B0402D5236C1E4326640423CD038669AB
:104FB0001E4008D04669760505D546692E4002D0C8
:104FC000266C1E4326648669702737402DD04669BB
:104FD00036052AD54669354027D0856970262E408A
:104FE000102E0AD0202E0BD0302E0CD0402E0DD0FB
:104FF000502E0ED0602E11D013E0226C08250AE04E
:10500000226C102507E0226C202504E0226C40254C
:1050100001E0226C80251543256402E0256C2A43BB
:10502000226482697025AA438261206C00280DD019
:1050300020684268134343603D2021542068416941
:10504000584A0A404261200000F03BFCF1BD0000DC
:105050000100000470B50A0001D1436B00E0836BCE
:105060000C010268D8256D005219125904252A40F6
:105070009A600568D8267600AD192D19002A2A688D
:1050800002D1520D1A6001E0D2085A60012205686F
:10509000AD192D596D081540DD6005682D19361DB7
:1050A000AD592D072D0F1D6105682D19AD592D0422
:1050B0002D0EDD61196205682D19361DAD591D755E
:1050C00005682D19AD592D0A5D7505682D19AD5965
:1050D0002D0C9D7505682D19AD592D0EDD750568D2
:1050E0002D19361DAD591D7605682D19AD592D0A9E
:1050F0005D7605682D19AD592D0C9D7605682C1926
:10510000A459240EDC76036820240D0006D1DD6846
:105110002C43DC6003685C690A2505E01D692C43AB
:105120001C6103685C695025AC435C613D23C35C32
:10513000222B03D03D23C35C322B04D103685C696E
:10514000164D25405D6100290CD13D21415C42296D
:1051500011D0622902D0722902D014E032210FE06E
:1051600052210DE03D21415C522904D0622904D036
:10517000722904D007E0122102E0222100E042213E
:105180003D22815401E03D21425400F09BFB002070
:1051900070BD00000001000800000110FF70FFFF5B
:1051A00019050100A470FFFF38B5040014D02500D4
:1051B00068356878002803D128702000FEF73AFE91
:1051C000242068702068016801229143016020005A
:1051D00000F015F9012801D1012032BD606A0028D4
:1051E00002D0200000F0ACF920684168374A0A403C
:1051F0004260206881682A2291438160FFE720682D
:10520000016801220A430260200000F0FDF932BD6E
:10521000FEB505002F005037787E202848D10E00BB
:105220000BD0140009D0A86880214901884206D11A
:105230002869002803D1F00701D50120FEBD387E82
:10524000012835D00193012038760020F861212013
:105250007876FEF757FB3C807C803400060005E042
:105260002088C005C00D29680885A41C78880028FE
:1052700020D07888401E788001980090330000226A
:105280008021280000F000FA00281DD1A8688021A4
:105290004901884202D128690028E1D02078296894
:1052A0000885641CE2E72020787600203876FEBD71
:1052B0000220FEBD28000199330000910022402108
:1052C00000F0E2F90028EED00320FEBDFFB7FFFF9B
:1052D00070B504002368D869196805072D0F07D138
:1052E000820605D58A0603D5200000F078FA70BD45
:1052F0009A68002D63D001252A4203D190267600BA
:105300000E405CD0C60705D5CE0503D51D62E36E01
:105310001D43E56604230225860706D5D60704D576
:1053200026683562E66E1E43E666460706D5D60752
:1053300004D526683362E36E1D43E566082503073E
:1053400008D58B0601D4D20704D522681562E26E17
:105350002A43E266E26E002A50D0800604D5880611
:1053600002D5200000F03BFA4026E06E054003D154
:105370002068806830401CD0200000F0B9F9206817
:1053800081680E4011D08168402291438160606E37
:1053900000280AD069494163606E00F095FA002840
:1053A0002CD0606E416B884770BD200000F0B0FAD1
:1053B00070BD200000F0ACFA0020E06670BDC502B0
:1053C0000DD552020BD580204003186220006930B1
:1053D000202101704170200000F09CFA70BD02068F
:1053E00005D50A0603D5200000F0B8F970BD4006C7
:1053F00004D5480602D5200000F0E4F970BDF8B5E8
:10540000040010220020002526683168994F0F40C3
:10541000A168394327690F4361693943E7690F433D
:105420003760776894493940E7680F437760B76819
:1054300092493940A7690F43216A3943B1609049C5
:10544000904FBE4208D109688907890F22D00229EE
:1054500018D015D3032910E0A44FBE4214D10F6811
:10546000C0218902394015D01703B94208D057032B
:10547000B94207D0C027BF02B9420CD102220AE0CC
:10548000042208E0082206E0A0498E4202D0A0498A
:105490008E4200D1002280231B02E7699F4225D162
:1054A000002A06D0022A07D0042A09D0082A0DD0E3
:1054B00013E0FFF7E6F905E061684808954A08E05F
:1054C000FFF7B4F9616840004A0802E061684808E3
:1054D0005A008018FDF756FD00E001258E49014075
:1054E0000004400C4007400F084318E0002A06D093
:1054F000022A07D0042A0AD0082A13D01AE0FFF79C
:10550000C0F906E061684808844A80180DE0FFF79A
:105510008DF961684A088018FDF734FD80B2216872
:10552000C86008E061684808C018FDF72BFD80B22C
:10553000F06000E001252800F2BD00004957000896
:105540002421415CC90706D501684A68744B1340A1
:10555000826A1A434A602421415C890706D50168A2
:105560004A68704B1340C26A1A434A602421415C66
:10557000490706D501684A686B4B1340026B1A4312
:105580004A602421415C090706D501684A68674BD7
:105590001340426B1A434A602421415CC90606D578
:1055A00001688A68624B1340826B1A438A60242127
:1055B000415C890606D501688A685E4B1340C26B60
:1055C0001A438A602421415C490611D501684A6862
:1055D000594B1340026C1A434A60026C80235B03F0
:1055E0009A4205D14A68554B1340426C1A434A60AF
:1055F0002421415C090606D501684A68504B1340D6
:10560000806C184348607047F8B504000025683086
:105610004560FEF777F9070020681A49884202D0F2
:10562000324988421DD1474E0068000709D50096CF
:105630003B00002280218903200000F025F800288B
:105640000DD12068006840070BD500963B00002272
:105650008021C903200000F017F8002801D00320A2
:10566000F2BD210068312020487088700D70002044
:10567000F2BD0000F369FFEFFFCFFFFFFFF4FFFF74
:105680003010024000380140FEB5089E0092002410
:1056900005000F0001932868C0693840B84201D165
:1056A000012000E00020009988421DD10020C04365
:1056B0008642F0D0002E05D0FEF724F90199401A59
:1056C0008642E8D228680168614A0A400260286878
:1056D0008168012291438160280068302021417057
:1056E000817004700320FEBD0020FEBD0044004018
:1056F00001680A68574B13400B6001688A680123F0
:105700009A438A6020216A228154704700480040F1
:10571000004C00400024F400F0FF000000127A006A
:10572000FFFFFDFFFFFFFEFFFFFFFBFFFF7FFFFF10
:10573000FFEFFFFFFFDFFFFFFFFFEFFFFFFF9FFF19
:10574000FFFFF7FFFFFFFF0180B5406A0100523104
:1057500000220A810A8000F0DBF801BD010052310D
:10576000CA7D212A2CD15222825A002A0AD10168EC
:105770000A6880239A430A600068016840220A434D
:1057800002601BE0826880235B019A420CD10269AF
:10579000002A09D1C26C1288D205D20D03681A857D
:1057A000C26C921CC26405E0C26C531CC3641278C4
:1057B00003681A855222805A401E088000207047D4
:1057C0000220704780B501680A6840239A430A6046
:1057D00020216922815400F09EF8002002BD38B5D6
:1057E00001005A314A8803680C7C222C2AD19B8CF8
:1057F000846880256D01AC4209D10469002C06D172
:105800001A40436D1A80426D921C426504E0446D5B
:10581000651C45651A4022705A22825A521E0A801F
:1058200012040DD1026813680A4C1C40146002680F
:1058300093680124A343936020220A7400F06CF85B
:10584000002032BD9869082101439961022032BDD0
:105850005FFEFFFFDFFEFFFF1CB584B00024039452
:10586000002902D10194029402E00190491E0291A4
:10587000009405AB01A9074878441830FBF7E4FF12
:105880000199002900D00C70002800D4039806B0BC
:1058900010BD00BF3B02000080B5FBF7A7FC01BDB7
:1058A00031B5FEF72FF80400009D0020C04385426B
:1058B00000D06D1CFEF726F8001BA842FAD331BDBC
:1058C000704770477047FEE770B500220024012141
:1058D0002123C35C022B03D004228263012415E040
:1058E00003681D680E26B5431D6003681D688D435F
:1058F0001D60036C01259D40C36B5D602123C15475
:1059000020214254416B002900D08847200070BDFF
:105910007047FEE7704770477047FEE7114801681F
:1059200001220A43026041680F4A0A40426001684E
:105930000E4A0A40026001680D4A0A40026041684E
:105940000C4A0A404260C16A0F229143C162016B56
:10595000094A0A400263416B0122914341630021DD
:1059600081607047001002400CB8FF08FFFFF6FE90
:10597000FFFFFBFFFFFFC0FF2CFEFCFF000000004D
:105980000000000001020304060708097047FEE753
:105990007047704780B500F017F8FFF793F801BD26
:1059A00080B580200001FEF735F901BD80B50448BF
:1059B000FFF78EFC01BD80B50248FFF75FFA01BD1D
:1059C00084020020C003002002480168491C0160D5
:1059D000704700BF5C04002070B40123002413E072
:1059E0000168001D194202D04D466D1E49190C6018
:1059F000091D121F042AFAD20D00960701D50C804A
:105A0000AD1C1A4000D02C700268001D002AE7D19E
:105A100070BC704730B501684118446862088A1844
:105A20008368E4070DD54C461B190AE00C7864B274
:105A3000491C0D78491C1D705B1C002C05D5641C8D
:105A4000F9D19142F2D10C3030BD641EF1D5F8E7A6
:105A500010B5074979441831064C7C44163404E0EB
:105A6000081D0A68891888470100A142F8D110BDB5
:105A7000080000002400000061FFFFFFC0030000D9
:105A8000AC000020000000008DFFFFFFD4000000EC
:105A9000D00000000000002000F00DF8002801D028
:105AA000FFF7D6FF00BF00BF002000BF00BFFDF71B
:105AB0002FFF00F002F80120704780B500F002F8D7
:105AC00001BDFEE707463846FBF7B4FEFBE78268F8
:105AD000521C82604268002A06D00268531C036090
