:020000040800F2
:1000000090040020651800085517000857170008CD
:10001000591700085B1700085D1700080000000072
:100020000000000000000000000000005F17000852
:10003000611700080000000063170008651700083A
:10004000991800089D180008A1180008A5180008B4
:10005000A9180008AD180008B1180008B518000864
:10006000B9180008BD180008C1180008C518000814
:10007000C9180008CD180008D1180008D5180008C4
:10008000D9180008DD180008E1180008E518000874
:10009000E9180008ED180008F1180008F518000824
:1000A000F9180008FD1800080119000805190008D2
:1000B00069170008091900080D190008111900082E
:1000C00015190008191900081D1900082119000840
:1000D000251900086F170008291900082D190008B4
:1000E0007D17000831190008351900082DE9F8437B
:1000F0000646DFF8B0543078C1074AD5686800F08A
:100100000C00042807D0686800F00C0008280BD108
:100110006868C10308D5296888033AD57068002843
:1001200040F0C080012069E17068B0F5803F0FD0D9
:1001300038B9296821F480312960286820F48020AA
:1001400009E0B0F5A02F296807D141F4802129608A
:10015000286840F48030286006E021F4803129606E
:100160002A6822F480222A60706868B100F03AFAA6
:1001700004462968880300F1958000F033FA001BDB
:100180006528F6D3032039E100F02CFA04462868EC
:10019000810340F1878000F025FA001B6528F6D323
:1001A000F0E700F01FFA001B022840F2AA80E9E7FE
:1001B000306970B10121396000F014FA04462868F2
:1001C000810700F1DC8000F00DFA001B0228F6D94F
:1001D000D8E7386000F006FA04462868810765D53C
:1001E00000F000FA001B0228F7D9CBE7086000F006
:1001F000F9F90446686A810777D500F0F3F9001B26
:100200000228F7D9BEE708B9286A09E00528286A54
:1002100006D140F004002862286A40F0010005E0A1
:10022000400840002862286A20F00400286241F259
:100230008938F06868B100F0D5F98146286A8107ED
:1002400000F1AA8000F0CEF9A0EB09004045F5D3FB
:1002500098E700F0C7F98146286A810740F19C8041
:1002600000F0C0F9A0EB09004045F5D38AE700F0A3
:10027000B9F9001B022840F2A28083E700F0B2F92E
:10028000001B022840F2B5807CE700F0B9F8044674
:100290002868810140F1B18000F0A4F9001B022818
:1002A000F6D96FE73078DFF8087381071BD56868E7
:1002B00010F00C0F09D0686800F00C0008287FF4DB
:1002C00077AF6868C1033FF573AF2968880703D526
:1002D000306901287FF426AF2968706921F0F801A0
:1002E00041EAC0012960317808071DD5B069DFF8FF
:1002F000C41200283FF47AAF01220A6000F072F9BC
:100300000446686A81077FF54CAFDFF89C120868E5
:10031000C0084FF47A72B0FBF2F2009200BF00986E
:10032000411E00280091F9D13078410739D5E8699C
:100330000024C10009D4E86940F08050E86101243C
:10034000E86900F0805000900098DFF86C82D8F8DF
:100350000010C8051BD4D8F8000040F48070C8F81D
:10036000000000F03FF98146D8F80010C8050ED40F
:1003700000F038F9A0EB09006528F5D302E72868FA
:10038000716920F0F80040EAC1002860ABE7F0682E
:1003900001287FF438AF3FE71CB1E86920F08050B6
:1003A000E861F06948B3696801F00C0108293FF47D
:1003B000B9AE02287FF469AF00F022F8044628683D
:1003C00081013FF554AF306AB0F5803F05D16968CF
:1003D000B06821F40031014369606968306A21F432
:1003E00074110143706A01436960012000F009F84B
:1003F0000446286881017FF541AF0020BDE8F28303
:100400000020386600F0EEB82DE9F8436B4F054642
:100410003868894600F00700484502D200F087F8A6
:1004200079D128685F4C810712D5400703D56068F1
:1004300040F4E06060602978080703D5606840F404
:10044000605060606168A86821F0F001014361605C
:100450002878C10757D56868012802D121688A0326
:1004600003E0022803D121688A0103D453E0226803
:10047000910750D56168890840EA8100606041F2C7
:10048000893800F0AFF80646686801280BD160682B
:1004900000F00C00042836D000F0A4F8801B404582
:1004A000F5D303202DE0022837D1606800F00C005E
:1004B000082828D000F096F8801B4045F5D3F0E7D7
:1004C0002878410705D56168E86821F4E0610143B7
:1004D00061602878010706D56068296920F46050BA
:1004E00040EAC100606000F02DF862683449C2F350
:1004F0000312895C2C4AC8401060002000F078F894
:100500000020BDE8F283386800F007008145D7D2AB
:1005100000F00DF8D4D00120F3E7606810F00C0F64
:10052000F1D000F05FF8801B4045F6D3B9E7396899
:10053000C90849EAC1013960386800F00700484538
:10054000704700001F4919480A6802F00C03082B85
:1005500000D0704710B500BF1DA4C2F38343D2037F
:10056000E35C09D5096800BF1DA2C1F340415843AF
:10057000515CB0FBF1F010BD18461349484310BD63
:100580000948104A006813681049C3F3022206E0C4
:1005900005480C4A006813680C49C3F3C222895C01
:1005A000C8407047001002400C00002000127A0082
:1005B000000042428004424200700040002002409D
:1005C000041700080410024000093D0090180008BC
:1005D00002030405060708090A0B0C0D0E0F101084
:1005E0000102000001484068704700BF0000002081
:1005F00038B50D4D0D4A297804464FF47A70B0FB9A
:10060000F1F11068B0FBF1F000F055F850B9102C82
:1006100008D2002221464FF0FF3000F025F8AC60F0
:10062000002032BD012032BD000000200C0000205F
:100630000901020081B006D5294A00F00F001044DC
:1006400000F8041C01E0274B195401B07047264AFA
:1006500013684FF6FF0100020B4000F4E0601843FE
:10066000224908431060704738B51F4B1C68C4F31B
:100670000223C3F10704052C28BF04241D1D072DE8
:1006800034BF0023DB1E012505FA04F4641E21405B
:10069000994005FA03F35B1E1A401143BDE834404C
:1006A000C6E7012200F01F01114BFFE78A40400915
:1006B00043F82020704710B5401EB0F1807F01D371
:1006C000012010BD0B4C60600F214FF0FF30FFF791
:1006D000AFFF0022A26007202060002010BD0000B4
:1006E00018ED00E000E400E00CED00E00000FA0589
:1006F00000E100E010E000E038B5040001D1012085
:1007000032BD00F022F808B900F023F800F013F829
:1007100000F024F8FFE7416100F001F832BD2068E5
:10072000C16841F40051C1600020686020206870F9
:10073000A87000207047242068702068C16821F4E8
:100740000051C160204600F0ACB904F1380568786A
:10075000704700212970204600F030BA20680169F6
:1007600021F4904101612068416921F02A0170471C
:100770002DE9F843054605F138070C46787820281E
:10078000164698463CD1002C14BF002E012038D0CC
:100790003878012834D00121397021200021796076
:1007A0007870FFF71FFFAE848146EE8403E029686E
:1007B00014F8010B4860E88C28B3E98C481EE884E3
:1007C0004B46A868CDF80080B0F5805F0DD100F0F1
:1007D00024F870B920882968C0F3080048602869A7
:1007E000002814BF641CA41CE5E700F016F80028DC
:1007F000DDD0032005E0202078700020387000E074
:100800000220BDE8F283CDF800804B460022402153
:1008100000F005F80028EED0EBE700228021284602
:10082000AEE0416921F040014161606B704738B52D
:10083000044625682968EA686B6911F00F0007D142
:1008400088065DD590065BD52046BDE83240DDE0E8
:10085000D80702D412F4907F52D0C80705D5D0052E
:1008600003D5E06B40F00100E063480705D5D807E9
:1008700003D5E06B40F00200E063880705D5D80798
:1008800003D5E06B40F00400E063080705D5D80706
:1008900003D5E06B40F00800E063E06B00286ED009
:1008A000890604D5900644BF204600F0AFF82068C2
:1008B0004069E16B0A0701D440061BD5204600F0D1
:1008C00091F8206841694A060FD5FFF7AAFF60B189
:1008D0000FF22D114163606B00F0B6F900284ED085
:1008E000606B416BBDE8344008472046BDE83240AC
:1008F00000F006BA204600F003FA0020E06331BDA4
:1009000008062CD510062AD594F83900212836D1AE
:10091000A168206AB1F5805F0DD10188C1F308019B
:100920006960206918B9216A881C206207E0206A82
:10093000411C216203E0411C216200786860E08C68
:10094000401EE08480B2D0B92068C16821F08001E7
:10095000C1602068C16841F04001C16031BD4806F6
:100960000DD550060BD5E86820F04000E860202146
:1009700084F839102046BDE8324000F0C2B931BDDC
:100980002DE9F041069C05460E4690461F46286814
:1009900001683140B1420CBF01200020404517D111
:1009A00014F1010FF3D024B1FFF71CFEC01B8442E9
:1009B000EDD22868C16821F4D07100F00CF805F17F
:1009C000380020214170817000210170032000E077
:1009D0000020BDE8F081C1602868416949084900EC
:1009E000416170470168CA6822F49072CA60016868
:1009F0004A69520852004A61202180F83A10704733
:100A0000406A0021C185C18400F07AB980B590F8B0
:100A10003A10222943D18268B2F5805F14D1826AEC
:100A2000016941B903685968C1F308011180826AFC
:100A3000911C816218E001684B6803F0FF0313808A
:100A4000816A4A1C82620FE001690029816A04D12F
:100A50004A1C82620268536805E04A1C826202688E
:100A6000536803F07F030B70C18D491EC18589B2A5
:100A700099B90168CA6822F02002CA600168CA6890
:100A800022F48072CA6001684A69520852004A61C1
:100A9000202180F83A1000F035F9002002BD022034
:100AA00002BD2DE9F0470446642521680A69E06823
:100AB00022F4405202430A611926CA6831480240B2
:100AC000A06802432069024360690243CA604A6920
:100AD000A06922F4407202432B484A6181420ED140
:100AE000FFF756FD0746FFF753FD8046FFF750FD21
:100AF0008146FFF74DFD8246FFF74AFD0DE0FFF707
:100B00003FFD0746FFF73CFD8046FFF739FD814674
:100B1000FFF736FD8246FFF733FD06FB09F96168F2
:100B200089007743B7FBF1F206FB08F7B7FBF1F357
:100B3000B9FBF1F7B7FBF5F705FB17331B013233B0
:100B4000B3FBF5F3B2FBF5F203F0F00303EB021392
:100B500006FB0AF74643B7FBF1F2B6FBF1F064215E
:100B6000B0FBF1F005FB10252D0132356420B5FBFB
:100B7000F0F0216800F00F00C3188B60BDE8F0872B
:100B800000000000F3E9FFFF0038014080B52A486B
:100B90002A4901604FF4E131416000218160C16068
:100BA00001610C21416100218161C161FFF7A4FD58
:100BB00018B1BDE8014000F0E5B801BD18B585B039
:100BC000044601A8102100F0DFF821681B4A914279
:100BD00030D11B481B4C026842F480420260022262
:100BE000016801F4804100910099016841F004011D
:100BF00001604FF40071006800F00400009000985C
:100C0000019103200490029201A9204600F0C0F84F
:100C10004FF480600021019002910391204601A9C8
:100C200000F0B6F8002202212520FFF71DFD252047
:100C3000FFF737FD06B010BD50000020003801401E
:100C4000181002400008014038B590F82120002417
:100C5000022A00F1340103D00420486001243EE060
:100C60000268136823F00E0313600268DFF8743023
:100C700015686D086D00156002689A4208BF012270
:100C800022D0DFF864309A4208BF10221CD0DFF86F
:100C90005C309A4208BF4FF4807215D0DFF85030B4
:100CA0009A4208BF4FF480520ED0DFF848309A4283
:100CB00008BF4FF4803207D0DFF83C309A420CBFB7
:100CC0004FF480124FF08072DFF830301A6001224A
:100CD00080F8212080F82040096801B1884720462B
:100CE00032BD0000080002401C00024030000240FB
:100CF00044000240580002406C00024004000240E0
:100D0000704770477047000080B500F033F900F07D
:100D10000DF800F041F900F099F9034800F073FA7A
:100D2000FFF734FFFEE700001000002000B58FB091
:100D300005A8282100F028F86846142100F024F8BE
:100D40000120059000214FF4803006900D9007910E
:100D50004FF4E010012202210E9009920C9105A897
:100D6000FFF7C4F90F2002210090019100204FF4F9
:100D7000806102900391049002216846FFF744FBD2
:100D80000FB000BD70470000002200F0D7BB00008C
:100D90002DE9F84F83460F46002080466649674A92
:100DA000674B4FF00F094FF0010A3C680AFA08F64A
:100DB00006EA040EB64540F0A4807C683CB3012CE2
:100DC0001AD0022C1DD0032C2ED0112C16D0122C90
:100DD0001AD05C4DAC421CBF5B4DAC4217D05B4D92
:100DE000AC421CBF5A4DAC4211D05A4DAC421CBF54
:100DF000594DAC420BD018E0F86816E0F868001DB9
:100E000013E0F868083010E0F8680C300DE0B868BE
:100E100008B9042009E0012819BF0820CBF81460A4
:100E20000820CBF8106000E00020BEF5807F03D2E0
:100E3000DC464FEA880404E0A8F108040BF1040C36
:100E4000A400DCF8005009FA04F6B54300FA04F4F3
:100E50002C43CCF800407C68E40052D51C6844F078
:100E600001041C604FEA980C1D6805F0010500950F
:100E7000009C52F82C604FEA880404F00C0409FA34
:100E800004F526EA0505354EB34508BF00260ED009
:100E9000334EB34508BF012609D0324EB34508BFD3
:100EA000022604D0304EB3450CBF0326042606FAB2
:100EB00004F42C4342F82C406FEA0E067C68E503EC
:100EC00004D50D684EEA05050D6002E00C6834405B
:100ED0000C607C68A5034C684CBF4EEA04043440A7
:100EE0004C607C68E5028C684CBF4EEA04043440D8
:100EF0008C607C68A502CC684CBF4EEA0404344088
:100F0000CC6008F10108B8F10F0F7FF64EAFBDE8D5
:100F1000F18F81B002B90904016101B07047C26864
:100F20005140C1607047114A136803421CBF1060F2
:100F300000F01EB8704700000004014008000140A6
:100F400018100240000011100000121000002110C3
:100F50000000221000003110000032100008014093
:100F6000000C014000100140001401401404014035
:100F70007047000080B50748016841F0100101602A
:100F80000320FFF764FB0020FFF732FB00F0F0FACC
:100F9000002002BD0020024018B585B0684610212F
:100FA000FFF7F2FE2648046844F01004046001686C
:100FB000244C01F0100104910499016841F02001D2
:100FC0000160026802F0200204920499016841F075
:100FD00004010160026802F00402049201220499F3
:100FE000016841F0080101604FF40041006800F021
:100FF0000800049004982046FFF78BFF4FF4C04090
:101000000090012010490191029069462046FFF7A7
:10101000BFFE0121019102914FF400400221009096
:10102000039120466946FFF7B3FE002202212820E3
:10103000FFF71AFB2820FFF734FB06B010BD0000B5
:10104000181002400010014000002110D0B586B0F9
:1010500002A81021FFF798FE4FF0804051A4D4E978
:101060000067494C206041F61F4060600020A0608E
:1010700042F20F70E060002020618020CDE900671F
:10108000A061204600F0B2F808B1FFF77BFE4FF4F4
:101090008050029002A9204600F076F908B1FFF7CF
:1010A00071FE0020009001906946204600F084FA0D
:1010B00008B1FFF767FE06B0D0BD18B585B004468D
:1010C00001A81021FFF760FE2168B1F1804F3FD1E8
:1010D0002E48416841F001014160416801F0010181
:1010E00000910099016841F004010160026802F07A
:1010F0000402009202220099016841F00801016097
:101100004FF40041006800F008000090009820486B
:1011100001910292049201A9FFF73AFE08200221F0
:1011200001900291049101A91A48FFF731FE1A4873
:10113000016821F4407141F0E06141F48071016087
:10114000002201211C20FFF78FFA1C20FFF7A9FACB
:1011500006B010BD0068B0F1804F00D0704780B578
:1011600090B04FF400410D48FFF7D9FE4FEA0D0053
:101170000EA13E2200F046FA64233E22694608484A
:10118000FFF7F6FA11B000BD100000201810024061
:1011900000080140000C0140040001400010014023
:1011A000500000200000000000000000546865208E
:1011B0004C454420686173206265656E20666C69E9
:1011C0007070656420647572696E67203120736584
:1011D000636F6E642074696D656420696E746572F6
:1011E00072757074696F6E210A00000038B50400D2
:1011F00001D1012032BD00F01FF818B900F018F835
:10120000FFF75BFF0AE00068C16841F00101C160BF
:10121000026842F0010202600020704702206870FC
:10122000211D206800F01BF901206870002032BDEC
:10123000002129702046704704F13C05687870470A
:1012400010B50446206801698A0715D5C1688A0768
:1012500012D56FF00202026101212177806910F03E
:10126000030F204602D000F020FA03E000F01EFA3F
:1012700000F087F800202077206801694A0715D51B
:10128000C1684A0712D56FF004020261022121777A
:10129000806910F4407F204602D000F006FA03E097
:1012A00000F004FA00F06DF8002020772068016952
:1012B0000A0715D5C1680A0712D56FF00802026146
:1012C00004212177C06910F0030F204602D000F0FE
:1012D000ECF903E000F0EAF900F053F80020207781
:1012E00020680169CA0615D5C168CA0612D56FF013
:1012F0001002026108212177C06910F4407F204666
:1013000002D000F0D2F903E000F0D0F900F039F893
:101310000020207720680169CA0708D5C168CA077C
:1013200005D56FF0010202612046FFF713FF206828
:1013300001690A0608D5C1680A0605D56FF0800262
:101340000261204600F0B3F9206801694A0608D519
:10135000C1684A0605D56FF040020261204600F0E0
:10136000A7F9206801698A060AD5C1688A0607D5E7
:101370006FF0200202612046BDE8104000F099B9EC
:1013800010BD204600F096B938B500F05DF801D1E7
:10139000022032BD01222270022060702A68DFF82C
:1013A0001C019368034093600868002837D0102818
:1013B00037D0202837D0302837D040282BD050289D
:1013C0001ED0602820D070280BD0B0F5805F03D0ED
:1013D000B0F5005F0CD02CE028688168C908C9000E
:1013E0000CE000F028F82868816841F0770105E0FA
:1013F00000F021F82868816841F48041816018E09C
:1014000000F01EF8502111E0CA684968286800F011
:101410006EF860210AE000F013F8402106E0002198
:1014200004E0102102E0202100E03021286800F0D3
:1014300070F80FE00000CB684A688968286870E09F
:10144000CA684968286843E0054605F13C042078ED
:1014500001287047012060700020207032BD70B5F7
:10146000174E0368174C184DB04218BFB0F1804FAB
:1014700003D0A84218BFA04209D14A6823F07003E4
:101480001343B0421CBFB0F1804FA84201D0A0422C
:1014900003D1CA6823F4407313434A6923F08003DD
:1014A00013430360B0428A68C2620A68826202D152
:1014B0000969064A11600122426170BD8800FFFF80
:1014C000002C01400008004000040040302C014086
:1014D00010B5036A046A64086400046223F00A0316
:1014E000846924F0F00444EA0214846123E010B516
:1014F000036A23F0100303628369046A23F47043D0
:1015000043EA023324F0A004836144EA0114046234
:1015100010BD826822F07002114341F00701816022
:10152000704710B5846824F47F442143114341EA95
:101530000321816010BD1943016210BD00B500BFD9
:10154000130096469446103928BFA0E80C50FAD8EC
:101550005FEA417C28BF0CC048BF40F8042BC90794
:1015600028BF20F8022B48BF00F8012B00BD000067
:1015700080B50F48016841F001010160026802F086
:10158000010200920099416841F080514160406839
:1015900000F08050009000980520FFF758F80548AB
:1015A000016821F0E06141F00071016001BD00BF00
:1015B000181002400400014030B500F13C031A78D5
:1015C000012A01D1022030BD01241C7002225A7070
:1015D0000268546824F070045460046865680A68FE
:1015E000154365600268946824F080049460026882
:1015F0009468486804439460012058700020187073
:1016000030BD000062B38B0708D0521E11F8013BB9
:1016100000F8013B00F024808B07F6D1830740F0EF
:10162000208000BF103A07D330B4B1E83810103A28
:10163000A0E83810F9D230BC530724BFB1E8081035
:10164000A0E8081044BF51F8043B40F8043BD2071F
:1016500024BF31F8022B20F8022B44BF0B78037013
:101660007047121F17D35B0009D151F8043B20F8D3
:10167000023B1B0C121F20F8023BF6D20BE051F884
:10168000043B00F8013B1B0A20F8023B1B0C121F15
:1016900000F8013BF3D238BF121D521E24BF11F8CF
:1016A000013B00F8013BF8D870477047704770471E
:1016B00070477047704700000E49086840F001000D
:1016C00008604A680C4802404A600B680B480340B7
:1016D0000B60086820F4802008604FF41F004A68FF
:1016E00022F4FE024A6088604FF0006004490860FE
:1016F00070470000001002400000FFF8FFFFF6FEF8
:1017000008ED00E0000000000000000001020304FA
:101710000607080919E050F8042BD30744BFA9F1C4
:1017200001039A18091F0023042942F8043BF9D247
:101730005FEA817C134604D54FF0000CA2F800C08C
:101740009B1CC90744BF0021197050F8041B0029D5
:10175000E1D170477047FEE7FEE7FEE7FEE770471E
:101760007047704700F016B80248FFF769BD02489D
:10177000FFF75DB8100000205000002080B54FF446
:101780000050FFF7D0FBBDE802404FF48040FFF768
:10179000CABB000002494A68087882184A6070474C
:1017A0000000002010B450F8041B79B102684368AF
:1017B00002440830DC0744BFA9F10104E31852F8E1
:1017C000044B43F8044B091FF9D1ECE710BC7047F8
:1017D00010B5074979441831064C7C44163404E0AE
:1017E0000A68081D114488470146A142F8D110BD7E
:1017F00008000000280000001DFFFFFF800000001F
:1018000010000020000000009DFFFFFF10000000FE
:1018100064000000000000200000000000F00DF84F
:10182000002801D0FFF7D4FFAFF300800020AFF312
:101830000080FFF769FA00F002F80120704700F01D
:1018400001B800000746384600F002F8FBE7000048
:1018500080B5AFF30080024A11001820ABBEFBE751
:10186000260002000148804701480047B9160008D9
:1018700085180008010000000000000010000000B2
:1018800000A24A04AFF30080AFF30080FFF7C6FF69
:101890000000000001020304FFF7FEBFFFF7FEBFD8
:1018A000FFF7FEBFFFF7FEBFFFF7FEBFFFF7FEBF6C
:1018B000FFF7FEBFFFF7FEBFFFF7FEBFFFF7FEBF5C
:1018C000FFF7FEBFFFF7FEBFFFF7FEBFFFF7FEBF4C
:1018D000FFF7FEBFFFF7FEBFFFF7FEBFFFF7FEBF3C
:1018E000FFF7FEBFFFF7FEBFFFF7FEBFFFF7FEBF2C
:1018F000FFF7FEBFFFF7FEBFFFF7FEBFFFF7FEBF1C
:10190000FFF7FEBFFFF7FEBFFFF7FEBFFFF7FEBF0B
:10191000FFF7FEBFFFF7FEBFFFF7FEBFFFF7FEBFFB
:10192000FFF7FEBFFFF7FEBFFFF7FEBFFFF7FEBFEB
:08193000FFF7FEBFFFF7FEBF49
:040000050800188552
:00000001FF
